{
	".deps/MyContract1.sol": {
		"MyContract1": {
			"abi": [
				{
					"inputs": [
						{
							"internalType": "string",
							"name": "_value",
							"type": "string"
						}
					],
					"name": "addValue",
					"outputs": [],
					"stateMutability": "nonpayable",
					"type": "function"
				},
				{
					"inputs": [
						{
							"internalType": "uint256",
							"name": "",
							"type": "uint256"
						},
						{
							"internalType": "uint256",
							"name": "",
							"type": "uint256"
						}
					],
					"name": "array2d",
					"outputs": [
						{
							"internalType": "uint256",
							"name": "",
							"type": "uint256"
						}
					],
					"stateMutability": "view",
					"type": "function"
				},
				{
					"inputs": [
						{
							"internalType": "uint256",
							"name": "",
							"type": "uint256"
						}
					],
					"name": "stringArray",
					"outputs": [
						{
							"internalType": "string",
							"name": "",
							"type": "string"
						}
					],
					"stateMutability": "view",
					"type": "function"
				},
				{
					"inputs": [
						{
							"internalType": "uint256",
							"name": "",
							"type": "uint256"
						}
					],
					"name": "uintArray",
					"outputs": [
						{
							"internalType": "uint256",
							"name": "",
							"type": "uint256"
						}
					],
					"stateMutability": "view",
					"type": "function"
				},
				{
					"inputs": [
						{
							"internalType": "uint256",
							"name": "",
							"type": "uint256"
						}
					],
					"name": "value",
					"outputs": [
						{
							"internalType": "string",
							"name": "",
							"type": "string"
						}
					],
					"stateMutability": "view",
					"type": "function"
				},
				{
					"inputs": [],
					"name": "valueCount",
					"outputs": [
						{
							"internalType": "uint256",
							"name": "",
							"type": "uint256"
						}
					],
					"stateMutability": "view",
					"type": "function"
				}
			],
			"devdoc": {
				"kind": "dev",
				"methods": {},
				"version": 1
			},
			"evm": {
				"assembly": "    /* \".deps/MyContract1.sol\":77:470  contract MyContract1{... */\n  mstore(0x40, 0x80)\n    /* \".deps/MyContract1.sol\":104:136  uint[] public uintArray =[1,2,3] */\n  mload(0x40)\n  dup1\n  0x60\n  add\n  0x40\n  mstore\n  dup1\n    /* \".deps/MyContract1.sol\":130:131  1 */\n  0x01\n    /* \".deps/MyContract1.sol\":104:136  uint[] public uintArray =[1,2,3] */\n  0xff\n  and\n  dup2\n  mstore\n  0x20\n  add\n    /* \".deps/MyContract1.sol\":132:133  2 */\n  0x02\n    /* \".deps/MyContract1.sol\":104:136  uint[] public uintArray =[1,2,3] */\n  0xff\n  and\n  dup2\n  mstore\n  0x20\n  add\n    /* \".deps/MyContract1.sol\":134:135  3 */\n  0x03\n    /* \".deps/MyContract1.sol\":104:136  uint[] public uintArray =[1,2,3] */\n  0xff\n  and\n  dup2\n  mstore\n  pop\n  0x00\n  swap1\n  0x03\n  tag_1\n  swap3\n  swap2\n  swap1\n  tag_2\n  jump\t// in\ntag_1:\n  pop\n    /* \".deps/MyContract1.sol\":143:190  string[] public stringArray =[\"apple\",\"banane\"] */\n  mload(0x40)\n  dup1\n  0x40\n  add\n  0x40\n  mstore\n  dup1\n  mload(0x40)\n  dup1\n  0x40\n  add\n  0x40\n  mstore\n  dup1\n  0x05\n  dup2\n  mstore\n  0x20\n  add\n  0x6170706c65000000000000000000000000000000000000000000000000000000\n  dup2\n  mstore\n  pop\n  dup2\n  mstore\n  0x20\n  add\n  mload(0x40)\n  dup1\n  0x40\n  add\n  0x40\n  mstore\n  dup1\n  0x06\n  dup2\n  mstore\n  0x20\n  add\n  0x62616e616e650000000000000000000000000000000000000000000000000000\n  dup2\n  mstore\n  pop\n  dup2\n  mstore\n  pop\n  0x01\n  swap1\n  0x02\n  tag_3\n  swap3\n  swap2\n  swap1\n  tag_4\n  jump\t// in\ntag_3:\n  pop\n    /* \".deps/MyContract1.sol\":411:456  uint256[][] public array2d =[[1,2,3],[2,3,4]] */\n  mload(0x40)\n  dup1\n  0x40\n  add\n  0x40\n  mstore\n  dup1\n  mload(0x40)\n  dup1\n  0x60\n  add\n  0x40\n  mstore\n  dup1\n    /* \".deps/MyContract1.sol\":441:442  1 */\n  0x01\n    /* \".deps/MyContract1.sol\":411:456  uint256[][] public array2d =[[1,2,3],[2,3,4]] */\n  0xff\n  and\n  dup2\n  mstore\n  0x20\n  add\n    /* \".deps/MyContract1.sol\":443:444  2 */\n  0x02\n    /* \".deps/MyContract1.sol\":411:456  uint256[][] public array2d =[[1,2,3],[2,3,4]] */\n  0xff\n  and\n  dup2\n  mstore\n  0x20\n  add\n    /* \".deps/MyContract1.sol\":445:446  3 */\n  0x03\n    /* \".deps/MyContract1.sol\":411:456  uint256[][] public array2d =[[1,2,3],[2,3,4]] */\n  0xff\n  and\n  dup2\n  mstore\n  pop\n  dup2\n  mstore\n  0x20\n  add\n  mload(0x40)\n  dup1\n  0x60\n  add\n  0x40\n  mstore\n  dup1\n    /* \".deps/MyContract1.sol\":449:450  2 */\n  0x02\n    /* \".deps/MyContract1.sol\":411:456  uint256[][] public array2d =[[1,2,3],[2,3,4]] */\n  0xff\n  and\n  dup2\n  mstore\n  0x20\n  add\n    /* \".deps/MyContract1.sol\":451:452  3 */\n  0x03\n    /* \".deps/MyContract1.sol\":411:456  uint256[][] public array2d =[[1,2,3],[2,3,4]] */\n  0xff\n  and\n  dup2\n  mstore\n  0x20\n  add\n    /* \".deps/MyContract1.sol\":453:454  4 */\n  0x04\n    /* \".deps/MyContract1.sol\":411:456  uint256[][] public array2d =[[1,2,3],[2,3,4]] */\n  0xff\n  and\n  dup2\n  mstore\n  pop\n  dup2\n  mstore\n  pop\n  0x03\n  swap1\n  0x02\n  tag_5\n  swap3\n  swap2\n  swap1\n  tag_6\n  jump\t// in\ntag_5:\n  pop\n    /* \".deps/MyContract1.sol\":77:470  contract MyContract1{... */\n  callvalue\n  dup1\n  iszero\n  tag_7\n  jumpi\n  revert(0x00, 0x00)\ntag_7:\n  pop\n  jump(tag_8)\ntag_2:\n  dup3\n  dup1\n  sload\n  dup3\n  dup3\n  sstore\n  swap1\n  0x00\n  mstore\n  keccak256(0x00, 0x20)\n  swap1\n  dup2\n  add\n  swap3\n  dup3\n  iszero\n  tag_9\n  jumpi\n  swap2\n  0x20\n  mul\n  dup3\n  add\ntag_10:\n  dup3\n  dup2\n  gt\n  iszero\n  tag_11\n  jumpi\n  dup3\n  mload\n  dup3\n  swap1\n  0xff\n  and\n  swap1\n  sstore\n  swap2\n  0x20\n  add\n  swap2\n  swap1\n  0x01\n  add\n  swap1\n  jump(tag_10)\ntag_11:\ntag_9:\n  pop\n  swap1\n  pop\n  tag_12\n  swap2\n  swap1\n  tag_13\n  jump\t// in\ntag_12:\n  pop\n  swap1\n  jump\t// out\ntag_4:\n  dup3\n  dup1\n  sload\n  dup3\n  dup3\n  sstore\n  swap1\n  0x00\n  mstore\n  keccak256(0x00, 0x20)\n  swap1\n  dup2\n  add\n  swap3\n  dup3\n  iszero\n  tag_14\n  jumpi\n  swap2\n  0x20\n  mul\n  dup3\n  add\ntag_15:\n  dup3\n  dup2\n  gt\n  iszero\n  tag_16\n  jumpi\n  dup3\n  mload\n  dup3\n  swap1\n  dup2\n  tag_17\n  swap2\n  swap1\n  tag_18\n  jump\t// in\ntag_17:\n  pop\n  swap2\n  0x20\n  add\n  swap2\n  swap1\n  0x01\n  add\n  swap1\n  jump(tag_15)\ntag_16:\ntag_14:\n  pop\n  swap1\n  pop\n  tag_19\n  swap2\n  swap1\n  tag_20\n  jump\t// in\ntag_19:\n  pop\n  swap1\n  jump\t// out\ntag_6:\n  dup3\n  dup1\n  sload\n  dup3\n  dup3\n  sstore\n  swap1\n  0x00\n  mstore\n  keccak256(0x00, 0x20)\n  swap1\n  dup2\n  add\n  swap3\n  dup3\n  iszero\n  tag_21\n  jumpi\n  swap2\n  0x20\n  mul\n  dup3\n  add\ntag_22:\n  dup3\n  dup2\n  gt\n  iszero\n  tag_23\n  jumpi\n  dup3\n  mload\n  dup3\n  swap1\n  0x03\n  tag_24\n  swap3\n  swap2\n  swap1\n  tag_2\n  jump\t// in\ntag_24:\n  pop\n  swap2\n  0x20\n  add\n  swap2\n  swap1\n  0x01\n  add\n  swap1\n  jump(tag_22)\ntag_23:\ntag_21:\n  pop\n  swap1\n  pop\n  tag_25\n  swap2\n  swap1\n  tag_26\n  jump\t// in\ntag_25:\n  pop\n  swap1\n  jump\t// out\ntag_13:\ntag_27:\n  dup1\n  dup3\n  gt\n  iszero\n  tag_28\n  jumpi\n  0x00\n  dup2\n  0x00\n  swap1\n  sstore\n  pop\n  0x01\n  add\n  jump(tag_27)\ntag_28:\n  pop\n  swap1\n  jump\t// out\ntag_20:\ntag_29:\n  dup1\n  dup3\n  gt\n  iszero\n  tag_30\n  jumpi\n  0x00\n  dup2\n  dup2\n  tag_31\n  swap2\n  swap1\n  tag_32\n  jump\t// in\ntag_31:\n  pop\n  0x01\n  add\n  jump(tag_29)\ntag_30:\n  pop\n  swap1\n  jump\t// out\ntag_26:\ntag_33:\n  dup1\n  dup3\n  gt\n  iszero\n  tag_34\n  jumpi\n  0x00\n  dup2\n  dup2\n  tag_35\n  swap2\n  swap1\n  tag_36\n  jump\t// in\ntag_35:\n  pop\n  0x01\n  add\n  jump(tag_33)\ntag_34:\n  pop\n  swap1\n  jump\t// out\ntag_32:\n  pop\n  dup1\n  sload\n  tag_37\n  swap1\n  tag_38\n  jump\t// in\ntag_37:\n  0x00\n  dup3\n  sstore\n  dup1\n  0x1f\n  lt\n  tag_40\n  jumpi\n  pop\n  jump(tag_39)\ntag_40:\n  0x1f\n  add\n  0x20\n  swap1\n  div\n  swap1\n  0x00\n  mstore\n  keccak256(0x00, 0x20)\n  swap1\n  dup2\n  add\n  swap1\n  tag_41\n  swap2\n  swap1\n  tag_13\n  jump\t// in\ntag_41:\ntag_39:\n  pop\n  jump\t// out\ntag_36:\n  pop\n  dup1\n  sload\n  0x00\n  dup3\n  sstore\n  swap1\n  0x00\n  mstore\n  keccak256(0x00, 0x20)\n  swap1\n  dup2\n  add\n  swap1\n  tag_43\n  swap2\n  swap1\n  tag_13\n  jump\t// in\ntag_43:\n  pop\n  jump\t// out\n    /* \"#utility.yul\":7:106   */\ntag_44:\n    /* \"#utility.yul\":59:65   */\n  0x00\n    /* \"#utility.yul\":93:98   */\n  dup2\n    /* \"#utility.yul\":87:99   */\n  mload\n    /* \"#utility.yul\":77:99   */\n  swap1\n  pop\n    /* \"#utility.yul\":7:106   */\n  swap2\n  swap1\n  pop\n  jump\t// out\n    /* \"#utility.yul\":112:292   */\ntag_45:\n    /* \"#utility.yul\":160:237   */\n  0x4e487b7100000000000000000000000000000000000000000000000000000000\n    /* \"#utility.yul\":157:158   */\n  0x00\n    /* \"#utility.yul\":150:238   */\n  mstore\n    /* \"#utility.yul\":257:261   */\n  0x41\n    /* \"#utility.yul\":254:255   */\n  0x04\n    /* \"#utility.yul\":247:262   */\n  mstore\n    /* \"#utility.yul\":281:285   */\n  0x24\n    /* \"#utility.yul\":278:279   */\n  0x00\n    /* \"#utility.yul\":271:286   */\n  revert\n    /* \"#utility.yul\":298:478   */\ntag_46:\n    /* \"#utility.yul\":346:423   */\n  0x4e487b7100000000000000000000000000000000000000000000000000000000\n    /* \"#utility.yul\":343:344   */\n  0x00\n    /* \"#utility.yul\":336:424   */\n  mstore\n    /* \"#utility.yul\":443:447   */\n  0x22\n    /* \"#utility.yul\":440:441   */\n  0x04\n    /* \"#utility.yul\":433:448   */\n  mstore\n    /* \"#utility.yul\":467:471   */\n  0x24\n    /* \"#utility.yul\":464:465   */\n  0x00\n    /* \"#utility.yul\":457:472   */\n  revert\n    /* \"#utility.yul\":484:804   */\ntag_38:\n    /* \"#utility.yul\":528:534   */\n  0x00\n    /* \"#utility.yul\":565:566   */\n  0x02\n    /* \"#utility.yul\":559:563   */\n  dup3\n    /* \"#utility.yul\":555:567   */\n  div\n    /* \"#utility.yul\":545:567   */\n  swap1\n  pop\n    /* \"#utility.yul\":612:613   */\n  0x01\n    /* \"#utility.yul\":606:610   */\n  dup3\n    /* \"#utility.yul\":602:614   */\n  and\n    /* \"#utility.yul\":633:651   */\n  dup1\n    /* \"#utility.yul\":623:704   */\n  tag_68\n  jumpi\n    /* \"#utility.yul\":689:693   */\n  0x7f\n    /* \"#utility.yul\":681:687   */\n  dup3\n    /* \"#utility.yul\":677:694   */\n  and\n    /* \"#utility.yul\":667:694   */\n  swap2\n  pop\n    /* \"#utility.yul\":623:704   */\ntag_68:\n    /* \"#utility.yul\":751:753   */\n  0x20\n    /* \"#utility.yul\":743:749   */\n  dup3\n    /* \"#utility.yul\":740:754   */\n  lt\n    /* \"#utility.yul\":720:738   */\n  dup2\n    /* \"#utility.yul\":717:755   */\n  sub\n    /* \"#utility.yul\":714:798   */\n  tag_69\n  jumpi\n    /* \"#utility.yul\":770:788   */\n  tag_70\n  tag_46\n  jump\t// in\ntag_70:\n    /* \"#utility.yul\":714:798   */\ntag_69:\n    /* \"#utility.yul\":535:804   */\n  pop\n    /* \"#utility.yul\":484:804   */\n  swap2\n  swap1\n  pop\n  jump\t// out\n    /* \"#utility.yul\":810:951   */\ntag_47:\n    /* \"#utility.yul\":859:863   */\n  0x00\n    /* \"#utility.yul\":882:885   */\n  dup2\n    /* \"#utility.yul\":874:885   */\n  swap1\n  pop\n    /* \"#utility.yul\":905:908   */\n  dup2\n    /* \"#utility.yul\":902:903   */\n  0x00\n    /* \"#utility.yul\":895:909   */\n  mstore\n    /* \"#utility.yul\":939:943   */\n  0x20\n    /* \"#utility.yul\":936:937   */\n  0x00\n    /* \"#utility.yul\":926:944   */\n  keccak256\n    /* \"#utility.yul\":918:944   */\n  swap1\n  pop\n    /* \"#utility.yul\":810:951   */\n  swap2\n  swap1\n  pop\n  jump\t// out\n    /* \"#utility.yul\":957:1050   */\ntag_48:\n    /* \"#utility.yul\":994:1000   */\n  0x00\n    /* \"#utility.yul\":1041:1043   */\n  0x20\n    /* \"#utility.yul\":1036:1038   */\n  0x1f\n    /* \"#utility.yul\":1029:1034   */\n  dup4\n    /* \"#utility.yul\":1025:1039   */\n  add\n    /* \"#utility.yul\":1021:1044   */\n  div\n    /* \"#utility.yul\":1011:1044   */\n  swap1\n  pop\n    /* \"#utility.yul\":957:1050   */\n  swap2\n  swap1\n  pop\n  jump\t// out\n    /* \"#utility.yul\":1056:1163   */\ntag_49:\n    /* \"#utility.yul\":1100:1108   */\n  0x00\n    /* \"#utility.yul\":1150:1155   */\n  dup3\n    /* \"#utility.yul\":1144:1148   */\n  dup3\n    /* \"#utility.yul\":1140:1156   */\n  shl\n    /* \"#utility.yul\":1119:1156   */\n  swap1\n  pop\n    /* \"#utility.yul\":1056:1163   */\n  swap3\n  swap2\n  pop\n  pop\n  jump\t// out\n    /* \"#utility.yul\":1169:1562   */\ntag_50:\n    /* \"#utility.yul\":1238:1244   */\n  0x00\n    /* \"#utility.yul\":1288:1289   */\n  0x08\n    /* \"#utility.yul\":1276:1286   */\n  dup4\n    /* \"#utility.yul\":1272:1290   */\n  mul\n    /* \"#utility.yul\":1311:1408   */\n  tag_75\n    /* \"#utility.yul\":1341:1407   */\n  0xffffffffffffffffffffffffffffffffffffffffffffffffffffffffffffffff\n    /* \"#utility.yul\":1330:1339   */\n  dup3\n    /* \"#utility.yul\":1311:1408   */\n  tag_49\n  jump\t// in\ntag_75:\n    /* \"#utility.yul\":1429:1468   */\n  tag_76\n    /* \"#utility.yul\":1459:1467   */\n  dup7\n    /* \"#utility.yul\":1448:1457   */\n  dup4\n    /* \"#utility.yul\":1429:1468   */\n  tag_49\n  jump\t// in\ntag_76:\n    /* \"#utility.yul\":1417:1468   */\n  swap6\n  pop\n    /* \"#utility.yul\":1501:1505   */\n  dup1\n    /* \"#utility.yul\":1497:1506   */\n  not\n    /* \"#utility.yul\":1490:1495   */\n  dup5\n    /* \"#utility.yul\":1486:1507   */\n  and\n    /* \"#utility.yul\":1477:1507   */\n  swap4\n  pop\n    /* \"#utility.yul\":1550:1554   */\n  dup1\n    /* \"#utility.yul\":1540:1548   */\n  dup7\n    /* \"#utility.yul\":1536:1555   */\n  and\n    /* \"#utility.yul\":1529:1534   */\n  dup5\n    /* \"#utility.yul\":1526:1556   */\n  or\n    /* \"#utility.yul\":1516:1556   */\n  swap3\n  pop\n    /* \"#utility.yul\":1245:1562   */\n  pop\n  pop\n    /* \"#utility.yul\":1169:1562   */\n  swap4\n  swap3\n  pop\n  pop\n  pop\n  jump\t// out\n    /* \"#utility.yul\":1568:1645   */\ntag_51:\n    /* \"#utility.yul\":1605:1612   */\n  0x00\n    /* \"#utility.yul\":1634:1639   */\n  dup2\n    /* \"#utility.yul\":1623:1639   */\n  swap1\n  pop\n    /* \"#utility.yul\":1568:1645   */\n  swap2\n  swap1\n  pop\n  jump\t// out\n    /* \"#utility.yul\":1651:1711   */\ntag_52:\n    /* \"#utility.yul\":1679:1682   */\n  0x00\n    /* \"#utility.yul\":1700:1705   */\n  dup2\n    /* \"#utility.yul\":1693:1705   */\n  swap1\n  pop\n    /* \"#utility.yul\":1651:1711   */\n  swap2\n  swap1\n  pop\n  jump\t// out\n    /* \"#utility.yul\":1717:1859   */\ntag_53:\n    /* \"#utility.yul\":1767:1776   */\n  0x00\n    /* \"#utility.yul\":1800:1853   */\n  tag_80\n    /* \"#utility.yul\":1818:1852   */\n  tag_81\n    /* \"#utility.yul\":1827:1851   */\n  tag_82\n    /* \"#utility.yul\":1845:1850   */\n  dup5\n    /* \"#utility.yul\":1827:1851   */\n  tag_51\n  jump\t// in\ntag_82:\n    /* \"#utility.yul\":1818:1852   */\n  tag_52\n  jump\t// in\ntag_81:\n    /* \"#utility.yul\":1800:1853   */\n  tag_51\n  jump\t// in\ntag_80:\n    /* \"#utility.yul\":1787:1853   */\n  swap1\n  pop\n    /* \"#utility.yul\":1717:1859   */\n  swap2\n  swap1\n  pop\n  jump\t// out\n    /* \"#utility.yul\":1865:1940   */\ntag_54:\n    /* \"#utility.yul\":1908:1911   */\n  0x00\n    /* \"#utility.yul\":1929:1934   */\n  dup2\n    /* \"#utility.yul\":1922:1934   */\n  swap1\n  pop\n    /* \"#utility.yul\":1865:1940   */\n  swap2\n  swap1\n  pop\n  jump\t// out\n    /* \"#utility.yul\":1946:2215   */\ntag_55:\n    /* \"#utility.yul\":2056:2095   */\n  tag_85\n    /* \"#utility.yul\":2087:2094   */\n  dup4\n    /* \"#utility.yul\":2056:2095   */\n  tag_53\n  jump\t// in\ntag_85:\n    /* \"#utility.yul\":2117:2208   */\n  tag_86\n    /* \"#utility.yul\":2166:2207   */\n  tag_87\n    /* \"#utility.yul\":2190:2206   */\n  dup3\n    /* \"#utility.yul\":2166:2207   */\n  tag_54\n  jump\t// in\ntag_87:\n    /* \"#utility.yul\":2158:2164   */\n  dup5\n    /* \"#utility.yul\":2151:2155   */\n  dup5\n    /* \"#utility.yul\":2145:2156   */\n  sload\n    /* \"#utility.yul\":2117:2208   */\n  tag_50\n  jump\t// in\ntag_86:\n    /* \"#utility.yul\":2111:2115   */\n  dup3\n    /* \"#utility.yul\":2104:2209   */\n  sstore\n    /* \"#utility.yul\":2022:2215   */\n  pop\n    /* \"#utility.yul\":1946:2215   */\n  pop\n  pop\n  pop\n  jump\t// out\n    /* \"#utility.yul\":2221:2294   */\ntag_56:\n    /* \"#utility.yul\":2266:2269   */\n  0x00\n    /* \"#utility.yul\":2287:2288   */\n  0x00\n    /* \"#utility.yul\":2280:2288   */\n  swap1\n  pop\n    /* \"#utility.yul\":2221:2294   */\n  swap1\n  jump\t// out\n    /* \"#utility.yul\":2300:2489   */\ntag_57:\n    /* \"#utility.yul\":2377:2409   */\n  tag_90\n  tag_56\n  jump\t// in\ntag_90:\n    /* \"#utility.yul\":2418:2483   */\n  tag_91\n    /* \"#utility.yul\":2476:2482   */\n  dup2\n    /* \"#utility.yul\":2468:2474   */\n  dup5\n    /* \"#utility.yul\":2462:2466   */\n  dup5\n    /* \"#utility.yul\":2418:2483   */\n  tag_55\n  jump\t// in\ntag_91:\n    /* \"#utility.yul\":2353:2489   */\n  pop\n    /* \"#utility.yul\":2300:2489   */\n  pop\n  pop\n  jump\t// out\n    /* \"#utility.yul\":2495:2681   */\ntag_58:\n    /* \"#utility.yul\":2555:2675   */\ntag_93:\n    /* \"#utility.yul\":2572:2575   */\n  dup2\n    /* \"#utility.yul\":2565:2570   */\n  dup2\n    /* \"#utility.yul\":2562:2576   */\n  lt\n    /* \"#utility.yul\":2555:2675   */\n  iszero\n  tag_95\n  jumpi\n    /* \"#utility.yul\":2626:2665   */\n  tag_96\n    /* \"#utility.yul\":2663:2664   */\n  0x00\n    /* \"#utility.yul\":2656:2661   */\n  dup3\n    /* \"#utility.yul\":2626:2665   */\n  tag_57\n  jump\t// in\ntag_96:\n    /* \"#utility.yul\":2599:2600   */\n  0x01\n    /* \"#utility.yul\":2592:2597   */\n  dup2\n    /* \"#utility.yul\":2588:2601   */\n  add\n    /* \"#utility.yul\":2579:2601   */\n  swap1\n  pop\n    /* \"#utility.yul\":2555:2675   */\n  jump(tag_93)\ntag_95:\n    /* \"#utility.yul\":2495:2681   */\n  pop\n  pop\n  jump\t// out\n    /* \"#utility.yul\":2687:3230   */\ntag_59:\n    /* \"#utility.yul\":2788:2790   */\n  0x1f\n    /* \"#utility.yul\":2783:2786   */\n  dup3\n    /* \"#utility.yul\":2780:2791   */\n  gt\n    /* \"#utility.yul\":2777:3223   */\n  iszero\n  tag_98\n  jumpi\n    /* \"#utility.yul\":2822:2860   */\n  tag_99\n    /* \"#utility.yul\":2854:2859   */\n  dup2\n    /* \"#utility.yul\":2822:2860   */\n  tag_47\n  jump\t// in\ntag_99:\n    /* \"#utility.yul\":2906:2935   */\n  tag_100\n    /* \"#utility.yul\":2924:2934   */\n  dup5\n    /* \"#utility.yul\":2906:2935   */\n  tag_48\n  jump\t// in\ntag_100:\n    /* \"#utility.yul\":2896:2904   */\n  dup2\n    /* \"#utility.yul\":2892:2936   */\n  add\n    /* \"#utility.yul\":3089:3091   */\n  0x20\n    /* \"#utility.yul\":3077:3087   */\n  dup6\n    /* \"#utility.yul\":3074:3092   */\n  lt\n    /* \"#utility.yul\":3071:3120   */\n  iszero\n  tag_101\n  jumpi\n    /* \"#utility.yul\":3110:3118   */\n  dup2\n    /* \"#utility.yul\":3095:3118   */\n  swap1\n  pop\n    /* \"#utility.yul\":3071:3120   */\ntag_101:\n    /* \"#utility.yul\":3133:3213   */\n  tag_102\n    /* \"#utility.yul\":3189:3211   */\n  tag_103\n    /* \"#utility.yul\":3207:3210   */\n  dup6\n    /* \"#utility.yul\":3189:3211   */\n  tag_48\n  jump\t// in\ntag_103:\n    /* \"#utility.yul\":3179:3187   */\n  dup4\n    /* \"#utility.yul\":3175:3212   */\n  add\n    /* \"#utility.yul\":3162:3173   */\n  dup3\n    /* \"#utility.yul\":3133:3213   */\n  tag_58\n  jump\t// in\ntag_102:\n    /* \"#utility.yul\":2792:3223   */\n  pop\n  pop\n    /* \"#utility.yul\":2777:3223   */\ntag_98:\n    /* \"#utility.yul\":2687:3230   */\n  pop\n  pop\n  pop\n  jump\t// out\n    /* \"#utility.yul\":3236:3353   */\ntag_60:\n    /* \"#utility.yul\":3290:3298   */\n  0x00\n    /* \"#utility.yul\":3340:3345   */\n  dup3\n    /* \"#utility.yul\":3334:3338   */\n  dup3\n    /* \"#utility.yul\":3330:3346   */\n  shr\n    /* \"#utility.yul\":3309:3346   */\n  swap1\n  pop\n    /* \"#utility.yul\":3236:3353   */\n  swap3\n  swap2\n  pop\n  pop\n  jump\t// out\n    /* \"#utility.yul\":3359:3528   */\ntag_61:\n    /* \"#utility.yul\":3403:3409   */\n  0x00\n    /* \"#utility.yul\":3436:3487   */\n  tag_106\n    /* \"#utility.yul\":3484:3485   */\n  0x00\n    /* \"#utility.yul\":3480:3486   */\n  not\n    /* \"#utility.yul\":3472:3477   */\n  dup5\n    /* \"#utility.yul\":3469:3470   */\n  0x08\n    /* \"#utility.yul\":3465:3478   */\n  mul\n    /* \"#utility.yul\":3436:3487   */\n  tag_60\n  jump\t// in\ntag_106:\n    /* \"#utility.yul\":3432:3488   */\n  not\n    /* \"#utility.yul\":3517:3521   */\n  dup1\n    /* \"#utility.yul\":3511:3515   */\n  dup4\n    /* \"#utility.yul\":3507:3522   */\n  and\n    /* \"#utility.yul\":3497:3522   */\n  swap2\n  pop\n    /* \"#utility.yul\":3410:3528   */\n  pop\n    /* \"#utility.yul\":3359:3528   */\n  swap3\n  swap2\n  pop\n  pop\n  jump\t// out\n    /* \"#utility.yul\":3533:3828   */\ntag_62:\n    /* \"#utility.yul\":3609:3613   */\n  0x00\n    /* \"#utility.yul\":3755:3784   */\n  tag_108\n    /* \"#utility.yul\":3780:3783   */\n  dup4\n    /* \"#utility.yul\":3774:3778   */\n  dup4\n    /* \"#utility.yul\":3755:3784   */\n  tag_61\n  jump\t// in\ntag_108:\n    /* \"#utility.yul\":3747:3784   */\n  swap2\n  pop\n    /* \"#utility.yul\":3817:3820   */\n  dup3\n    /* \"#utility.yul\":3814:3815   */\n  0x02\n    /* \"#utility.yul\":3810:3821   */\n  mul\n    /* \"#utility.yul\":3804:3808   */\n  dup3\n    /* \"#utility.yul\":3801:3822   */\n  or\n    /* \"#utility.yul\":3793:3822   */\n  swap1\n  pop\n    /* \"#utility.yul\":3533:3828   */\n  swap3\n  swap2\n  pop\n  pop\n  jump\t// out\n    /* \"#utility.yul\":3833:5228   */\ntag_18:\n    /* \"#utility.yul\":3950:3987   */\n  tag_110\n    /* \"#utility.yul\":3983:3986   */\n  dup3\n    /* \"#utility.yul\":3950:3987   */\n  tag_44\n  jump\t// in\ntag_110:\n    /* \"#utility.yul\":4052:4070   */\n  0xffffffffffffffff\n    /* \"#utility.yul\":4044:4050   */\n  dup2\n    /* \"#utility.yul\":4041:4071   */\n  gt\n    /* \"#utility.yul\":4038:4094   */\n  iszero\n  tag_111\n  jumpi\n    /* \"#utility.yul\":4074:4092   */\n  tag_112\n  tag_45\n  jump\t// in\ntag_112:\n    /* \"#utility.yul\":4038:4094   */\ntag_111:\n    /* \"#utility.yul\":4118:4156   */\n  tag_113\n    /* \"#utility.yul\":4150:4154   */\n  dup3\n    /* \"#utility.yul\":4144:4155   */\n  sload\n    /* \"#utility.yul\":4118:4156   */\n  tag_38\n  jump\t// in\ntag_113:\n    /* \"#utility.yul\":4203:4270   */\n  tag_114\n    /* \"#utility.yul\":4263:4269   */\n  dup3\n    /* \"#utility.yul\":4255:4261   */\n  dup3\n    /* \"#utility.yul\":4249:4253   */\n  dup6\n    /* \"#utility.yul\":4203:4270   */\n  tag_59\n  jump\t// in\ntag_114:\n    /* \"#utility.yul\":4297:4298   */\n  0x00\n    /* \"#utility.yul\":4321:4325   */\n  0x20\n    /* \"#utility.yul\":4308:4325   */\n  swap1\n  pop\n    /* \"#utility.yul\":4353:4355   */\n  0x1f\n    /* \"#utility.yul\":4345:4351   */\n  dup4\n    /* \"#utility.yul\":4342:4356   */\n  gt\n    /* \"#utility.yul\":4370:4371   */\n  0x01\n    /* \"#utility.yul\":4365:4983   */\n  dup2\n  eq\n  tag_116\n  jumpi\n    /* \"#utility.yul\":5027:5028   */\n  0x00\n    /* \"#utility.yul\":5044:5050   */\n  dup5\n    /* \"#utility.yul\":5041:5118   */\n  iszero\n  tag_117\n  jumpi\n    /* \"#utility.yul\":5093:5102   */\n  dup3\n    /* \"#utility.yul\":5088:5091   */\n  dup8\n    /* \"#utility.yul\":5084:5103   */\n  add\n    /* \"#utility.yul\":5078:5104   */\n  mload\n    /* \"#utility.yul\":5069:5104   */\n  swap1\n  pop\n    /* \"#utility.yul\":5041:5118   */\ntag_117:\n    /* \"#utility.yul\":5144:5211   */\n  tag_118\n    /* \"#utility.yul\":5204:5210   */\n  dup6\n    /* \"#utility.yul\":5197:5202   */\n  dup3\n    /* \"#utility.yul\":5144:5211   */\n  tag_62\n  jump\t// in\ntag_118:\n    /* \"#utility.yul\":5138:5142   */\n  dup7\n    /* \"#utility.yul\":5131:5212   */\n  sstore\n    /* \"#utility.yul\":5000:5222   */\n  pop\n    /* \"#utility.yul\":4335:5222   */\n  jump(tag_115)\n    /* \"#utility.yul\":4365:4983   */\ntag_116:\n    /* \"#utility.yul\":4417:4421   */\n  0x1f\n    /* \"#utility.yul\":4413:4422   */\n  not\n    /* \"#utility.yul\":4405:4411   */\n  dup5\n    /* \"#utility.yul\":4401:4423   */\n  and\n    /* \"#utility.yul\":4451:4488   */\n  tag_119\n    /* \"#utility.yul\":4483:4487   */\n  dup7\n    /* \"#utility.yul\":4451:4488   */\n  tag_47\n  jump\t// in\ntag_119:\n    /* \"#utility.yul\":4510:4511   */\n  0x00\n    /* \"#utility.yul\":4524:4732   */\ntag_120:\n    /* \"#utility.yul\":4538:4545   */\n  dup3\n    /* \"#utility.yul\":4535:4536   */\n  dup2\n    /* \"#utility.yul\":4532:4546   */\n  lt\n    /* \"#utility.yul\":4524:4732   */\n  iszero\n  tag_122\n  jumpi\n    /* \"#utility.yul\":4617:4626   */\n  dup5\n    /* \"#utility.yul\":4612:4615   */\n  dup10\n    /* \"#utility.yul\":4608:4627   */\n  add\n    /* \"#utility.yul\":4602:4628   */\n  mload\n    /* \"#utility.yul\":4594:4600   */\n  dup3\n    /* \"#utility.yul\":4587:4629   */\n  sstore\n    /* \"#utility.yul\":4668:4669   */\n  0x01\n    /* \"#utility.yul\":4660:4666   */\n  dup3\n    /* \"#utility.yul\":4656:4670   */\n  add\n    /* \"#utility.yul\":4646:4670   */\n  swap2\n  pop\n    /* \"#utility.yul\":4715:4717   */\n  0x20\n    /* \"#utility.yul\":4704:4713   */\n  dup6\n    /* \"#utility.yul\":4700:4718   */\n  add\n    /* \"#utility.yul\":4687:4718   */\n  swap5\n  pop\n    /* \"#utility.yul\":4561:4565   */\n  0x20\n    /* \"#utility.yul\":4558:4559   */\n  dup2\n    /* \"#utility.yul\":4554:4566   */\n  add\n    /* \"#utility.yul\":4549:4566   */\n  swap1\n  pop\n    /* \"#utility.yul\":4524:4732   */\n  jump(tag_120)\ntag_122:\n    /* \"#utility.yul\":4760:4766   */\n  dup7\n    /* \"#utility.yul\":4751:4758   */\n  dup4\n    /* \"#utility.yul\":4748:4767   */\n  lt\n    /* \"#utility.yul\":4745:4924   */\n  iszero\n  tag_123\n  jumpi\n    /* \"#utility.yul\":4818:4827   */\n  dup5\n    /* \"#utility.yul\":4813:4816   */\n  dup10\n    /* \"#utility.yul\":4809:4828   */\n  add\n    /* \"#utility.yul\":4803:4829   */\n  mload\n    /* \"#utility.yul\":4861:4909   */\n  tag_124\n    /* \"#utility.yul\":4903:4907   */\n  0x1f\n    /* \"#utility.yul\":4895:4901   */\n  dup10\n    /* \"#utility.yul\":4891:4908   */\n  and\n    /* \"#utility.yul\":4880:4889   */\n  dup3\n    /* \"#utility.yul\":4861:4909   */\n  tag_61\n  jump\t// in\ntag_124:\n    /* \"#utility.yul\":4853:4859   */\n  dup4\n    /* \"#utility.yul\":4846:4910   */\n  sstore\n    /* \"#utility.yul\":4768:4924   */\n  pop\n    /* \"#utility.yul\":4745:4924   */\ntag_123:\n    /* \"#utility.yul\":4970:4971   */\n  0x01\n    /* \"#utility.yul\":4966:4967   */\n  0x02\n    /* \"#utility.yul\":4958:4964   */\n  dup9\n    /* \"#utility.yul\":4954:4968   */\n  mul\n    /* \"#utility.yul\":4950:4972   */\n  add\n    /* \"#utility.yul\":4944:4948   */\n  dup9\n    /* \"#utility.yul\":4937:4973   */\n  sstore\n    /* \"#utility.yul\":4372:4983   */\n  pop\n  pop\n  pop\n    /* \"#utility.yul\":4335:5222   */\ntag_115:\n  pop\n    /* \"#utility.yul\":3925:5228   */\n  pop\n  pop\n  pop\n    /* \"#utility.yul\":3833:5228   */\n  pop\n  pop\n  jump\t// out\n    /* \".deps/MyContract1.sol\":77:470  contract MyContract1{... */\ntag_8:\n  dataSize(sub_0)\n  dup1\n  dataOffset(sub_0)\n  0x00\n  codecopy\n  0x00\n  return\nstop\n\nsub_0: assembly {\n        /* \".deps/MyContract1.sol\":77:470  contract MyContract1{... */\n      mstore(0x40, 0x80)\n      callvalue\n      dup1\n      iszero\n      tag_1\n      jumpi\n      revert(0x00, 0x00)\n    tag_1:\n      pop\n      jumpi(tag_2, lt(calldatasize, 0x04))\n      shr(0xe0, calldataload(0x00))\n      dup1\n      0x26eb4dbb\n      eq\n      tag_3\n      jumpi\n      dup1\n      0x3a5fbaaa\n      eq\n      tag_4\n      jumpi\n      dup1\n      0x6422c4c8\n      eq\n      tag_5\n      jumpi\n      dup1\n      0x8f202bf0\n      eq\n      tag_6\n      jumpi\n      dup1\n      0x9ae918c7\n      eq\n      tag_7\n      jumpi\n      dup1\n      0xc5a46ee6\n      eq\n      tag_8\n      jumpi\n    tag_2:\n      revert(0x00, 0x00)\n        /* \".deps/MyContract1.sol\":318:403  function valueCount() public view returns(uint){... */\n    tag_3:\n      tag_9\n      tag_10\n      jump\t// in\n    tag_9:\n      mload(0x40)\n      tag_11\n      swap2\n      swap1\n      tag_12\n      jump\t// in\n    tag_11:\n      mload(0x40)\n      dup1\n      swap2\n      sub\n      swap1\n      return\n        /* \".deps/MyContract1.sol\":227:310  function addValue(string memory _value) public{... */\n    tag_4:\n      tag_13\n      0x04\n      dup1\n      calldatasize\n      sub\n      dup2\n      add\n      swap1\n      tag_14\n      swap2\n      swap1\n      tag_15\n      jump\t// in\n    tag_14:\n      tag_16\n      jump\t// in\n    tag_13:\n      stop\n        /* \".deps/MyContract1.sol\":143:190  string[] public stringArray =[\"apple\",\"banane\"] */\n    tag_5:\n      tag_17\n      0x04\n      dup1\n      calldatasize\n      sub\n      dup2\n      add\n      swap1\n      tag_18\n      swap2\n      swap1\n      tag_19\n      jump\t// in\n    tag_18:\n      tag_20\n      jump\t// in\n    tag_17:\n      mload(0x40)\n      tag_21\n      swap2\n      swap1\n      tag_22\n      jump\t// in\n    tag_21:\n      mload(0x40)\n      dup1\n      swap2\n      sub\n      swap1\n      return\n        /* \".deps/MyContract1.sol\":411:456  uint256[][] public array2d =[[1,2,3],[2,3,4]] */\n    tag_6:\n      tag_23\n      0x04\n      dup1\n      calldatasize\n      sub\n      dup2\n      add\n      swap1\n      tag_24\n      swap2\n      swap1\n      tag_25\n      jump\t// in\n    tag_24:\n      tag_26\n      jump\t// in\n    tag_23:\n      mload(0x40)\n      tag_27\n      swap2\n      swap1\n      tag_12\n      jump\t// in\n    tag_27:\n      mload(0x40)\n      dup1\n      swap2\n      sub\n      swap1\n      return\n        /* \".deps/MyContract1.sol\":104:136  uint[] public uintArray =[1,2,3] */\n    tag_7:\n      tag_28\n      0x04\n      dup1\n      calldatasize\n      sub\n      dup2\n      add\n      swap1\n      tag_29\n      swap2\n      swap1\n      tag_19\n      jump\t// in\n    tag_29:\n      tag_30\n      jump\t// in\n    tag_28:\n      mload(0x40)\n      tag_31\n      swap2\n      swap1\n      tag_12\n      jump\t// in\n    tag_31:\n      mload(0x40)\n      dup1\n      swap2\n      sub\n      swap1\n      return\n        /* \".deps/MyContract1.sol\":197:218  string[] public value */\n    tag_8:\n      tag_32\n      0x04\n      dup1\n      calldatasize\n      sub\n      dup2\n      add\n      swap1\n      tag_33\n      swap2\n      swap1\n      tag_19\n      jump\t// in\n    tag_33:\n      tag_34\n      jump\t// in\n    tag_32:\n      mload(0x40)\n      tag_35\n      swap2\n      swap1\n      tag_22\n      jump\t// in\n    tag_35:\n      mload(0x40)\n      dup1\n      swap2\n      sub\n      swap1\n      return\n        /* \".deps/MyContract1.sol\":318:403  function valueCount() public view returns(uint){... */\n    tag_10:\n        /* \".deps/MyContract1.sol\":360:364  uint */\n      0x00\n        /* \".deps/MyContract1.sol\":383:388  value */\n      0x02\n        /* \".deps/MyContract1.sol\":383:395  value.length */\n      dup1\n      sload\n      swap1\n      pop\n        /* \".deps/MyContract1.sol\":376:395  return value.length */\n      swap1\n      pop\n        /* \".deps/MyContract1.sol\":318:403  function valueCount() public view returns(uint){... */\n      swap1\n      jump\t// out\n        /* \".deps/MyContract1.sol\":227:310  function addValue(string memory _value) public{... */\n    tag_16:\n        /* \".deps/MyContract1.sol\":284:289  value */\n      0x02\n        /* \".deps/MyContract1.sol\":295:301  _value */\n      dup2\n        /* \".deps/MyContract1.sol\":284:302  value.push(_value) */\n      swap1\n      dup1\n      0x01\n      dup2\n      sload\n      add\n      dup1\n      dup3\n      sstore\n      dup1\n      swap2\n      pop\n      pop\n      0x01\n      swap1\n      sub\n      swap1\n      0x00\n      mstore\n      keccak256(0x00, 0x20)\n      add\n      0x00\n      swap1\n      swap2\n      swap1\n      swap2\n      swap1\n      swap2\n      pop\n      swap1\n      dup2\n      tag_39\n      swap2\n      swap1\n      tag_40\n      jump\t// in\n    tag_39:\n      pop\n        /* \".deps/MyContract1.sol\":227:310  function addValue(string memory _value) public{... */\n      pop\n      jump\t// out\n        /* \".deps/MyContract1.sol\":143:190  string[] public stringArray =[\"apple\",\"banane\"] */\n    tag_20:\n      0x01\n      dup2\n      dup2\n      sload\n      dup2\n      lt\n      tag_41\n      jumpi\n      0x00\n      dup1\n      revert\n    tag_41:\n      swap1\n      0x00\n      mstore\n      keccak256(0x00, 0x20)\n      add\n      0x00\n      swap2\n      pop\n      swap1\n      pop\n      dup1\n      sload\n      tag_43\n      swap1\n      tag_44\n      jump\t// in\n    tag_43:\n      dup1\n      0x1f\n      add\n      0x20\n      dup1\n      swap2\n      div\n      mul\n      0x20\n      add\n      mload(0x40)\n      swap1\n      dup2\n      add\n      0x40\n      mstore\n      dup1\n      swap3\n      swap2\n      swap1\n      dup2\n      dup2\n      mstore\n      0x20\n      add\n      dup3\n      dup1\n      sload\n      tag_45\n      swap1\n      tag_44\n      jump\t// in\n    tag_45:\n      dup1\n      iszero\n      tag_46\n      jumpi\n      dup1\n      0x1f\n      lt\n      tag_47\n      jumpi\n      0x0100\n      dup1\n      dup4\n      sload\n      div\n      mul\n      dup4\n      mstore\n      swap2\n      0x20\n      add\n      swap2\n      jump(tag_46)\n    tag_47:\n      dup3\n      add\n      swap2\n      swap1\n      0x00\n      mstore\n      keccak256(0x00, 0x20)\n      swap1\n    tag_48:\n      dup2\n      sload\n      dup2\n      mstore\n      swap1\n      0x01\n      add\n      swap1\n      0x20\n      add\n      dup1\n      dup4\n      gt\n      tag_48\n      jumpi\n      dup3\n      swap1\n      sub\n      0x1f\n      and\n      dup3\n      add\n      swap2\n    tag_46:\n      pop\n      pop\n      pop\n      pop\n      pop\n      dup2\n      jump\t// out\n        /* \".deps/MyContract1.sol\":411:456  uint256[][] public array2d =[[1,2,3],[2,3,4]] */\n    tag_26:\n      0x03\n      dup3\n      dup2\n      sload\n      dup2\n      lt\n      tag_49\n      jumpi\n      0x00\n      dup1\n      revert\n    tag_49:\n      swap1\n      0x00\n      mstore\n      keccak256(0x00, 0x20)\n      add\n      dup2\n      dup2\n      sload\n      dup2\n      lt\n      tag_51\n      jumpi\n      0x00\n      dup1\n      revert\n    tag_51:\n      swap1\n      0x00\n      mstore\n      keccak256(0x00, 0x20)\n      add\n      0x00\n      swap2\n      pop\n      swap2\n      pop\n      pop\n      sload\n      dup2\n      jump\t// out\n        /* \".deps/MyContract1.sol\":104:136  uint[] public uintArray =[1,2,3] */\n    tag_30:\n      0x00\n      dup2\n      dup2\n      sload\n      dup2\n      lt\n      tag_53\n      jumpi\n      0x00\n      dup1\n      revert\n    tag_53:\n      swap1\n      0x00\n      mstore\n      keccak256(0x00, 0x20)\n      add\n      0x00\n      swap2\n      pop\n      swap1\n      pop\n      sload\n      dup2\n      jump\t// out\n        /* \".deps/MyContract1.sol\":197:218  string[] public value */\n    tag_34:\n      0x02\n      dup2\n      dup2\n      sload\n      dup2\n      lt\n      tag_55\n      jumpi\n      0x00\n      dup1\n      revert\n    tag_55:\n      swap1\n      0x00\n      mstore\n      keccak256(0x00, 0x20)\n      add\n      0x00\n      swap2\n      pop\n      swap1\n      pop\n      dup1\n      sload\n      tag_57\n      swap1\n      tag_44\n      jump\t// in\n    tag_57:\n      dup1\n      0x1f\n      add\n      0x20\n      dup1\n      swap2\n      div\n      mul\n      0x20\n      add\n      mload(0x40)\n      swap1\n      dup2\n      add\n      0x40\n      mstore\n      dup1\n      swap3\n      swap2\n      swap1\n      dup2\n      dup2\n      mstore\n      0x20\n      add\n      dup3\n      dup1\n      sload\n      tag_58\n      swap1\n      tag_44\n      jump\t// in\n    tag_58:\n      dup1\n      iszero\n      tag_59\n      jumpi\n      dup1\n      0x1f\n      lt\n      tag_60\n      jumpi\n      0x0100\n      dup1\n      dup4\n      sload\n      div\n      mul\n      dup4\n      mstore\n      swap2\n      0x20\n      add\n      swap2\n      jump(tag_59)\n    tag_60:\n      dup3\n      add\n      swap2\n      swap1\n      0x00\n      mstore\n      keccak256(0x00, 0x20)\n      swap1\n    tag_61:\n      dup2\n      sload\n      dup2\n      mstore\n      swap1\n      0x01\n      add\n      swap1\n      0x20\n      add\n      dup1\n      dup4\n      gt\n      tag_61\n      jumpi\n      dup3\n      swap1\n      sub\n      0x1f\n      and\n      dup3\n      add\n      swap2\n    tag_59:\n      pop\n      pop\n      pop\n      pop\n      pop\n      dup2\n      jump\t// out\n        /* \"#utility.yul\":7:84   */\n    tag_62:\n        /* \"#utility.yul\":44:51   */\n      0x00\n        /* \"#utility.yul\":73:78   */\n      dup2\n        /* \"#utility.yul\":62:78   */\n      swap1\n      pop\n        /* \"#utility.yul\":7:84   */\n      swap2\n      swap1\n      pop\n      jump\t// out\n        /* \"#utility.yul\":90:208   */\n    tag_63:\n        /* \"#utility.yul\":177:201   */\n      tag_102\n        /* \"#utility.yul\":195:200   */\n      dup2\n        /* \"#utility.yul\":177:201   */\n      tag_62\n      jump\t// in\n    tag_102:\n        /* \"#utility.yul\":172:175   */\n      dup3\n        /* \"#utility.yul\":165:202   */\n      mstore\n        /* \"#utility.yul\":90:208   */\n      pop\n      pop\n      jump\t// out\n        /* \"#utility.yul\":214:436   */\n    tag_12:\n        /* \"#utility.yul\":307:311   */\n      0x00\n        /* \"#utility.yul\":345:347   */\n      0x20\n        /* \"#utility.yul\":334:343   */\n      dup3\n        /* \"#utility.yul\":330:348   */\n      add\n        /* \"#utility.yul\":322:348   */\n      swap1\n      pop\n        /* \"#utility.yul\":358:429   */\n      tag_104\n        /* \"#utility.yul\":426:427   */\n      0x00\n        /* \"#utility.yul\":415:424   */\n      dup4\n        /* \"#utility.yul\":411:428   */\n      add\n        /* \"#utility.yul\":402:408   */\n      dup5\n        /* \"#utility.yul\":358:429   */\n      tag_63\n      jump\t// in\n    tag_104:\n        /* \"#utility.yul\":214:436   */\n      swap3\n      swap2\n      pop\n      pop\n      jump\t// out\n        /* \"#utility.yul\":442:517   */\n    tag_64:\n        /* \"#utility.yul\":475:481   */\n      0x00\n        /* \"#utility.yul\":508:510   */\n      0x40\n        /* \"#utility.yul\":502:511   */\n      mload\n        /* \"#utility.yul\":492:511   */\n      swap1\n      pop\n        /* \"#utility.yul\":442:517   */\n      swap1\n      jump\t// out\n        /* \"#utility.yul\":523:640   */\n    tag_65:\n        /* \"#utility.yul\":632:633   */\n      0x00\n        /* \"#utility.yul\":629:630   */\n      0x00\n        /* \"#utility.yul\":622:634   */\n      revert\n        /* \"#utility.yul\":646:763   */\n    tag_66:\n        /* \"#utility.yul\":755:756   */\n      0x00\n        /* \"#utility.yul\":752:753   */\n      0x00\n        /* \"#utility.yul\":745:757   */\n      revert\n        /* \"#utility.yul\":769:886   */\n    tag_67:\n        /* \"#utility.yul\":878:879   */\n      0x00\n        /* \"#utility.yul\":875:876   */\n      0x00\n        /* \"#utility.yul\":868:880   */\n      revert\n        /* \"#utility.yul\":892:1009   */\n    tag_68:\n        /* \"#utility.yul\":1001:1002   */\n      0x00\n        /* \"#utility.yul\":998:999   */\n      0x00\n        /* \"#utility.yul\":991:1003   */\n      revert\n        /* \"#utility.yul\":1015:1117   */\n    tag_69:\n        /* \"#utility.yul\":1056:1062   */\n      0x00\n        /* \"#utility.yul\":1107:1109   */\n      0x1f\n        /* \"#utility.yul\":1103:1110   */\n      not\n        /* \"#utility.yul\":1098:1100   */\n      0x1f\n        /* \"#utility.yul\":1091:1096   */\n      dup4\n        /* \"#utility.yul\":1087:1101   */\n      add\n        /* \"#utility.yul\":1083:1111   */\n      and\n        /* \"#utility.yul\":1073:1111   */\n      swap1\n      pop\n        /* \"#utility.yul\":1015:1117   */\n      swap2\n      swap1\n      pop\n      jump\t// out\n        /* \"#utility.yul\":1123:1303   */\n    tag_70:\n        /* \"#utility.yul\":1171:1248   */\n      0x4e487b7100000000000000000000000000000000000000000000000000000000\n        /* \"#utility.yul\":1168:1169   */\n      0x00\n        /* \"#utility.yul\":1161:1249   */\n      mstore\n        /* \"#utility.yul\":1268:1272   */\n      0x41\n        /* \"#utility.yul\":1265:1266   */\n      0x04\n        /* \"#utility.yul\":1258:1273   */\n      mstore\n        /* \"#utility.yul\":1292:1296   */\n      0x24\n        /* \"#utility.yul\":1289:1290   */\n      0x00\n        /* \"#utility.yul\":1282:1297   */\n      revert\n        /* \"#utility.yul\":1309:1590   */\n    tag_71:\n        /* \"#utility.yul\":1392:1419   */\n      tag_113\n        /* \"#utility.yul\":1414:1418   */\n      dup3\n        /* \"#utility.yul\":1392:1419   */\n      tag_69\n      jump\t// in\n    tag_113:\n        /* \"#utility.yul\":1384:1390   */\n      dup2\n        /* \"#utility.yul\":1380:1420   */\n      add\n        /* \"#utility.yul\":1522:1528   */\n      dup2\n        /* \"#utility.yul\":1510:1520   */\n      dup2\n        /* \"#utility.yul\":1507:1529   */\n      lt\n        /* \"#utility.yul\":1486:1504   */\n      0xffffffffffffffff\n        /* \"#utility.yul\":1474:1484   */\n      dup3\n        /* \"#utility.yul\":1471:1505   */\n      gt\n        /* \"#utility.yul\":1468:1530   */\n      or\n        /* \"#utility.yul\":1465:1553   */\n      iszero\n      tag_114\n      jumpi\n        /* \"#utility.yul\":1533:1551   */\n      tag_115\n      tag_70\n      jump\t// in\n    tag_115:\n        /* \"#utility.yul\":1465:1553   */\n    tag_114:\n        /* \"#utility.yul\":1573:1583   */\n      dup1\n        /* \"#utility.yul\":1569:1571   */\n      0x40\n        /* \"#utility.yul\":1562:1584   */\n      mstore\n        /* \"#utility.yul\":1352:1590   */\n      pop\n        /* \"#utility.yul\":1309:1590   */\n      pop\n      pop\n      jump\t// out\n        /* \"#utility.yul\":1596:1725   */\n    tag_72:\n        /* \"#utility.yul\":1630:1636   */\n      0x00\n        /* \"#utility.yul\":1657:1677   */\n      tag_117\n      tag_64\n      jump\t// in\n    tag_117:\n        /* \"#utility.yul\":1647:1677   */\n      swap1\n      pop\n        /* \"#utility.yul\":1686:1719   */\n      tag_118\n        /* \"#utility.yul\":1714:1718   */\n      dup3\n        /* \"#utility.yul\":1706:1712   */\n      dup3\n        /* \"#utility.yul\":1686:1719   */\n      tag_71\n      jump\t// in\n    tag_118:\n        /* \"#utility.yul\":1596:1725   */\n      swap2\n      swap1\n      pop\n      jump\t// out\n        /* \"#utility.yul\":1731:2039   */\n    tag_73:\n        /* \"#utility.yul\":1793:1797   */\n      0x00\n        /* \"#utility.yul\":1883:1901   */\n      0xffffffffffffffff\n        /* \"#utility.yul\":1875:1881   */\n      dup3\n        /* \"#utility.yul\":1872:1902   */\n      gt\n        /* \"#utility.yul\":1869:1925   */\n      iszero\n      tag_120\n      jumpi\n        /* \"#utility.yul\":1905:1923   */\n      tag_121\n      tag_70\n      jump\t// in\n    tag_121:\n        /* \"#utility.yul\":1869:1925   */\n    tag_120:\n        /* \"#utility.yul\":1943:1972   */\n      tag_122\n        /* \"#utility.yul\":1965:1971   */\n      dup3\n        /* \"#utility.yul\":1943:1972   */\n      tag_69\n      jump\t// in\n    tag_122:\n        /* \"#utility.yul\":1935:1972   */\n      swap1\n      pop\n        /* \"#utility.yul\":2027:2031   */\n      0x20\n        /* \"#utility.yul\":2021:2025   */\n      dup2\n        /* \"#utility.yul\":2017:2032   */\n      add\n        /* \"#utility.yul\":2009:2032   */\n      swap1\n      pop\n        /* \"#utility.yul\":1731:2039   */\n      swap2\n      swap1\n      pop\n      jump\t// out\n        /* \"#utility.yul\":2045:2193   */\n    tag_74:\n        /* \"#utility.yul\":2143:2149   */\n      dup3\n        /* \"#utility.yul\":2138:2141   */\n      dup2\n        /* \"#utility.yul\":2133:2136   */\n      dup4\n        /* \"#utility.yul\":2120:2150   */\n      calldatacopy\n        /* \"#utility.yul\":2184:2185   */\n      0x00\n        /* \"#utility.yul\":2175:2181   */\n      dup4\n        /* \"#utility.yul\":2170:2173   */\n      dup4\n        /* \"#utility.yul\":2166:2182   */\n      add\n        /* \"#utility.yul\":2159:2186   */\n      mstore\n        /* \"#utility.yul\":2045:2193   */\n      pop\n      pop\n      pop\n      jump\t// out\n        /* \"#utility.yul\":2199:2624   */\n    tag_75:\n        /* \"#utility.yul\":2277:2282   */\n      0x00\n        /* \"#utility.yul\":2302:2368   */\n      tag_125\n        /* \"#utility.yul\":2318:2367   */\n      tag_126\n        /* \"#utility.yul\":2360:2366   */\n      dup5\n        /* \"#utility.yul\":2318:2367   */\n      tag_73\n      jump\t// in\n    tag_126:\n        /* \"#utility.yul\":2302:2368   */\n      tag_72\n      jump\t// in\n    tag_125:\n        /* \"#utility.yul\":2293:2368   */\n      swap1\n      pop\n        /* \"#utility.yul\":2391:2397   */\n      dup3\n        /* \"#utility.yul\":2384:2389   */\n      dup2\n        /* \"#utility.yul\":2377:2398   */\n      mstore\n        /* \"#utility.yul\":2429:2433   */\n      0x20\n        /* \"#utility.yul\":2422:2427   */\n      dup2\n        /* \"#utility.yul\":2418:2434   */\n      add\n        /* \"#utility.yul\":2467:2470   */\n      dup5\n        /* \"#utility.yul\":2458:2464   */\n      dup5\n        /* \"#utility.yul\":2453:2456   */\n      dup5\n        /* \"#utility.yul\":2449:2465   */\n      add\n        /* \"#utility.yul\":2446:2471   */\n      gt\n        /* \"#utility.yul\":2443:2555   */\n      iszero\n      tag_127\n      jumpi\n        /* \"#utility.yul\":2474:2553   */\n      tag_128\n      tag_68\n      jump\t// in\n    tag_128:\n        /* \"#utility.yul\":2443:2555   */\n    tag_127:\n        /* \"#utility.yul\":2564:2618   */\n      tag_129\n        /* \"#utility.yul\":2611:2617   */\n      dup5\n        /* \"#utility.yul\":2606:2609   */\n      dup3\n        /* \"#utility.yul\":2601:2604   */\n      dup6\n        /* \"#utility.yul\":2564:2618   */\n      tag_74\n      jump\t// in\n    tag_129:\n        /* \"#utility.yul\":2283:2624   */\n      pop\n        /* \"#utility.yul\":2199:2624   */\n      swap4\n      swap3\n      pop\n      pop\n      pop\n      jump\t// out\n        /* \"#utility.yul\":2644:2984   */\n    tag_76:\n        /* \"#utility.yul\":2700:2705   */\n      0x00\n        /* \"#utility.yul\":2749:2752   */\n      dup3\n        /* \"#utility.yul\":2742:2746   */\n      0x1f\n        /* \"#utility.yul\":2734:2740   */\n      dup4\n        /* \"#utility.yul\":2730:2747   */\n      add\n        /* \"#utility.yul\":2726:2753   */\n      slt\n        /* \"#utility.yul\":2716:2838   */\n      tag_131\n      jumpi\n        /* \"#utility.yul\":2757:2836   */\n      tag_132\n      tag_67\n      jump\t// in\n    tag_132:\n        /* \"#utility.yul\":2716:2838   */\n    tag_131:\n        /* \"#utility.yul\":2874:2880   */\n      dup2\n        /* \"#utility.yul\":2861:2881   */\n      calldataload\n        /* \"#utility.yul\":2899:2978   */\n      tag_133\n        /* \"#utility.yul\":2974:2977   */\n      dup5\n        /* \"#utility.yul\":2966:2972   */\n      dup3\n        /* \"#utility.yul\":2959:2963   */\n      0x20\n        /* \"#utility.yul\":2951:2957   */\n      dup7\n        /* \"#utility.yul\":2947:2964   */\n      add\n        /* \"#utility.yul\":2899:2978   */\n      tag_75\n      jump\t// in\n    tag_133:\n        /* \"#utility.yul\":2890:2978   */\n      swap2\n      pop\n        /* \"#utility.yul\":2706:2984   */\n      pop\n        /* \"#utility.yul\":2644:2984   */\n      swap3\n      swap2\n      pop\n      pop\n      jump\t// out\n        /* \"#utility.yul\":2990:3499   */\n    tag_15:\n        /* \"#utility.yul\":3059:3065   */\n      0x00\n        /* \"#utility.yul\":3108:3110   */\n      0x20\n        /* \"#utility.yul\":3096:3105   */\n      dup3\n        /* \"#utility.yul\":3087:3094   */\n      dup5\n        /* \"#utility.yul\":3083:3106   */\n      sub\n        /* \"#utility.yul\":3079:3111   */\n      slt\n        /* \"#utility.yul\":3076:3195   */\n      iszero\n      tag_135\n      jumpi\n        /* \"#utility.yul\":3114:3193   */\n      tag_136\n      tag_65\n      jump\t// in\n    tag_136:\n        /* \"#utility.yul\":3076:3195   */\n    tag_135:\n        /* \"#utility.yul\":3262:3263   */\n      0x00\n        /* \"#utility.yul\":3251:3260   */\n      dup3\n        /* \"#utility.yul\":3247:3264   */\n      add\n        /* \"#utility.yul\":3234:3265   */\n      calldataload\n        /* \"#utility.yul\":3292:3310   */\n      0xffffffffffffffff\n        /* \"#utility.yul\":3284:3290   */\n      dup2\n        /* \"#utility.yul\":3281:3311   */\n      gt\n        /* \"#utility.yul\":3278:3395   */\n      iszero\n      tag_137\n      jumpi\n        /* \"#utility.yul\":3314:3393   */\n      tag_138\n      tag_66\n      jump\t// in\n    tag_138:\n        /* \"#utility.yul\":3278:3395   */\n    tag_137:\n        /* \"#utility.yul\":3419:3482   */\n      tag_139\n        /* \"#utility.yul\":3474:3481   */\n      dup5\n        /* \"#utility.yul\":3465:3471   */\n      dup3\n        /* \"#utility.yul\":3454:3463   */\n      dup6\n        /* \"#utility.yul\":3450:3472   */\n      add\n        /* \"#utility.yul\":3419:3482   */\n      tag_76\n      jump\t// in\n    tag_139:\n        /* \"#utility.yul\":3409:3482   */\n      swap2\n      pop\n        /* \"#utility.yul\":3205:3492   */\n      pop\n        /* \"#utility.yul\":2990:3499   */\n      swap3\n      swap2\n      pop\n      pop\n      jump\t// out\n        /* \"#utility.yul\":3505:3627   */\n    tag_77:\n        /* \"#utility.yul\":3578:3602   */\n      tag_141\n        /* \"#utility.yul\":3596:3601   */\n      dup2\n        /* \"#utility.yul\":3578:3602   */\n      tag_62\n      jump\t// in\n    tag_141:\n        /* \"#utility.yul\":3571:3576   */\n      dup2\n        /* \"#utility.yul\":3568:3603   */\n      eq\n        /* \"#utility.yul\":3558:3621   */\n      tag_142\n      jumpi\n        /* \"#utility.yul\":3617:3618   */\n      0x00\n        /* \"#utility.yul\":3614:3615   */\n      0x00\n        /* \"#utility.yul\":3607:3619   */\n      revert\n        /* \"#utility.yul\":3558:3621   */\n    tag_142:\n        /* \"#utility.yul\":3505:3627   */\n      pop\n      jump\t// out\n        /* \"#utility.yul\":3633:3772   */\n    tag_78:\n        /* \"#utility.yul\":3679:3684   */\n      0x00\n        /* \"#utility.yul\":3717:3723   */\n      dup2\n        /* \"#utility.yul\":3704:3724   */\n      calldataload\n        /* \"#utility.yul\":3695:3724   */\n      swap1\n      pop\n        /* \"#utility.yul\":3733:3766   */\n      tag_144\n        /* \"#utility.yul\":3760:3765   */\n      dup2\n        /* \"#utility.yul\":3733:3766   */\n      tag_77\n      jump\t// in\n    tag_144:\n        /* \"#utility.yul\":3633:3772   */\n      swap3\n      swap2\n      pop\n      pop\n      jump\t// out\n        /* \"#utility.yul\":3778:4107   */\n    tag_19:\n        /* \"#utility.yul\":3837:3843   */\n      0x00\n        /* \"#utility.yul\":3886:3888   */\n      0x20\n        /* \"#utility.yul\":3874:3883   */\n      dup3\n        /* \"#utility.yul\":3865:3872   */\n      dup5\n        /* \"#utility.yul\":3861:3884   */\n      sub\n        /* \"#utility.yul\":3857:3889   */\n      slt\n        /* \"#utility.yul\":3854:3973   */\n      iszero\n      tag_146\n      jumpi\n        /* \"#utility.yul\":3892:3971   */\n      tag_147\n      tag_65\n      jump\t// in\n    tag_147:\n        /* \"#utility.yul\":3854:3973   */\n    tag_146:\n        /* \"#utility.yul\":4012:4013   */\n      0x00\n        /* \"#utility.yul\":4037:4090   */\n      tag_148\n        /* \"#utility.yul\":4082:4089   */\n      dup5\n        /* \"#utility.yul\":4073:4079   */\n      dup3\n        /* \"#utility.yul\":4062:4071   */\n      dup6\n        /* \"#utility.yul\":4058:4080   */\n      add\n        /* \"#utility.yul\":4037:4090   */\n      tag_78\n      jump\t// in\n    tag_148:\n        /* \"#utility.yul\":4027:4090   */\n      swap2\n      pop\n        /* \"#utility.yul\":3983:4100   */\n      pop\n        /* \"#utility.yul\":3778:4107   */\n      swap3\n      swap2\n      pop\n      pop\n      jump\t// out\n        /* \"#utility.yul\":4113:4212   */\n    tag_79:\n        /* \"#utility.yul\":4165:4171   */\n      0x00\n        /* \"#utility.yul\":4199:4204   */\n      dup2\n        /* \"#utility.yul\":4193:4205   */\n      mload\n        /* \"#utility.yul\":4183:4205   */\n      swap1\n      pop\n        /* \"#utility.yul\":4113:4212   */\n      swap2\n      swap1\n      pop\n      jump\t// out\n        /* \"#utility.yul\":4218:4387   */\n    tag_80:\n        /* \"#utility.yul\":4302:4313   */\n      0x00\n        /* \"#utility.yul\":4336:4342   */\n      dup3\n        /* \"#utility.yul\":4331:4334   */\n      dup3\n        /* \"#utility.yul\":4324:4343   */\n      mstore\n        /* \"#utility.yul\":4376:4380   */\n      0x20\n        /* \"#utility.yul\":4371:4374   */\n      dup3\n        /* \"#utility.yul\":4367:4381   */\n      add\n        /* \"#utility.yul\":4352:4381   */\n      swap1\n      pop\n        /* \"#utility.yul\":4218:4387   */\n      swap3\n      swap2\n      pop\n      pop\n      jump\t// out\n        /* \"#utility.yul\":4393:4532   */\n    tag_81:\n        /* \"#utility.yul\":4482:4488   */\n      dup3\n        /* \"#utility.yul\":4477:4480   */\n      dup2\n        /* \"#utility.yul\":4472:4475   */\n      dup4\n        /* \"#utility.yul\":4466:4489   */\n      mcopy\n        /* \"#utility.yul\":4523:4524   */\n      0x00\n        /* \"#utility.yul\":4514:4520   */\n      dup4\n        /* \"#utility.yul\":4509:4512   */\n      dup4\n        /* \"#utility.yul\":4505:4521   */\n      add\n        /* \"#utility.yul\":4498:4525   */\n      mstore\n        /* \"#utility.yul\":4393:4532   */\n      pop\n      pop\n      pop\n      jump\t// out\n        /* \"#utility.yul\":4538:4915   */\n    tag_82:\n        /* \"#utility.yul\":4626:4629   */\n      0x00\n        /* \"#utility.yul\":4654:4693   */\n      tag_153\n        /* \"#utility.yul\":4687:4692   */\n      dup3\n        /* \"#utility.yul\":4654:4693   */\n      tag_79\n      jump\t// in\n    tag_153:\n        /* \"#utility.yul\":4709:4780   */\n      tag_154\n        /* \"#utility.yul\":4773:4779   */\n      dup2\n        /* \"#utility.yul\":4768:4771   */\n      dup6\n        /* \"#utility.yul\":4709:4780   */\n      tag_80\n      jump\t// in\n    tag_154:\n        /* \"#utility.yul\":4702:4780   */\n      swap4\n      pop\n        /* \"#utility.yul\":4789:4854   */\n      tag_155\n        /* \"#utility.yul\":4847:4853   */\n      dup2\n        /* \"#utility.yul\":4842:4845   */\n      dup6\n        /* \"#utility.yul\":4835:4839   */\n      0x20\n        /* \"#utility.yul\":4828:4833   */\n      dup7\n        /* \"#utility.yul\":4824:4840   */\n      add\n        /* \"#utility.yul\":4789:4854   */\n      tag_81\n      jump\t// in\n    tag_155:\n        /* \"#utility.yul\":4879:4908   */\n      tag_156\n        /* \"#utility.yul\":4901:4907   */\n      dup2\n        /* \"#utility.yul\":4879:4908   */\n      tag_69\n      jump\t// in\n    tag_156:\n        /* \"#utility.yul\":4874:4877   */\n      dup5\n        /* \"#utility.yul\":4870:4909   */\n      add\n        /* \"#utility.yul\":4863:4909   */\n      swap2\n      pop\n        /* \"#utility.yul\":4630:4915   */\n      pop\n        /* \"#utility.yul\":4538:4915   */\n      swap3\n      swap2\n      pop\n      pop\n      jump\t// out\n        /* \"#utility.yul\":4921:5234   */\n    tag_22:\n        /* \"#utility.yul\":5034:5038   */\n      0x00\n        /* \"#utility.yul\":5072:5074   */\n      0x20\n        /* \"#utility.yul\":5061:5070   */\n      dup3\n        /* \"#utility.yul\":5057:5075   */\n      add\n        /* \"#utility.yul\":5049:5075   */\n      swap1\n      pop\n        /* \"#utility.yul\":5121:5130   */\n      dup2\n        /* \"#utility.yul\":5115:5119   */\n      dup2\n        /* \"#utility.yul\":5111:5131   */\n      sub\n        /* \"#utility.yul\":5107:5108   */\n      0x00\n        /* \"#utility.yul\":5096:5105   */\n      dup4\n        /* \"#utility.yul\":5092:5109   */\n      add\n        /* \"#utility.yul\":5085:5132   */\n      mstore\n        /* \"#utility.yul\":5149:5227   */\n      tag_158\n        /* \"#utility.yul\":5222:5226   */\n      dup2\n        /* \"#utility.yul\":5213:5219   */\n      dup5\n        /* \"#utility.yul\":5149:5227   */\n      tag_82\n      jump\t// in\n    tag_158:\n        /* \"#utility.yul\":5141:5227   */\n      swap1\n      pop\n        /* \"#utility.yul\":4921:5234   */\n      swap3\n      swap2\n      pop\n      pop\n      jump\t// out\n        /* \"#utility.yul\":5240:5714   */\n    tag_25:\n        /* \"#utility.yul\":5308:5314   */\n      0x00\n        /* \"#utility.yul\":5316:5322   */\n      0x00\n        /* \"#utility.yul\":5365:5367   */\n      0x40\n        /* \"#utility.yul\":5353:5362   */\n      dup4\n        /* \"#utility.yul\":5344:5351   */\n      dup6\n        /* \"#utility.yul\":5340:5363   */\n      sub\n        /* \"#utility.yul\":5336:5368   */\n      slt\n        /* \"#utility.yul\":5333:5452   */\n      iszero\n      tag_160\n      jumpi\n        /* \"#utility.yul\":5371:5450   */\n      tag_161\n      tag_65\n      jump\t// in\n    tag_161:\n        /* \"#utility.yul\":5333:5452   */\n    tag_160:\n        /* \"#utility.yul\":5491:5492   */\n      0x00\n        /* \"#utility.yul\":5516:5569   */\n      tag_162\n        /* \"#utility.yul\":5561:5568   */\n      dup6\n        /* \"#utility.yul\":5552:5558   */\n      dup3\n        /* \"#utility.yul\":5541:5550   */\n      dup7\n        /* \"#utility.yul\":5537:5559   */\n      add\n        /* \"#utility.yul\":5516:5569   */\n      tag_78\n      jump\t// in\n    tag_162:\n        /* \"#utility.yul\":5506:5569   */\n      swap3\n      pop\n        /* \"#utility.yul\":5462:5579   */\n      pop\n        /* \"#utility.yul\":5618:5620   */\n      0x20\n        /* \"#utility.yul\":5644:5697   */\n      tag_163\n        /* \"#utility.yul\":5689:5696   */\n      dup6\n        /* \"#utility.yul\":5680:5686   */\n      dup3\n        /* \"#utility.yul\":5669:5678   */\n      dup7\n        /* \"#utility.yul\":5665:5687   */\n      add\n        /* \"#utility.yul\":5644:5697   */\n      tag_78\n      jump\t// in\n    tag_163:\n        /* \"#utility.yul\":5634:5697   */\n      swap2\n      pop\n        /* \"#utility.yul\":5589:5707   */\n      pop\n        /* \"#utility.yul\":5240:5714   */\n      swap3\n      pop\n      swap3\n      swap1\n      pop\n      jump\t// out\n        /* \"#utility.yul\":5720:5900   */\n    tag_83:\n        /* \"#utility.yul\":5768:5845   */\n      0x4e487b7100000000000000000000000000000000000000000000000000000000\n        /* \"#utility.yul\":5765:5766   */\n      0x00\n        /* \"#utility.yul\":5758:5846   */\n      mstore\n        /* \"#utility.yul\":5865:5869   */\n      0x22\n        /* \"#utility.yul\":5862:5863   */\n      0x04\n        /* \"#utility.yul\":5855:5870   */\n      mstore\n        /* \"#utility.yul\":5889:5893   */\n      0x24\n        /* \"#utility.yul\":5886:5887   */\n      0x00\n        /* \"#utility.yul\":5879:5894   */\n      revert\n        /* \"#utility.yul\":5906:6226   */\n    tag_44:\n        /* \"#utility.yul\":5950:5956   */\n      0x00\n        /* \"#utility.yul\":5987:5988   */\n      0x02\n        /* \"#utility.yul\":5981:5985   */\n      dup3\n        /* \"#utility.yul\":5977:5989   */\n      div\n        /* \"#utility.yul\":5967:5989   */\n      swap1\n      pop\n        /* \"#utility.yul\":6034:6035   */\n      0x01\n        /* \"#utility.yul\":6028:6032   */\n      dup3\n        /* \"#utility.yul\":6024:6036   */\n      and\n        /* \"#utility.yul\":6055:6073   */\n      dup1\n        /* \"#utility.yul\":6045:6126   */\n      tag_166\n      jumpi\n        /* \"#utility.yul\":6111:6115   */\n      0x7f\n        /* \"#utility.yul\":6103:6109   */\n      dup3\n        /* \"#utility.yul\":6099:6116   */\n      and\n        /* \"#utility.yul\":6089:6116   */\n      swap2\n      pop\n        /* \"#utility.yul\":6045:6126   */\n    tag_166:\n        /* \"#utility.yul\":6173:6175   */\n      0x20\n        /* \"#utility.yul\":6165:6171   */\n      dup3\n        /* \"#utility.yul\":6162:6176   */\n      lt\n        /* \"#utility.yul\":6142:6160   */\n      dup2\n        /* \"#utility.yul\":6139:6177   */\n      sub\n        /* \"#utility.yul\":6136:6220   */\n      tag_167\n      jumpi\n        /* \"#utility.yul\":6192:6210   */\n      tag_168\n      tag_83\n      jump\t// in\n    tag_168:\n        /* \"#utility.yul\":6136:6220   */\n    tag_167:\n        /* \"#utility.yul\":5957:6226   */\n      pop\n        /* \"#utility.yul\":5906:6226   */\n      swap2\n      swap1\n      pop\n      jump\t// out\n        /* \"#utility.yul\":6232:6373   */\n    tag_84:\n        /* \"#utility.yul\":6281:6285   */\n      0x00\n        /* \"#utility.yul\":6304:6307   */\n      dup2\n        /* \"#utility.yul\":6296:6307   */\n      swap1\n      pop\n        /* \"#utility.yul\":6327:6330   */\n      dup2\n        /* \"#utility.yul\":6324:6325   */\n      0x00\n        /* \"#utility.yul\":6317:6331   */\n      mstore\n        /* \"#utility.yul\":6361:6365   */\n      0x20\n        /* \"#utility.yul\":6358:6359   */\n      0x00\n        /* \"#utility.yul\":6348:6366   */\n      keccak256\n        /* \"#utility.yul\":6340:6366   */\n      swap1\n      pop\n        /* \"#utility.yul\":6232:6373   */\n      swap2\n      swap1\n      pop\n      jump\t// out\n        /* \"#utility.yul\":6379:6472   */\n    tag_85:\n        /* \"#utility.yul\":6416:6422   */\n      0x00\n        /* \"#utility.yul\":6463:6465   */\n      0x20\n        /* \"#utility.yul\":6458:6460   */\n      0x1f\n        /* \"#utility.yul\":6451:6456   */\n      dup4\n        /* \"#utility.yul\":6447:6461   */\n      add\n        /* \"#utility.yul\":6443:6466   */\n      div\n        /* \"#utility.yul\":6433:6466   */\n      swap1\n      pop\n        /* \"#utility.yul\":6379:6472   */\n      swap2\n      swap1\n      pop\n      jump\t// out\n        /* \"#utility.yul\":6478:6585   */\n    tag_86:\n        /* \"#utility.yul\":6522:6530   */\n      0x00\n        /* \"#utility.yul\":6572:6577   */\n      dup3\n        /* \"#utility.yul\":6566:6570   */\n      dup3\n        /* \"#utility.yul\":6562:6578   */\n      shl\n        /* \"#utility.yul\":6541:6578   */\n      swap1\n      pop\n        /* \"#utility.yul\":6478:6585   */\n      swap3\n      swap2\n      pop\n      pop\n      jump\t// out\n        /* \"#utility.yul\":6591:6984   */\n    tag_87:\n        /* \"#utility.yul\":6660:6666   */\n      0x00\n        /* \"#utility.yul\":6710:6711   */\n      0x08\n        /* \"#utility.yul\":6698:6708   */\n      dup4\n        /* \"#utility.yul\":6694:6712   */\n      mul\n        /* \"#utility.yul\":6733:6830   */\n      tag_173\n        /* \"#utility.yul\":6763:6829   */\n      0xffffffffffffffffffffffffffffffffffffffffffffffffffffffffffffffff\n        /* \"#utility.yul\":6752:6761   */\n      dup3\n        /* \"#utility.yul\":6733:6830   */\n      tag_86\n      jump\t// in\n    tag_173:\n        /* \"#utility.yul\":6851:6890   */\n      tag_174\n        /* \"#utility.yul\":6881:6889   */\n      dup7\n        /* \"#utility.yul\":6870:6879   */\n      dup4\n        /* \"#utility.yul\":6851:6890   */\n      tag_86\n      jump\t// in\n    tag_174:\n        /* \"#utility.yul\":6839:6890   */\n      swap6\n      pop\n        /* \"#utility.yul\":6923:6927   */\n      dup1\n        /* \"#utility.yul\":6919:6928   */\n      not\n        /* \"#utility.yul\":6912:6917   */\n      dup5\n        /* \"#utility.yul\":6908:6929   */\n      and\n        /* \"#utility.yul\":6899:6929   */\n      swap4\n      pop\n        /* \"#utility.yul\":6972:6976   */\n      dup1\n        /* \"#utility.yul\":6962:6970   */\n      dup7\n        /* \"#utility.yul\":6958:6977   */\n      and\n        /* \"#utility.yul\":6951:6956   */\n      dup5\n        /* \"#utility.yul\":6948:6978   */\n      or\n        /* \"#utility.yul\":6938:6978   */\n      swap3\n      pop\n        /* \"#utility.yul\":6667:6984   */\n      pop\n      pop\n        /* \"#utility.yul\":6591:6984   */\n      swap4\n      swap3\n      pop\n      pop\n      pop\n      jump\t// out\n        /* \"#utility.yul\":6990:7050   */\n    tag_88:\n        /* \"#utility.yul\":7018:7021   */\n      0x00\n        /* \"#utility.yul\":7039:7044   */\n      dup2\n        /* \"#utility.yul\":7032:7044   */\n      swap1\n      pop\n        /* \"#utility.yul\":6990:7050   */\n      swap2\n      swap1\n      pop\n      jump\t// out\n        /* \"#utility.yul\":7056:7198   */\n    tag_89:\n        /* \"#utility.yul\":7106:7115   */\n      0x00\n        /* \"#utility.yul\":7139:7192   */\n      tag_177\n        /* \"#utility.yul\":7157:7191   */\n      tag_178\n        /* \"#utility.yul\":7166:7190   */\n      tag_179\n        /* \"#utility.yul\":7184:7189   */\n      dup5\n        /* \"#utility.yul\":7166:7190   */\n      tag_62\n      jump\t// in\n    tag_179:\n        /* \"#utility.yul\":7157:7191   */\n      tag_88\n      jump\t// in\n    tag_178:\n        /* \"#utility.yul\":7139:7192   */\n      tag_62\n      jump\t// in\n    tag_177:\n        /* \"#utility.yul\":7126:7192   */\n      swap1\n      pop\n        /* \"#utility.yul\":7056:7198   */\n      swap2\n      swap1\n      pop\n      jump\t// out\n        /* \"#utility.yul\":7204:7279   */\n    tag_90:\n        /* \"#utility.yul\":7247:7250   */\n      0x00\n        /* \"#utility.yul\":7268:7273   */\n      dup2\n        /* \"#utility.yul\":7261:7273   */\n      swap1\n      pop\n        /* \"#utility.yul\":7204:7279   */\n      swap2\n      swap1\n      pop\n      jump\t// out\n        /* \"#utility.yul\":7285:7554   */\n    tag_91:\n        /* \"#utility.yul\":7395:7434   */\n      tag_182\n        /* \"#utility.yul\":7426:7433   */\n      dup4\n        /* \"#utility.yul\":7395:7434   */\n      tag_89\n      jump\t// in\n    tag_182:\n        /* \"#utility.yul\":7456:7547   */\n      tag_183\n        /* \"#utility.yul\":7505:7546   */\n      tag_184\n        /* \"#utility.yul\":7529:7545   */\n      dup3\n        /* \"#utility.yul\":7505:7546   */\n      tag_90\n      jump\t// in\n    tag_184:\n        /* \"#utility.yul\":7497:7503   */\n      dup5\n        /* \"#utility.yul\":7490:7494   */\n      dup5\n        /* \"#utility.yul\":7484:7495   */\n      sload\n        /* \"#utility.yul\":7456:7547   */\n      tag_87\n      jump\t// in\n    tag_183:\n        /* \"#utility.yul\":7450:7454   */\n      dup3\n        /* \"#utility.yul\":7443:7548   */\n      sstore\n        /* \"#utility.yul\":7361:7554   */\n      pop\n        /* \"#utility.yul\":7285:7554   */\n      pop\n      pop\n      pop\n      jump\t// out\n        /* \"#utility.yul\":7560:7633   */\n    tag_92:\n        /* \"#utility.yul\":7605:7608   */\n      0x00\n        /* \"#utility.yul\":7626:7627   */\n      0x00\n        /* \"#utility.yul\":7619:7627   */\n      swap1\n      pop\n        /* \"#utility.yul\":7560:7633   */\n      swap1\n      jump\t// out\n        /* \"#utility.yul\":7639:7828   */\n    tag_93:\n        /* \"#utility.yul\":7716:7748   */\n      tag_187\n      tag_92\n      jump\t// in\n    tag_187:\n        /* \"#utility.yul\":7757:7822   */\n      tag_188\n        /* \"#utility.yul\":7815:7821   */\n      dup2\n        /* \"#utility.yul\":7807:7813   */\n      dup5\n        /* \"#utility.yul\":7801:7805   */\n      dup5\n        /* \"#utility.yul\":7757:7822   */\n      tag_91\n      jump\t// in\n    tag_188:\n        /* \"#utility.yul\":7692:7828   */\n      pop\n        /* \"#utility.yul\":7639:7828   */\n      pop\n      pop\n      jump\t// out\n        /* \"#utility.yul\":7834:8020   */\n    tag_94:\n        /* \"#utility.yul\":7894:8014   */\n    tag_190:\n        /* \"#utility.yul\":7911:7914   */\n      dup2\n        /* \"#utility.yul\":7904:7909   */\n      dup2\n        /* \"#utility.yul\":7901:7915   */\n      lt\n        /* \"#utility.yul\":7894:8014   */\n      iszero\n      tag_192\n      jumpi\n        /* \"#utility.yul\":7965:8004   */\n      tag_193\n        /* \"#utility.yul\":8002:8003   */\n      0x00\n        /* \"#utility.yul\":7995:8000   */\n      dup3\n        /* \"#utility.yul\":7965:8004   */\n      tag_93\n      jump\t// in\n    tag_193:\n        /* \"#utility.yul\":7938:7939   */\n      0x01\n        /* \"#utility.yul\":7931:7936   */\n      dup2\n        /* \"#utility.yul\":7927:7940   */\n      add\n        /* \"#utility.yul\":7918:7940   */\n      swap1\n      pop\n        /* \"#utility.yul\":7894:8014   */\n      jump(tag_190)\n    tag_192:\n        /* \"#utility.yul\":7834:8020   */\n      pop\n      pop\n      jump\t// out\n        /* \"#utility.yul\":8026:8569   */\n    tag_95:\n        /* \"#utility.yul\":8127:8129   */\n      0x1f\n        /* \"#utility.yul\":8122:8125   */\n      dup3\n        /* \"#utility.yul\":8119:8130   */\n      gt\n        /* \"#utility.yul\":8116:8562   */\n      iszero\n      tag_195\n      jumpi\n        /* \"#utility.yul\":8161:8199   */\n      tag_196\n        /* \"#utility.yul\":8193:8198   */\n      dup2\n        /* \"#utility.yul\":8161:8199   */\n      tag_84\n      jump\t// in\n    tag_196:\n        /* \"#utility.yul\":8245:8274   */\n      tag_197\n        /* \"#utility.yul\":8263:8273   */\n      dup5\n        /* \"#utility.yul\":8245:8274   */\n      tag_85\n      jump\t// in\n    tag_197:\n        /* \"#utility.yul\":8235:8243   */\n      dup2\n        /* \"#utility.yul\":8231:8275   */\n      add\n        /* \"#utility.yul\":8428:8430   */\n      0x20\n        /* \"#utility.yul\":8416:8426   */\n      dup6\n        /* \"#utility.yul\":8413:8431   */\n      lt\n        /* \"#utility.yul\":8410:8459   */\n      iszero\n      tag_198\n      jumpi\n        /* \"#utility.yul\":8449:8457   */\n      dup2\n        /* \"#utility.yul\":8434:8457   */\n      swap1\n      pop\n        /* \"#utility.yul\":8410:8459   */\n    tag_198:\n        /* \"#utility.yul\":8472:8552   */\n      tag_199\n        /* \"#utility.yul\":8528:8550   */\n      tag_200\n        /* \"#utility.yul\":8546:8549   */\n      dup6\n        /* \"#utility.yul\":8528:8550   */\n      tag_85\n      jump\t// in\n    tag_200:\n        /* \"#utility.yul\":8518:8526   */\n      dup4\n        /* \"#utility.yul\":8514:8551   */\n      add\n        /* \"#utility.yul\":8501:8512   */\n      dup3\n        /* \"#utility.yul\":8472:8552   */\n      tag_94\n      jump\t// in\n    tag_199:\n        /* \"#utility.yul\":8131:8562   */\n      pop\n      pop\n        /* \"#utility.yul\":8116:8562   */\n    tag_195:\n        /* \"#utility.yul\":8026:8569   */\n      pop\n      pop\n      pop\n      jump\t// out\n        /* \"#utility.yul\":8575:8692   */\n    tag_96:\n        /* \"#utility.yul\":8629:8637   */\n      0x00\n        /* \"#utility.yul\":8679:8684   */\n      dup3\n        /* \"#utility.yul\":8673:8677   */\n      dup3\n        /* \"#utility.yul\":8669:8685   */\n      shr\n        /* \"#utility.yul\":8648:8685   */\n      swap1\n      pop\n        /* \"#utility.yul\":8575:8692   */\n      swap3\n      swap2\n      pop\n      pop\n      jump\t// out\n        /* \"#utility.yul\":8698:8867   */\n    tag_97:\n        /* \"#utility.yul\":8742:8748   */\n      0x00\n        /* \"#utility.yul\":8775:8826   */\n      tag_203\n        /* \"#utility.yul\":8823:8824   */\n      0x00\n        /* \"#utility.yul\":8819:8825   */\n      not\n        /* \"#utility.yul\":8811:8816   */\n      dup5\n        /* \"#utility.yul\":8808:8809   */\n      0x08\n        /* \"#utility.yul\":8804:8817   */\n      mul\n        /* \"#utility.yul\":8775:8826   */\n      tag_96\n      jump\t// in\n    tag_203:\n        /* \"#utility.yul\":8771:8827   */\n      not\n        /* \"#utility.yul\":8856:8860   */\n      dup1\n        /* \"#utility.yul\":8850:8854   */\n      dup4\n        /* \"#utility.yul\":8846:8861   */\n      and\n        /* \"#utility.yul\":8836:8861   */\n      swap2\n      pop\n        /* \"#utility.yul\":8749:8867   */\n      pop\n        /* \"#utility.yul\":8698:8867   */\n      swap3\n      swap2\n      pop\n      pop\n      jump\t// out\n        /* \"#utility.yul\":8872:9167   */\n    tag_98:\n        /* \"#utility.yul\":8948:8952   */\n      0x00\n        /* \"#utility.yul\":9094:9123   */\n      tag_205\n        /* \"#utility.yul\":9119:9122   */\n      dup4\n        /* \"#utility.yul\":9113:9117   */\n      dup4\n        /* \"#utility.yul\":9094:9123   */\n      tag_97\n      jump\t// in\n    tag_205:\n        /* \"#utility.yul\":9086:9123   */\n      swap2\n      pop\n        /* \"#utility.yul\":9156:9159   */\n      dup3\n        /* \"#utility.yul\":9153:9154   */\n      0x02\n        /* \"#utility.yul\":9149:9160   */\n      mul\n        /* \"#utility.yul\":9143:9147   */\n      dup3\n        /* \"#utility.yul\":9140:9161   */\n      or\n        /* \"#utility.yul\":9132:9161   */\n      swap1\n      pop\n        /* \"#utility.yul\":8872:9167   */\n      swap3\n      swap2\n      pop\n      pop\n      jump\t// out\n        /* \"#utility.yul\":9172:10567   */\n    tag_40:\n        /* \"#utility.yul\":9289:9326   */\n      tag_207\n        /* \"#utility.yul\":9322:9325   */\n      dup3\n        /* \"#utility.yul\":9289:9326   */\n      tag_79\n      jump\t// in\n    tag_207:\n        /* \"#utility.yul\":9391:9409   */\n      0xffffffffffffffff\n        /* \"#utility.yul\":9383:9389   */\n      dup2\n        /* \"#utility.yul\":9380:9410   */\n      gt\n        /* \"#utility.yul\":9377:9433   */\n      iszero\n      tag_208\n      jumpi\n        /* \"#utility.yul\":9413:9431   */\n      tag_209\n      tag_70\n      jump\t// in\n    tag_209:\n        /* \"#utility.yul\":9377:9433   */\n    tag_208:\n        /* \"#utility.yul\":9457:9495   */\n      tag_210\n        /* \"#utility.yul\":9489:9493   */\n      dup3\n        /* \"#utility.yul\":9483:9494   */\n      sload\n        /* \"#utility.yul\":9457:9495   */\n      tag_44\n      jump\t// in\n    tag_210:\n        /* \"#utility.yul\":9542:9609   */\n      tag_211\n        /* \"#utility.yul\":9602:9608   */\n      dup3\n        /* \"#utility.yul\":9594:9600   */\n      dup3\n        /* \"#utility.yul\":9588:9592   */\n      dup6\n        /* \"#utility.yul\":9542:9609   */\n      tag_95\n      jump\t// in\n    tag_211:\n        /* \"#utility.yul\":9636:9637   */\n      0x00\n        /* \"#utility.yul\":9660:9664   */\n      0x20\n        /* \"#utility.yul\":9647:9664   */\n      swap1\n      pop\n        /* \"#utility.yul\":9692:9694   */\n      0x1f\n        /* \"#utility.yul\":9684:9690   */\n      dup4\n        /* \"#utility.yul\":9681:9695   */\n      gt\n        /* \"#utility.yul\":9709:9710   */\n      0x01\n        /* \"#utility.yul\":9704:10322   */\n      dup2\n      eq\n      tag_213\n      jumpi\n        /* \"#utility.yul\":10366:10367   */\n      0x00\n        /* \"#utility.yul\":10383:10389   */\n      dup5\n        /* \"#utility.yul\":10380:10457   */\n      iszero\n      tag_214\n      jumpi\n        /* \"#utility.yul\":10432:10441   */\n      dup3\n        /* \"#utility.yul\":10427:10430   */\n      dup8\n        /* \"#utility.yul\":10423:10442   */\n      add\n        /* \"#utility.yul\":10417:10443   */\n      mload\n        /* \"#utility.yul\":10408:10443   */\n      swap1\n      pop\n        /* \"#utility.yul\":10380:10457   */\n    tag_214:\n        /* \"#utility.yul\":10483:10550   */\n      tag_215\n        /* \"#utility.yul\":10543:10549   */\n      dup6\n        /* \"#utility.yul\":10536:10541   */\n      dup3\n        /* \"#utility.yul\":10483:10550   */\n      tag_98\n      jump\t// in\n    tag_215:\n        /* \"#utility.yul\":10477:10481   */\n      dup7\n        /* \"#utility.yul\":10470:10551   */\n      sstore\n        /* \"#utility.yul\":10339:10561   */\n      pop\n        /* \"#utility.yul\":9674:10561   */\n      jump(tag_212)\n        /* \"#utility.yul\":9704:10322   */\n    tag_213:\n        /* \"#utility.yul\":9756:9760   */\n      0x1f\n        /* \"#utility.yul\":9752:9761   */\n      not\n        /* \"#utility.yul\":9744:9750   */\n      dup5\n        /* \"#utility.yul\":9740:9762   */\n      and\n        /* \"#utility.yul\":9790:9827   */\n      tag_216\n        /* \"#utility.yul\":9822:9826   */\n      dup7\n        /* \"#utility.yul\":9790:9827   */\n      tag_84\n      jump\t// in\n    tag_216:\n        /* \"#utility.yul\":9849:9850   */\n      0x00\n        /* \"#utility.yul\":9863:10071   */\n    tag_217:\n        /* \"#utility.yul\":9877:9884   */\n      dup3\n        /* \"#utility.yul\":9874:9875   */\n      dup2\n        /* \"#utility.yul\":9871:9885   */\n      lt\n        /* \"#utility.yul\":9863:10071   */\n      iszero\n      tag_219\n      jumpi\n        /* \"#utility.yul\":9956:9965   */\n      dup5\n        /* \"#utility.yul\":9951:9954   */\n      dup10\n        /* \"#utility.yul\":9947:9966   */\n      add\n        /* \"#utility.yul\":9941:9967   */\n      mload\n        /* \"#utility.yul\":9933:9939   */\n      dup3\n        /* \"#utility.yul\":9926:9968   */\n      sstore\n        /* \"#utility.yul\":10007:10008   */\n      0x01\n        /* \"#utility.yul\":9999:10005   */\n      dup3\n        /* \"#utility.yul\":9995:10009   */\n      add\n        /* \"#utility.yul\":9985:10009   */\n      swap2\n      pop\n        /* \"#utility.yul\":10054:10056   */\n      0x20\n        /* \"#utility.yul\":10043:10052   */\n      dup6\n        /* \"#utility.yul\":10039:10057   */\n      add\n        /* \"#utility.yul\":10026:10057   */\n      swap5\n      pop\n        /* \"#utility.yul\":9900:9904   */\n      0x20\n        /* \"#utility.yul\":9897:9898   */\n      dup2\n        /* \"#utility.yul\":9893:9905   */\n      add\n        /* \"#utility.yul\":9888:9905   */\n      swap1\n      pop\n        /* \"#utility.yul\":9863:10071   */\n      jump(tag_217)\n    tag_219:\n        /* \"#utility.yul\":10099:10105   */\n      dup7\n        /* \"#utility.yul\":10090:10097   */\n      dup4\n        /* \"#utility.yul\":10087:10106   */\n      lt\n        /* \"#utility.yul\":10084:10263   */\n      iszero\n      tag_220\n      jumpi\n        /* \"#utility.yul\":10157:10166   */\n      dup5\n        /* \"#utility.yul\":10152:10155   */\n      dup10\n        /* \"#utility.yul\":10148:10167   */\n      add\n        /* \"#utility.yul\":10142:10168   */\n      mload\n        /* \"#utility.yul\":10200:10248   */\n      tag_221\n        /* \"#utility.yul\":10242:10246   */\n      0x1f\n        /* \"#utility.yul\":10234:10240   */\n      dup10\n        /* \"#utility.yul\":10230:10247   */\n      and\n        /* \"#utility.yul\":10219:10228   */\n      dup3\n        /* \"#utility.yul\":10200:10248   */\n      tag_97\n      jump\t// in\n    tag_221:\n        /* \"#utility.yul\":10192:10198   */\n      dup4\n        /* \"#utility.yul\":10185:10249   */\n      sstore\n        /* \"#utility.yul\":10107:10263   */\n      pop\n        /* \"#utility.yul\":10084:10263   */\n    tag_220:\n        /* \"#utility.yul\":10309:10310   */\n      0x01\n        /* \"#utility.yul\":10305:10306   */\n      0x02\n        /* \"#utility.yul\":10297:10303   */\n      dup9\n        /* \"#utility.yul\":10293:10307   */\n      mul\n        /* \"#utility.yul\":10289:10311   */\n      add\n        /* \"#utility.yul\":10283:10287   */\n      dup9\n        /* \"#utility.yul\":10276:10312   */\n      sstore\n        /* \"#utility.yul\":9711:10322   */\n      pop\n      pop\n      pop\n        /* \"#utility.yul\":9674:10561   */\n    tag_212:\n      pop\n        /* \"#utility.yul\":9264:10567   */\n      pop\n      pop\n      pop\n        /* \"#utility.yul\":9172:10567   */\n      pop\n      pop\n      jump\t// out\n\n    auxdata: 0xa264697066735822122056678b01cc0a1636a27a29638d84bdd05f71a7c1250b0c33710aa5211815041264736f6c634300081e0033\n}\n",
				"bytecode": {
					"linkReferences": {},
					"object": "60806040526040518060600160405280600160ff168152602001600260ff168152602001600360ff168152505f90600361003a92919061014e565b5060405180604001604052806040518060400160405280600581526020017f6170706c6500000000000000000000000000000000000000000000000000000081525081526020016040518060400160405280600681526020017f62616e616e65000000000000000000000000000000000000000000000000000081525081525060019060026100ca92919061019e565b5060405180604001604052806040518060600160405280600160ff168152602001600260ff168152602001600360ff1681525081526020016040518060600160405280600260ff168152602001600360ff168152602001600460ff16815250815250600390600261013c9291906101f5565b50348015610148575f5ffd5b50610616565b828054828255905f5260205f2090810192821561018d579160200282015b8281111561018c578251829060ff1690559160200191906001019061016c565b5b50905061019a919061024e565b5090565b828054828255905f5260205f209081019282156101e4579160200282015b828111156101e35782518290816101d39190610547565b50916020019190600101906101bc565b5b5090506101f19190610269565b5090565b828054828255905f5260205f2090810192821561023d579160200282015b8281111561023c5782518290600361022c92919061014e565b5091602001919060010190610213565b5b50905061024a919061028c565b5090565b5b80821115610265575f815f90555060010161024f565b5090565b5b80821115610288575f818161027f91906102af565b5060010161026a565b5090565b5b808211156102ab575f81816102a291906102ec565b5060010161028d565b5090565b5080546102bb9061036e565b5f825580601f106102cc57506102e9565b601f0160209004905f5260205f20908101906102e8919061024e565b5b50565b5080545f8255905f5260205f2090810190610307919061024e565b50565b5f81519050919050565b7f4e487b71000000000000000000000000000000000000000000000000000000005f52604160045260245ffd5b7f4e487b71000000000000000000000000000000000000000000000000000000005f52602260045260245ffd5b5f600282049050600182168061038557607f821691505b60208210810361039857610397610341565b5b50919050565b5f819050815f5260205f209050919050565b5f6020601f8301049050919050565b5f82821b905092915050565b5f600883026103fa7fffffffffffffffffffffffffffffffffffffffffffffffffffffffffffffffff826103bf565b61040486836103bf565b95508019841693508086168417925050509392505050565b5f819050919050565b5f819050919050565b5f61044861044361043e8461041c565b610425565b61041c565b9050919050565b5f819050919050565b6104618361042e565b61047561046d8261044f565b8484546103cb565b825550505050565b5f5f905090565b61048c61047d565b610497818484610458565b505050565b5b818110156104ba576104af5f82610484565b60018101905061049d565b5050565b601f8211156104ff576104d08161039e565b6104d9846103b0565b810160208510156104e8578190505b6104fc6104f4856103b0565b83018261049c565b50505b505050565b5f82821c905092915050565b5f61051f5f1984600802610504565b1980831691505092915050565b5f6105378383610510565b9150826002028217905092915050565b6105508261030a565b67ffffffffffffffff81111561056957610568610314565b5b610573825461036e565b61057e8282856104be565b5f60209050601f8311600181146105af575f841561059d578287015190505b6105a7858261052c565b86555061060e565b601f1984166105bd8661039e565b5f5b828110156105e4578489015182556001820191506020850194506020810190506105bf565b8683101561060157848901516105fd601f891682610510565b8355505b6001600288020188555050505b505050505050565b61091a806106235f395ff3fe608060405234801561000f575f5ffd5b5060043610610060575f3560e01c806326eb4dbb146100645780633a5fbaaa146100825780636422c4c81461009e5780638f202bf0146100ce5780639ae918c7146100fe578063c5a46ee61461012e575b5f5ffd5b61006c61015e565b6040516100799190610358565b60405180910390f35b61009c600480360381019061009791906104be565b61016a565b005b6100b860048036038101906100b3919061052f565b61019f565b6040516100c591906105ba565b60405180910390f35b6100e860048036038101906100e391906105da565b610245565b6040516100f59190610358565b60405180910390f35b6101186004803603810190610113919061052f565b61027b565b6040516101259190610358565b60405180910390f35b6101486004803603810190610143919061052f565b61029a565b60405161015591906105ba565b60405180910390f35b5f600280549050905090565b600281908060018154018082558091505060019003905f5260205f20015f90919091909150908161019b9190610815565b5050565b600181815481106101ae575f80fd5b905f5260205f20015f9150905080546101c690610645565b80601f01602080910402602001604051908101604052809291908181526020018280546101f290610645565b801561023d5780601f106102145761010080835404028352916020019161023d565b820191905f5260205f20905b81548152906001019060200180831161022057829003601f168201915b505050505081565b60038281548110610254575f80fd5b905f5260205f20018181548110610269575f80fd5b905f5260205f20015f91509150505481565b5f8181548110610289575f80fd5b905f5260205f20015f915090505481565b600281815481106102a9575f80fd5b905f5260205f20015f9150905080546102c190610645565b80601f01602080910402602001604051908101604052809291908181526020018280546102ed90610645565b80156103385780601f1061030f57610100808354040283529160200191610338565b820191905f5260205f20905b81548152906001019060200180831161031b57829003601f168201915b505050505081565b5f819050919050565b61035281610340565b82525050565b5f60208201905061036b5f830184610349565b92915050565b5f604051905090565b5f5ffd5b5f5ffd5b5f5ffd5b5f5ffd5b5f601f19601f8301169050919050565b7f4e487b71000000000000000000000000000000000000000000000000000000005f52604160045260245ffd5b6103d08261038a565b810181811067ffffffffffffffff821117156103ef576103ee61039a565b5b80604052505050565b5f610401610371565b905061040d82826103c7565b919050565b5f67ffffffffffffffff82111561042c5761042b61039a565b5b6104358261038a565b9050602081019050919050565b828183375f83830152505050565b5f61046261045d84610412565b6103f8565b90508281526020810184848401111561047e5761047d610386565b5b610489848285610442565b509392505050565b5f82601f8301126104a5576104a4610382565b5b81356104b5848260208601610450565b91505092915050565b5f602082840312156104d3576104d261037a565b5b5f82013567ffffffffffffffff8111156104f0576104ef61037e565b5b6104fc84828501610491565b91505092915050565b61050e81610340565b8114610518575f5ffd5b50565b5f8135905061052981610505565b92915050565b5f602082840312156105445761054361037a565b5b5f6105518482850161051b565b91505092915050565b5f81519050919050565b5f82825260208201905092915050565b8281835e5f83830152505050565b5f61058c8261055a565b6105968185610564565b93506105a6818560208601610574565b6105af8161038a565b840191505092915050565b5f6020820190508181035f8301526105d28184610582565b905092915050565b5f5f604083850312156105f0576105ef61037a565b5b5f6105fd8582860161051b565b925050602061060e8582860161051b565b9150509250929050565b7f4e487b71000000000000000000000000000000000000000000000000000000005f52602260045260245ffd5b5f600282049050600182168061065c57607f821691505b60208210810361066f5761066e610618565b5b50919050565b5f819050815f5260205f209050919050565b5f6020601f8301049050919050565b5f82821b905092915050565b5f600883026106d17fffffffffffffffffffffffffffffffffffffffffffffffffffffffffffffffff82610696565b6106db8683610696565b95508019841693508086168417925050509392505050565b5f819050919050565b5f61071661071161070c84610340565b6106f3565b610340565b9050919050565b5f819050919050565b61072f836106fc565b61074361073b8261071d565b8484546106a2565b825550505050565b5f5f905090565b61075a61074b565b610765818484610726565b505050565b5b818110156107885761077d5f82610752565b60018101905061076b565b5050565b601f8211156107cd5761079e81610675565b6107a784610687565b810160208510156107b6578190505b6107ca6107c285610687565b83018261076a565b50505b505050565b5f82821c905092915050565b5f6107ed5f19846008026107d2565b1980831691505092915050565b5f61080583836107de565b9150826002028217905092915050565b61081e8261055a565b67ffffffffffffffff8111156108375761083661039a565b5b6108418254610645565b61084c82828561078c565b5f60209050601f83116001811461087d575f841561086b578287015190505b61087585826107fa565b8655506108dc565b601f19841661088b86610675565b5f5b828110156108b25784890151825560018201915060208501945060208101905061088d565b868310156108cf57848901516108cb601f8916826107de565b8355505b6001600288020188555050505b50505050505056fea264697066735822122056678b01cc0a1636a27a29638d84bdd05f71a7c1250b0c33710aa5211815041264736f6c634300081e0033",
					"opcodes": "PUSH1 0x80 PUSH1 0x40 MSTORE PUSH1 0x40 MLOAD DUP1 PUSH1 0x60 ADD PUSH1 0x40 MSTORE DUP1 PUSH1 0x1 PUSH1 0xFF AND DUP2 MSTORE PUSH1 0x20 ADD PUSH1 0x2 PUSH1 0xFF AND DUP2 MSTORE PUSH1 0x20 ADD PUSH1 0x3 PUSH1 0xFF AND DUP2 MSTORE POP PUSH0 SWAP1 PUSH1 0x3 PUSH2 0x3A SWAP3 SWAP2 SWAP1 PUSH2 0x14E JUMP JUMPDEST POP PUSH1 0x40 MLOAD DUP1 PUSH1 0x40 ADD PUSH1 0x40 MSTORE DUP1 PUSH1 0x40 MLOAD DUP1 PUSH1 0x40 ADD PUSH1 0x40 MSTORE DUP1 PUSH1 0x5 DUP2 MSTORE PUSH1 0x20 ADD PUSH32 0x6170706C65000000000000000000000000000000000000000000000000000000 DUP2 MSTORE POP DUP2 MSTORE PUSH1 0x20 ADD PUSH1 0x40 MLOAD DUP1 PUSH1 0x40 ADD PUSH1 0x40 MSTORE DUP1 PUSH1 0x6 DUP2 MSTORE PUSH1 0x20 ADD PUSH32 0x62616E616E650000000000000000000000000000000000000000000000000000 DUP2 MSTORE POP DUP2 MSTORE POP PUSH1 0x1 SWAP1 PUSH1 0x2 PUSH2 0xCA SWAP3 SWAP2 SWAP1 PUSH2 0x19E JUMP JUMPDEST POP PUSH1 0x40 MLOAD DUP1 PUSH1 0x40 ADD PUSH1 0x40 MSTORE DUP1 PUSH1 0x40 MLOAD DUP1 PUSH1 0x60 ADD PUSH1 0x40 MSTORE DUP1 PUSH1 0x1 PUSH1 0xFF AND DUP2 MSTORE PUSH1 0x20 ADD PUSH1 0x2 PUSH1 0xFF AND DUP2 MSTORE PUSH1 0x20 ADD PUSH1 0x3 PUSH1 0xFF AND DUP2 MSTORE POP DUP2 MSTORE PUSH1 0x20 ADD PUSH1 0x40 MLOAD DUP1 PUSH1 0x60 ADD PUSH1 0x40 MSTORE DUP1 PUSH1 0x2 PUSH1 0xFF AND DUP2 MSTORE PUSH1 0x20 ADD PUSH1 0x3 PUSH1 0xFF AND DUP2 MSTORE PUSH1 0x20 ADD PUSH1 0x4 PUSH1 0xFF AND DUP2 MSTORE POP DUP2 MSTORE POP PUSH1 0x3 SWAP1 PUSH1 0x2 PUSH2 0x13C SWAP3 SWAP2 SWAP1 PUSH2 0x1F5 JUMP JUMPDEST POP CALLVALUE DUP1 ISZERO PUSH2 0x148 JUMPI PUSH0 PUSH0 REVERT JUMPDEST POP PUSH2 0x616 JUMP JUMPDEST DUP3 DUP1 SLOAD DUP3 DUP3 SSTORE SWAP1 PUSH0 MSTORE PUSH1 0x20 PUSH0 KECCAK256 SWAP1 DUP2 ADD SWAP3 DUP3 ISZERO PUSH2 0x18D JUMPI SWAP2 PUSH1 0x20 MUL DUP3 ADD JUMPDEST DUP3 DUP2 GT ISZERO PUSH2 0x18C JUMPI DUP3 MLOAD DUP3 SWAP1 PUSH1 0xFF AND SWAP1 SSTORE SWAP2 PUSH1 0x20 ADD SWAP2 SWAP1 PUSH1 0x1 ADD SWAP1 PUSH2 0x16C JUMP JUMPDEST JUMPDEST POP SWAP1 POP PUSH2 0x19A SWAP2 SWAP1 PUSH2 0x24E JUMP JUMPDEST POP SWAP1 JUMP JUMPDEST DUP3 DUP1 SLOAD DUP3 DUP3 SSTORE SWAP1 PUSH0 MSTORE PUSH1 0x20 PUSH0 KECCAK256 SWAP1 DUP2 ADD SWAP3 DUP3 ISZERO PUSH2 0x1E4 JUMPI SWAP2 PUSH1 0x20 MUL DUP3 ADD JUMPDEST DUP3 DUP2 GT ISZERO PUSH2 0x1E3 JUMPI DUP3 MLOAD DUP3 SWAP1 DUP2 PUSH2 0x1D3 SWAP2 SWAP1 PUSH2 0x547 JUMP JUMPDEST POP SWAP2 PUSH1 0x20 ADD SWAP2 SWAP1 PUSH1 0x1 ADD SWAP1 PUSH2 0x1BC JUMP JUMPDEST JUMPDEST POP SWAP1 POP PUSH2 0x1F1 SWAP2 SWAP1 PUSH2 0x269 JUMP JUMPDEST POP SWAP1 JUMP JUMPDEST DUP3 DUP1 SLOAD DUP3 DUP3 SSTORE SWAP1 PUSH0 MSTORE PUSH1 0x20 PUSH0 KECCAK256 SWAP1 DUP2 ADD SWAP3 DUP3 ISZERO PUSH2 0x23D JUMPI SWAP2 PUSH1 0x20 MUL DUP3 ADD JUMPDEST DUP3 DUP2 GT ISZERO PUSH2 0x23C JUMPI DUP3 MLOAD DUP3 SWAP1 PUSH1 0x3 PUSH2 0x22C SWAP3 SWAP2 SWAP1 PUSH2 0x14E JUMP JUMPDEST POP SWAP2 PUSH1 0x20 ADD SWAP2 SWAP1 PUSH1 0x1 ADD SWAP1 PUSH2 0x213 JUMP JUMPDEST JUMPDEST POP SWAP1 POP PUSH2 0x24A SWAP2 SWAP1 PUSH2 0x28C JUMP JUMPDEST POP SWAP1 JUMP JUMPDEST JUMPDEST DUP1 DUP3 GT ISZERO PUSH2 0x265 JUMPI PUSH0 DUP2 PUSH0 SWAP1 SSTORE POP PUSH1 0x1 ADD PUSH2 0x24F JUMP JUMPDEST POP SWAP1 JUMP JUMPDEST JUMPDEST DUP1 DUP3 GT ISZERO PUSH2 0x288 JUMPI PUSH0 DUP2 DUP2 PUSH2 0x27F SWAP2 SWAP1 PUSH2 0x2AF JUMP JUMPDEST POP PUSH1 0x1 ADD PUSH2 0x26A JUMP JUMPDEST POP SWAP1 JUMP JUMPDEST JUMPDEST DUP1 DUP3 GT ISZERO PUSH2 0x2AB JUMPI PUSH0 DUP2 DUP2 PUSH2 0x2A2 SWAP2 SWAP1 PUSH2 0x2EC JUMP JUMPDEST POP PUSH1 0x1 ADD PUSH2 0x28D JUMP JUMPDEST POP SWAP1 JUMP JUMPDEST POP DUP1 SLOAD PUSH2 0x2BB SWAP1 PUSH2 0x36E JUMP JUMPDEST PUSH0 DUP3 SSTORE DUP1 PUSH1 0x1F LT PUSH2 0x2CC JUMPI POP PUSH2 0x2E9 JUMP JUMPDEST PUSH1 0x1F ADD PUSH1 0x20 SWAP1 DIV SWAP1 PUSH0 MSTORE PUSH1 0x20 PUSH0 KECCAK256 SWAP1 DUP2 ADD SWAP1 PUSH2 0x2E8 SWAP2 SWAP1 PUSH2 0x24E JUMP JUMPDEST JUMPDEST POP JUMP JUMPDEST POP DUP1 SLOAD PUSH0 DUP3 SSTORE SWAP1 PUSH0 MSTORE PUSH1 0x20 PUSH0 KECCAK256 SWAP1 DUP2 ADD SWAP1 PUSH2 0x307 SWAP2 SWAP1 PUSH2 0x24E JUMP JUMPDEST POP JUMP JUMPDEST PUSH0 DUP2 MLOAD SWAP1 POP SWAP2 SWAP1 POP JUMP JUMPDEST PUSH32 0x4E487B7100000000000000000000000000000000000000000000000000000000 PUSH0 MSTORE PUSH1 0x41 PUSH1 0x4 MSTORE PUSH1 0x24 PUSH0 REVERT JUMPDEST PUSH32 0x4E487B7100000000000000000000000000000000000000000000000000000000 PUSH0 MSTORE PUSH1 0x22 PUSH1 0x4 MSTORE PUSH1 0x24 PUSH0 REVERT JUMPDEST PUSH0 PUSH1 0x2 DUP3 DIV SWAP1 POP PUSH1 0x1 DUP3 AND DUP1 PUSH2 0x385 JUMPI PUSH1 0x7F DUP3 AND SWAP2 POP JUMPDEST PUSH1 0x20 DUP3 LT DUP2 SUB PUSH2 0x398 JUMPI PUSH2 0x397 PUSH2 0x341 JUMP JUMPDEST JUMPDEST POP SWAP2 SWAP1 POP JUMP JUMPDEST PUSH0 DUP2 SWAP1 POP DUP2 PUSH0 MSTORE PUSH1 0x20 PUSH0 KECCAK256 SWAP1 POP SWAP2 SWAP1 POP JUMP JUMPDEST PUSH0 PUSH1 0x20 PUSH1 0x1F DUP4 ADD DIV SWAP1 POP SWAP2 SWAP1 POP JUMP JUMPDEST PUSH0 DUP3 DUP3 SHL SWAP1 POP SWAP3 SWAP2 POP POP JUMP JUMPDEST PUSH0 PUSH1 0x8 DUP4 MUL PUSH2 0x3FA PUSH32 0xFFFFFFFFFFFFFFFFFFFFFFFFFFFFFFFFFFFFFFFFFFFFFFFFFFFFFFFFFFFFFFFF DUP3 PUSH2 0x3BF JUMP JUMPDEST PUSH2 0x404 DUP7 DUP4 PUSH2 0x3BF JUMP JUMPDEST SWAP6 POP DUP1 NOT DUP5 AND SWAP4 POP DUP1 DUP7 AND DUP5 OR SWAP3 POP POP POP SWAP4 SWAP3 POP POP POP JUMP JUMPDEST PUSH0 DUP2 SWAP1 POP SWAP2 SWAP1 POP JUMP JUMPDEST PUSH0 DUP2 SWAP1 POP SWAP2 SWAP1 POP JUMP JUMPDEST PUSH0 PUSH2 0x448 PUSH2 0x443 PUSH2 0x43E DUP5 PUSH2 0x41C JUMP JUMPDEST PUSH2 0x425 JUMP JUMPDEST PUSH2 0x41C JUMP JUMPDEST SWAP1 POP SWAP2 SWAP1 POP JUMP JUMPDEST PUSH0 DUP2 SWAP1 POP SWAP2 SWAP1 POP JUMP JUMPDEST PUSH2 0x461 DUP4 PUSH2 0x42E JUMP JUMPDEST PUSH2 0x475 PUSH2 0x46D DUP3 PUSH2 0x44F JUMP JUMPDEST DUP5 DUP5 SLOAD PUSH2 0x3CB JUMP JUMPDEST DUP3 SSTORE POP POP POP POP JUMP JUMPDEST PUSH0 PUSH0 SWAP1 POP SWAP1 JUMP JUMPDEST PUSH2 0x48C PUSH2 0x47D JUMP JUMPDEST PUSH2 0x497 DUP2 DUP5 DUP5 PUSH2 0x458 JUMP JUMPDEST POP POP POP JUMP JUMPDEST JUMPDEST DUP2 DUP2 LT ISZERO PUSH2 0x4BA JUMPI PUSH2 0x4AF PUSH0 DUP3 PUSH2 0x484 JUMP JUMPDEST PUSH1 0x1 DUP2 ADD SWAP1 POP PUSH2 0x49D JUMP JUMPDEST POP POP JUMP JUMPDEST PUSH1 0x1F DUP3 GT ISZERO PUSH2 0x4FF JUMPI PUSH2 0x4D0 DUP2 PUSH2 0x39E JUMP JUMPDEST PUSH2 0x4D9 DUP5 PUSH2 0x3B0 JUMP JUMPDEST DUP2 ADD PUSH1 0x20 DUP6 LT ISZERO PUSH2 0x4E8 JUMPI DUP2 SWAP1 POP JUMPDEST PUSH2 0x4FC PUSH2 0x4F4 DUP6 PUSH2 0x3B0 JUMP JUMPDEST DUP4 ADD DUP3 PUSH2 0x49C JUMP JUMPDEST POP POP JUMPDEST POP POP POP JUMP JUMPDEST PUSH0 DUP3 DUP3 SHR SWAP1 POP SWAP3 SWAP2 POP POP JUMP JUMPDEST PUSH0 PUSH2 0x51F PUSH0 NOT DUP5 PUSH1 0x8 MUL PUSH2 0x504 JUMP JUMPDEST NOT DUP1 DUP4 AND SWAP2 POP POP SWAP3 SWAP2 POP POP JUMP JUMPDEST PUSH0 PUSH2 0x537 DUP4 DUP4 PUSH2 0x510 JUMP JUMPDEST SWAP2 POP DUP3 PUSH1 0x2 MUL DUP3 OR SWAP1 POP SWAP3 SWAP2 POP POP JUMP JUMPDEST PUSH2 0x550 DUP3 PUSH2 0x30A JUMP JUMPDEST PUSH8 0xFFFFFFFFFFFFFFFF DUP2 GT ISZERO PUSH2 0x569 JUMPI PUSH2 0x568 PUSH2 0x314 JUMP JUMPDEST JUMPDEST PUSH2 0x573 DUP3 SLOAD PUSH2 0x36E JUMP JUMPDEST PUSH2 0x57E DUP3 DUP3 DUP6 PUSH2 0x4BE JUMP JUMPDEST PUSH0 PUSH1 0x20 SWAP1 POP PUSH1 0x1F DUP4 GT PUSH1 0x1 DUP2 EQ PUSH2 0x5AF JUMPI PUSH0 DUP5 ISZERO PUSH2 0x59D JUMPI DUP3 DUP8 ADD MLOAD SWAP1 POP JUMPDEST PUSH2 0x5A7 DUP6 DUP3 PUSH2 0x52C JUMP JUMPDEST DUP7 SSTORE POP PUSH2 0x60E JUMP JUMPDEST PUSH1 0x1F NOT DUP5 AND PUSH2 0x5BD DUP7 PUSH2 0x39E JUMP JUMPDEST PUSH0 JUMPDEST DUP3 DUP2 LT ISZERO PUSH2 0x5E4 JUMPI DUP5 DUP10 ADD MLOAD DUP3 SSTORE PUSH1 0x1 DUP3 ADD SWAP2 POP PUSH1 0x20 DUP6 ADD SWAP5 POP PUSH1 0x20 DUP2 ADD SWAP1 POP PUSH2 0x5BF JUMP JUMPDEST DUP7 DUP4 LT ISZERO PUSH2 0x601 JUMPI DUP5 DUP10 ADD MLOAD PUSH2 0x5FD PUSH1 0x1F DUP10 AND DUP3 PUSH2 0x510 JUMP JUMPDEST DUP4 SSTORE POP JUMPDEST PUSH1 0x1 PUSH1 0x2 DUP9 MUL ADD DUP9 SSTORE POP POP POP JUMPDEST POP POP POP POP POP POP JUMP JUMPDEST PUSH2 0x91A DUP1 PUSH2 0x623 PUSH0 CODECOPY PUSH0 RETURN INVALID PUSH1 0x80 PUSH1 0x40 MSTORE CALLVALUE DUP1 ISZERO PUSH2 0xF JUMPI PUSH0 PUSH0 REVERT JUMPDEST POP PUSH1 0x4 CALLDATASIZE LT PUSH2 0x60 JUMPI PUSH0 CALLDATALOAD PUSH1 0xE0 SHR DUP1 PUSH4 0x26EB4DBB EQ PUSH2 0x64 JUMPI DUP1 PUSH4 0x3A5FBAAA EQ PUSH2 0x82 JUMPI DUP1 PUSH4 0x6422C4C8 EQ PUSH2 0x9E JUMPI DUP1 PUSH4 0x8F202BF0 EQ PUSH2 0xCE JUMPI DUP1 PUSH4 0x9AE918C7 EQ PUSH2 0xFE JUMPI DUP1 PUSH4 0xC5A46EE6 EQ PUSH2 0x12E JUMPI JUMPDEST PUSH0 PUSH0 REVERT JUMPDEST PUSH2 0x6C PUSH2 0x15E JUMP JUMPDEST PUSH1 0x40 MLOAD PUSH2 0x79 SWAP2 SWAP1 PUSH2 0x358 JUMP JUMPDEST PUSH1 0x40 MLOAD DUP1 SWAP2 SUB SWAP1 RETURN JUMPDEST PUSH2 0x9C PUSH1 0x4 DUP1 CALLDATASIZE SUB DUP2 ADD SWAP1 PUSH2 0x97 SWAP2 SWAP1 PUSH2 0x4BE JUMP JUMPDEST PUSH2 0x16A JUMP JUMPDEST STOP JUMPDEST PUSH2 0xB8 PUSH1 0x4 DUP1 CALLDATASIZE SUB DUP2 ADD SWAP1 PUSH2 0xB3 SWAP2 SWAP1 PUSH2 0x52F JUMP JUMPDEST PUSH2 0x19F JUMP JUMPDEST PUSH1 0x40 MLOAD PUSH2 0xC5 SWAP2 SWAP1 PUSH2 0x5BA JUMP JUMPDEST PUSH1 0x40 MLOAD DUP1 SWAP2 SUB SWAP1 RETURN JUMPDEST PUSH2 0xE8 PUSH1 0x4 DUP1 CALLDATASIZE SUB DUP2 ADD SWAP1 PUSH2 0xE3 SWAP2 SWAP1 PUSH2 0x5DA JUMP JUMPDEST PUSH2 0x245 JUMP JUMPDEST PUSH1 0x40 MLOAD PUSH2 0xF5 SWAP2 SWAP1 PUSH2 0x358 JUMP JUMPDEST PUSH1 0x40 MLOAD DUP1 SWAP2 SUB SWAP1 RETURN JUMPDEST PUSH2 0x118 PUSH1 0x4 DUP1 CALLDATASIZE SUB DUP2 ADD SWAP1 PUSH2 0x113 SWAP2 SWAP1 PUSH2 0x52F JUMP JUMPDEST PUSH2 0x27B JUMP JUMPDEST PUSH1 0x40 MLOAD PUSH2 0x125 SWAP2 SWAP1 PUSH2 0x358 JUMP JUMPDEST PUSH1 0x40 MLOAD DUP1 SWAP2 SUB SWAP1 RETURN JUMPDEST PUSH2 0x148 PUSH1 0x4 DUP1 CALLDATASIZE SUB DUP2 ADD SWAP1 PUSH2 0x143 SWAP2 SWAP1 PUSH2 0x52F JUMP JUMPDEST PUSH2 0x29A JUMP JUMPDEST PUSH1 0x40 MLOAD PUSH2 0x155 SWAP2 SWAP1 PUSH2 0x5BA JUMP JUMPDEST PUSH1 0x40 MLOAD DUP1 SWAP2 SUB SWAP1 RETURN JUMPDEST PUSH0 PUSH1 0x2 DUP1 SLOAD SWAP1 POP SWAP1 POP SWAP1 JUMP JUMPDEST PUSH1 0x2 DUP2 SWAP1 DUP1 PUSH1 0x1 DUP2 SLOAD ADD DUP1 DUP3 SSTORE DUP1 SWAP2 POP POP PUSH1 0x1 SWAP1 SUB SWAP1 PUSH0 MSTORE PUSH1 0x20 PUSH0 KECCAK256 ADD PUSH0 SWAP1 SWAP2 SWAP1 SWAP2 SWAP1 SWAP2 POP SWAP1 DUP2 PUSH2 0x19B SWAP2 SWAP1 PUSH2 0x815 JUMP JUMPDEST POP POP JUMP JUMPDEST PUSH1 0x1 DUP2 DUP2 SLOAD DUP2 LT PUSH2 0x1AE JUMPI PUSH0 DUP1 REVERT JUMPDEST SWAP1 PUSH0 MSTORE PUSH1 0x20 PUSH0 KECCAK256 ADD PUSH0 SWAP2 POP SWAP1 POP DUP1 SLOAD PUSH2 0x1C6 SWAP1 PUSH2 0x645 JUMP JUMPDEST DUP1 PUSH1 0x1F ADD PUSH1 0x20 DUP1 SWAP2 DIV MUL PUSH1 0x20 ADD PUSH1 0x40 MLOAD SWAP1 DUP2 ADD PUSH1 0x40 MSTORE DUP1 SWAP3 SWAP2 SWAP1 DUP2 DUP2 MSTORE PUSH1 0x20 ADD DUP3 DUP1 SLOAD PUSH2 0x1F2 SWAP1 PUSH2 0x645 JUMP JUMPDEST DUP1 ISZERO PUSH2 0x23D JUMPI DUP1 PUSH1 0x1F LT PUSH2 0x214 JUMPI PUSH2 0x100 DUP1 DUP4 SLOAD DIV MUL DUP4 MSTORE SWAP2 PUSH1 0x20 ADD SWAP2 PUSH2 0x23D JUMP JUMPDEST DUP3 ADD SWAP2 SWAP1 PUSH0 MSTORE PUSH1 0x20 PUSH0 KECCAK256 SWAP1 JUMPDEST DUP2 SLOAD DUP2 MSTORE SWAP1 PUSH1 0x1 ADD SWAP1 PUSH1 0x20 ADD DUP1 DUP4 GT PUSH2 0x220 JUMPI DUP3 SWAP1 SUB PUSH1 0x1F AND DUP3 ADD SWAP2 JUMPDEST POP POP POP POP POP DUP2 JUMP JUMPDEST PUSH1 0x3 DUP3 DUP2 SLOAD DUP2 LT PUSH2 0x254 JUMPI PUSH0 DUP1 REVERT JUMPDEST SWAP1 PUSH0 MSTORE PUSH1 0x20 PUSH0 KECCAK256 ADD DUP2 DUP2 SLOAD DUP2 LT PUSH2 0x269 JUMPI PUSH0 DUP1 REVERT JUMPDEST SWAP1 PUSH0 MSTORE PUSH1 0x20 PUSH0 KECCAK256 ADD PUSH0 SWAP2 POP SWAP2 POP POP SLOAD DUP2 JUMP JUMPDEST PUSH0 DUP2 DUP2 SLOAD DUP2 LT PUSH2 0x289 JUMPI PUSH0 DUP1 REVERT JUMPDEST SWAP1 PUSH0 MSTORE PUSH1 0x20 PUSH0 KECCAK256 ADD PUSH0 SWAP2 POP SWAP1 POP SLOAD DUP2 JUMP JUMPDEST PUSH1 0x2 DUP2 DUP2 SLOAD DUP2 LT PUSH2 0x2A9 JUMPI PUSH0 DUP1 REVERT JUMPDEST SWAP1 PUSH0 MSTORE PUSH1 0x20 PUSH0 KECCAK256 ADD PUSH0 SWAP2 POP SWAP1 POP DUP1 SLOAD PUSH2 0x2C1 SWAP1 PUSH2 0x645 JUMP JUMPDEST DUP1 PUSH1 0x1F ADD PUSH1 0x20 DUP1 SWAP2 DIV MUL PUSH1 0x20 ADD PUSH1 0x40 MLOAD SWAP1 DUP2 ADD PUSH1 0x40 MSTORE DUP1 SWAP3 SWAP2 SWAP1 DUP2 DUP2 MSTORE PUSH1 0x20 ADD DUP3 DUP1 SLOAD PUSH2 0x2ED SWAP1 PUSH2 0x645 JUMP JUMPDEST DUP1 ISZERO PUSH2 0x338 JUMPI DUP1 PUSH1 0x1F LT PUSH2 0x30F JUMPI PUSH2 0x100 DUP1 DUP4 SLOAD DIV MUL DUP4 MSTORE SWAP2 PUSH1 0x20 ADD SWAP2 PUSH2 0x338 JUMP JUMPDEST DUP3 ADD SWAP2 SWAP1 PUSH0 MSTORE PUSH1 0x20 PUSH0 KECCAK256 SWAP1 JUMPDEST DUP2 SLOAD DUP2 MSTORE SWAP1 PUSH1 0x1 ADD SWAP1 PUSH1 0x20 ADD DUP1 DUP4 GT PUSH2 0x31B JUMPI DUP3 SWAP1 SUB PUSH1 0x1F AND DUP3 ADD SWAP2 JUMPDEST POP POP POP POP POP DUP2 JUMP JUMPDEST PUSH0 DUP2 SWAP1 POP SWAP2 SWAP1 POP JUMP JUMPDEST PUSH2 0x352 DUP2 PUSH2 0x340 JUMP JUMPDEST DUP3 MSTORE POP POP JUMP JUMPDEST PUSH0 PUSH1 0x20 DUP3 ADD SWAP1 POP PUSH2 0x36B PUSH0 DUP4 ADD DUP5 PUSH2 0x349 JUMP JUMPDEST SWAP3 SWAP2 POP POP JUMP JUMPDEST PUSH0 PUSH1 0x40 MLOAD SWAP1 POP SWAP1 JUMP JUMPDEST PUSH0 PUSH0 REVERT JUMPDEST PUSH0 PUSH0 REVERT JUMPDEST PUSH0 PUSH0 REVERT JUMPDEST PUSH0 PUSH0 REVERT JUMPDEST PUSH0 PUSH1 0x1F NOT PUSH1 0x1F DUP4 ADD AND SWAP1 POP SWAP2 SWAP1 POP JUMP JUMPDEST PUSH32 0x4E487B7100000000000000000000000000000000000000000000000000000000 PUSH0 MSTORE PUSH1 0x41 PUSH1 0x4 MSTORE PUSH1 0x24 PUSH0 REVERT JUMPDEST PUSH2 0x3D0 DUP3 PUSH2 0x38A JUMP JUMPDEST DUP2 ADD DUP2 DUP2 LT PUSH8 0xFFFFFFFFFFFFFFFF DUP3 GT OR ISZERO PUSH2 0x3EF JUMPI PUSH2 0x3EE PUSH2 0x39A JUMP JUMPDEST JUMPDEST DUP1 PUSH1 0x40 MSTORE POP POP POP JUMP JUMPDEST PUSH0 PUSH2 0x401 PUSH2 0x371 JUMP JUMPDEST SWAP1 POP PUSH2 0x40D DUP3 DUP3 PUSH2 0x3C7 JUMP JUMPDEST SWAP2 SWAP1 POP JUMP JUMPDEST PUSH0 PUSH8 0xFFFFFFFFFFFFFFFF DUP3 GT ISZERO PUSH2 0x42C JUMPI PUSH2 0x42B PUSH2 0x39A JUMP JUMPDEST JUMPDEST PUSH2 0x435 DUP3 PUSH2 0x38A JUMP JUMPDEST SWAP1 POP PUSH1 0x20 DUP2 ADD SWAP1 POP SWAP2 SWAP1 POP JUMP JUMPDEST DUP3 DUP2 DUP4 CALLDATACOPY PUSH0 DUP4 DUP4 ADD MSTORE POP POP POP JUMP JUMPDEST PUSH0 PUSH2 0x462 PUSH2 0x45D DUP5 PUSH2 0x412 JUMP JUMPDEST PUSH2 0x3F8 JUMP JUMPDEST SWAP1 POP DUP3 DUP2 MSTORE PUSH1 0x20 DUP2 ADD DUP5 DUP5 DUP5 ADD GT ISZERO PUSH2 0x47E JUMPI PUSH2 0x47D PUSH2 0x386 JUMP JUMPDEST JUMPDEST PUSH2 0x489 DUP5 DUP3 DUP6 PUSH2 0x442 JUMP JUMPDEST POP SWAP4 SWAP3 POP POP POP JUMP JUMPDEST PUSH0 DUP3 PUSH1 0x1F DUP4 ADD SLT PUSH2 0x4A5 JUMPI PUSH2 0x4A4 PUSH2 0x382 JUMP JUMPDEST JUMPDEST DUP2 CALLDATALOAD PUSH2 0x4B5 DUP5 DUP3 PUSH1 0x20 DUP7 ADD PUSH2 0x450 JUMP JUMPDEST SWAP2 POP POP SWAP3 SWAP2 POP POP JUMP JUMPDEST PUSH0 PUSH1 0x20 DUP3 DUP5 SUB SLT ISZERO PUSH2 0x4D3 JUMPI PUSH2 0x4D2 PUSH2 0x37A JUMP JUMPDEST JUMPDEST PUSH0 DUP3 ADD CALLDATALOAD PUSH8 0xFFFFFFFFFFFFFFFF DUP2 GT ISZERO PUSH2 0x4F0 JUMPI PUSH2 0x4EF PUSH2 0x37E JUMP JUMPDEST JUMPDEST PUSH2 0x4FC DUP5 DUP3 DUP6 ADD PUSH2 0x491 JUMP JUMPDEST SWAP2 POP POP SWAP3 SWAP2 POP POP JUMP JUMPDEST PUSH2 0x50E DUP2 PUSH2 0x340 JUMP JUMPDEST DUP2 EQ PUSH2 0x518 JUMPI PUSH0 PUSH0 REVERT JUMPDEST POP JUMP JUMPDEST PUSH0 DUP2 CALLDATALOAD SWAP1 POP PUSH2 0x529 DUP2 PUSH2 0x505 JUMP JUMPDEST SWAP3 SWAP2 POP POP JUMP JUMPDEST PUSH0 PUSH1 0x20 DUP3 DUP5 SUB SLT ISZERO PUSH2 0x544 JUMPI PUSH2 0x543 PUSH2 0x37A JUMP JUMPDEST JUMPDEST PUSH0 PUSH2 0x551 DUP5 DUP3 DUP6 ADD PUSH2 0x51B JUMP JUMPDEST SWAP2 POP POP SWAP3 SWAP2 POP POP JUMP JUMPDEST PUSH0 DUP2 MLOAD SWAP1 POP SWAP2 SWAP1 POP JUMP JUMPDEST PUSH0 DUP3 DUP3 MSTORE PUSH1 0x20 DUP3 ADD SWAP1 POP SWAP3 SWAP2 POP POP JUMP JUMPDEST DUP3 DUP2 DUP4 MCOPY PUSH0 DUP4 DUP4 ADD MSTORE POP POP POP JUMP JUMPDEST PUSH0 PUSH2 0x58C DUP3 PUSH2 0x55A JUMP JUMPDEST PUSH2 0x596 DUP2 DUP6 PUSH2 0x564 JUMP JUMPDEST SWAP4 POP PUSH2 0x5A6 DUP2 DUP6 PUSH1 0x20 DUP7 ADD PUSH2 0x574 JUMP JUMPDEST PUSH2 0x5AF DUP2 PUSH2 0x38A JUMP JUMPDEST DUP5 ADD SWAP2 POP POP SWAP3 SWAP2 POP POP JUMP JUMPDEST PUSH0 PUSH1 0x20 DUP3 ADD SWAP1 POP DUP2 DUP2 SUB PUSH0 DUP4 ADD MSTORE PUSH2 0x5D2 DUP2 DUP5 PUSH2 0x582 JUMP JUMPDEST SWAP1 POP SWAP3 SWAP2 POP POP JUMP JUMPDEST PUSH0 PUSH0 PUSH1 0x40 DUP4 DUP6 SUB SLT ISZERO PUSH2 0x5F0 JUMPI PUSH2 0x5EF PUSH2 0x37A JUMP JUMPDEST JUMPDEST PUSH0 PUSH2 0x5FD DUP6 DUP3 DUP7 ADD PUSH2 0x51B JUMP JUMPDEST SWAP3 POP POP PUSH1 0x20 PUSH2 0x60E DUP6 DUP3 DUP7 ADD PUSH2 0x51B JUMP JUMPDEST SWAP2 POP POP SWAP3 POP SWAP3 SWAP1 POP JUMP JUMPDEST PUSH32 0x4E487B7100000000000000000000000000000000000000000000000000000000 PUSH0 MSTORE PUSH1 0x22 PUSH1 0x4 MSTORE PUSH1 0x24 PUSH0 REVERT JUMPDEST PUSH0 PUSH1 0x2 DUP3 DIV SWAP1 POP PUSH1 0x1 DUP3 AND DUP1 PUSH2 0x65C JUMPI PUSH1 0x7F DUP3 AND SWAP2 POP JUMPDEST PUSH1 0x20 DUP3 LT DUP2 SUB PUSH2 0x66F JUMPI PUSH2 0x66E PUSH2 0x618 JUMP JUMPDEST JUMPDEST POP SWAP2 SWAP1 POP JUMP JUMPDEST PUSH0 DUP2 SWAP1 POP DUP2 PUSH0 MSTORE PUSH1 0x20 PUSH0 KECCAK256 SWAP1 POP SWAP2 SWAP1 POP JUMP JUMPDEST PUSH0 PUSH1 0x20 PUSH1 0x1F DUP4 ADD DIV SWAP1 POP SWAP2 SWAP1 POP JUMP JUMPDEST PUSH0 DUP3 DUP3 SHL SWAP1 POP SWAP3 SWAP2 POP POP JUMP JUMPDEST PUSH0 PUSH1 0x8 DUP4 MUL PUSH2 0x6D1 PUSH32 0xFFFFFFFFFFFFFFFFFFFFFFFFFFFFFFFFFFFFFFFFFFFFFFFFFFFFFFFFFFFFFFFF DUP3 PUSH2 0x696 JUMP JUMPDEST PUSH2 0x6DB DUP7 DUP4 PUSH2 0x696 JUMP JUMPDEST SWAP6 POP DUP1 NOT DUP5 AND SWAP4 POP DUP1 DUP7 AND DUP5 OR SWAP3 POP POP POP SWAP4 SWAP3 POP POP POP JUMP JUMPDEST PUSH0 DUP2 SWAP1 POP SWAP2 SWAP1 POP JUMP JUMPDEST PUSH0 PUSH2 0x716 PUSH2 0x711 PUSH2 0x70C DUP5 PUSH2 0x340 JUMP JUMPDEST PUSH2 0x6F3 JUMP JUMPDEST PUSH2 0x340 JUMP JUMPDEST SWAP1 POP SWAP2 SWAP1 POP JUMP JUMPDEST PUSH0 DUP2 SWAP1 POP SWAP2 SWAP1 POP JUMP JUMPDEST PUSH2 0x72F DUP4 PUSH2 0x6FC JUMP JUMPDEST PUSH2 0x743 PUSH2 0x73B DUP3 PUSH2 0x71D JUMP JUMPDEST DUP5 DUP5 SLOAD PUSH2 0x6A2 JUMP JUMPDEST DUP3 SSTORE POP POP POP POP JUMP JUMPDEST PUSH0 PUSH0 SWAP1 POP SWAP1 JUMP JUMPDEST PUSH2 0x75A PUSH2 0x74B JUMP JUMPDEST PUSH2 0x765 DUP2 DUP5 DUP5 PUSH2 0x726 JUMP JUMPDEST POP POP POP JUMP JUMPDEST JUMPDEST DUP2 DUP2 LT ISZERO PUSH2 0x788 JUMPI PUSH2 0x77D PUSH0 DUP3 PUSH2 0x752 JUMP JUMPDEST PUSH1 0x1 DUP2 ADD SWAP1 POP PUSH2 0x76B JUMP JUMPDEST POP POP JUMP JUMPDEST PUSH1 0x1F DUP3 GT ISZERO PUSH2 0x7CD JUMPI PUSH2 0x79E DUP2 PUSH2 0x675 JUMP JUMPDEST PUSH2 0x7A7 DUP5 PUSH2 0x687 JUMP JUMPDEST DUP2 ADD PUSH1 0x20 DUP6 LT ISZERO PUSH2 0x7B6 JUMPI DUP2 SWAP1 POP JUMPDEST PUSH2 0x7CA PUSH2 0x7C2 DUP6 PUSH2 0x687 JUMP JUMPDEST DUP4 ADD DUP3 PUSH2 0x76A JUMP JUMPDEST POP POP JUMPDEST POP POP POP JUMP JUMPDEST PUSH0 DUP3 DUP3 SHR SWAP1 POP SWAP3 SWAP2 POP POP JUMP JUMPDEST PUSH0 PUSH2 0x7ED PUSH0 NOT DUP5 PUSH1 0x8 MUL PUSH2 0x7D2 JUMP JUMPDEST NOT DUP1 DUP4 AND SWAP2 POP POP SWAP3 SWAP2 POP POP JUMP JUMPDEST PUSH0 PUSH2 0x805 DUP4 DUP4 PUSH2 0x7DE JUMP JUMPDEST SWAP2 POP DUP3 PUSH1 0x2 MUL DUP3 OR SWAP1 POP SWAP3 SWAP2 POP POP JUMP JUMPDEST PUSH2 0x81E DUP3 PUSH2 0x55A JUMP JUMPDEST PUSH8 0xFFFFFFFFFFFFFFFF DUP2 GT ISZERO PUSH2 0x837 JUMPI PUSH2 0x836 PUSH2 0x39A JUMP JUMPDEST JUMPDEST PUSH2 0x841 DUP3 SLOAD PUSH2 0x645 JUMP JUMPDEST PUSH2 0x84C DUP3 DUP3 DUP6 PUSH2 0x78C JUMP JUMPDEST PUSH0 PUSH1 0x20 SWAP1 POP PUSH1 0x1F DUP4 GT PUSH1 0x1 DUP2 EQ PUSH2 0x87D JUMPI PUSH0 DUP5 ISZERO PUSH2 0x86B JUMPI DUP3 DUP8 ADD MLOAD SWAP1 POP JUMPDEST PUSH2 0x875 DUP6 DUP3 PUSH2 0x7FA JUMP JUMPDEST DUP7 SSTORE POP PUSH2 0x8DC JUMP JUMPDEST PUSH1 0x1F NOT DUP5 AND PUSH2 0x88B DUP7 PUSH2 0x675 JUMP JUMPDEST PUSH0 JUMPDEST DUP3 DUP2 LT ISZERO PUSH2 0x8B2 JUMPI DUP5 DUP10 ADD MLOAD DUP3 SSTORE PUSH1 0x1 DUP3 ADD SWAP2 POP PUSH1 0x20 DUP6 ADD SWAP5 POP PUSH1 0x20 DUP2 ADD SWAP1 POP PUSH2 0x88D JUMP JUMPDEST DUP7 DUP4 LT ISZERO PUSH2 0x8CF JUMPI DUP5 DUP10 ADD MLOAD PUSH2 0x8CB PUSH1 0x1F DUP10 AND DUP3 PUSH2 0x7DE JUMP JUMPDEST DUP4 SSTORE POP JUMPDEST PUSH1 0x1 PUSH1 0x2 DUP9 MUL ADD DUP9 SSTORE POP POP POP JUMPDEST POP POP POP POP POP POP JUMP INVALID LOG2 PUSH5 0x6970667358 0x22 SLT KECCAK256 JUMP PUSH8 0x8B01CC0A1636A27A 0x29 PUSH4 0x8D84BDD0 PUSH0 PUSH18 0xA7C1250B0C33710AA5211815041264736F6C PUSH4 0x4300081E STOP CALLER "
				},
				"gasEstimates": {
					"creation": {
						"codeDepositCost": "466000",
						"executionCost": "infinite",
						"totalCost": "infinite"
					},
					"external": {
						"addValue(string)": "infinite",
						"array2d(uint256,uint256)": "infinite",
						"stringArray(uint256)": "infinite",
						"uintArray(uint256)": "infinite",
						"value(uint256)": "infinite",
						"valueCount()": "2418"
					}
				},
				"methodIdentifiers": {
					"addValue(string)": "3a5fbaaa",
					"array2d(uint256,uint256)": "8f202bf0",
					"stringArray(uint256)": "6422c4c8",
					"uintArray(uint256)": "9ae918c7",
					"value(uint256)": "c5a46ee6",
					"valueCount()": "26eb4dbb"
				}
			},
			"storageLayout": {
				"storage": [
					{
						"astId": 8,
						"contract": ".deps/MyContract1.sol:MyContract1",
						"label": "uintArray",
						"offset": 0,
						"slot": "0",
						"type": "t_array(t_uint256)dyn_storage"
					},
					{
						"astId": 14,
						"contract": ".deps/MyContract1.sol:MyContract1",
						"label": "stringArray",
						"offset": 0,
						"slot": "1",
						"type": "t_array(t_string_storage)dyn_storage"
					},
					{
						"astId": 17,
						"contract": ".deps/MyContract1.sol:MyContract1",
						"label": "value",
						"offset": 0,
						"slot": "2",
						"type": "t_array(t_string_storage)dyn_storage"
					},
					{
						"astId": 51,
						"contract": ".deps/MyContract1.sol:MyContract1",
						"label": "array2d",
						"offset": 0,
						"slot": "3",
						"type": "t_array(t_array(t_uint256)dyn_storage)dyn_storage"
					}
				],
				"types": {
					"t_array(t_array(t_uint256)dyn_storage)dyn_storage": {
						"base": "t_array(t_uint256)dyn_storage",
						"encoding": "dynamic_array",
						"label": "uint256[][]",
						"numberOfBytes": "32"
					},
					"t_array(t_string_storage)dyn_storage": {
						"base": "t_string_storage",
						"encoding": "dynamic_array",
						"label": "string[]",
						"numberOfBytes": "32"
					},
					"t_array(t_uint256)dyn_storage": {
						"base": "t_uint256",
						"encoding": "dynamic_array",
						"label": "uint256[]",
						"numberOfBytes": "32"
					},
					"t_string_storage": {
						"encoding": "bytes",
						"label": "string",
						"numberOfBytes": "32"
					},
					"t_uint256": {
						"encoding": "inplace",
						"label": "uint256",
						"numberOfBytes": "32"
					}
				}
			},
			"userdoc": {
				"kind": "user",
				"methods": {},
				"version": 1
			}
		}
	}
}