{
	".deps/RefernceDataType.sol": {
		"ReferenceDataType": {
			"abi": [
				{
					"inputs": [],
					"name": "getAll",
					"outputs": [
						{
							"internalType": "uint256[]",
							"name": "",
							"type": "uint256[]"
						}
					],
					"stateMutability": "view",
					"type": "function"
				},
				{
					"inputs": [
						{
							"internalType": "uint256",
							"name": "_index",
							"type": "uint256"
						}
					],
					"name": "getAt",
					"outputs": [
						{
							"internalType": "uint256",
							"name": "",
							"type": "uint256"
						}
					],
					"stateMutability": "view",
					"type": "function"
				},
				{
					"inputs": [],
					"name": "length",
					"outputs": [
						{
							"internalType": "uint256",
							"name": "",
							"type": "uint256"
						}
					],
					"stateMutability": "view",
					"type": "function"
				},
				{
					"inputs": [
						{
							"internalType": "uint256",
							"name": "_item",
							"type": "uint256"
						}
					],
					"name": "pushItem",
					"outputs": [],
					"stateMutability": "nonpayable",
					"type": "function"
				},
				{
					"inputs": [
						{
							"internalType": "uint256[]",
							"name": "values",
							"type": "uint256[]"
						}
					],
					"name": "replaceAll",
					"outputs": [],
					"stateMutability": "nonpayable",
					"type": "function"
				},
				{
					"inputs": [
						{
							"internalType": "uint256",
							"name": "_index",
							"type": "uint256"
						},
						{
							"internalType": "uint256",
							"name": "_item",
							"type": "uint256"
						}
					],
					"name": "setAt",
					"outputs": [],
					"stateMutability": "nonpayable",
					"type": "function"
				},
				{
					"inputs": [
						{
							"internalType": "uint256[]",
							"name": "values",
							"type": "uint256[]"
						}
					],
					"name": "sum",
					"outputs": [
						{
							"internalType": "uint256",
							"name": "s",
							"type": "uint256"
						}
					],
					"stateMutability": "pure",
					"type": "function"
				}
			],
			"devdoc": {
				"kind": "dev",
				"methods": {},
				"version": 1
			},
			"evm": {
				"assembly": "    /* \".deps/RefernceDataType.sol\":292:1766  contract ReferenceDataType {... */\n  mstore(0x40, 0x80)\n  callvalue\n  dup1\n  iszero\n  tag_1\n  jumpi\n  revert(0x00, 0x00)\ntag_1:\n  pop\n  dataSize(sub_0)\n  dup1\n  dataOffset(sub_0)\n  0x00\n  codecopy\n  0x00\n  return\nstop\n\nsub_0: assembly {\n        /* \".deps/RefernceDataType.sol\":292:1766  contract ReferenceDataType {... */\n      mstore(0x40, 0x80)\n      callvalue\n      dup1\n      iszero\n      tag_1\n      jumpi\n      revert(0x00, 0x00)\n    tag_1:\n      pop\n      jumpi(tag_2, lt(calldatasize, 0x04))\n      shr(0xe0, calldataload(0x00))\n      dup1\n      0x2eb77491\n      gt\n      tag_10\n      jumpi\n      dup1\n      0x2eb77491\n      eq\n      tag_6\n      jumpi\n      dup1\n      0x303eaeed\n      eq\n      tag_7\n      jumpi\n      dup1\n      0x53ed5143\n      eq\n      tag_8\n      jumpi\n      dup1\n      0xa69af49b\n      eq\n      tag_9\n      jumpi\n      jump(tag_2)\n    tag_10:\n      dup1\n      0x0194db8e\n      eq\n      tag_3\n      jumpi\n      dup1\n      0x1f7b6d32\n      eq\n      tag_4\n      jumpi\n      dup1\n      0x2d26c661\n      eq\n      tag_5\n      jumpi\n    tag_2:\n      revert(0x00, 0x00)\n        /* \".deps/RefernceDataType.sol\":1476:1644  function sum(uint[] calldata values) external pure returns (uint s) {... */\n    tag_3:\n      tag_11\n      0x04\n      dup1\n      calldatasize\n      sub\n      dup2\n      add\n      swap1\n      tag_12\n      swap2\n      swap1\n      tag_13\n      jump\t// in\n    tag_12:\n      tag_14\n      jump\t// in\n    tag_11:\n      mload(0x40)\n      tag_15\n      swap2\n      swap1\n      tag_16\n      jump\t// in\n    tag_15:\n      mload(0x40)\n      dup1\n      swap2\n      sub\n      swap1\n      return\n        /* \".deps/RefernceDataType.sol\":1682:1763  function length() public view returns (uint) {... */\n    tag_4:\n      tag_17\n      tag_18\n      jump\t// in\n    tag_17:\n      mload(0x40)\n      tag_19\n      swap2\n      swap1\n      tag_16\n      jump\t// in\n    tag_19:\n      mload(0x40)\n      dup1\n      swap2\n      sub\n      swap1\n      return\n        /* \".deps/RefernceDataType.sol\":529:806  function setAt(uint _index, uint _item) public {... */\n    tag_5:\n      tag_20\n      0x04\n      dup1\n      calldatasize\n      sub\n      dup2\n      add\n      swap1\n      tag_21\n      swap2\n      swap1\n      tag_22\n      jump\t// in\n    tag_21:\n      tag_23\n      jump\t// in\n    tag_20:\n      stop\n        /* \".deps/RefernceDataType.sol\":1231:1410  function replaceAll(uint[] calldata values) external {... */\n    tag_6:\n      tag_24\n      0x04\n      dup1\n      calldatasize\n      sub\n      dup2\n      add\n      swap1\n      tag_25\n      swap2\n      swap1\n      tag_13\n      jump\t// in\n    tag_25:\n      tag_26\n      jump\t// in\n    tag_24:\n      stop\n        /* \".deps/RefernceDataType.sol\":840:994  function getAt(uint _index) public view returns (uint) {... */\n    tag_7:\n      tag_27\n      0x04\n      dup1\n      calldatasize\n      sub\n      dup2\n      add\n      swap1\n      tag_28\n      swap2\n      swap1\n      tag_29\n      jump\t// in\n    tag_28:\n      tag_30\n      jump\t// in\n    tag_27:\n      mload(0x40)\n      tag_31\n      swap2\n      swap1\n      tag_16\n      jump\t// in\n    tag_31:\n      mload(0x40)\n      dup1\n      swap2\n      sub\n      swap1\n      return\n        /* \".deps/RefernceDataType.sol\":1065:1148  function getAll() public view returns (uint[] memory) {... */\n    tag_8:\n      tag_32\n      tag_33\n      jump\t// in\n    tag_32:\n      mload(0x40)\n      tag_34\n      swap2\n      swap1\n      tag_35\n      jump\t// in\n    tag_34:\n      mload(0x40)\n      dup1\n      swap2\n      sub\n      swap1\n      return\n        /* \".deps/RefernceDataType.sol\":376:447  function pushItem(uint _item) public {... */\n    tag_9:\n      tag_36\n      0x04\n      dup1\n      calldatasize\n      sub\n      dup2\n      add\n      swap1\n      tag_37\n      swap2\n      swap1\n      tag_29\n      jump\t// in\n    tag_37:\n      tag_38\n      jump\t// in\n    tag_36:\n      stop\n        /* \".deps/RefernceDataType.sol\":1476:1644  function sum(uint[] calldata values) external pure returns (uint s) {... */\n    tag_14:\n        /* \".deps/RefernceDataType.sol\":1536:1542  uint s */\n      0x00\n        /* \".deps/RefernceDataType.sol\":1560:1566  uint i */\n      0x00\n        /* \".deps/RefernceDataType.sol\":1569:1570  0 */\n      0x00\n        /* \".deps/RefernceDataType.sol\":1560:1570  uint i = 0 */\n      swap1\n      pop\n        /* \".deps/RefernceDataType.sol\":1555:1637  for (uint i = 0; i < values.length; i++) {... */\n    tag_40:\n        /* \".deps/RefernceDataType.sol\":1576:1582  values */\n      dup4\n      dup4\n        /* \".deps/RefernceDataType.sol\":1576:1589  values.length */\n      swap1\n      pop\n        /* \".deps/RefernceDataType.sol\":1572:1573  i */\n      dup2\n        /* \".deps/RefernceDataType.sol\":1572:1589  i < values.length */\n      lt\n        /* \".deps/RefernceDataType.sol\":1555:1637  for (uint i = 0; i < values.length; i++) {... */\n      iszero\n      tag_41\n      jumpi\n        /* \".deps/RefernceDataType.sol\":1616:1622  values */\n      dup4\n      dup4\n        /* \".deps/RefernceDataType.sol\":1623:1624  i */\n      dup3\n        /* \".deps/RefernceDataType.sol\":1616:1625  values[i] */\n      dup2\n      dup2\n      lt\n      tag_43\n      jumpi\n      tag_44\n      tag_45\n      jump\t// in\n    tag_44:\n    tag_43:\n      swap1\n      pop\n      0x20\n      mul\n      add\n      calldataload\n        /* \".deps/RefernceDataType.sol\":1611:1625  s += values[i] */\n      dup3\n      tag_46\n      swap2\n      swap1\n      tag_47\n      jump\t// in\n    tag_46:\n      swap2\n      pop\n        /* \".deps/RefernceDataType.sol\":1591:1594  i++ */\n      dup1\n      dup1\n      0x01\n      add\n      swap2\n      pop\n      pop\n        /* \".deps/RefernceDataType.sol\":1555:1637  for (uint i = 0; i < values.length; i++) {... */\n      jump(tag_40)\n    tag_41:\n      pop\n        /* \".deps/RefernceDataType.sol\":1476:1644  function sum(uint[] calldata values) external pure returns (uint s) {... */\n      swap3\n      swap2\n      pop\n      pop\n      jump\t// out\n        /* \".deps/RefernceDataType.sol\":1682:1763  function length() public view returns (uint) {... */\n    tag_18:\n        /* \".deps/RefernceDataType.sol\":1721:1725  uint */\n      0x00\n        /* \".deps/RefernceDataType.sol\":1745:1748  arr */\n      0x00\n        /* \".deps/RefernceDataType.sol\":1745:1755  arr.length */\n      dup1\n      sload\n      swap1\n      pop\n        /* \".deps/RefernceDataType.sol\":1738:1755  return arr.length */\n      swap1\n      pop\n        /* \".deps/RefernceDataType.sol\":1682:1763  function length() public view returns (uint) {... */\n      swap1\n      jump\t// out\n        /* \".deps/RefernceDataType.sol\":529:806  function setAt(uint _index, uint _item) public {... */\n    tag_23:\n        /* \".deps/RefernceDataType.sol\":601:604  arr */\n      0x00\n        /* \".deps/RefernceDataType.sol\":601:611  arr.length */\n      dup1\n      sload\n      swap1\n      pop\n        /* \".deps/RefernceDataType.sol\":591:597  _index */\n      dup3\n        /* \".deps/RefernceDataType.sol\":591:611  _index >= arr.length */\n      lt\n        /* \".deps/RefernceDataType.sol\":587:769  if (_index >= arr.length) {... */\n      tag_50\n      jumpi\n        /* \".deps/RefernceDataType.sol\":628:638  uint toAdd */\n      0x00\n        /* \".deps/RefernceDataType.sol\":654:657  arr */\n      0x00\n        /* \".deps/RefernceDataType.sol\":654:664  arr.length */\n      dup1\n      sload\n      swap1\n      pop\n        /* \".deps/RefernceDataType.sol\":650:651  1 */\n      0x01\n        /* \".deps/RefernceDataType.sol\":641:647  _index */\n      dup5\n        /* \".deps/RefernceDataType.sol\":641:651  _index + 1 */\n      tag_51\n      swap2\n      swap1\n      tag_47\n      jump\t// in\n    tag_51:\n        /* \".deps/RefernceDataType.sol\":641:664  _index + 1 - arr.length */\n      tag_52\n      swap2\n      swap1\n      tag_53\n      jump\t// in\n    tag_52:\n        /* \".deps/RefernceDataType.sol\":628:664  uint toAdd = _index + 1 - arr.length */\n      swap1\n      pop\n        /* \".deps/RefernceDataType.sol\":684:690  uint i */\n      0x00\n        /* \".deps/RefernceDataType.sol\":693:694  0 */\n      0x00\n        /* \".deps/RefernceDataType.sol\":684:694  uint i = 0 */\n      swap1\n      pop\n        /* \".deps/RefernceDataType.sol\":679:758  for (uint i = 0; i < toAdd; i++) {... */\n    tag_54:\n        /* \".deps/RefernceDataType.sol\":700:705  toAdd */\n      dup2\n        /* \".deps/RefernceDataType.sol\":696:697  i */\n      dup2\n        /* \".deps/RefernceDataType.sol\":696:705  i < toAdd */\n      lt\n        /* \".deps/RefernceDataType.sol\":679:758  for (uint i = 0; i < toAdd; i++) {... */\n      iszero\n      tag_55\n      jumpi\n        /* \".deps/RefernceDataType.sol\":731:734  arr */\n      0x00\n        /* \".deps/RefernceDataType.sol\":740:741  0 */\n      0x00\n        /* \".deps/RefernceDataType.sol\":731:742  arr.push(0) */\n      swap1\n      dup1\n      0x01\n      dup2\n      sload\n      add\n      dup1\n      dup3\n      sstore\n      dup1\n      swap2\n      pop\n      pop\n      0x01\n      swap1\n      sub\n      swap1\n      0x00\n      mstore\n      keccak256(0x00, 0x20)\n      add\n      0x00\n      swap1\n      swap2\n      swap1\n      swap2\n      swap1\n      swap2\n      pop\n      sstore\n        /* \".deps/RefernceDataType.sol\":707:710  i++ */\n      dup1\n      dup1\n      0x01\n      add\n      swap2\n      pop\n      pop\n        /* \".deps/RefernceDataType.sol\":679:758  for (uint i = 0; i < toAdd; i++) {... */\n      jump(tag_54)\n    tag_55:\n      pop\n        /* \".deps/RefernceDataType.sol\":613:769  {... */\n      pop\n        /* \".deps/RefernceDataType.sol\":587:769  if (_index >= arr.length) {... */\n    tag_50:\n        /* \".deps/RefernceDataType.sol\":793:798  _item */\n      dup1\n        /* \".deps/RefernceDataType.sol\":779:782  arr */\n      0x00\n        /* \".deps/RefernceDataType.sol\":783:789  _index */\n      dup4\n        /* \".deps/RefernceDataType.sol\":779:790  arr[_index] */\n      dup2\n      sload\n      dup2\n      lt\n      tag_58\n      jumpi\n      tag_59\n      tag_45\n      jump\t// in\n    tag_59:\n    tag_58:\n      swap1\n      0x00\n      mstore\n      keccak256(0x00, 0x20)\n      add\n        /* \".deps/RefernceDataType.sol\":779:798  arr[_index] = _item */\n      dup2\n      swap1\n      sstore\n      pop\n        /* \".deps/RefernceDataType.sol\":529:806  function setAt(uint _index, uint _item) public {... */\n      pop\n      pop\n      jump\t// out\n        /* \".deps/RefernceDataType.sol\":1231:1410  function replaceAll(uint[] calldata values) external {... */\n    tag_26:\n        /* \".deps/RefernceDataType.sol\":1302:1305  arr */\n      0x00\n      0x00\n        /* \".deps/RefernceDataType.sol\":1295:1305  delete arr */\n      tag_62\n      swap2\n      swap1\n      tag_63\n      jump\t// in\n    tag_62:\n        /* \".deps/RefernceDataType.sol\":1321:1327  uint i */\n      0x00\n        /* \".deps/RefernceDataType.sol\":1330:1331  0 */\n      0x00\n        /* \".deps/RefernceDataType.sol\":1321:1331  uint i = 0 */\n      swap1\n      pop\n        /* \".deps/RefernceDataType.sol\":1316:1403  for (uint i = 0; i < values.length; i++) {... */\n    tag_64:\n        /* \".deps/RefernceDataType.sol\":1337:1343  values */\n      dup3\n      dup3\n        /* \".deps/RefernceDataType.sol\":1337:1350  values.length */\n      swap1\n      pop\n        /* \".deps/RefernceDataType.sol\":1333:1334  i */\n      dup2\n        /* \".deps/RefernceDataType.sol\":1333:1350  i < values.length */\n      lt\n        /* \".deps/RefernceDataType.sol\":1316:1403  for (uint i = 0; i < values.length; i++) {... */\n      iszero\n      tag_65\n      jumpi\n        /* \".deps/RefernceDataType.sol\":1372:1375  arr */\n      0x00\n        /* \".deps/RefernceDataType.sol\":1381:1387  values */\n      dup4\n      dup4\n        /* \".deps/RefernceDataType.sol\":1388:1389  i */\n      dup4\n        /* \".deps/RefernceDataType.sol\":1381:1390  values[i] */\n      dup2\n      dup2\n      lt\n      tag_67\n      jumpi\n      tag_68\n      tag_45\n      jump\t// in\n    tag_68:\n    tag_67:\n      swap1\n      pop\n      0x20\n      mul\n      add\n      calldataload\n        /* \".deps/RefernceDataType.sol\":1372:1391  arr.push(values[i]) */\n      swap1\n      dup1\n      0x01\n      dup2\n      sload\n      add\n      dup1\n      dup3\n      sstore\n      dup1\n      swap2\n      pop\n      pop\n      0x01\n      swap1\n      sub\n      swap1\n      0x00\n      mstore\n      keccak256(0x00, 0x20)\n      add\n      0x00\n      swap1\n      swap2\n      swap1\n      swap2\n      swap1\n      swap2\n      pop\n      sstore\n        /* \".deps/RefernceDataType.sol\":1352:1355  i++ */\n      dup1\n      dup1\n      0x01\n      add\n      swap2\n      pop\n      pop\n        /* \".deps/RefernceDataType.sol\":1316:1403  for (uint i = 0; i < values.length; i++) {... */\n      jump(tag_64)\n    tag_65:\n      pop\n        /* \".deps/RefernceDataType.sol\":1231:1410  function replaceAll(uint[] calldata values) external {... */\n      pop\n      pop\n      jump\t// out\n        /* \".deps/RefernceDataType.sol\":840:994  function getAt(uint _index) public view returns (uint) {... */\n    tag_30:\n        /* \".deps/RefernceDataType.sol\":889:893  uint */\n      0x00\n        /* \".deps/RefernceDataType.sol\":923:926  arr */\n      0x00\n        /* \".deps/RefernceDataType.sol\":923:933  arr.length */\n      dup1\n      sload\n      swap1\n      pop\n        /* \".deps/RefernceDataType.sol\":914:920  _index */\n      dup3\n        /* \".deps/RefernceDataType.sol\":914:933  _index < arr.length */\n      lt\n        /* \".deps/RefernceDataType.sol\":906:957  require(_index < arr.length, \"Index out of bounds\") */\n      tag_71\n      jumpi\n      mload(0x40)\n      0x08c379a000000000000000000000000000000000000000000000000000000000\n      dup2\n      mstore\n      0x04\n      add\n      tag_72\n      swap1\n      tag_73\n      jump\t// in\n    tag_72:\n      mload(0x40)\n      dup1\n      swap2\n      sub\n      swap1\n      revert\n    tag_71:\n        /* \".deps/RefernceDataType.sol\":975:978  arr */\n      0x00\n        /* \".deps/RefernceDataType.sol\":979:985  _index */\n      dup3\n        /* \".deps/RefernceDataType.sol\":975:986  arr[_index] */\n      dup2\n      sload\n      dup2\n      lt\n      tag_74\n      jumpi\n      tag_75\n      tag_45\n      jump\t// in\n    tag_75:\n    tag_74:\n      swap1\n      0x00\n      mstore\n      keccak256(0x00, 0x20)\n      add\n      sload\n        /* \".deps/RefernceDataType.sol\":968:986  return arr[_index] */\n      swap1\n      pop\n        /* \".deps/RefernceDataType.sol\":840:994  function getAt(uint _index) public view returns (uint) {... */\n      swap2\n      swap1\n      pop\n      jump\t// out\n        /* \".deps/RefernceDataType.sol\":1065:1148  function getAll() public view returns (uint[] memory) {... */\n    tag_33:\n        /* \".deps/RefernceDataType.sol\":1104:1117  uint[] memory */\n      0x60\n        /* \".deps/RefernceDataType.sol\":1137:1140  arr */\n      0x00\n        /* \".deps/RefernceDataType.sol\":1130:1140  return arr */\n      dup1\n      sload\n      dup1\n      0x20\n      mul\n      0x20\n      add\n      mload(0x40)\n      swap1\n      dup2\n      add\n      0x40\n      mstore\n      dup1\n      swap3\n      swap2\n      swap1\n      dup2\n      dup2\n      mstore\n      0x20\n      add\n      dup3\n      dup1\n      sload\n      dup1\n      iszero\n      tag_78\n      jumpi\n      0x20\n      mul\n      dup3\n      add\n      swap2\n      swap1\n      0x00\n      mstore\n      keccak256(0x00, 0x20)\n      swap1\n    tag_79:\n      dup2\n      sload\n      dup2\n      mstore\n      0x20\n      add\n      swap1\n      0x01\n      add\n      swap1\n      dup1\n      dup4\n      gt\n      tag_79\n      jumpi\n    tag_78:\n      pop\n      pop\n      pop\n      pop\n      pop\n      swap1\n      pop\n        /* \".deps/RefernceDataType.sol\":1065:1148  function getAll() public view returns (uint[] memory) {... */\n      swap1\n      jump\t// out\n        /* \".deps/RefernceDataType.sol\":376:447  function pushItem(uint _item) public {... */\n    tag_38:\n        /* \".deps/RefernceDataType.sol\":424:427  arr */\n      0x00\n        /* \".deps/RefernceDataType.sol\":433:438  _item */\n      dup2\n        /* \".deps/RefernceDataType.sol\":424:439  arr.push(_item) */\n      swap1\n      dup1\n      0x01\n      dup2\n      sload\n      add\n      dup1\n      dup3\n      sstore\n      dup1\n      swap2\n      pop\n      pop\n      0x01\n      swap1\n      sub\n      swap1\n      0x00\n      mstore\n      keccak256(0x00, 0x20)\n      add\n      0x00\n      swap1\n      swap2\n      swap1\n      swap2\n      swap1\n      swap2\n      pop\n      sstore\n        /* \".deps/RefernceDataType.sol\":376:447  function pushItem(uint _item) public {... */\n      pop\n      jump\t// out\n    tag_63:\n      pop\n      dup1\n      sload\n      0x00\n      dup3\n      sstore\n      swap1\n      0x00\n      mstore\n      keccak256(0x00, 0x20)\n      swap1\n      dup2\n      add\n      swap1\n      tag_83\n      swap2\n      swap1\n      tag_84\n      jump\t// in\n    tag_83:\n      pop\n      jump\t// out\n    tag_84:\n    tag_85:\n      dup1\n      dup3\n      gt\n      iszero\n      tag_86\n      jumpi\n      0x00\n      dup2\n      0x00\n      swap1\n      sstore\n      pop\n      0x01\n      add\n      jump(tag_85)\n    tag_86:\n      pop\n      swap1\n      jump\t// out\n        /* \"#utility.yul\":88:205   */\n    tag_88:\n        /* \"#utility.yul\":197:198   */\n      0x00\n        /* \"#utility.yul\":194:195   */\n      0x00\n        /* \"#utility.yul\":187:199   */\n      revert\n        /* \"#utility.yul\":211:328   */\n    tag_89:\n        /* \"#utility.yul\":320:321   */\n      0x00\n        /* \"#utility.yul\":317:318   */\n      0x00\n        /* \"#utility.yul\":310:322   */\n      revert\n        /* \"#utility.yul\":334:451   */\n    tag_90:\n        /* \"#utility.yul\":443:444   */\n      0x00\n        /* \"#utility.yul\":440:441   */\n      0x00\n        /* \"#utility.yul\":433:445   */\n      revert\n        /* \"#utility.yul\":457:574   */\n    tag_91:\n        /* \"#utility.yul\":566:567   */\n      0x00\n        /* \"#utility.yul\":563:564   */\n      0x00\n        /* \"#utility.yul\":556:568   */\n      revert\n        /* \"#utility.yul\":580:697   */\n    tag_92:\n        /* \"#utility.yul\":689:690   */\n      0x00\n        /* \"#utility.yul\":686:687   */\n      0x00\n        /* \"#utility.yul\":679:691   */\n      revert\n        /* \"#utility.yul\":720:1288   */\n    tag_93:\n        /* \"#utility.yul\":793:801   */\n      0x00\n        /* \"#utility.yul\":803:809   */\n      0x00\n        /* \"#utility.yul\":853:856   */\n      dup4\n        /* \"#utility.yul\":846:850   */\n      0x1f\n        /* \"#utility.yul\":838:844   */\n      dup5\n        /* \"#utility.yul\":834:851   */\n      add\n        /* \"#utility.yul\":830:857   */\n      slt\n        /* \"#utility.yul\":820:942   */\n      tag_117\n      jumpi\n        /* \"#utility.yul\":861:940   */\n      tag_118\n      tag_90\n      jump\t// in\n    tag_118:\n        /* \"#utility.yul\":820:942   */\n    tag_117:\n        /* \"#utility.yul\":974:980   */\n      dup3\n        /* \"#utility.yul\":961:981   */\n      calldataload\n        /* \"#utility.yul\":951:981   */\n      swap1\n      pop\n        /* \"#utility.yul\":1004:1022   */\n      0xffffffffffffffff\n        /* \"#utility.yul\":996:1002   */\n      dup2\n        /* \"#utility.yul\":993:1023   */\n      gt\n        /* \"#utility.yul\":990:1107   */\n      iszero\n      tag_119\n      jumpi\n        /* \"#utility.yul\":1026:1105   */\n      tag_120\n      tag_91\n      jump\t// in\n    tag_120:\n        /* \"#utility.yul\":990:1107   */\n    tag_119:\n        /* \"#utility.yul\":1140:1144   */\n      0x20\n        /* \"#utility.yul\":1132:1138   */\n      dup4\n        /* \"#utility.yul\":1128:1145   */\n      add\n        /* \"#utility.yul\":1116:1145   */\n      swap2\n      pop\n        /* \"#utility.yul\":1194:1197   */\n      dup4\n        /* \"#utility.yul\":1186:1190   */\n      0x20\n        /* \"#utility.yul\":1178:1184   */\n      dup3\n        /* \"#utility.yul\":1174:1191   */\n      mul\n        /* \"#utility.yul\":1164:1172   */\n      dup4\n        /* \"#utility.yul\":1160:1192   */\n      add\n        /* \"#utility.yul\":1157:1198   */\n      gt\n        /* \"#utility.yul\":1154:1282   */\n      iszero\n      tag_121\n      jumpi\n        /* \"#utility.yul\":1201:1280   */\n      tag_122\n      tag_92\n      jump\t// in\n    tag_122:\n        /* \"#utility.yul\":1154:1282   */\n    tag_121:\n        /* \"#utility.yul\":720:1288   */\n      swap3\n      pop\n      swap3\n      swap1\n      pop\n      jump\t// out\n        /* \"#utility.yul\":1294:1853   */\n    tag_13:\n        /* \"#utility.yul\":1380:1386   */\n      0x00\n        /* \"#utility.yul\":1388:1394   */\n      0x00\n        /* \"#utility.yul\":1437:1439   */\n      0x20\n        /* \"#utility.yul\":1425:1434   */\n      dup4\n        /* \"#utility.yul\":1416:1423   */\n      dup6\n        /* \"#utility.yul\":1412:1435   */\n      sub\n        /* \"#utility.yul\":1408:1440   */\n      slt\n        /* \"#utility.yul\":1405:1524   */\n      iszero\n      tag_124\n      jumpi\n        /* \"#utility.yul\":1443:1522   */\n      tag_125\n      tag_88\n      jump\t// in\n    tag_125:\n        /* \"#utility.yul\":1405:1524   */\n    tag_124:\n        /* \"#utility.yul\":1591:1592   */\n      0x00\n        /* \"#utility.yul\":1580:1589   */\n      dup4\n        /* \"#utility.yul\":1576:1593   */\n      add\n        /* \"#utility.yul\":1563:1594   */\n      calldataload\n        /* \"#utility.yul\":1621:1639   */\n      0xffffffffffffffff\n        /* \"#utility.yul\":1613:1619   */\n      dup2\n        /* \"#utility.yul\":1610:1640   */\n      gt\n        /* \"#utility.yul\":1607:1724   */\n      iszero\n      tag_126\n      jumpi\n        /* \"#utility.yul\":1643:1722   */\n      tag_127\n      tag_89\n      jump\t// in\n    tag_127:\n        /* \"#utility.yul\":1607:1724   */\n    tag_126:\n        /* \"#utility.yul\":1756:1836   */\n      tag_128\n        /* \"#utility.yul\":1828:1835   */\n      dup6\n        /* \"#utility.yul\":1819:1825   */\n      dup3\n        /* \"#utility.yul\":1808:1817   */\n      dup7\n        /* \"#utility.yul\":1804:1826   */\n      add\n        /* \"#utility.yul\":1756:1836   */\n      tag_93\n      jump\t// in\n    tag_128:\n        /* \"#utility.yul\":1738:1836   */\n      swap3\n      pop\n      swap3\n      pop\n        /* \"#utility.yul\":1534:1846   */\n      pop\n        /* \"#utility.yul\":1294:1853   */\n      swap3\n      pop\n      swap3\n      swap1\n      pop\n      jump\t// out\n        /* \"#utility.yul\":1859:1936   */\n    tag_94:\n        /* \"#utility.yul\":1896:1903   */\n      0x00\n        /* \"#utility.yul\":1925:1930   */\n      dup2\n        /* \"#utility.yul\":1914:1930   */\n      swap1\n      pop\n        /* \"#utility.yul\":1859:1936   */\n      swap2\n      swap1\n      pop\n      jump\t// out\n        /* \"#utility.yul\":1942:2060   */\n    tag_95:\n        /* \"#utility.yul\":2029:2053   */\n      tag_131\n        /* \"#utility.yul\":2047:2052   */\n      dup2\n        /* \"#utility.yul\":2029:2053   */\n      tag_94\n      jump\t// in\n    tag_131:\n        /* \"#utility.yul\":2024:2027   */\n      dup3\n        /* \"#utility.yul\":2017:2054   */\n      mstore\n        /* \"#utility.yul\":1942:2060   */\n      pop\n      pop\n      jump\t// out\n        /* \"#utility.yul\":2066:2288   */\n    tag_16:\n        /* \"#utility.yul\":2159:2163   */\n      0x00\n        /* \"#utility.yul\":2197:2199   */\n      0x20\n        /* \"#utility.yul\":2186:2195   */\n      dup3\n        /* \"#utility.yul\":2182:2200   */\n      add\n        /* \"#utility.yul\":2174:2200   */\n      swap1\n      pop\n        /* \"#utility.yul\":2210:2281   */\n      tag_133\n        /* \"#utility.yul\":2278:2279   */\n      0x00\n        /* \"#utility.yul\":2267:2276   */\n      dup4\n        /* \"#utility.yul\":2263:2280   */\n      add\n        /* \"#utility.yul\":2254:2260   */\n      dup5\n        /* \"#utility.yul\":2210:2281   */\n      tag_95\n      jump\t// in\n    tag_133:\n        /* \"#utility.yul\":2066:2288   */\n      swap3\n      swap2\n      pop\n      pop\n      jump\t// out\n        /* \"#utility.yul\":2294:2416   */\n    tag_96:\n        /* \"#utility.yul\":2367:2391   */\n      tag_135\n        /* \"#utility.yul\":2385:2390   */\n      dup2\n        /* \"#utility.yul\":2367:2391   */\n      tag_94\n      jump\t// in\n    tag_135:\n        /* \"#utility.yul\":2360:2365   */\n      dup2\n        /* \"#utility.yul\":2357:2392   */\n      eq\n        /* \"#utility.yul\":2347:2410   */\n      tag_136\n      jumpi\n        /* \"#utility.yul\":2406:2407   */\n      0x00\n        /* \"#utility.yul\":2403:2404   */\n      0x00\n        /* \"#utility.yul\":2396:2408   */\n      revert\n        /* \"#utility.yul\":2347:2410   */\n    tag_136:\n        /* \"#utility.yul\":2294:2416   */\n      pop\n      jump\t// out\n        /* \"#utility.yul\":2422:2561   */\n    tag_97:\n        /* \"#utility.yul\":2468:2473   */\n      0x00\n        /* \"#utility.yul\":2506:2512   */\n      dup2\n        /* \"#utility.yul\":2493:2513   */\n      calldataload\n        /* \"#utility.yul\":2484:2513   */\n      swap1\n      pop\n        /* \"#utility.yul\":2522:2555   */\n      tag_138\n        /* \"#utility.yul\":2549:2554   */\n      dup2\n        /* \"#utility.yul\":2522:2555   */\n      tag_96\n      jump\t// in\n    tag_138:\n        /* \"#utility.yul\":2422:2561   */\n      swap3\n      swap2\n      pop\n      pop\n      jump\t// out\n        /* \"#utility.yul\":2567:3041   */\n    tag_22:\n        /* \"#utility.yul\":2635:2641   */\n      0x00\n        /* \"#utility.yul\":2643:2649   */\n      0x00\n        /* \"#utility.yul\":2692:2694   */\n      0x40\n        /* \"#utility.yul\":2680:2689   */\n      dup4\n        /* \"#utility.yul\":2671:2678   */\n      dup6\n        /* \"#utility.yul\":2667:2690   */\n      sub\n        /* \"#utility.yul\":2663:2695   */\n      slt\n        /* \"#utility.yul\":2660:2779   */\n      iszero\n      tag_140\n      jumpi\n        /* \"#utility.yul\":2698:2777   */\n      tag_141\n      tag_88\n      jump\t// in\n    tag_141:\n        /* \"#utility.yul\":2660:2779   */\n    tag_140:\n        /* \"#utility.yul\":2818:2819   */\n      0x00\n        /* \"#utility.yul\":2843:2896   */\n      tag_142\n        /* \"#utility.yul\":2888:2895   */\n      dup6\n        /* \"#utility.yul\":2879:2885   */\n      dup3\n        /* \"#utility.yul\":2868:2877   */\n      dup7\n        /* \"#utility.yul\":2864:2886   */\n      add\n        /* \"#utility.yul\":2843:2896   */\n      tag_97\n      jump\t// in\n    tag_142:\n        /* \"#utility.yul\":2833:2896   */\n      swap3\n      pop\n        /* \"#utility.yul\":2789:2906   */\n      pop\n        /* \"#utility.yul\":2945:2947   */\n      0x20\n        /* \"#utility.yul\":2971:3024   */\n      tag_143\n        /* \"#utility.yul\":3016:3023   */\n      dup6\n        /* \"#utility.yul\":3007:3013   */\n      dup3\n        /* \"#utility.yul\":2996:3005   */\n      dup7\n        /* \"#utility.yul\":2992:3014   */\n      add\n        /* \"#utility.yul\":2971:3024   */\n      tag_97\n      jump\t// in\n    tag_143:\n        /* \"#utility.yul\":2961:3024   */\n      swap2\n      pop\n        /* \"#utility.yul\":2916:3034   */\n      pop\n        /* \"#utility.yul\":2567:3041   */\n      swap3\n      pop\n      swap3\n      swap1\n      pop\n      jump\t// out\n        /* \"#utility.yul\":3047:3376   */\n    tag_29:\n        /* \"#utility.yul\":3106:3112   */\n      0x00\n        /* \"#utility.yul\":3155:3157   */\n      0x20\n        /* \"#utility.yul\":3143:3152   */\n      dup3\n        /* \"#utility.yul\":3134:3141   */\n      dup5\n        /* \"#utility.yul\":3130:3153   */\n      sub\n        /* \"#utility.yul\":3126:3158   */\n      slt\n        /* \"#utility.yul\":3123:3242   */\n      iszero\n      tag_145\n      jumpi\n        /* \"#utility.yul\":3161:3240   */\n      tag_146\n      tag_88\n      jump\t// in\n    tag_146:\n        /* \"#utility.yul\":3123:3242   */\n    tag_145:\n        /* \"#utility.yul\":3281:3282   */\n      0x00\n        /* \"#utility.yul\":3306:3359   */\n      tag_147\n        /* \"#utility.yul\":3351:3358   */\n      dup5\n        /* \"#utility.yul\":3342:3348   */\n      dup3\n        /* \"#utility.yul\":3331:3340   */\n      dup6\n        /* \"#utility.yul\":3327:3349   */\n      add\n        /* \"#utility.yul\":3306:3359   */\n      tag_97\n      jump\t// in\n    tag_147:\n        /* \"#utility.yul\":3296:3359   */\n      swap2\n      pop\n        /* \"#utility.yul\":3252:3369   */\n      pop\n        /* \"#utility.yul\":3047:3376   */\n      swap3\n      swap2\n      pop\n      pop\n      jump\t// out\n        /* \"#utility.yul\":3382:3496   */\n    tag_98:\n        /* \"#utility.yul\":3449:3455   */\n      0x00\n        /* \"#utility.yul\":3483:3488   */\n      dup2\n        /* \"#utility.yul\":3477:3489   */\n      mload\n        /* \"#utility.yul\":3467:3489   */\n      swap1\n      pop\n        /* \"#utility.yul\":3382:3496   */\n      swap2\n      swap1\n      pop\n      jump\t// out\n        /* \"#utility.yul\":3502:3686   */\n    tag_99:\n        /* \"#utility.yul\":3601:3612   */\n      0x00\n        /* \"#utility.yul\":3635:3641   */\n      dup3\n        /* \"#utility.yul\":3630:3633   */\n      dup3\n        /* \"#utility.yul\":3623:3642   */\n      mstore\n        /* \"#utility.yul\":3675:3679   */\n      0x20\n        /* \"#utility.yul\":3670:3673   */\n      dup3\n        /* \"#utility.yul\":3666:3680   */\n      add\n        /* \"#utility.yul\":3651:3680   */\n      swap1\n      pop\n        /* \"#utility.yul\":3502:3686   */\n      swap3\n      swap2\n      pop\n      pop\n      jump\t// out\n        /* \"#utility.yul\":3692:3824   */\n    tag_100:\n        /* \"#utility.yul\":3759:3763   */\n      0x00\n        /* \"#utility.yul\":3782:3785   */\n      dup2\n        /* \"#utility.yul\":3774:3785   */\n      swap1\n      pop\n        /* \"#utility.yul\":3812:3816   */\n      0x20\n        /* \"#utility.yul\":3807:3810   */\n      dup3\n        /* \"#utility.yul\":3803:3817   */\n      add\n        /* \"#utility.yul\":3795:3817   */\n      swap1\n      pop\n        /* \"#utility.yul\":3692:3824   */\n      swap2\n      swap1\n      pop\n      jump\t// out\n        /* \"#utility.yul\":3830:3938   */\n    tag_101:\n        /* \"#utility.yul\":3907:3931   */\n      tag_152\n        /* \"#utility.yul\":3925:3930   */\n      dup2\n        /* \"#utility.yul\":3907:3931   */\n      tag_94\n      jump\t// in\n    tag_152:\n        /* \"#utility.yul\":3902:3905   */\n      dup3\n        /* \"#utility.yul\":3895:3932   */\n      mstore\n        /* \"#utility.yul\":3830:3938   */\n      pop\n      pop\n      jump\t// out\n        /* \"#utility.yul\":3944:4123   */\n    tag_102:\n        /* \"#utility.yul\":4013:4023   */\n      0x00\n        /* \"#utility.yul\":4034:4080   */\n      tag_154\n        /* \"#utility.yul\":4076:4079   */\n      dup4\n        /* \"#utility.yul\":4068:4074   */\n      dup4\n        /* \"#utility.yul\":4034:4080   */\n      tag_101\n      jump\t// in\n    tag_154:\n        /* \"#utility.yul\":4112:4116   */\n      0x20\n        /* \"#utility.yul\":4107:4110   */\n      dup4\n        /* \"#utility.yul\":4103:4117   */\n      add\n        /* \"#utility.yul\":4089:4117   */\n      swap1\n      pop\n        /* \"#utility.yul\":3944:4123   */\n      swap3\n      swap2\n      pop\n      pop\n      jump\t// out\n        /* \"#utility.yul\":4129:4242   */\n    tag_103:\n        /* \"#utility.yul\":4199:4203   */\n      0x00\n        /* \"#utility.yul\":4231:4235   */\n      0x20\n        /* \"#utility.yul\":4226:4229   */\n      dup3\n        /* \"#utility.yul\":4222:4236   */\n      add\n        /* \"#utility.yul\":4214:4236   */\n      swap1\n      pop\n        /* \"#utility.yul\":4129:4242   */\n      swap2\n      swap1\n      pop\n      jump\t// out\n        /* \"#utility.yul\":4278:5010   */\n    tag_104:\n        /* \"#utility.yul\":4397:4400   */\n      0x00\n        /* \"#utility.yul\":4426:4480   */\n      tag_157\n        /* \"#utility.yul\":4474:4479   */\n      dup3\n        /* \"#utility.yul\":4426:4480   */\n      tag_98\n      jump\t// in\n    tag_157:\n        /* \"#utility.yul\":4496:4582   */\n      tag_158\n        /* \"#utility.yul\":4575:4581   */\n      dup2\n        /* \"#utility.yul\":4570:4573   */\n      dup6\n        /* \"#utility.yul\":4496:4582   */\n      tag_99\n      jump\t// in\n    tag_158:\n        /* \"#utility.yul\":4489:4582   */\n      swap4\n      pop\n        /* \"#utility.yul\":4606:4662   */\n      tag_159\n        /* \"#utility.yul\":4656:4661   */\n      dup4\n        /* \"#utility.yul\":4606:4662   */\n      tag_100\n      jump\t// in\n    tag_159:\n        /* \"#utility.yul\":4685:4692   */\n      dup1\n        /* \"#utility.yul\":4716:4717   */\n      0x00\n        /* \"#utility.yul\":4701:4985   */\n    tag_160:\n        /* \"#utility.yul\":4726:4732   */\n      dup4\n        /* \"#utility.yul\":4723:4724   */\n      dup2\n        /* \"#utility.yul\":4720:4733   */\n      lt\n        /* \"#utility.yul\":4701:4985   */\n      iszero\n      tag_162\n      jumpi\n        /* \"#utility.yul\":4802:4808   */\n      dup2\n        /* \"#utility.yul\":4796:4809   */\n      mload\n        /* \"#utility.yul\":4829:4892   */\n      tag_163\n        /* \"#utility.yul\":4888:4891   */\n      dup9\n        /* \"#utility.yul\":4873:4886   */\n      dup3\n        /* \"#utility.yul\":4829:4892   */\n      tag_102\n      jump\t// in\n    tag_163:\n        /* \"#utility.yul\":4822:4892   */\n      swap8\n      pop\n        /* \"#utility.yul\":4915:4975   */\n      tag_164\n        /* \"#utility.yul\":4968:4974   */\n      dup4\n        /* \"#utility.yul\":4915:4975   */\n      tag_103\n      jump\t// in\n    tag_164:\n        /* \"#utility.yul\":4905:4975   */\n      swap3\n      pop\n        /* \"#utility.yul\":4761:4985   */\n      pop\n        /* \"#utility.yul\":4748:4749   */\n      0x01\n        /* \"#utility.yul\":4745:4746   */\n      dup2\n        /* \"#utility.yul\":4741:4750   */\n      add\n        /* \"#utility.yul\":4736:4750   */\n      swap1\n      pop\n        /* \"#utility.yul\":4701:4985   */\n      jump(tag_160)\n    tag_162:\n        /* \"#utility.yul\":4705:4719   */\n      pop\n        /* \"#utility.yul\":5001:5004   */\n      dup6\n        /* \"#utility.yul\":4994:5004   */\n      swap4\n      pop\n        /* \"#utility.yul\":4402:5010   */\n      pop\n      pop\n      pop\n        /* \"#utility.yul\":4278:5010   */\n      swap3\n      swap2\n      pop\n      pop\n      jump\t// out\n        /* \"#utility.yul\":5016:5389   */\n    tag_35:\n        /* \"#utility.yul\":5159:5163   */\n      0x00\n        /* \"#utility.yul\":5197:5199   */\n      0x20\n        /* \"#utility.yul\":5186:5195   */\n      dup3\n        /* \"#utility.yul\":5182:5200   */\n      add\n        /* \"#utility.yul\":5174:5200   */\n      swap1\n      pop\n        /* \"#utility.yul\":5246:5255   */\n      dup2\n        /* \"#utility.yul\":5240:5244   */\n      dup2\n        /* \"#utility.yul\":5236:5256   */\n      sub\n        /* \"#utility.yul\":5232:5233   */\n      0x00\n        /* \"#utility.yul\":5221:5230   */\n      dup4\n        /* \"#utility.yul\":5217:5234   */\n      add\n        /* \"#utility.yul\":5210:5257   */\n      mstore\n        /* \"#utility.yul\":5274:5382   */\n      tag_166\n        /* \"#utility.yul\":5377:5381   */\n      dup2\n        /* \"#utility.yul\":5368:5374   */\n      dup5\n        /* \"#utility.yul\":5274:5382   */\n      tag_104\n      jump\t// in\n    tag_166:\n        /* \"#utility.yul\":5266:5382   */\n      swap1\n      pop\n        /* \"#utility.yul\":5016:5389   */\n      swap3\n      swap2\n      pop\n      pop\n      jump\t// out\n        /* \"#utility.yul\":5395:5575   */\n    tag_45:\n        /* \"#utility.yul\":5443:5520   */\n      0x4e487b7100000000000000000000000000000000000000000000000000000000\n        /* \"#utility.yul\":5440:5441   */\n      0x00\n        /* \"#utility.yul\":5433:5521   */\n      mstore\n        /* \"#utility.yul\":5540:5544   */\n      0x32\n        /* \"#utility.yul\":5537:5538   */\n      0x04\n        /* \"#utility.yul\":5530:5545   */\n      mstore\n        /* \"#utility.yul\":5564:5568   */\n      0x24\n        /* \"#utility.yul\":5561:5562   */\n      0x00\n        /* \"#utility.yul\":5554:5569   */\n      revert\n        /* \"#utility.yul\":5581:5761   */\n    tag_105:\n        /* \"#utility.yul\":5629:5706   */\n      0x4e487b7100000000000000000000000000000000000000000000000000000000\n        /* \"#utility.yul\":5626:5627   */\n      0x00\n        /* \"#utility.yul\":5619:5707   */\n      mstore\n        /* \"#utility.yul\":5726:5730   */\n      0x11\n        /* \"#utility.yul\":5723:5724   */\n      0x04\n        /* \"#utility.yul\":5716:5731   */\n      mstore\n        /* \"#utility.yul\":5750:5754   */\n      0x24\n        /* \"#utility.yul\":5747:5748   */\n      0x00\n        /* \"#utility.yul\":5740:5755   */\n      revert\n        /* \"#utility.yul\":5767:5958   */\n    tag_47:\n        /* \"#utility.yul\":5807:5810   */\n      0x00\n        /* \"#utility.yul\":5826:5846   */\n      tag_170\n        /* \"#utility.yul\":5844:5845   */\n      dup3\n        /* \"#utility.yul\":5826:5846   */\n      tag_94\n      jump\t// in\n    tag_170:\n        /* \"#utility.yul\":5821:5846   */\n      swap2\n      pop\n        /* \"#utility.yul\":5860:5880   */\n      tag_171\n        /* \"#utility.yul\":5878:5879   */\n      dup4\n        /* \"#utility.yul\":5860:5880   */\n      tag_94\n      jump\t// in\n    tag_171:\n        /* \"#utility.yul\":5855:5880   */\n      swap3\n      pop\n        /* \"#utility.yul\":5903:5904   */\n      dup3\n        /* \"#utility.yul\":5900:5901   */\n      dup3\n        /* \"#utility.yul\":5896:5905   */\n      add\n        /* \"#utility.yul\":5889:5905   */\n      swap1\n      pop\n        /* \"#utility.yul\":5924:5927   */\n      dup1\n        /* \"#utility.yul\":5921:5922   */\n      dup3\n        /* \"#utility.yul\":5918:5928   */\n      gt\n        /* \"#utility.yul\":5915:5951   */\n      iszero\n      tag_172\n      jumpi\n        /* \"#utility.yul\":5931:5949   */\n      tag_173\n      tag_105\n      jump\t// in\n    tag_173:\n        /* \"#utility.yul\":5915:5951   */\n    tag_172:\n        /* \"#utility.yul\":5767:5958   */\n      swap3\n      swap2\n      pop\n      pop\n      jump\t// out\n        /* \"#utility.yul\":5964:6158   */\n    tag_53:\n        /* \"#utility.yul\":6004:6008   */\n      0x00\n        /* \"#utility.yul\":6024:6044   */\n      tag_175\n        /* \"#utility.yul\":6042:6043   */\n      dup3\n        /* \"#utility.yul\":6024:6044   */\n      tag_94\n      jump\t// in\n    tag_175:\n        /* \"#utility.yul\":6019:6044   */\n      swap2\n      pop\n        /* \"#utility.yul\":6058:6078   */\n      tag_176\n        /* \"#utility.yul\":6076:6077   */\n      dup4\n        /* \"#utility.yul\":6058:6078   */\n      tag_94\n      jump\t// in\n    tag_176:\n        /* \"#utility.yul\":6053:6078   */\n      swap3\n      pop\n        /* \"#utility.yul\":6102:6103   */\n      dup3\n        /* \"#utility.yul\":6099:6100   */\n      dup3\n        /* \"#utility.yul\":6095:6104   */\n      sub\n        /* \"#utility.yul\":6087:6104   */\n      swap1\n      pop\n        /* \"#utility.yul\":6126:6127   */\n      dup2\n        /* \"#utility.yul\":6120:6124   */\n      dup2\n        /* \"#utility.yul\":6117:6128   */\n      gt\n        /* \"#utility.yul\":6114:6151   */\n      iszero\n      tag_177\n      jumpi\n        /* \"#utility.yul\":6131:6149   */\n      tag_178\n      tag_105\n      jump\t// in\n    tag_178:\n        /* \"#utility.yul\":6114:6151   */\n    tag_177:\n        /* \"#utility.yul\":5964:6158   */\n      swap3\n      swap2\n      pop\n      pop\n      jump\t// out\n        /* \"#utility.yul\":6164:6333   */\n    tag_106:\n        /* \"#utility.yul\":6248:6259   */\n      0x00\n        /* \"#utility.yul\":6282:6288   */\n      dup3\n        /* \"#utility.yul\":6277:6280   */\n      dup3\n        /* \"#utility.yul\":6270:6289   */\n      mstore\n        /* \"#utility.yul\":6322:6326   */\n      0x20\n        /* \"#utility.yul\":6317:6320   */\n      dup3\n        /* \"#utility.yul\":6313:6327   */\n      add\n        /* \"#utility.yul\":6298:6327   */\n      swap1\n      pop\n        /* \"#utility.yul\":6164:6333   */\n      swap3\n      swap2\n      pop\n      pop\n      jump\t// out\n        /* \"#utility.yul\":6339:6508   */\n    tag_107:\n        /* \"#utility.yul\":6479:6500   */\n      0x496e646578206f7574206f6620626f756e647300000000000000000000000000\n        /* \"#utility.yul\":6475:6476   */\n      0x00\n        /* \"#utility.yul\":6467:6473   */\n      dup3\n        /* \"#utility.yul\":6463:6477   */\n      add\n        /* \"#utility.yul\":6456:6501   */\n      mstore\n        /* \"#utility.yul\":6339:6508   */\n      pop\n      jump\t// out\n        /* \"#utility.yul\":6514:6880   */\n    tag_108:\n        /* \"#utility.yul\":6656:6659   */\n      0x00\n        /* \"#utility.yul\":6677:6744   */\n      tag_182\n        /* \"#utility.yul\":6741:6743   */\n      0x13\n        /* \"#utility.yul\":6736:6739   */\n      dup4\n        /* \"#utility.yul\":6677:6744   */\n      tag_106\n      jump\t// in\n    tag_182:\n        /* \"#utility.yul\":6670:6744   */\n      swap2\n      pop\n        /* \"#utility.yul\":6753:6846   */\n      tag_183\n        /* \"#utility.yul\":6842:6845   */\n      dup3\n        /* \"#utility.yul\":6753:6846   */\n      tag_107\n      jump\t// in\n    tag_183:\n        /* \"#utility.yul\":6871:6873   */\n      0x20\n        /* \"#utility.yul\":6866:6869   */\n      dup3\n        /* \"#utility.yul\":6862:6874   */\n      add\n        /* \"#utility.yul\":6855:6874   */\n      swap1\n      pop\n        /* \"#utility.yul\":6514:6880   */\n      swap2\n      swap1\n      pop\n      jump\t// out\n        /* \"#utility.yul\":6886:7305   */\n    tag_73:\n        /* \"#utility.yul\":7052:7056   */\n      0x00\n        /* \"#utility.yul\":7090:7092   */\n      0x20\n        /* \"#utility.yul\":7079:7088   */\n      dup3\n        /* \"#utility.yul\":7075:7093   */\n      add\n        /* \"#utility.yul\":7067:7093   */\n      swap1\n      pop\n        /* \"#utility.yul\":7139:7148   */\n      dup2\n        /* \"#utility.yul\":7133:7137   */\n      dup2\n        /* \"#utility.yul\":7129:7149   */\n      sub\n        /* \"#utility.yul\":7125:7126   */\n      0x00\n        /* \"#utility.yul\":7114:7123   */\n      dup4\n        /* \"#utility.yul\":7110:7127   */\n      add\n        /* \"#utility.yul\":7103:7150   */\n      mstore\n        /* \"#utility.yul\":7167:7298   */\n      tag_185\n        /* \"#utility.yul\":7293:7297   */\n      dup2\n        /* \"#utility.yul\":7167:7298   */\n      tag_108\n      jump\t// in\n    tag_185:\n        /* \"#utility.yul\":7159:7298   */\n      swap1\n      pop\n        /* \"#utility.yul\":6886:7305   */\n      swap2\n      swap1\n      pop\n      jump\t// out\n\n    auxdata: 0xa26469706673582212201a88afa1f27d8af19fe7d2f37eaafe355ea07e2511a6d1acc03efa828f0acebb64736f6c634300081e0033\n}\n",
				"bytecode": {
					"linkReferences": {},
					"object": "6080604052348015600e575f5ffd5b5061079f8061001c5f395ff3fe608060405234801561000f575f5ffd5b506004361061007b575f3560e01c80632eb77491116100595780632eb77491146100e9578063303eaeed1461010557806353ed514314610135578063a69af49b146101535761007b565b80630194db8e1461007f5780631f7b6d32146100af5780632d26c661146100cd575b5f5ffd5b6100996004803603810190610094919061044b565b61016f565b6040516100a691906104ae565b60405180910390f35b6100b76101bb565b6040516100c491906104ae565b60405180910390f35b6100e760048036038101906100e291906104f1565b6101c6565b005b61010360048036038101906100fe919061044b565b610256565b005b61011f600480360381019061011a919061052f565b6102c2565b60405161012c91906104ae565b60405180910390f35b61013d61032c565b60405161014a9190610611565b60405180910390f35b61016d6004803603810190610168919061052f565b610381565b005b5f5f5f90505b838390508110156101b45783838281811061019357610192610631565b5b90506020020135826101a5919061068b565b91508080600101915050610175565b5092915050565b5f5f80549050905090565b5f805490508210610232575f5f805490506001846101e4919061068b565b6101ee91906106be565b90505f5f90505b8181101561022f575f5f908060018154018082558091505060019003905f5260205f20015f909190919091505580806001019150506101f5565b50505b805f838154811061024657610245610631565b5b905f5260205f2001819055505050565b5f5f61026291906103a9565b5f5f90505b828290508110156102bd575f83838381811061028657610285610631565b5b90506020020135908060018154018082558091505060019003905f5260205f20015f90919091909150558080600101915050610267565b505050565b5f5f805490508210610309576040517f08c379a00000000000000000000000000000000000000000000000000000000081526004016103009061074b565b60405180910390fd5b5f828154811061031c5761031b610631565b5b905f5260205f2001549050919050565b60605f80548060200260200160405190810160405280929190818152602001828054801561037757602002820191905f5260205f20905b815481526020019060010190808311610363575b5050505050905090565b5f81908060018154018082558091505060019003905f5260205f20015f909190919091505550565b5080545f8255905f5260205f20908101906103c491906103c7565b50565b5b808211156103de575f815f9055506001016103c8565b5090565b5f5ffd5b5f5ffd5b5f5ffd5b5f5ffd5b5f5ffd5b5f5f83601f84011261040b5761040a6103ea565b5b8235905067ffffffffffffffff811115610428576104276103ee565b5b602083019150836020820283011115610444576104436103f2565b5b9250929050565b5f5f60208385031215610461576104606103e2565b5b5f83013567ffffffffffffffff81111561047e5761047d6103e6565b5b61048a858286016103f6565b92509250509250929050565b5f819050919050565b6104a881610496565b82525050565b5f6020820190506104c15f83018461049f565b92915050565b6104d081610496565b81146104da575f5ffd5b50565b5f813590506104eb816104c7565b92915050565b5f5f60408385031215610507576105066103e2565b5b5f610514858286016104dd565b9250506020610525858286016104dd565b9150509250929050565b5f60208284031215610544576105436103e2565b5b5f610551848285016104dd565b91505092915050565b5f81519050919050565b5f82825260208201905092915050565b5f819050602082019050919050565b61058c81610496565b82525050565b5f61059d8383610583565b60208301905092915050565b5f602082019050919050565b5f6105bf8261055a565b6105c98185610564565b93506105d483610574565b805f5b838110156106045781516105eb8882610592565b97506105f6836105a9565b9250506001810190506105d7565b5085935050505092915050565b5f6020820190508181035f83015261062981846105b5565b905092915050565b7f4e487b71000000000000000000000000000000000000000000000000000000005f52603260045260245ffd5b7f4e487b71000000000000000000000000000000000000000000000000000000005f52601160045260245ffd5b5f61069582610496565b91506106a083610496565b92508282019050808211156106b8576106b761065e565b5b92915050565b5f6106c882610496565b91506106d383610496565b92508282039050818111156106eb576106ea61065e565b5b92915050565b5f82825260208201905092915050565b7f496e646578206f7574206f6620626f756e6473000000000000000000000000005f82015250565b5f6107356013836106f1565b915061074082610701565b602082019050919050565b5f6020820190508181035f83015261076281610729565b905091905056fea26469706673582212201a88afa1f27d8af19fe7d2f37eaafe355ea07e2511a6d1acc03efa828f0acebb64736f6c634300081e0033",
					"opcodes": "PUSH1 0x80 PUSH1 0x40 MSTORE CALLVALUE DUP1 ISZERO PUSH1 0xE JUMPI PUSH0 PUSH0 REVERT JUMPDEST POP PUSH2 0x79F DUP1 PUSH2 0x1C PUSH0 CODECOPY PUSH0 RETURN INVALID PUSH1 0x80 PUSH1 0x40 MSTORE CALLVALUE DUP1 ISZERO PUSH2 0xF JUMPI PUSH0 PUSH0 REVERT JUMPDEST POP PUSH1 0x4 CALLDATASIZE LT PUSH2 0x7B JUMPI PUSH0 CALLDATALOAD PUSH1 0xE0 SHR DUP1 PUSH4 0x2EB77491 GT PUSH2 0x59 JUMPI DUP1 PUSH4 0x2EB77491 EQ PUSH2 0xE9 JUMPI DUP1 PUSH4 0x303EAEED EQ PUSH2 0x105 JUMPI DUP1 PUSH4 0x53ED5143 EQ PUSH2 0x135 JUMPI DUP1 PUSH4 0xA69AF49B EQ PUSH2 0x153 JUMPI PUSH2 0x7B JUMP JUMPDEST DUP1 PUSH4 0x194DB8E EQ PUSH2 0x7F JUMPI DUP1 PUSH4 0x1F7B6D32 EQ PUSH2 0xAF JUMPI DUP1 PUSH4 0x2D26C661 EQ PUSH2 0xCD JUMPI JUMPDEST PUSH0 PUSH0 REVERT JUMPDEST PUSH2 0x99 PUSH1 0x4 DUP1 CALLDATASIZE SUB DUP2 ADD SWAP1 PUSH2 0x94 SWAP2 SWAP1 PUSH2 0x44B JUMP JUMPDEST PUSH2 0x16F JUMP JUMPDEST PUSH1 0x40 MLOAD PUSH2 0xA6 SWAP2 SWAP1 PUSH2 0x4AE JUMP JUMPDEST PUSH1 0x40 MLOAD DUP1 SWAP2 SUB SWAP1 RETURN JUMPDEST PUSH2 0xB7 PUSH2 0x1BB JUMP JUMPDEST PUSH1 0x40 MLOAD PUSH2 0xC4 SWAP2 SWAP1 PUSH2 0x4AE JUMP JUMPDEST PUSH1 0x40 MLOAD DUP1 SWAP2 SUB SWAP1 RETURN JUMPDEST PUSH2 0xE7 PUSH1 0x4 DUP1 CALLDATASIZE SUB DUP2 ADD SWAP1 PUSH2 0xE2 SWAP2 SWAP1 PUSH2 0x4F1 JUMP JUMPDEST PUSH2 0x1C6 JUMP JUMPDEST STOP JUMPDEST PUSH2 0x103 PUSH1 0x4 DUP1 CALLDATASIZE SUB DUP2 ADD SWAP1 PUSH2 0xFE SWAP2 SWAP1 PUSH2 0x44B JUMP JUMPDEST PUSH2 0x256 JUMP JUMPDEST STOP JUMPDEST PUSH2 0x11F PUSH1 0x4 DUP1 CALLDATASIZE SUB DUP2 ADD SWAP1 PUSH2 0x11A SWAP2 SWAP1 PUSH2 0x52F JUMP JUMPDEST PUSH2 0x2C2 JUMP JUMPDEST PUSH1 0x40 MLOAD PUSH2 0x12C SWAP2 SWAP1 PUSH2 0x4AE JUMP JUMPDEST PUSH1 0x40 MLOAD DUP1 SWAP2 SUB SWAP1 RETURN JUMPDEST PUSH2 0x13D PUSH2 0x32C JUMP JUMPDEST PUSH1 0x40 MLOAD PUSH2 0x14A SWAP2 SWAP1 PUSH2 0x611 JUMP JUMPDEST PUSH1 0x40 MLOAD DUP1 SWAP2 SUB SWAP1 RETURN JUMPDEST PUSH2 0x16D PUSH1 0x4 DUP1 CALLDATASIZE SUB DUP2 ADD SWAP1 PUSH2 0x168 SWAP2 SWAP1 PUSH2 0x52F JUMP JUMPDEST PUSH2 0x381 JUMP JUMPDEST STOP JUMPDEST PUSH0 PUSH0 PUSH0 SWAP1 POP JUMPDEST DUP4 DUP4 SWAP1 POP DUP2 LT ISZERO PUSH2 0x1B4 JUMPI DUP4 DUP4 DUP3 DUP2 DUP2 LT PUSH2 0x193 JUMPI PUSH2 0x192 PUSH2 0x631 JUMP JUMPDEST JUMPDEST SWAP1 POP PUSH1 0x20 MUL ADD CALLDATALOAD DUP3 PUSH2 0x1A5 SWAP2 SWAP1 PUSH2 0x68B JUMP JUMPDEST SWAP2 POP DUP1 DUP1 PUSH1 0x1 ADD SWAP2 POP POP PUSH2 0x175 JUMP JUMPDEST POP SWAP3 SWAP2 POP POP JUMP JUMPDEST PUSH0 PUSH0 DUP1 SLOAD SWAP1 POP SWAP1 POP SWAP1 JUMP JUMPDEST PUSH0 DUP1 SLOAD SWAP1 POP DUP3 LT PUSH2 0x232 JUMPI PUSH0 PUSH0 DUP1 SLOAD SWAP1 POP PUSH1 0x1 DUP5 PUSH2 0x1E4 SWAP2 SWAP1 PUSH2 0x68B JUMP JUMPDEST PUSH2 0x1EE SWAP2 SWAP1 PUSH2 0x6BE JUMP JUMPDEST SWAP1 POP PUSH0 PUSH0 SWAP1 POP JUMPDEST DUP2 DUP2 LT ISZERO PUSH2 0x22F JUMPI PUSH0 PUSH0 SWAP1 DUP1 PUSH1 0x1 DUP2 SLOAD ADD DUP1 DUP3 SSTORE DUP1 SWAP2 POP POP PUSH1 0x1 SWAP1 SUB SWAP1 PUSH0 MSTORE PUSH1 0x20 PUSH0 KECCAK256 ADD PUSH0 SWAP1 SWAP2 SWAP1 SWAP2 SWAP1 SWAP2 POP SSTORE DUP1 DUP1 PUSH1 0x1 ADD SWAP2 POP POP PUSH2 0x1F5 JUMP JUMPDEST POP POP JUMPDEST DUP1 PUSH0 DUP4 DUP2 SLOAD DUP2 LT PUSH2 0x246 JUMPI PUSH2 0x245 PUSH2 0x631 JUMP JUMPDEST JUMPDEST SWAP1 PUSH0 MSTORE PUSH1 0x20 PUSH0 KECCAK256 ADD DUP2 SWAP1 SSTORE POP POP POP JUMP JUMPDEST PUSH0 PUSH0 PUSH2 0x262 SWAP2 SWAP1 PUSH2 0x3A9 JUMP JUMPDEST PUSH0 PUSH0 SWAP1 POP JUMPDEST DUP3 DUP3 SWAP1 POP DUP2 LT ISZERO PUSH2 0x2BD JUMPI PUSH0 DUP4 DUP4 DUP4 DUP2 DUP2 LT PUSH2 0x286 JUMPI PUSH2 0x285 PUSH2 0x631 JUMP JUMPDEST JUMPDEST SWAP1 POP PUSH1 0x20 MUL ADD CALLDATALOAD SWAP1 DUP1 PUSH1 0x1 DUP2 SLOAD ADD DUP1 DUP3 SSTORE DUP1 SWAP2 POP POP PUSH1 0x1 SWAP1 SUB SWAP1 PUSH0 MSTORE PUSH1 0x20 PUSH0 KECCAK256 ADD PUSH0 SWAP1 SWAP2 SWAP1 SWAP2 SWAP1 SWAP2 POP SSTORE DUP1 DUP1 PUSH1 0x1 ADD SWAP2 POP POP PUSH2 0x267 JUMP JUMPDEST POP POP POP JUMP JUMPDEST PUSH0 PUSH0 DUP1 SLOAD SWAP1 POP DUP3 LT PUSH2 0x309 JUMPI PUSH1 0x40 MLOAD PUSH32 0x8C379A000000000000000000000000000000000000000000000000000000000 DUP2 MSTORE PUSH1 0x4 ADD PUSH2 0x300 SWAP1 PUSH2 0x74B JUMP JUMPDEST PUSH1 0x40 MLOAD DUP1 SWAP2 SUB SWAP1 REVERT JUMPDEST PUSH0 DUP3 DUP2 SLOAD DUP2 LT PUSH2 0x31C JUMPI PUSH2 0x31B PUSH2 0x631 JUMP JUMPDEST JUMPDEST SWAP1 PUSH0 MSTORE PUSH1 0x20 PUSH0 KECCAK256 ADD SLOAD SWAP1 POP SWAP2 SWAP1 POP JUMP JUMPDEST PUSH1 0x60 PUSH0 DUP1 SLOAD DUP1 PUSH1 0x20 MUL PUSH1 0x20 ADD PUSH1 0x40 MLOAD SWAP1 DUP2 ADD PUSH1 0x40 MSTORE DUP1 SWAP3 SWAP2 SWAP1 DUP2 DUP2 MSTORE PUSH1 0x20 ADD DUP3 DUP1 SLOAD DUP1 ISZERO PUSH2 0x377 JUMPI PUSH1 0x20 MUL DUP3 ADD SWAP2 SWAP1 PUSH0 MSTORE PUSH1 0x20 PUSH0 KECCAK256 SWAP1 JUMPDEST DUP2 SLOAD DUP2 MSTORE PUSH1 0x20 ADD SWAP1 PUSH1 0x1 ADD SWAP1 DUP1 DUP4 GT PUSH2 0x363 JUMPI JUMPDEST POP POP POP POP POP SWAP1 POP SWAP1 JUMP JUMPDEST PUSH0 DUP2 SWAP1 DUP1 PUSH1 0x1 DUP2 SLOAD ADD DUP1 DUP3 SSTORE DUP1 SWAP2 POP POP PUSH1 0x1 SWAP1 SUB SWAP1 PUSH0 MSTORE PUSH1 0x20 PUSH0 KECCAK256 ADD PUSH0 SWAP1 SWAP2 SWAP1 SWAP2 SWAP1 SWAP2 POP SSTORE POP JUMP JUMPDEST POP DUP1 SLOAD PUSH0 DUP3 SSTORE SWAP1 PUSH0 MSTORE PUSH1 0x20 PUSH0 KECCAK256 SWAP1 DUP2 ADD SWAP1 PUSH2 0x3C4 SWAP2 SWAP1 PUSH2 0x3C7 JUMP JUMPDEST POP JUMP JUMPDEST JUMPDEST DUP1 DUP3 GT ISZERO PUSH2 0x3DE JUMPI PUSH0 DUP2 PUSH0 SWAP1 SSTORE POP PUSH1 0x1 ADD PUSH2 0x3C8 JUMP JUMPDEST POP SWAP1 JUMP JUMPDEST PUSH0 PUSH0 REVERT JUMPDEST PUSH0 PUSH0 REVERT JUMPDEST PUSH0 PUSH0 REVERT JUMPDEST PUSH0 PUSH0 REVERT JUMPDEST PUSH0 PUSH0 REVERT JUMPDEST PUSH0 PUSH0 DUP4 PUSH1 0x1F DUP5 ADD SLT PUSH2 0x40B JUMPI PUSH2 0x40A PUSH2 0x3EA JUMP JUMPDEST JUMPDEST DUP3 CALLDATALOAD SWAP1 POP PUSH8 0xFFFFFFFFFFFFFFFF DUP2 GT ISZERO PUSH2 0x428 JUMPI PUSH2 0x427 PUSH2 0x3EE JUMP JUMPDEST JUMPDEST PUSH1 0x20 DUP4 ADD SWAP2 POP DUP4 PUSH1 0x20 DUP3 MUL DUP4 ADD GT ISZERO PUSH2 0x444 JUMPI PUSH2 0x443 PUSH2 0x3F2 JUMP JUMPDEST JUMPDEST SWAP3 POP SWAP3 SWAP1 POP JUMP JUMPDEST PUSH0 PUSH0 PUSH1 0x20 DUP4 DUP6 SUB SLT ISZERO PUSH2 0x461 JUMPI PUSH2 0x460 PUSH2 0x3E2 JUMP JUMPDEST JUMPDEST PUSH0 DUP4 ADD CALLDATALOAD PUSH8 0xFFFFFFFFFFFFFFFF DUP2 GT ISZERO PUSH2 0x47E JUMPI PUSH2 0x47D PUSH2 0x3E6 JUMP JUMPDEST JUMPDEST PUSH2 0x48A DUP6 DUP3 DUP7 ADD PUSH2 0x3F6 JUMP JUMPDEST SWAP3 POP SWAP3 POP POP SWAP3 POP SWAP3 SWAP1 POP JUMP JUMPDEST PUSH0 DUP2 SWAP1 POP SWAP2 SWAP1 POP JUMP JUMPDEST PUSH2 0x4A8 DUP2 PUSH2 0x496 JUMP JUMPDEST DUP3 MSTORE POP POP JUMP JUMPDEST PUSH0 PUSH1 0x20 DUP3 ADD SWAP1 POP PUSH2 0x4C1 PUSH0 DUP4 ADD DUP5 PUSH2 0x49F JUMP JUMPDEST SWAP3 SWAP2 POP POP JUMP JUMPDEST PUSH2 0x4D0 DUP2 PUSH2 0x496 JUMP JUMPDEST DUP2 EQ PUSH2 0x4DA JUMPI PUSH0 PUSH0 REVERT JUMPDEST POP JUMP JUMPDEST PUSH0 DUP2 CALLDATALOAD SWAP1 POP PUSH2 0x4EB DUP2 PUSH2 0x4C7 JUMP JUMPDEST SWAP3 SWAP2 POP POP JUMP JUMPDEST PUSH0 PUSH0 PUSH1 0x40 DUP4 DUP6 SUB SLT ISZERO PUSH2 0x507 JUMPI PUSH2 0x506 PUSH2 0x3E2 JUMP JUMPDEST JUMPDEST PUSH0 PUSH2 0x514 DUP6 DUP3 DUP7 ADD PUSH2 0x4DD JUMP JUMPDEST SWAP3 POP POP PUSH1 0x20 PUSH2 0x525 DUP6 DUP3 DUP7 ADD PUSH2 0x4DD JUMP JUMPDEST SWAP2 POP POP SWAP3 POP SWAP3 SWAP1 POP JUMP JUMPDEST PUSH0 PUSH1 0x20 DUP3 DUP5 SUB SLT ISZERO PUSH2 0x544 JUMPI PUSH2 0x543 PUSH2 0x3E2 JUMP JUMPDEST JUMPDEST PUSH0 PUSH2 0x551 DUP5 DUP3 DUP6 ADD PUSH2 0x4DD JUMP JUMPDEST SWAP2 POP POP SWAP3 SWAP2 POP POP JUMP JUMPDEST PUSH0 DUP2 MLOAD SWAP1 POP SWAP2 SWAP1 POP JUMP JUMPDEST PUSH0 DUP3 DUP3 MSTORE PUSH1 0x20 DUP3 ADD SWAP1 POP SWAP3 SWAP2 POP POP JUMP JUMPDEST PUSH0 DUP2 SWAP1 POP PUSH1 0x20 DUP3 ADD SWAP1 POP SWAP2 SWAP1 POP JUMP JUMPDEST PUSH2 0x58C DUP2 PUSH2 0x496 JUMP JUMPDEST DUP3 MSTORE POP POP JUMP JUMPDEST PUSH0 PUSH2 0x59D DUP4 DUP4 PUSH2 0x583 JUMP JUMPDEST PUSH1 0x20 DUP4 ADD SWAP1 POP SWAP3 SWAP2 POP POP JUMP JUMPDEST PUSH0 PUSH1 0x20 DUP3 ADD SWAP1 POP SWAP2 SWAP1 POP JUMP JUMPDEST PUSH0 PUSH2 0x5BF DUP3 PUSH2 0x55A JUMP JUMPDEST PUSH2 0x5C9 DUP2 DUP6 PUSH2 0x564 JUMP JUMPDEST SWAP4 POP PUSH2 0x5D4 DUP4 PUSH2 0x574 JUMP JUMPDEST DUP1 PUSH0 JUMPDEST DUP4 DUP2 LT ISZERO PUSH2 0x604 JUMPI DUP2 MLOAD PUSH2 0x5EB DUP9 DUP3 PUSH2 0x592 JUMP JUMPDEST SWAP8 POP PUSH2 0x5F6 DUP4 PUSH2 0x5A9 JUMP JUMPDEST SWAP3 POP POP PUSH1 0x1 DUP2 ADD SWAP1 POP PUSH2 0x5D7 JUMP JUMPDEST POP DUP6 SWAP4 POP POP POP POP SWAP3 SWAP2 POP POP JUMP JUMPDEST PUSH0 PUSH1 0x20 DUP3 ADD SWAP1 POP DUP2 DUP2 SUB PUSH0 DUP4 ADD MSTORE PUSH2 0x629 DUP2 DUP5 PUSH2 0x5B5 JUMP JUMPDEST SWAP1 POP SWAP3 SWAP2 POP POP JUMP JUMPDEST PUSH32 0x4E487B7100000000000000000000000000000000000000000000000000000000 PUSH0 MSTORE PUSH1 0x32 PUSH1 0x4 MSTORE PUSH1 0x24 PUSH0 REVERT JUMPDEST PUSH32 0x4E487B7100000000000000000000000000000000000000000000000000000000 PUSH0 MSTORE PUSH1 0x11 PUSH1 0x4 MSTORE PUSH1 0x24 PUSH0 REVERT JUMPDEST PUSH0 PUSH2 0x695 DUP3 PUSH2 0x496 JUMP JUMPDEST SWAP2 POP PUSH2 0x6A0 DUP4 PUSH2 0x496 JUMP JUMPDEST SWAP3 POP DUP3 DUP3 ADD SWAP1 POP DUP1 DUP3 GT ISZERO PUSH2 0x6B8 JUMPI PUSH2 0x6B7 PUSH2 0x65E JUMP JUMPDEST JUMPDEST SWAP3 SWAP2 POP POP JUMP JUMPDEST PUSH0 PUSH2 0x6C8 DUP3 PUSH2 0x496 JUMP JUMPDEST SWAP2 POP PUSH2 0x6D3 DUP4 PUSH2 0x496 JUMP JUMPDEST SWAP3 POP DUP3 DUP3 SUB SWAP1 POP DUP2 DUP2 GT ISZERO PUSH2 0x6EB JUMPI PUSH2 0x6EA PUSH2 0x65E JUMP JUMPDEST JUMPDEST SWAP3 SWAP2 POP POP JUMP JUMPDEST PUSH0 DUP3 DUP3 MSTORE PUSH1 0x20 DUP3 ADD SWAP1 POP SWAP3 SWAP2 POP POP JUMP JUMPDEST PUSH32 0x496E646578206F7574206F6620626F756E647300000000000000000000000000 PUSH0 DUP3 ADD MSTORE POP JUMP JUMPDEST PUSH0 PUSH2 0x735 PUSH1 0x13 DUP4 PUSH2 0x6F1 JUMP JUMPDEST SWAP2 POP PUSH2 0x740 DUP3 PUSH2 0x701 JUMP JUMPDEST PUSH1 0x20 DUP3 ADD SWAP1 POP SWAP2 SWAP1 POP JUMP JUMPDEST PUSH0 PUSH1 0x20 DUP3 ADD SWAP1 POP DUP2 DUP2 SUB PUSH0 DUP4 ADD MSTORE PUSH2 0x762 DUP2 PUSH2 0x729 JUMP JUMPDEST SWAP1 POP SWAP2 SWAP1 POP JUMP INVALID LOG2 PUSH5 0x6970667358 0x22 SLT KECCAK256 BYTE DUP9 0xAF LOG1 CALLCODE PUSH30 0x8AF19FE7D2F37EAAFE355EA07E2511A6D1ACC03EFA828F0ACEBB64736F6C PUSH4 0x4300081E STOP CALLER "
				},
				"gasEstimates": {
					"creation": {
						"codeDepositCost": "390200",
						"executionCost": "422",
						"totalCost": "390622"
					},
					"external": {
						"getAll()": "infinite",
						"getAt(uint256)": "infinite",
						"length()": "2462",
						"pushItem(uint256)": "46886",
						"replaceAll(uint256[])": "infinite",
						"setAt(uint256,uint256)": "infinite",
						"sum(uint256[])": "infinite"
					}
				},
				"methodIdentifiers": {
					"getAll()": "53ed5143",
					"getAt(uint256)": "303eaeed",
					"length()": "1f7b6d32",
					"pushItem(uint256)": "a69af49b",
					"replaceAll(uint256[])": "2eb77491",
					"setAt(uint256,uint256)": "2d26c661",
					"sum(uint256[])": "0194db8e"
				}
			},
			"storageLayout": {
				"storage": [
					{
						"astId": 4,
						"contract": ".deps/RefernceDataType.sol:ReferenceDataType",
						"label": "arr",
						"offset": 0,
						"slot": "0",
						"type": "t_array(t_uint256)dyn_storage"
					}
				],
				"types": {
					"t_array(t_uint256)dyn_storage": {
						"base": "t_uint256",
						"encoding": "dynamic_array",
						"label": "uint256[]",
						"numberOfBytes": "32"
					},
					"t_uint256": {
						"encoding": "inplace",
						"label": "uint256",
						"numberOfBytes": "32"
					}
				}
			},
			"userdoc": {
				"kind": "user",
				"methods": {},
				"version": 1
			}
		}
	}
}