{
	".deps/CrowdFunding.sol": {
		"CrowdFunding": {
			"abi": [
				{
					"inputs": [
						{
							"internalType": "uint256",
							"name": "_target",
							"type": "uint256"
						},
						{
							"internalType": "uint256",
							"name": "_deadline",
							"type": "uint256"
						}
					],
					"stateMutability": "nonpayable",
					"type": "constructor"
				},
				{
					"inputs": [
						{
							"internalType": "address",
							"name": "",
							"type": "address"
						}
					],
					"name": "contributers",
					"outputs": [
						{
							"internalType": "uint256",
							"name": "",
							"type": "uint256"
						}
					],
					"stateMutability": "view",
					"type": "function"
				},
				{
					"inputs": [],
					"name": "contribution",
					"outputs": [],
					"stateMutability": "payable",
					"type": "function"
				},
				{
					"inputs": [
						{
							"internalType": "string",
							"name": "_description",
							"type": "string"
						},
						{
							"internalType": "address payable",
							"name": "_recipient",
							"type": "address"
						},
						{
							"internalType": "uint256",
							"name": "_value",
							"type": "uint256"
						}
					],
					"name": "createReaquest",
					"outputs": [],
					"stateMutability": "nonpayable",
					"type": "function"
				},
				{
					"inputs": [],
					"name": "deadline",
					"outputs": [
						{
							"internalType": "uint256",
							"name": "",
							"type": "uint256"
						}
					],
					"stateMutability": "view",
					"type": "function"
				},
				{
					"inputs": [],
					"name": "getContractBalance",
					"outputs": [
						{
							"internalType": "uint256",
							"name": "",
							"type": "uint256"
						}
					],
					"stateMutability": "view",
					"type": "function"
				},
				{
					"inputs": [
						{
							"internalType": "uint256",
							"name": "_reqNo",
							"type": "uint256"
						}
					],
					"name": "makePayment",
					"outputs": [],
					"stateMutability": "nonpayable",
					"type": "function"
				},
				{
					"inputs": [],
					"name": "manager",
					"outputs": [
						{
							"internalType": "address",
							"name": "",
							"type": "address"
						}
					],
					"stateMutability": "view",
					"type": "function"
				},
				{
					"inputs": [],
					"name": "minimumContribution",
					"outputs": [
						{
							"internalType": "uint256",
							"name": "",
							"type": "uint256"
						}
					],
					"stateMutability": "view",
					"type": "function"
				},
				{
					"inputs": [],
					"name": "noOfContributors",
					"outputs": [
						{
							"internalType": "uint256",
							"name": "",
							"type": "uint256"
						}
					],
					"stateMutability": "view",
					"type": "function"
				},
				{
					"inputs": [],
					"name": "numOfReq",
					"outputs": [
						{
							"internalType": "uint256",
							"name": "",
							"type": "uint256"
						}
					],
					"stateMutability": "view",
					"type": "function"
				},
				{
					"inputs": [],
					"name": "raisedAmount",
					"outputs": [
						{
							"internalType": "uint256",
							"name": "",
							"type": "uint256"
						}
					],
					"stateMutability": "view",
					"type": "function"
				},
				{
					"inputs": [],
					"name": "refund",
					"outputs": [],
					"stateMutability": "nonpayable",
					"type": "function"
				},
				{
					"inputs": [
						{
							"internalType": "uint256",
							"name": "",
							"type": "uint256"
						}
					],
					"name": "requests",
					"outputs": [
						{
							"internalType": "string",
							"name": "desc",
							"type": "string"
						},
						{
							"internalType": "address payable",
							"name": "recipient",
							"type": "address"
						},
						{
							"internalType": "uint256",
							"name": "value",
							"type": "uint256"
						},
						{
							"internalType": "bool",
							"name": "completed",
							"type": "bool"
						},
						{
							"internalType": "uint256",
							"name": "noOfVoters",
							"type": "uint256"
						}
					],
					"stateMutability": "view",
					"type": "function"
				},
				{
					"inputs": [],
					"name": "target",
					"outputs": [
						{
							"internalType": "uint256",
							"name": "",
							"type": "uint256"
						}
					],
					"stateMutability": "view",
					"type": "function"
				},
				{
					"inputs": [
						{
							"internalType": "uint256",
							"name": "_req",
							"type": "uint256"
						}
					],
					"name": "voteReq",
					"outputs": [],
					"stateMutability": "nonpayable",
					"type": "function"
				}
			],
			"devdoc": {
				"kind": "dev",
				"methods": {},
				"version": 1
			},
			"evm": {
				"assembly": "    /* \".deps/CrowdFunding.sol\":67:2919  contract CrowdFunding{... */\n  mstore(0x40, 0x80)\n    /* \".deps/CrowdFunding.sol\":609:796  constructor(uint _target,uint _deadline){... */\n  callvalue\n  dup1\n  iszero\n  tag_1\n  jumpi\n  revert(0x00, 0x00)\ntag_1:\n  pop\n  mload(0x40)\n  sub(codesize, bytecodeSize)\n  dup1\n  bytecodeSize\n  dup4\n  codecopy\n  dup2\n  dup2\n  add\n  0x40\n  mstore\n  dup2\n  add\n  swap1\n  tag_2\n  swap2\n  swap1\n  tag_3\n  jump\t// in\ntag_2:\n    /* \".deps/CrowdFunding.sol\":667:674  _target */\n  dup2\n    /* \".deps/CrowdFunding.sol\":660:666  target */\n  0x04\n    /* \".deps/CrowdFunding.sol\":660:674  target=_target */\n  dup2\n  swap1\n  sstore\n  pop\n    /* \".deps/CrowdFunding.sol\":710:719  _deadline */\n  dup1\n    /* \".deps/CrowdFunding.sol\":694:709  block.timestamp */\n  timestamp\n    /* \".deps/CrowdFunding.sol\":694:719  block.timestamp+_deadline */\n  tag_6\n  swap2\n  swap1\n  tag_7\n  jump\t// in\ntag_6:\n    /* \".deps/CrowdFunding.sol\":685:693  deadline */\n  0x03\n    /* \".deps/CrowdFunding.sol\":685:719  deadline=block.timestamp+_deadline */\n  dup2\n  swap1\n  sstore\n  pop\n    /* \".deps/CrowdFunding.sol\":750:757  100 wei */\n  0x64\n    /* \".deps/CrowdFunding.sol\":730:749  minimumContribution */\n  0x02\n    /* \".deps/CrowdFunding.sol\":730:757  minimumContribution=100 wei */\n  dup2\n  swap1\n  sstore\n  pop\n    /* \".deps/CrowdFunding.sol\":776:786  msg.sender */\n  caller\n    /* \".deps/CrowdFunding.sol\":768:775  manager */\n  0x01\n  0x00\n    /* \".deps/CrowdFunding.sol\":768:786  manager=msg.sender */\n  0x0100\n  exp\n  dup2\n  sload\n  dup2\n  0xffffffffffffffffffffffffffffffffffffffff\n  mul\n  not\n  and\n  swap1\n  dup4\n  0xffffffffffffffffffffffffffffffffffffffff\n  and\n  mul\n  or\n  swap1\n  sstore\n  pop\n    /* \".deps/CrowdFunding.sol\":609:796  constructor(uint _target,uint _deadline){... */\n  pop\n  pop\n    /* \".deps/CrowdFunding.sol\":67:2919  contract CrowdFunding{... */\n  jump(tag_8)\n    /* \"#utility.yul\":88:205   */\ntag_10:\n    /* \"#utility.yul\":197:198   */\n  0x00\n    /* \"#utility.yul\":194:195   */\n  0x00\n    /* \"#utility.yul\":187:199   */\n  revert\n    /* \"#utility.yul\":334:411   */\ntag_12:\n    /* \"#utility.yul\":371:378   */\n  0x00\n    /* \"#utility.yul\":400:405   */\n  dup2\n    /* \"#utility.yul\":389:405   */\n  swap1\n  pop\n    /* \"#utility.yul\":334:411   */\n  swap2\n  swap1\n  pop\n  jump\t// out\n    /* \"#utility.yul\":417:539   */\ntag_13:\n    /* \"#utility.yul\":490:514   */\n  tag_22\n    /* \"#utility.yul\":508:513   */\n  dup2\n    /* \"#utility.yul\":490:514   */\n  tag_12\n  jump\t// in\ntag_22:\n    /* \"#utility.yul\":483:488   */\n  dup2\n    /* \"#utility.yul\":480:515   */\n  eq\n    /* \"#utility.yul\":470:533   */\n  tag_23\n  jumpi\n    /* \"#utility.yul\":529:530   */\n  0x00\n    /* \"#utility.yul\":526:527   */\n  0x00\n    /* \"#utility.yul\":519:531   */\n  revert\n    /* \"#utility.yul\":470:533   */\ntag_23:\n    /* \"#utility.yul\":417:539   */\n  pop\n  jump\t// out\n    /* \"#utility.yul\":545:688   */\ntag_14:\n    /* \"#utility.yul\":602:607   */\n  0x00\n    /* \"#utility.yul\":633:639   */\n  dup2\n    /* \"#utility.yul\":627:640   */\n  mload\n    /* \"#utility.yul\":618:640   */\n  swap1\n  pop\n    /* \"#utility.yul\":649:682   */\n  tag_25\n    /* \"#utility.yul\":676:681   */\n  dup2\n    /* \"#utility.yul\":649:682   */\n  tag_13\n  jump\t// in\ntag_25:\n    /* \"#utility.yul\":545:688   */\n  swap3\n  swap2\n  pop\n  pop\n  jump\t// out\n    /* \"#utility.yul\":694:1201   */\ntag_3:\n    /* \"#utility.yul\":773:779   */\n  0x00\n    /* \"#utility.yul\":781:787   */\n  0x00\n    /* \"#utility.yul\":830:832   */\n  0x40\n    /* \"#utility.yul\":818:827   */\n  dup4\n    /* \"#utility.yul\":809:816   */\n  dup6\n    /* \"#utility.yul\":805:828   */\n  sub\n    /* \"#utility.yul\":801:833   */\n  slt\n    /* \"#utility.yul\":798:917   */\n  iszero\n  tag_27\n  jumpi\n    /* \"#utility.yul\":836:915   */\n  tag_28\n  tag_10\n  jump\t// in\ntag_28:\n    /* \"#utility.yul\":798:917   */\ntag_27:\n    /* \"#utility.yul\":956:957   */\n  0x00\n    /* \"#utility.yul\":981:1045   */\n  tag_29\n    /* \"#utility.yul\":1037:1044   */\n  dup6\n    /* \"#utility.yul\":1028:1034   */\n  dup3\n    /* \"#utility.yul\":1017:1026   */\n  dup7\n    /* \"#utility.yul\":1013:1035   */\n  add\n    /* \"#utility.yul\":981:1045   */\n  tag_14\n  jump\t// in\ntag_29:\n    /* \"#utility.yul\":971:1045   */\n  swap3\n  pop\n    /* \"#utility.yul\":927:1055   */\n  pop\n    /* \"#utility.yul\":1094:1096   */\n  0x20\n    /* \"#utility.yul\":1120:1184   */\n  tag_30\n    /* \"#utility.yul\":1176:1183   */\n  dup6\n    /* \"#utility.yul\":1167:1173   */\n  dup3\n    /* \"#utility.yul\":1156:1165   */\n  dup7\n    /* \"#utility.yul\":1152:1174   */\n  add\n    /* \"#utility.yul\":1120:1184   */\n  tag_14\n  jump\t// in\ntag_30:\n    /* \"#utility.yul\":1110:1184   */\n  swap2\n  pop\n    /* \"#utility.yul\":1065:1194   */\n  pop\n    /* \"#utility.yul\":694:1201   */\n  swap3\n  pop\n  swap3\n  swap1\n  pop\n  jump\t// out\n    /* \"#utility.yul\":1207:1387   */\ntag_15:\n    /* \"#utility.yul\":1255:1332   */\n  0x4e487b7100000000000000000000000000000000000000000000000000000000\n    /* \"#utility.yul\":1252:1253   */\n  0x00\n    /* \"#utility.yul\":1245:1333   */\n  mstore\n    /* \"#utility.yul\":1352:1356   */\n  0x11\n    /* \"#utility.yul\":1349:1350   */\n  0x04\n    /* \"#utility.yul\":1342:1357   */\n  mstore\n    /* \"#utility.yul\":1376:1380   */\n  0x24\n    /* \"#utility.yul\":1373:1374   */\n  0x00\n    /* \"#utility.yul\":1366:1381   */\n  revert\n    /* \"#utility.yul\":1393:1584   */\ntag_7:\n    /* \"#utility.yul\":1433:1436   */\n  0x00\n    /* \"#utility.yul\":1452:1472   */\n  tag_33\n    /* \"#utility.yul\":1470:1471   */\n  dup3\n    /* \"#utility.yul\":1452:1472   */\n  tag_12\n  jump\t// in\ntag_33:\n    /* \"#utility.yul\":1447:1472   */\n  swap2\n  pop\n    /* \"#utility.yul\":1486:1506   */\n  tag_34\n    /* \"#utility.yul\":1504:1505   */\n  dup4\n    /* \"#utility.yul\":1486:1506   */\n  tag_12\n  jump\t// in\ntag_34:\n    /* \"#utility.yul\":1481:1506   */\n  swap3\n  pop\n    /* \"#utility.yul\":1529:1530   */\n  dup3\n    /* \"#utility.yul\":1526:1527   */\n  dup3\n    /* \"#utility.yul\":1522:1531   */\n  add\n    /* \"#utility.yul\":1515:1531   */\n  swap1\n  pop\n    /* \"#utility.yul\":1550:1553   */\n  dup1\n    /* \"#utility.yul\":1547:1548   */\n  dup3\n    /* \"#utility.yul\":1544:1554   */\n  gt\n    /* \"#utility.yul\":1541:1577   */\n  iszero\n  tag_35\n  jumpi\n    /* \"#utility.yul\":1557:1575   */\n  tag_36\n  tag_15\n  jump\t// in\ntag_36:\n    /* \"#utility.yul\":1541:1577   */\ntag_35:\n    /* \"#utility.yul\":1393:1584   */\n  swap3\n  swap2\n  pop\n  pop\n  jump\t// out\n    /* \".deps/CrowdFunding.sol\":67:2919  contract CrowdFunding{... */\ntag_8:\n  dataSize(sub_0)\n  dup1\n  dataOffset(sub_0)\n  0x00\n  codecopy\n  0x00\n  return\nstop\n\nsub_0: assembly {\n        /* \".deps/CrowdFunding.sol\":67:2919  contract CrowdFunding{... */\n      mstore(0x40, 0x80)\n      jumpi(tag_1, lt(calldatasize, 0x04))\n      shr(0xe0, calldataload(0x00))\n      dup1\n      0x6f9fb98a\n      gt\n      tag_17\n      jumpi\n      dup1\n      0x937e09b1\n      gt\n      tag_18\n      jumpi\n      dup1\n      0x937e09b1\n      eq\n      tag_13\n      jumpi\n      dup1\n      0xc59ee1dc\n      eq\n      tag_14\n      jumpi\n      dup1\n      0xcf6a55da\n      eq\n      tag_15\n      jumpi\n      dup1\n      0xd4b83992\n      eq\n      tag_16\n      jumpi\n      jump(tag_1)\n    tag_18:\n      dup1\n      0x6f9fb98a\n      eq\n      tag_9\n      jumpi\n      dup1\n      0x7fecc11a\n      eq\n      tag_10\n      jumpi\n      dup1\n      0x81d12c58\n      eq\n      tag_11\n      jumpi\n      dup1\n      0x9242db83\n      eq\n      tag_12\n      jumpi\n      jump(tag_1)\n    tag_17:\n      dup1\n      0x4e260f6f\n      gt\n      tag_19\n      jumpi\n      dup1\n      0x4e260f6f\n      eq\n      tag_5\n      jumpi\n      dup1\n      0x50520b1f\n      eq\n      tag_6\n      jumpi\n      dup1\n      0x5114cb52\n      eq\n      tag_7\n      jumpi\n      dup1\n      0x590e1ae3\n      eq\n      tag_8\n      jumpi\n      jump(tag_1)\n    tag_19:\n      dup1\n      0x29dcb0cf\n      eq\n      tag_2\n      jumpi\n      dup1\n      0x34b66460\n      eq\n      tag_3\n      jumpi\n      dup1\n      0x481c6a75\n      eq\n      tag_4\n      jumpi\n    tag_1:\n      revert(0x00, 0x00)\n        /* \".deps/CrowdFunding.sol\":211:231  uint public deadline */\n    tag_2:\n      callvalue\n      dup1\n      iszero\n      tag_20\n      jumpi\n      revert(0x00, 0x00)\n    tag_20:\n      pop\n      tag_21\n      tag_22\n      jump\t// in\n    tag_21:\n      mload(0x40)\n      tag_23\n      swap2\n      swap1\n      tag_24\n      jump\t// in\n    tag_23:\n      mload(0x40)\n      dup1\n      swap2\n      sub\n      swap1\n      return\n        /* \".deps/CrowdFunding.sol\":95:137  mapping(address=>uint) public contributers */\n    tag_3:\n      callvalue\n      dup1\n      iszero\n      tag_25\n      jumpi\n      revert(0x00, 0x00)\n    tag_25:\n      pop\n      tag_26\n      0x04\n      dup1\n      calldatasize\n      sub\n      dup2\n      add\n      swap1\n      tag_27\n      swap2\n      swap1\n      tag_28\n      jump\t// in\n    tag_27:\n      tag_29\n      jump\t// in\n    tag_26:\n      mload(0x40)\n      tag_30\n      swap2\n      swap1\n      tag_24\n      jump\t// in\n    tag_30:\n      mload(0x40)\n      dup1\n      swap2\n      sub\n      swap1\n      return\n        /* \".deps/CrowdFunding.sol\":144:166  address public manager */\n    tag_4:\n      callvalue\n      dup1\n      iszero\n      tag_31\n      jumpi\n      revert(0x00, 0x00)\n    tag_31:\n      pop\n      tag_32\n      tag_33\n      jump\t// in\n    tag_32:\n      mload(0x40)\n      tag_34\n      swap2\n      swap1\n      tag_35\n      jump\t// in\n    tag_34:\n      mload(0x40)\n      dup1\n      swap2\n      sub\n      swap1\n      return\n        /* \".deps/CrowdFunding.sol\":294:322  uint public noOfContributors */\n    tag_5:\n      callvalue\n      dup1\n      iszero\n      tag_36\n      jumpi\n      revert(0x00, 0x00)\n    tag_36:\n      pop\n      tag_37\n      tag_38\n      jump\t// in\n    tag_37:\n      mload(0x40)\n      tag_39\n      swap2\n      swap1\n      tag_24\n      jump\t// in\n    tag_39:\n      mload(0x40)\n      dup1\n      swap2\n      sub\n      swap1\n      return\n        /* \".deps/CrowdFunding.sol\":1338:1735  function contribution() public payable{... */\n    tag_6:\n      tag_40\n      tag_41\n      jump\t// in\n    tag_40:\n      stop\n        /* \".deps/CrowdFunding.sol\":2498:2910  function makePayment (uint _reqNo) public onlyManager{... */\n    tag_7:\n      callvalue\n      dup1\n      iszero\n      tag_42\n      jumpi\n      revert(0x00, 0x00)\n    tag_42:\n      pop\n      tag_43\n      0x04\n      dup1\n      calldatasize\n      sub\n      dup2\n      add\n      swap1\n      tag_44\n      swap2\n      swap1\n      tag_45\n      jump\t// in\n    tag_44:\n      tag_46\n      jump\t// in\n    tag_43:\n      stop\n        /* \".deps/CrowdFunding.sol\":1855:2159  function refund() public{... */\n    tag_8:\n      callvalue\n      dup1\n      iszero\n      tag_47\n      jumpi\n      revert(0x00, 0x00)\n    tag_47:\n      pop\n      tag_48\n      tag_49\n      jump\t// in\n    tag_48:\n      stop\n        /* \".deps/CrowdFunding.sol\":1743:1845  function getContractBalance() public view returns(uint){... */\n    tag_9:\n      callvalue\n      dup1\n      iszero\n      tag_50\n      jumpi\n      revert(0x00, 0x00)\n    tag_50:\n      pop\n      tag_51\n      tag_52\n      jump\t// in\n    tag_51:\n      mload(0x40)\n      tag_53\n      swap2\n      swap1\n      tag_24\n      jump\t// in\n    tag_53:\n      mload(0x40)\n      dup1\n      swap2\n      sub\n      swap1\n      return\n        /* \".deps/CrowdFunding.sol\":2167:2490  function voteReq(uint _req) public{... */\n    tag_10:\n      callvalue\n      dup1\n      iszero\n      tag_54\n      jumpi\n      revert(0x00, 0x00)\n    tag_54:\n      pop\n      tag_55\n      0x04\n      dup1\n      calldatasize\n      sub\n      dup2\n      add\n      swap1\n      tag_56\n      swap2\n      swap1\n      tag_45\n      jump\t// in\n    tag_56:\n      tag_57\n      jump\t// in\n    tag_55:\n      stop\n        /* \".deps/CrowdFunding.sol\":534:572  mapping(uint=>Request) public requests */\n    tag_11:\n      callvalue\n      dup1\n      iszero\n      tag_58\n      jumpi\n      revert(0x00, 0x00)\n    tag_58:\n      pop\n      tag_59\n      0x04\n      dup1\n      calldatasize\n      sub\n      dup2\n      add\n      swap1\n      tag_60\n      swap2\n      swap1\n      tag_45\n      jump\t// in\n    tag_60:\n      tag_61\n      jump\t// in\n    tag_59:\n      mload(0x40)\n      tag_62\n      swap6\n      swap5\n      swap4\n      swap3\n      swap2\n      swap1\n      tag_63\n      jump\t// in\n    tag_62:\n      mload(0x40)\n      dup1\n      swap2\n      sub\n      swap1\n      return\n        /* \".deps/CrowdFunding.sol\":579:600  uint  public numOfReq */\n    tag_12:\n      callvalue\n      dup1\n      iszero\n      tag_64\n      jumpi\n      revert(0x00, 0x00)\n    tag_64:\n      pop\n      tag_65\n      tag_66\n      jump\t// in\n    tag_65:\n      mload(0x40)\n      tag_67\n      swap2\n      swap1\n      tag_24\n      jump\t// in\n    tag_67:\n      mload(0x40)\n      dup1\n      swap2\n      sub\n      swap1\n      return\n        /* \".deps/CrowdFunding.sol\":173:204  uint public minimumContribution */\n    tag_13:\n      callvalue\n      dup1\n      iszero\n      tag_68\n      jumpi\n      revert(0x00, 0x00)\n    tag_68:\n      pop\n      tag_69\n      tag_70\n      jump\t// in\n    tag_69:\n      mload(0x40)\n      tag_71\n      swap2\n      swap1\n      tag_24\n      jump\t// in\n    tag_71:\n      mload(0x40)\n      dup1\n      swap2\n      sub\n      swap1\n      return\n        /* \".deps/CrowdFunding.sol\":263:287  uint public raisedAmount */\n    tag_14:\n      callvalue\n      dup1\n      iszero\n      tag_72\n      jumpi\n      revert(0x00, 0x00)\n    tag_72:\n      pop\n      tag_73\n      tag_74\n      jump\t// in\n    tag_73:\n      mload(0x40)\n      tag_75\n      swap2\n      swap1\n      tag_24\n      jump\t// in\n    tag_75:\n      mload(0x40)\n      dup1\n      swap2\n      sub\n      swap1\n      return\n        /* \".deps/CrowdFunding.sol\":927:1330  function createReaquest(... */\n    tag_15:\n      callvalue\n      dup1\n      iszero\n      tag_76\n      jumpi\n      revert(0x00, 0x00)\n    tag_76:\n      pop\n      tag_77\n      0x04\n      dup1\n      calldatasize\n      sub\n      dup2\n      add\n      swap1\n      tag_78\n      swap2\n      swap1\n      tag_79\n      jump\t// in\n    tag_78:\n      tag_80\n      jump\t// in\n    tag_77:\n      stop\n        /* \".deps/CrowdFunding.sol\":238:256  uint public target */\n    tag_16:\n      callvalue\n      dup1\n      iszero\n      tag_81\n      jumpi\n      revert(0x00, 0x00)\n    tag_81:\n      pop\n      tag_82\n      tag_83\n      jump\t// in\n    tag_82:\n      mload(0x40)\n      tag_84\n      swap2\n      swap1\n      tag_24\n      jump\t// in\n    tag_84:\n      mload(0x40)\n      dup1\n      swap2\n      sub\n      swap1\n      return\n        /* \".deps/CrowdFunding.sol\":211:231  uint public deadline */\n    tag_22:\n      sload(0x03)\n      dup2\n      jump\t// out\n        /* \".deps/CrowdFunding.sol\":95:137  mapping(address=>uint) public contributers */\n    tag_29:\n      mstore(0x20, 0x00)\n      dup1\n      0x00\n      mstore\n      keccak256(0x00, 0x40)\n      0x00\n      swap2\n      pop\n      swap1\n      pop\n      sload\n      dup2\n      jump\t// out\n        /* \".deps/CrowdFunding.sol\":144:166  address public manager */\n    tag_33:\n      0x01\n      0x00\n      swap1\n      sload\n      swap1\n      0x0100\n      exp\n      swap1\n      div\n      0xffffffffffffffffffffffffffffffffffffffff\n      and\n      dup2\n      jump\t// out\n        /* \".deps/CrowdFunding.sol\":294:322  uint public noOfContributors */\n    tag_38:\n      sload(0x06)\n      dup2\n      jump\t// out\n        /* \".deps/CrowdFunding.sol\":1338:1735  function contribution() public payable{... */\n    tag_41:\n        /* \".deps/CrowdFunding.sol\":1411:1419  deadline */\n      sload(0x03)\n        /* \".deps/CrowdFunding.sol\":1395:1410  block.timestamp */\n      timestamp\n        /* \".deps/CrowdFunding.sol\":1395:1419  block.timestamp<deadline */\n      lt\n        /* \".deps/CrowdFunding.sol\":1387:1447  require(block.timestamp<deadline,\"sorry You are late buddy\") */\n      tag_86\n      jumpi\n      mload(0x40)\n      0x08c379a000000000000000000000000000000000000000000000000000000000\n      dup2\n      mstore\n      0x04\n      add\n      tag_87\n      swap1\n      tag_88\n      jump\t// in\n    tag_87:\n      mload(0x40)\n      dup1\n      swap2\n      sub\n      swap1\n      revert\n    tag_86:\n        /* \".deps/CrowdFunding.sol\":1477:1496  minimumContribution */\n      sload(0x02)\n        /* \".deps/CrowdFunding.sol\":1466:1475  msg.value */\n      callvalue\n        /* \".deps/CrowdFunding.sol\":1466:1496  msg.value>=minimumContribution */\n      lt\n      iszero\n        /* \".deps/CrowdFunding.sol\":1458:1547  require(msg.value>=minimumContribution,\"bhai kuch aur badfa de bhikh thode de raha hai \") */\n      tag_89\n      jumpi\n      mload(0x40)\n      0x08c379a000000000000000000000000000000000000000000000000000000000\n      dup2\n      mstore\n      0x04\n      add\n      tag_90\n      swap1\n      tag_91\n      jump\t// in\n    tag_90:\n      mload(0x40)\n      dup1\n      swap2\n      sub\n      swap1\n      revert\n    tag_89:\n        /* \".deps/CrowdFunding.sol\":1597:1598  0 */\n      0x00\n        /* \".deps/CrowdFunding.sol\":1571:1583  contributers */\n      0x00\n        /* \".deps/CrowdFunding.sol\":1571:1595  contributers[msg.sender] */\n      0x00\n        /* \".deps/CrowdFunding.sol\":1584:1594  msg.sender */\n      caller\n        /* \".deps/CrowdFunding.sol\":1571:1595  contributers[msg.sender] */\n      0xffffffffffffffffffffffffffffffffffffffff\n      and\n      0xffffffffffffffffffffffffffffffffffffffff\n      and\n      dup2\n      mstore\n      0x20\n      add\n      swap1\n      dup2\n      mstore\n      0x20\n      add\n      0x00\n      keccak256\n      sload\n        /* \".deps/CrowdFunding.sol\":1571:1598  contributers[msg.sender]==0 */\n      sub\n        /* \".deps/CrowdFunding.sol\":1568:1644  if(contributers[msg.sender]==0){... */\n      tag_92\n      jumpi\n        /* \".deps/CrowdFunding.sol\":1614:1630  noOfContributors */\n      0x06\n      0x00\n        /* \".deps/CrowdFunding.sol\":1614:1632  noOfContributors++ */\n      dup2\n      sload\n      dup1\n      swap3\n      swap2\n      swap1\n      tag_93\n      swap1\n      tag_94\n      jump\t// in\n    tag_93:\n      swap2\n      swap1\n      pop\n      sstore\n      pop\n        /* \".deps/CrowdFunding.sol\":1568:1644  if(contributers[msg.sender]==0){... */\n    tag_92:\n        /* \".deps/CrowdFunding.sol\":1680:1689  msg.value */\n      callvalue\n        /* \".deps/CrowdFunding.sol\":1654:1666  contributers */\n      0x00\n        /* \".deps/CrowdFunding.sol\":1654:1678  contributers[msg.sender] */\n      0x00\n        /* \".deps/CrowdFunding.sol\":1667:1677  msg.sender */\n      caller\n        /* \".deps/CrowdFunding.sol\":1654:1678  contributers[msg.sender] */\n      0xffffffffffffffffffffffffffffffffffffffff\n      and\n      0xffffffffffffffffffffffffffffffffffffffff\n      and\n      dup2\n      mstore\n      0x20\n      add\n      swap1\n      dup2\n      mstore\n      0x20\n      add\n      0x00\n      keccak256\n      0x00\n        /* \".deps/CrowdFunding.sol\":1654:1689  contributers[msg.sender]+=msg.value */\n      dup3\n      dup3\n      sload\n      tag_95\n      swap2\n      swap1\n      tag_96\n      jump\t// in\n    tag_95:\n      swap3\n      pop\n      pop\n      dup2\n      swap1\n      sstore\n      pop\n        /* \".deps/CrowdFunding.sol\":1714:1723  msg.value */\n      callvalue\n        /* \".deps/CrowdFunding.sol\":1700:1712  raisedAmount */\n      0x05\n      0x00\n        /* \".deps/CrowdFunding.sol\":1700:1723  raisedAmount+=msg.value */\n      dup3\n      dup3\n      sload\n      tag_97\n      swap2\n      swap1\n      tag_96\n      jump\t// in\n    tag_97:\n      swap3\n      pop\n      pop\n      dup2\n      swap1\n      sstore\n      pop\n        /* \".deps/CrowdFunding.sol\":1338:1735  function contribution() public payable{... */\n      jump\t// out\n        /* \".deps/CrowdFunding.sol\":2498:2910  function makePayment (uint _reqNo) public onlyManager{... */\n    tag_46:\n        /* \".deps/CrowdFunding.sol\":855:862  manager */\n      0x01\n      0x00\n      swap1\n      sload\n      swap1\n      0x0100\n      exp\n      swap1\n      div\n      0xffffffffffffffffffffffffffffffffffffffff\n      and\n        /* \".deps/CrowdFunding.sol\":843:862  msg.sender==manager */\n      0xffffffffffffffffffffffffffffffffffffffff\n      and\n        /* \".deps/CrowdFunding.sol\":843:853  msg.sender */\n      caller\n        /* \".deps/CrowdFunding.sol\":843:862  msg.sender==manager */\n      0xffffffffffffffffffffffffffffffffffffffff\n      and\n      eq\n        /* \".deps/CrowdFunding.sol\":835:899  require(msg.sender==manager,\"only manager can create a Request\") */\n      tag_99\n      jumpi\n      mload(0x40)\n      0x08c379a000000000000000000000000000000000000000000000000000000000\n      dup2\n      mstore\n      0x04\n      add\n      tag_100\n      swap1\n      tag_101\n      jump\t// in\n    tag_100:\n      mload(0x40)\n      dup1\n      swap2\n      sub\n      swap1\n      revert\n    tag_99:\n        /* \".deps/CrowdFunding.sol\":2584:2590  target */\n      sload(0x04)\n        /* \".deps/CrowdFunding.sol\":2570:2582  raisedAmount */\n      sload(0x05)\n        /* \".deps/CrowdFunding.sol\":2570:2590  raisedAmount>=target */\n      lt\n      iszero\n        /* \".deps/CrowdFunding.sol\":2562:2616  require(raisedAmount>=target,\"Target  is not reached\") */\n      tag_103\n      jumpi\n      mload(0x40)\n      0x08c379a000000000000000000000000000000000000000000000000000000000\n      dup2\n      mstore\n      0x04\n      add\n      tag_104\n      swap1\n      tag_105\n      jump\t// in\n    tag_104:\n      mload(0x40)\n      dup1\n      swap2\n      sub\n      swap1\n      revert\n    tag_103:\n        /* \".deps/CrowdFunding.sol\":2627:2650  Request storage thisReq */\n      0x00\n        /* \".deps/CrowdFunding.sol\":2653:2661  requests */\n      0x07\n        /* \".deps/CrowdFunding.sol\":2653:2669  requests[_reqNo] */\n      0x00\n        /* \".deps/CrowdFunding.sol\":2662:2668  _reqNo */\n      dup4\n        /* \".deps/CrowdFunding.sol\":2653:2669  requests[_reqNo] */\n      dup2\n      mstore\n      0x20\n      add\n      swap1\n      dup2\n      mstore\n      0x20\n      add\n      0x00\n      keccak256\n        /* \".deps/CrowdFunding.sol\":2627:2669  Request storage thisReq = requests[_reqNo] */\n      swap1\n      pop\n        /* \".deps/CrowdFunding.sol\":2707:2712  false */\n      0x00\n        /* \".deps/CrowdFunding.sol\":2688:2712  thisReq.completed==false */\n      iszero\n      iszero\n        /* \".deps/CrowdFunding.sol\":2688:2695  thisReq */\n      dup2\n        /* \".deps/CrowdFunding.sol\":2688:2705  thisReq.completed */\n      0x03\n      add\n      0x00\n      swap1\n      sload\n      swap1\n      0x0100\n      exp\n      swap1\n      div\n      0xff\n      and\n        /* \".deps/CrowdFunding.sol\":2688:2712  thisReq.completed==false */\n      iszero\n      iszero\n      eq\n        /* \".deps/CrowdFunding.sol\":2680:2738  require(thisReq.completed==false,\"money is already given\") */\n      tag_106\n      jumpi\n      mload(0x40)\n      0x08c379a000000000000000000000000000000000000000000000000000000000\n      dup2\n      mstore\n      0x04\n      add\n      tag_107\n      swap1\n      tag_108\n      jump\t// in\n    tag_107:\n      mload(0x40)\n      dup1\n      swap2\n      sub\n      swap1\n      revert\n    tag_106:\n        /* \".deps/CrowdFunding.sol\":2793:2794  2 */\n      0x02\n        /* \".deps/CrowdFunding.sol\":2776:2792  noOfContributors */\n      sload(0x06)\n        /* \".deps/CrowdFunding.sol\":2776:2794  noOfContributors/2 */\n      tag_109\n      swap2\n      swap1\n      tag_110\n      jump\t// in\n    tag_109:\n        /* \".deps/CrowdFunding.sol\":2757:2764  thisReq */\n      dup2\n        /* \".deps/CrowdFunding.sol\":2757:2775  thisReq.noOfVoters */\n      0x04\n      add\n      sload\n        /* \".deps/CrowdFunding.sol\":2757:2794  thisReq.noOfVoters>noOfContributors/2 */\n      gt\n        /* \".deps/CrowdFunding.sol\":2749:2817  require(thisReq.noOfVoters>noOfContributors/2,\"you need more votes\") */\n      tag_111\n      jumpi\n      mload(0x40)\n      0x08c379a000000000000000000000000000000000000000000000000000000000\n      dup2\n      mstore\n      0x04\n      add\n      tag_112\n      swap1\n      tag_113\n      jump\t// in\n    tag_112:\n      mload(0x40)\n      dup1\n      swap2\n      sub\n      swap1\n      revert\n    tag_111:\n        /* \".deps/CrowdFunding.sol\":2828:2835  thisReq */\n      dup1\n        /* \".deps/CrowdFunding.sol\":2828:2845  thisReq.recipient */\n      0x01\n      add\n      0x00\n      swap1\n      sload\n      swap1\n      0x0100\n      exp\n      swap1\n      div\n      0xffffffffffffffffffffffffffffffffffffffff\n      and\n        /* \".deps/CrowdFunding.sol\":2828:2854  thisReq.recipient.transfer */\n      0xffffffffffffffffffffffffffffffffffffffff\n      and\n        /* \".deps/CrowdFunding.sol\":2828:2869  thisReq.recipient.transfer(thisReq.value) */\n      0x08fc\n        /* \".deps/CrowdFunding.sol\":2855:2862  thisReq */\n      dup3\n        /* \".deps/CrowdFunding.sol\":2855:2868  thisReq.value */\n      0x02\n      add\n      sload\n        /* \".deps/CrowdFunding.sol\":2828:2869  thisReq.recipient.transfer(thisReq.value) */\n      swap1\n      dup2\n      iszero\n      mul\n      swap1\n      mload(0x40)\n      0x00\n      mload(0x40)\n      dup1\n      dup4\n      sub\n      dup2\n      dup6\n      dup9\n      dup9\n      call\n      swap4\n      pop\n      pop\n      pop\n      pop\n      iszero\n      dup1\n      iszero\n      tag_115\n      jumpi\n      returndatacopy(0x00, 0x00, returndatasize)\n      revert(0x00, returndatasize)\n    tag_115:\n      pop\n        /* \".deps/CrowdFunding.sol\":2898:2902  true */\n      0x01\n        /* \".deps/CrowdFunding.sol\":2880:2887  thisReq */\n      dup2\n        /* \".deps/CrowdFunding.sol\":2880:2897  thisReq.completed */\n      0x03\n      add\n      0x00\n        /* \".deps/CrowdFunding.sol\":2880:2902  thisReq.completed=true */\n      0x0100\n      exp\n      dup2\n      sload\n      dup2\n      0xff\n      mul\n      not\n      and\n      swap1\n      dup4\n      iszero\n      iszero\n      mul\n      or\n      swap1\n      sstore\n      pop\n        /* \".deps/CrowdFunding.sol\":2551:2910  {... */\n      pop\n        /* \".deps/CrowdFunding.sol\":2498:2910  function makePayment (uint _reqNo) public onlyManager{... */\n      pop\n      jump\t// out\n        /* \".deps/CrowdFunding.sol\":1855:2159  function refund() public{... */\n    tag_49:\n        /* \".deps/CrowdFunding.sol\":1914:1922  deadline */\n      sload(0x03)\n        /* \".deps/CrowdFunding.sol\":1898:1913  block.timestamp */\n      timestamp\n        /* \".deps/CrowdFunding.sol\":1898:1922  block.timestamp>deadline */\n      gt\n        /* \".deps/CrowdFunding.sol\":1898:1945  block.timestamp>deadline && raisedAmount<target */\n      dup1\n      iszero\n      tag_117\n      jumpi\n      pop\n        /* \".deps/CrowdFunding.sol\":1939:1945  target */\n      sload(0x04)\n        /* \".deps/CrowdFunding.sol\":1926:1938  raisedAmount */\n      sload(0x05)\n        /* \".deps/CrowdFunding.sol\":1926:1945  raisedAmount<target */\n      lt\n        /* \".deps/CrowdFunding.sol\":1898:1945  block.timestamp>deadline && raisedAmount<target */\n    tag_117:\n        /* \".deps/CrowdFunding.sol\":1890:1979  require(block.timestamp>deadline && raisedAmount<target,\"you are not eligble for refund\") */\n      tag_118\n      jumpi\n      mload(0x40)\n      0x08c379a000000000000000000000000000000000000000000000000000000000\n      dup2\n      mstore\n      0x04\n      add\n      tag_119\n      swap1\n      tag_120\n      jump\t// in\n    tag_119:\n      mload(0x40)\n      dup1\n      swap2\n      sub\n      swap1\n      revert\n    tag_118:\n        /* \".deps/CrowdFunding.sol\":2023:2024  0 */\n      0x00\n        /* \".deps/CrowdFunding.sol\":1998:2010  contributers */\n      0x00\n        /* \".deps/CrowdFunding.sol\":1998:2022  contributers[msg.sender] */\n      0x00\n        /* \".deps/CrowdFunding.sol\":2011:2021  msg.sender */\n      caller\n        /* \".deps/CrowdFunding.sol\":1998:2022  contributers[msg.sender] */\n      0xffffffffffffffffffffffffffffffffffffffff\n      and\n      0xffffffffffffffffffffffffffffffffffffffff\n      and\n      dup2\n      mstore\n      0x20\n      add\n      swap1\n      dup2\n      mstore\n      0x20\n      add\n      0x00\n      keccak256\n      sload\n        /* \".deps/CrowdFunding.sol\":1998:2024  contributers[msg.sender]>0 */\n      gt\n        /* \".deps/CrowdFunding.sol\":1990:2048  require(contributers[msg.sender]>0,\"you are not elligble\") */\n      tag_121\n      jumpi\n      mload(0x40)\n      0x08c379a000000000000000000000000000000000000000000000000000000000\n      dup2\n      mstore\n      0x04\n      add\n      tag_122\n      swap1\n      tag_123\n      jump\t// in\n    tag_122:\n      mload(0x40)\n      dup1\n      swap2\n      sub\n      swap1\n      revert\n    tag_121:\n        /* \".deps/CrowdFunding.sol\":2067:2077  msg.sender */\n      caller\n        /* \".deps/CrowdFunding.sol\":2059:2087  payable(msg.sender).transfer */\n      0xffffffffffffffffffffffffffffffffffffffff\n      and\n        /* \".deps/CrowdFunding.sol\":2059:2113  payable(msg.sender).transfer(contributers[msg.sender]) */\n      0x08fc\n        /* \".deps/CrowdFunding.sol\":2088:2100  contributers */\n      0x00\n        /* \".deps/CrowdFunding.sol\":2088:2112  contributers[msg.sender] */\n      0x00\n        /* \".deps/CrowdFunding.sol\":2101:2111  msg.sender */\n      caller\n        /* \".deps/CrowdFunding.sol\":2088:2112  contributers[msg.sender] */\n      0xffffffffffffffffffffffffffffffffffffffff\n      and\n      0xffffffffffffffffffffffffffffffffffffffff\n      and\n      dup2\n      mstore\n      0x20\n      add\n      swap1\n      dup2\n      mstore\n      0x20\n      add\n      0x00\n      keccak256\n      sload\n        /* \".deps/CrowdFunding.sol\":2059:2113  payable(msg.sender).transfer(contributers[msg.sender]) */\n      swap1\n      dup2\n      iszero\n      mul\n      swap1\n      mload(0x40)\n      0x00\n      mload(0x40)\n      dup1\n      dup4\n      sub\n      dup2\n      dup6\n      dup9\n      dup9\n      call\n      swap4\n      pop\n      pop\n      pop\n      pop\n      iszero\n      dup1\n      iszero\n      tag_125\n      jumpi\n      returndatacopy(0x00, 0x00, returndatasize)\n      revert(0x00, returndatasize)\n    tag_125:\n      pop\n        /* \".deps/CrowdFunding.sol\":2150:2151  0 */\n      0x00\n        /* \".deps/CrowdFunding.sol\":2124:2136  contributers */\n      0x00\n        /* \".deps/CrowdFunding.sol\":2124:2148  contributers[msg.sender] */\n      0x00\n        /* \".deps/CrowdFunding.sol\":2137:2147  msg.sender */\n      caller\n        /* \".deps/CrowdFunding.sol\":2124:2148  contributers[msg.sender] */\n      0xffffffffffffffffffffffffffffffffffffffff\n      and\n      0xffffffffffffffffffffffffffffffffffffffff\n      and\n      dup2\n      mstore\n      0x20\n      add\n      swap1\n      dup2\n      mstore\n      0x20\n      add\n      0x00\n      keccak256\n      pop\n        /* \".deps/CrowdFunding.sol\":2124:2151  contributers[msg.sender]==0 */\n      pop\n        /* \".deps/CrowdFunding.sol\":1855:2159  function refund() public{... */\n      jump\t// out\n        /* \".deps/CrowdFunding.sol\":1743:1845  function getContractBalance() public view returns(uint){... */\n    tag_52:\n        /* \".deps/CrowdFunding.sol\":1793:1797  uint */\n      0x00\n        /* \".deps/CrowdFunding.sol\":1816:1837  address(this).balance */\n      selfbalance\n        /* \".deps/CrowdFunding.sol\":1809:1837  return address(this).balance */\n      swap1\n      pop\n        /* \".deps/CrowdFunding.sol\":1743:1845  function getContractBalance() public view returns(uint){... */\n      swap1\n      jump\t// out\n        /* \".deps/CrowdFunding.sol\":2167:2490  function voteReq(uint _req) public{... */\n    tag_57:\n        /* \".deps/CrowdFunding.sol\":2245:2246  0 */\n      0x00\n        /* \".deps/CrowdFunding.sol\":2220:2232  contributers */\n      0x00\n        /* \".deps/CrowdFunding.sol\":2220:2244  contributers[msg.sender] */\n      0x00\n        /* \".deps/CrowdFunding.sol\":2233:2243  msg.sender */\n      caller\n        /* \".deps/CrowdFunding.sol\":2220:2244  contributers[msg.sender] */\n      0xffffffffffffffffffffffffffffffffffffffff\n      and\n      0xffffffffffffffffffffffffffffffffffffffff\n      and\n      dup2\n      mstore\n      0x20\n      add\n      swap1\n      dup2\n      mstore\n      0x20\n      add\n      0x00\n      keccak256\n      sload\n        /* \".deps/CrowdFunding.sol\":2220:2246  contributers[msg.sender]>0 */\n      gt\n        /* \".deps/CrowdFunding.sol\":2212:2278  require(contributers[msg.sender]>0,\"you are not elligble to vote\") */\n      tag_128\n      jumpi\n      mload(0x40)\n      0x08c379a000000000000000000000000000000000000000000000000000000000\n      dup2\n      mstore\n      0x04\n      add\n      tag_129\n      swap1\n      tag_130\n      jump\t// in\n    tag_129:\n      mload(0x40)\n      dup1\n      swap2\n      sub\n      swap1\n      revert\n    tag_128:\n        /* \".deps/CrowdFunding.sol\":2289:2312  Request storage thisReq */\n      0x00\n        /* \".deps/CrowdFunding.sol\":2315:2323  requests */\n      0x07\n        /* \".deps/CrowdFunding.sol\":2315:2329  requests[_req] */\n      0x00\n        /* \".deps/CrowdFunding.sol\":2324:2328  _req */\n      dup4\n        /* \".deps/CrowdFunding.sol\":2315:2329  requests[_req] */\n      dup2\n      mstore\n      0x20\n      add\n      swap1\n      dup2\n      mstore\n      0x20\n      add\n      0x00\n      keccak256\n        /* \".deps/CrowdFunding.sol\":2289:2329  Request storage thisReq = requests[_req] */\n      swap1\n      pop\n        /* \".deps/CrowdFunding.sol\":2376:2381  false */\n      0x00\n        /* \".deps/CrowdFunding.sol\":2348:2381  thisReq.voters[msg.sender]==false */\n      iszero\n      iszero\n        /* \".deps/CrowdFunding.sol\":2348:2355  thisReq */\n      dup2\n        /* \".deps/CrowdFunding.sol\":2348:2362  thisReq.voters */\n      0x05\n      add\n        /* \".deps/CrowdFunding.sol\":2348:2374  thisReq.voters[msg.sender] */\n      0x00\n        /* \".deps/CrowdFunding.sol\":2363:2373  msg.sender */\n      caller\n        /* \".deps/CrowdFunding.sol\":2348:2374  thisReq.voters[msg.sender] */\n      0xffffffffffffffffffffffffffffffffffffffff\n      and\n      0xffffffffffffffffffffffffffffffffffffffff\n      and\n      dup2\n      mstore\n      0x20\n      add\n      swap1\n      dup2\n      mstore\n      0x20\n      add\n      0x00\n      keccak256\n      0x00\n      swap1\n      sload\n      swap1\n      0x0100\n      exp\n      swap1\n      div\n      0xff\n      and\n        /* \".deps/CrowdFunding.sol\":2348:2381  thisReq.voters[msg.sender]==false */\n      iszero\n      iszero\n      eq\n        /* \".deps/CrowdFunding.sol\":2340:2407  require(thisReq.voters[msg.sender]==false,\"You have already voted\") */\n      tag_131\n      jumpi\n      mload(0x40)\n      0x08c379a000000000000000000000000000000000000000000000000000000000\n      dup2\n      mstore\n      0x04\n      add\n      tag_132\n      swap1\n      tag_133\n      jump\t// in\n    tag_132:\n      mload(0x40)\n      dup1\n      swap2\n      sub\n      swap1\n      revert\n    tag_131:\n        /* \".deps/CrowdFunding.sol\":2445:2449  true */\n      0x01\n        /* \".deps/CrowdFunding.sol\":2418:2425  thisReq */\n      dup2\n        /* \".deps/CrowdFunding.sol\":2418:2432  thisReq.voters */\n      0x05\n      add\n        /* \".deps/CrowdFunding.sol\":2418:2444  thisReq.voters[msg.sender] */\n      0x00\n        /* \".deps/CrowdFunding.sol\":2433:2443  msg.sender */\n      caller\n        /* \".deps/CrowdFunding.sol\":2418:2444  thisReq.voters[msg.sender] */\n      0xffffffffffffffffffffffffffffffffffffffff\n      and\n      0xffffffffffffffffffffffffffffffffffffffff\n      and\n      dup2\n      mstore\n      0x20\n      add\n      swap1\n      dup2\n      mstore\n      0x20\n      add\n      0x00\n      keccak256\n      0x00\n        /* \".deps/CrowdFunding.sol\":2418:2449  thisReq.voters[msg.sender]=true */\n      0x0100\n      exp\n      dup2\n      sload\n      dup2\n      0xff\n      mul\n      not\n      and\n      swap1\n      dup4\n      iszero\n      iszero\n      mul\n      or\n      swap1\n      sstore\n      pop\n        /* \".deps/CrowdFunding.sol\":2460:2467  thisReq */\n      dup1\n        /* \".deps/CrowdFunding.sol\":2460:2478  thisReq.noOfVoters */\n      0x04\n      add\n      0x00\n        /* \".deps/CrowdFunding.sol\":2460:2480  thisReq.noOfVoters++ */\n      dup2\n      sload\n      dup1\n      swap3\n      swap2\n      swap1\n      tag_134\n      swap1\n      tag_94\n      jump\t// in\n    tag_134:\n      swap2\n      swap1\n      pop\n      sstore\n      pop\n        /* \".deps/CrowdFunding.sol\":2201:2490  {... */\n      pop\n        /* \".deps/CrowdFunding.sol\":2167:2490  function voteReq(uint _req) public{... */\n      pop\n      jump\t// out\n        /* \".deps/CrowdFunding.sol\":534:572  mapping(uint=>Request) public requests */\n    tag_61:\n      mstore(0x20, 0x07)\n      dup1\n      0x00\n      mstore\n      keccak256(0x00, 0x40)\n      0x00\n      swap2\n      pop\n      swap1\n      pop\n      dup1\n      0x00\n      add\n      dup1\n      sload\n      tag_135\n      swap1\n      tag_136\n      jump\t// in\n    tag_135:\n      dup1\n      0x1f\n      add\n      0x20\n      dup1\n      swap2\n      div\n      mul\n      0x20\n      add\n      mload(0x40)\n      swap1\n      dup2\n      add\n      0x40\n      mstore\n      dup1\n      swap3\n      swap2\n      swap1\n      dup2\n      dup2\n      mstore\n      0x20\n      add\n      dup3\n      dup1\n      sload\n      tag_137\n      swap1\n      tag_136\n      jump\t// in\n    tag_137:\n      dup1\n      iszero\n      tag_138\n      jumpi\n      dup1\n      0x1f\n      lt\n      tag_139\n      jumpi\n      0x0100\n      dup1\n      dup4\n      sload\n      div\n      mul\n      dup4\n      mstore\n      swap2\n      0x20\n      add\n      swap2\n      jump(tag_138)\n    tag_139:\n      dup3\n      add\n      swap2\n      swap1\n      0x00\n      mstore\n      keccak256(0x00, 0x20)\n      swap1\n    tag_140:\n      dup2\n      sload\n      dup2\n      mstore\n      swap1\n      0x01\n      add\n      swap1\n      0x20\n      add\n      dup1\n      dup4\n      gt\n      tag_140\n      jumpi\n      dup3\n      swap1\n      sub\n      0x1f\n      and\n      dup3\n      add\n      swap2\n    tag_138:\n      pop\n      pop\n      pop\n      pop\n      pop\n      swap1\n      dup1\n      0x01\n      add\n      0x00\n      swap1\n      sload\n      swap1\n      0x0100\n      exp\n      swap1\n      div\n      0xffffffffffffffffffffffffffffffffffffffff\n      and\n      swap1\n      dup1\n      0x02\n      add\n      sload\n      swap1\n      dup1\n      0x03\n      add\n      0x00\n      swap1\n      sload\n      swap1\n      0x0100\n      exp\n      swap1\n      div\n      0xff\n      and\n      swap1\n      dup1\n      0x04\n      add\n      sload\n      swap1\n      pop\n      dup6\n      jump\t// out\n        /* \".deps/CrowdFunding.sol\":579:600  uint  public numOfReq */\n    tag_66:\n      sload(0x08)\n      dup2\n      jump\t// out\n        /* \".deps/CrowdFunding.sol\":173:204  uint public minimumContribution */\n    tag_70:\n      sload(0x02)\n      dup2\n      jump\t// out\n        /* \".deps/CrowdFunding.sol\":263:287  uint public raisedAmount */\n    tag_74:\n      sload(0x05)\n      dup2\n      jump\t// out\n        /* \".deps/CrowdFunding.sol\":927:1330  function createReaquest(... */\n    tag_80:\n        /* \".deps/CrowdFunding.sol\":855:862  manager */\n      0x01\n      0x00\n      swap1\n      sload\n      swap1\n      0x0100\n      exp\n      swap1\n      div\n      0xffffffffffffffffffffffffffffffffffffffff\n      and\n        /* \".deps/CrowdFunding.sol\":843:862  msg.sender==manager */\n      0xffffffffffffffffffffffffffffffffffffffff\n      and\n        /* \".deps/CrowdFunding.sol\":843:853  msg.sender */\n      caller\n        /* \".deps/CrowdFunding.sol\":843:862  msg.sender==manager */\n      0xffffffffffffffffffffffffffffffffffffffff\n      and\n      eq\n        /* \".deps/CrowdFunding.sol\":835:899  require(msg.sender==manager,\"only manager can create a Request\") */\n      tag_142\n      jumpi\n      mload(0x40)\n      0x08c379a000000000000000000000000000000000000000000000000000000000\n      dup2\n      mstore\n      0x04\n      add\n      tag_143\n      swap1\n      tag_101\n      jump\t// in\n    tag_143:\n      mload(0x40)\n      dup1\n      swap2\n      sub\n      swap1\n      revert\n    tag_142:\n        /* \".deps/CrowdFunding.sol\":1088:1110  Request storage newReq */\n      0x00\n        /* \".deps/CrowdFunding.sol\":1113:1121  requests */\n      0x07\n        /* \".deps/CrowdFunding.sol\":1113:1131  requests[numOfReq] */\n      0x00\n        /* \".deps/CrowdFunding.sol\":1122:1130  numOfReq */\n      sload(0x08)\n        /* \".deps/CrowdFunding.sol\":1113:1131  requests[numOfReq] */\n      dup2\n      mstore\n      0x20\n      add\n      swap1\n      dup2\n      mstore\n      0x20\n      add\n      0x00\n      keccak256\n        /* \".deps/CrowdFunding.sol\":1088:1131  Request storage newReq = requests[numOfReq] */\n      swap1\n      pop\n        /* \".deps/CrowdFunding.sol\":1142:1150  numOfReq */\n      0x08\n      0x00\n        /* \".deps/CrowdFunding.sol\":1142:1152  numOfReq++ */\n      dup2\n      sload\n      dup1\n      swap3\n      swap2\n      swap1\n      tag_145\n      swap1\n      tag_94\n      jump\t// in\n    tag_145:\n      swap2\n      swap1\n      pop\n      sstore\n      pop\n        /* \".deps/CrowdFunding.sol\":1175:1187  _description */\n      dup5\n      dup5\n        /* \".deps/CrowdFunding.sol\":1163:1169  newReq */\n      dup3\n        /* \".deps/CrowdFunding.sol\":1163:1174  newReq.desc */\n      0x00\n      add\n        /* \".deps/CrowdFunding.sol\":1163:1187  newReq.desc=_description */\n      swap2\n      dup3\n      tag_146\n      swap3\n      swap2\n      swap1\n      tag_147\n      jump\t// in\n    tag_146:\n      pop\n        /* \".deps/CrowdFunding.sol\":1215:1225  _recipient */\n      dup3\n        /* \".deps/CrowdFunding.sol\":1198:1204  newReq */\n      dup2\n        /* \".deps/CrowdFunding.sol\":1198:1214  newReq.recipient */\n      0x01\n      add\n      0x00\n        /* \".deps/CrowdFunding.sol\":1198:1225  newReq.recipient=_recipient */\n      0x0100\n      exp\n      dup2\n      sload\n      dup2\n      0xffffffffffffffffffffffffffffffffffffffff\n      mul\n      not\n      and\n      swap1\n      dup4\n      0xffffffffffffffffffffffffffffffffffffffff\n      and\n      mul\n      or\n      swap1\n      sstore\n      pop\n        /* \".deps/CrowdFunding.sol\":1249:1255  _value */\n      dup2\n        /* \".deps/CrowdFunding.sol\":1236:1242  newReq */\n      dup2\n        /* \".deps/CrowdFunding.sol\":1236:1248  newReq.value */\n      0x02\n      add\n        /* \".deps/CrowdFunding.sol\":1236:1255  newReq.value=_value */\n      dup2\n      swap1\n      sstore\n      pop\n        /* \".deps/CrowdFunding.sol\":1283:1288  false */\n      0x00\n        /* \".deps/CrowdFunding.sol\":1266:1272  newReq */\n      dup2\n        /* \".deps/CrowdFunding.sol\":1266:1282  newReq.completed */\n      0x03\n      add\n      0x00\n        /* \".deps/CrowdFunding.sol\":1266:1288  newReq.completed=false */\n      0x0100\n      exp\n      dup2\n      sload\n      dup2\n      0xff\n      mul\n      not\n      and\n      swap1\n      dup4\n      iszero\n      iszero\n      mul\n      or\n      swap1\n      sstore\n      pop\n        /* \".deps/CrowdFunding.sol\":1317:1318  0 */\n      0x00\n        /* \".deps/CrowdFunding.sol\":1299:1305  newReq */\n      dup2\n        /* \".deps/CrowdFunding.sol\":1299:1316  newReq.noOfVoters */\n      0x04\n      add\n        /* \".deps/CrowdFunding.sol\":1299:1318  newReq.noOfVoters=0 */\n      dup2\n      swap1\n      sstore\n      pop\n        /* \".deps/CrowdFunding.sol\":1077:1330  {... */\n      pop\n        /* \".deps/CrowdFunding.sol\":927:1330  function createReaquest(... */\n      pop\n      pop\n      pop\n      pop\n      jump\t// out\n        /* \".deps/CrowdFunding.sol\":238:256  uint public target */\n    tag_83:\n      sload(0x04)\n      dup2\n      jump\t// out\n        /* \"#utility.yul\":7:84   */\n    tag_148:\n        /* \"#utility.yul\":44:51   */\n      0x00\n        /* \"#utility.yul\":73:78   */\n      dup2\n        /* \"#utility.yul\":62:78   */\n      swap1\n      pop\n        /* \"#utility.yul\":7:84   */\n      swap2\n      swap1\n      pop\n      jump\t// out\n        /* \"#utility.yul\":90:208   */\n    tag_149:\n        /* \"#utility.yul\":177:201   */\n      tag_218\n        /* \"#utility.yul\":195:200   */\n      dup2\n        /* \"#utility.yul\":177:201   */\n      tag_148\n      jump\t// in\n    tag_218:\n        /* \"#utility.yul\":172:175   */\n      dup3\n        /* \"#utility.yul\":165:202   */\n      mstore\n        /* \"#utility.yul\":90:208   */\n      pop\n      pop\n      jump\t// out\n        /* \"#utility.yul\":214:436   */\n    tag_24:\n        /* \"#utility.yul\":307:311   */\n      0x00\n        /* \"#utility.yul\":345:347   */\n      0x20\n        /* \"#utility.yul\":334:343   */\n      dup3\n        /* \"#utility.yul\":330:348   */\n      add\n        /* \"#utility.yul\":322:348   */\n      swap1\n      pop\n        /* \"#utility.yul\":358:429   */\n      tag_220\n        /* \"#utility.yul\":426:427   */\n      0x00\n        /* \"#utility.yul\":415:424   */\n      dup4\n        /* \"#utility.yul\":411:428   */\n      add\n        /* \"#utility.yul\":402:408   */\n      dup5\n        /* \"#utility.yul\":358:429   */\n      tag_149\n      jump\t// in\n    tag_220:\n        /* \"#utility.yul\":214:436   */\n      swap3\n      swap2\n      pop\n      pop\n      jump\t// out\n        /* \"#utility.yul\":523:640   */\n    tag_151:\n        /* \"#utility.yul\":632:633   */\n      0x00\n        /* \"#utility.yul\":629:630   */\n      0x00\n        /* \"#utility.yul\":622:634   */\n      revert\n        /* \"#utility.yul\":646:763   */\n    tag_152:\n        /* \"#utility.yul\":755:756   */\n      0x00\n        /* \"#utility.yul\":752:753   */\n      0x00\n        /* \"#utility.yul\":745:757   */\n      revert\n        /* \"#utility.yul\":769:895   */\n    tag_153:\n        /* \"#utility.yul\":806:813   */\n      0x00\n        /* \"#utility.yul\":846:888   */\n      0xffffffffffffffffffffffffffffffffffffffff\n        /* \"#utility.yul\":839:844   */\n      dup3\n        /* \"#utility.yul\":835:889   */\n      and\n        /* \"#utility.yul\":824:889   */\n      swap1\n      pop\n        /* \"#utility.yul\":769:895   */\n      swap2\n      swap1\n      pop\n      jump\t// out\n        /* \"#utility.yul\":901:997   */\n    tag_154:\n        /* \"#utility.yul\":938:945   */\n      0x00\n        /* \"#utility.yul\":967:991   */\n      tag_226\n        /* \"#utility.yul\":985:990   */\n      dup3\n        /* \"#utility.yul\":967:991   */\n      tag_153\n      jump\t// in\n    tag_226:\n        /* \"#utility.yul\":956:991   */\n      swap1\n      pop\n        /* \"#utility.yul\":901:997   */\n      swap2\n      swap1\n      pop\n      jump\t// out\n        /* \"#utility.yul\":1003:1125   */\n    tag_155:\n        /* \"#utility.yul\":1076:1100   */\n      tag_228\n        /* \"#utility.yul\":1094:1099   */\n      dup2\n        /* \"#utility.yul\":1076:1100   */\n      tag_154\n      jump\t// in\n    tag_228:\n        /* \"#utility.yul\":1069:1074   */\n      dup2\n        /* \"#utility.yul\":1066:1101   */\n      eq\n        /* \"#utility.yul\":1056:1119   */\n      tag_229\n      jumpi\n        /* \"#utility.yul\":1115:1116   */\n      0x00\n        /* \"#utility.yul\":1112:1113   */\n      0x00\n        /* \"#utility.yul\":1105:1117   */\n      revert\n        /* \"#utility.yul\":1056:1119   */\n    tag_229:\n        /* \"#utility.yul\":1003:1125   */\n      pop\n      jump\t// out\n        /* \"#utility.yul\":1131:1270   */\n    tag_156:\n        /* \"#utility.yul\":1177:1182   */\n      0x00\n        /* \"#utility.yul\":1215:1221   */\n      dup2\n        /* \"#utility.yul\":1202:1222   */\n      calldataload\n        /* \"#utility.yul\":1193:1222   */\n      swap1\n      pop\n        /* \"#utility.yul\":1231:1264   */\n      tag_231\n        /* \"#utility.yul\":1258:1263   */\n      dup2\n        /* \"#utility.yul\":1231:1264   */\n      tag_155\n      jump\t// in\n    tag_231:\n        /* \"#utility.yul\":1131:1270   */\n      swap3\n      swap2\n      pop\n      pop\n      jump\t// out\n        /* \"#utility.yul\":1276:1605   */\n    tag_28:\n        /* \"#utility.yul\":1335:1341   */\n      0x00\n        /* \"#utility.yul\":1384:1386   */\n      0x20\n        /* \"#utility.yul\":1372:1381   */\n      dup3\n        /* \"#utility.yul\":1363:1370   */\n      dup5\n        /* \"#utility.yul\":1359:1382   */\n      sub\n        /* \"#utility.yul\":1355:1387   */\n      slt\n        /* \"#utility.yul\":1352:1471   */\n      iszero\n      tag_233\n      jumpi\n        /* \"#utility.yul\":1390:1469   */\n      tag_234\n      tag_151\n      jump\t// in\n    tag_234:\n        /* \"#utility.yul\":1352:1471   */\n    tag_233:\n        /* \"#utility.yul\":1510:1511   */\n      0x00\n        /* \"#utility.yul\":1535:1588   */\n      tag_235\n        /* \"#utility.yul\":1580:1587   */\n      dup5\n        /* \"#utility.yul\":1571:1577   */\n      dup3\n        /* \"#utility.yul\":1560:1569   */\n      dup6\n        /* \"#utility.yul\":1556:1578   */\n      add\n        /* \"#utility.yul\":1535:1588   */\n      tag_156\n      jump\t// in\n    tag_235:\n        /* \"#utility.yul\":1525:1588   */\n      swap2\n      pop\n        /* \"#utility.yul\":1481:1598   */\n      pop\n        /* \"#utility.yul\":1276:1605   */\n      swap3\n      swap2\n      pop\n      pop\n      jump\t// out\n        /* \"#utility.yul\":1611:1729   */\n    tag_157:\n        /* \"#utility.yul\":1698:1722   */\n      tag_237\n        /* \"#utility.yul\":1716:1721   */\n      dup2\n        /* \"#utility.yul\":1698:1722   */\n      tag_154\n      jump\t// in\n    tag_237:\n        /* \"#utility.yul\":1693:1696   */\n      dup3\n        /* \"#utility.yul\":1686:1723   */\n      mstore\n        /* \"#utility.yul\":1611:1729   */\n      pop\n      pop\n      jump\t// out\n        /* \"#utility.yul\":1735:1957   */\n    tag_35:\n        /* \"#utility.yul\":1828:1832   */\n      0x00\n        /* \"#utility.yul\":1866:1868   */\n      0x20\n        /* \"#utility.yul\":1855:1864   */\n      dup3\n        /* \"#utility.yul\":1851:1869   */\n      add\n        /* \"#utility.yul\":1843:1869   */\n      swap1\n      pop\n        /* \"#utility.yul\":1879:1950   */\n      tag_239\n        /* \"#utility.yul\":1947:1948   */\n      0x00\n        /* \"#utility.yul\":1936:1945   */\n      dup4\n        /* \"#utility.yul\":1932:1949   */\n      add\n        /* \"#utility.yul\":1923:1929   */\n      dup5\n        /* \"#utility.yul\":1879:1950   */\n      tag_157\n      jump\t// in\n    tag_239:\n        /* \"#utility.yul\":1735:1957   */\n      swap3\n      swap2\n      pop\n      pop\n      jump\t// out\n        /* \"#utility.yul\":1963:2085   */\n    tag_158:\n        /* \"#utility.yul\":2036:2060   */\n      tag_241\n        /* \"#utility.yul\":2054:2059   */\n      dup2\n        /* \"#utility.yul\":2036:2060   */\n      tag_148\n      jump\t// in\n    tag_241:\n        /* \"#utility.yul\":2029:2034   */\n      dup2\n        /* \"#utility.yul\":2026:2061   */\n      eq\n        /* \"#utility.yul\":2016:2079   */\n      tag_242\n      jumpi\n        /* \"#utility.yul\":2075:2076   */\n      0x00\n        /* \"#utility.yul\":2072:2073   */\n      0x00\n        /* \"#utility.yul\":2065:2077   */\n      revert\n        /* \"#utility.yul\":2016:2079   */\n    tag_242:\n        /* \"#utility.yul\":1963:2085   */\n      pop\n      jump\t// out\n        /* \"#utility.yul\":2091:2230   */\n    tag_159:\n        /* \"#utility.yul\":2137:2142   */\n      0x00\n        /* \"#utility.yul\":2175:2181   */\n      dup2\n        /* \"#utility.yul\":2162:2182   */\n      calldataload\n        /* \"#utility.yul\":2153:2182   */\n      swap1\n      pop\n        /* \"#utility.yul\":2191:2224   */\n      tag_244\n        /* \"#utility.yul\":2218:2223   */\n      dup2\n        /* \"#utility.yul\":2191:2224   */\n      tag_158\n      jump\t// in\n    tag_244:\n        /* \"#utility.yul\":2091:2230   */\n      swap3\n      swap2\n      pop\n      pop\n      jump\t// out\n        /* \"#utility.yul\":2236:2565   */\n    tag_45:\n        /* \"#utility.yul\":2295:2301   */\n      0x00\n        /* \"#utility.yul\":2344:2346   */\n      0x20\n        /* \"#utility.yul\":2332:2341   */\n      dup3\n        /* \"#utility.yul\":2323:2330   */\n      dup5\n        /* \"#utility.yul\":2319:2342   */\n      sub\n        /* \"#utility.yul\":2315:2347   */\n      slt\n        /* \"#utility.yul\":2312:2431   */\n      iszero\n      tag_246\n      jumpi\n        /* \"#utility.yul\":2350:2429   */\n      tag_247\n      tag_151\n      jump\t// in\n    tag_247:\n        /* \"#utility.yul\":2312:2431   */\n    tag_246:\n        /* \"#utility.yul\":2470:2471   */\n      0x00\n        /* \"#utility.yul\":2495:2548   */\n      tag_248\n        /* \"#utility.yul\":2540:2547   */\n      dup5\n        /* \"#utility.yul\":2531:2537   */\n      dup3\n        /* \"#utility.yul\":2520:2529   */\n      dup6\n        /* \"#utility.yul\":2516:2538   */\n      add\n        /* \"#utility.yul\":2495:2548   */\n      tag_159\n      jump\t// in\n    tag_248:\n        /* \"#utility.yul\":2485:2548   */\n      swap2\n      pop\n        /* \"#utility.yul\":2441:2558   */\n      pop\n        /* \"#utility.yul\":2236:2565   */\n      swap3\n      swap2\n      pop\n      pop\n      jump\t// out\n        /* \"#utility.yul\":2571:2670   */\n    tag_160:\n        /* \"#utility.yul\":2623:2629   */\n      0x00\n        /* \"#utility.yul\":2657:2662   */\n      dup2\n        /* \"#utility.yul\":2651:2663   */\n      mload\n        /* \"#utility.yul\":2641:2663   */\n      swap1\n      pop\n        /* \"#utility.yul\":2571:2670   */\n      swap2\n      swap1\n      pop\n      jump\t// out\n        /* \"#utility.yul\":2676:2845   */\n    tag_161:\n        /* \"#utility.yul\":2760:2771   */\n      0x00\n        /* \"#utility.yul\":2794:2800   */\n      dup3\n        /* \"#utility.yul\":2789:2792   */\n      dup3\n        /* \"#utility.yul\":2782:2801   */\n      mstore\n        /* \"#utility.yul\":2834:2838   */\n      0x20\n        /* \"#utility.yul\":2829:2832   */\n      dup3\n        /* \"#utility.yul\":2825:2839   */\n      add\n        /* \"#utility.yul\":2810:2839   */\n      swap1\n      pop\n        /* \"#utility.yul\":2676:2845   */\n      swap3\n      swap2\n      pop\n      pop\n      jump\t// out\n        /* \"#utility.yul\":2851:2990   */\n    tag_162:\n        /* \"#utility.yul\":2940:2946   */\n      dup3\n        /* \"#utility.yul\":2935:2938   */\n      dup2\n        /* \"#utility.yul\":2930:2933   */\n      dup4\n        /* \"#utility.yul\":2924:2947   */\n      mcopy\n        /* \"#utility.yul\":2981:2982   */\n      0x00\n        /* \"#utility.yul\":2972:2978   */\n      dup4\n        /* \"#utility.yul\":2967:2970   */\n      dup4\n        /* \"#utility.yul\":2963:2979   */\n      add\n        /* \"#utility.yul\":2956:2983   */\n      mstore\n        /* \"#utility.yul\":2851:2990   */\n      pop\n      pop\n      pop\n      jump\t// out\n        /* \"#utility.yul\":2996:3098   */\n    tag_163:\n        /* \"#utility.yul\":3037:3043   */\n      0x00\n        /* \"#utility.yul\":3088:3090   */\n      0x1f\n        /* \"#utility.yul\":3084:3091   */\n      not\n        /* \"#utility.yul\":3079:3081   */\n      0x1f\n        /* \"#utility.yul\":3072:3077   */\n      dup4\n        /* \"#utility.yul\":3068:3082   */\n      add\n        /* \"#utility.yul\":3064:3092   */\n      and\n        /* \"#utility.yul\":3054:3092   */\n      swap1\n      pop\n        /* \"#utility.yul\":2996:3098   */\n      swap2\n      swap1\n      pop\n      jump\t// out\n        /* \"#utility.yul\":3104:3481   */\n    tag_164:\n        /* \"#utility.yul\":3192:3195   */\n      0x00\n        /* \"#utility.yul\":3220:3259   */\n      tag_254\n        /* \"#utility.yul\":3253:3258   */\n      dup3\n        /* \"#utility.yul\":3220:3259   */\n      tag_160\n      jump\t// in\n    tag_254:\n        /* \"#utility.yul\":3275:3346   */\n      tag_255\n        /* \"#utility.yul\":3339:3345   */\n      dup2\n        /* \"#utility.yul\":3334:3337   */\n      dup6\n        /* \"#utility.yul\":3275:3346   */\n      tag_161\n      jump\t// in\n    tag_255:\n        /* \"#utility.yul\":3268:3346   */\n      swap4\n      pop\n        /* \"#utility.yul\":3355:3420   */\n      tag_256\n        /* \"#utility.yul\":3413:3419   */\n      dup2\n        /* \"#utility.yul\":3408:3411   */\n      dup6\n        /* \"#utility.yul\":3401:3405   */\n      0x20\n        /* \"#utility.yul\":3394:3399   */\n      dup7\n        /* \"#utility.yul\":3390:3406   */\n      add\n        /* \"#utility.yul\":3355:3420   */\n      tag_162\n      jump\t// in\n    tag_256:\n        /* \"#utility.yul\":3445:3474   */\n      tag_257\n        /* \"#utility.yul\":3467:3473   */\n      dup2\n        /* \"#utility.yul\":3445:3474   */\n      tag_163\n      jump\t// in\n    tag_257:\n        /* \"#utility.yul\":3440:3443   */\n      dup5\n        /* \"#utility.yul\":3436:3475   */\n      add\n        /* \"#utility.yul\":3429:3475   */\n      swap2\n      pop\n        /* \"#utility.yul\":3196:3481   */\n      pop\n        /* \"#utility.yul\":3104:3481   */\n      swap3\n      swap2\n      pop\n      pop\n      jump\t// out\n        /* \"#utility.yul\":3487:3591   */\n    tag_165:\n        /* \"#utility.yul\":3532:3539   */\n      0x00\n        /* \"#utility.yul\":3561:3585   */\n      tag_259\n        /* \"#utility.yul\":3579:3584   */\n      dup3\n        /* \"#utility.yul\":3561:3585   */\n      tag_153\n      jump\t// in\n    tag_259:\n        /* \"#utility.yul\":3550:3585   */\n      swap1\n      pop\n        /* \"#utility.yul\":3487:3591   */\n      swap2\n      swap1\n      pop\n      jump\t// out\n        /* \"#utility.yul\":3597:3739   */\n    tag_166:\n        /* \"#utility.yul\":3700:3732   */\n      tag_261\n        /* \"#utility.yul\":3726:3731   */\n      dup2\n        /* \"#utility.yul\":3700:3732   */\n      tag_165\n      jump\t// in\n    tag_261:\n        /* \"#utility.yul\":3695:3698   */\n      dup3\n        /* \"#utility.yul\":3688:3733   */\n      mstore\n        /* \"#utility.yul\":3597:3739   */\n      pop\n      pop\n      jump\t// out\n        /* \"#utility.yul\":3745:3835   */\n    tag_167:\n        /* \"#utility.yul\":3779:3786   */\n      0x00\n        /* \"#utility.yul\":3822:3827   */\n      dup2\n        /* \"#utility.yul\":3815:3828   */\n      iszero\n        /* \"#utility.yul\":3808:3829   */\n      iszero\n        /* \"#utility.yul\":3797:3829   */\n      swap1\n      pop\n        /* \"#utility.yul\":3745:3835   */\n      swap2\n      swap1\n      pop\n      jump\t// out\n        /* \"#utility.yul\":3841:3950   */\n    tag_168:\n        /* \"#utility.yul\":3922:3943   */\n      tag_264\n        /* \"#utility.yul\":3937:3942   */\n      dup2\n        /* \"#utility.yul\":3922:3943   */\n      tag_167\n      jump\t// in\n    tag_264:\n        /* \"#utility.yul\":3917:3920   */\n      dup3\n        /* \"#utility.yul\":3910:3944   */\n      mstore\n        /* \"#utility.yul\":3841:3950   */\n      pop\n      pop\n      jump\t// out\n        /* \"#utility.yul\":3956:4731   */\n    tag_63:\n        /* \"#utility.yul\":4191:4195   */\n      0x00\n        /* \"#utility.yul\":4229:4232   */\n      0xa0\n        /* \"#utility.yul\":4218:4227   */\n      dup3\n        /* \"#utility.yul\":4214:4233   */\n      add\n        /* \"#utility.yul\":4206:4233   */\n      swap1\n      pop\n        /* \"#utility.yul\":4279:4288   */\n      dup2\n        /* \"#utility.yul\":4273:4277   */\n      dup2\n        /* \"#utility.yul\":4269:4289   */\n      sub\n        /* \"#utility.yul\":4265:4266   */\n      0x00\n        /* \"#utility.yul\":4254:4263   */\n      dup4\n        /* \"#utility.yul\":4250:4267   */\n      add\n        /* \"#utility.yul\":4243:4290   */\n      mstore\n        /* \"#utility.yul\":4307:4385   */\n      tag_266\n        /* \"#utility.yul\":4380:4384   */\n      dup2\n        /* \"#utility.yul\":4371:4377   */\n      dup9\n        /* \"#utility.yul\":4307:4385   */\n      tag_164\n      jump\t// in\n    tag_266:\n        /* \"#utility.yul\":4299:4385   */\n      swap1\n      pop\n        /* \"#utility.yul\":4395:4483   */\n      tag_267\n        /* \"#utility.yul\":4479:4481   */\n      0x20\n        /* \"#utility.yul\":4468:4477   */\n      dup4\n        /* \"#utility.yul\":4464:4482   */\n      add\n        /* \"#utility.yul\":4455:4461   */\n      dup8\n        /* \"#utility.yul\":4395:4483   */\n      tag_166\n      jump\t// in\n    tag_267:\n        /* \"#utility.yul\":4493:4565   */\n      tag_268\n        /* \"#utility.yul\":4561:4563   */\n      0x40\n        /* \"#utility.yul\":4550:4559   */\n      dup4\n        /* \"#utility.yul\":4546:4564   */\n      add\n        /* \"#utility.yul\":4537:4543   */\n      dup7\n        /* \"#utility.yul\":4493:4565   */\n      tag_149\n      jump\t// in\n    tag_268:\n        /* \"#utility.yul\":4575:4641   */\n      tag_269\n        /* \"#utility.yul\":4637:4639   */\n      0x60\n        /* \"#utility.yul\":4626:4635   */\n      dup4\n        /* \"#utility.yul\":4622:4640   */\n      add\n        /* \"#utility.yul\":4613:4619   */\n      dup6\n        /* \"#utility.yul\":4575:4641   */\n      tag_168\n      jump\t// in\n    tag_269:\n        /* \"#utility.yul\":4651:4724   */\n      tag_270\n        /* \"#utility.yul\":4719:4722   */\n      0x80\n        /* \"#utility.yul\":4708:4717   */\n      dup4\n        /* \"#utility.yul\":4704:4723   */\n      add\n        /* \"#utility.yul\":4695:4701   */\n      dup5\n        /* \"#utility.yul\":4651:4724   */\n      tag_149\n      jump\t// in\n    tag_270:\n        /* \"#utility.yul\":3956:4731   */\n      swap7\n      swap6\n      pop\n      pop\n      pop\n      pop\n      pop\n      pop\n      jump\t// out\n        /* \"#utility.yul\":4737:4854   */\n    tag_169:\n        /* \"#utility.yul\":4846:4847   */\n      0x00\n        /* \"#utility.yul\":4843:4844   */\n      0x00\n        /* \"#utility.yul\":4836:4848   */\n      revert\n        /* \"#utility.yul\":4860:4977   */\n    tag_170:\n        /* \"#utility.yul\":4969:4970   */\n      0x00\n        /* \"#utility.yul\":4966:4967   */\n      0x00\n        /* \"#utility.yul\":4959:4971   */\n      revert\n        /* \"#utility.yul\":4983:5100   */\n    tag_171:\n        /* \"#utility.yul\":5092:5093   */\n      0x00\n        /* \"#utility.yul\":5089:5090   */\n      0x00\n        /* \"#utility.yul\":5082:5094   */\n      revert\n        /* \"#utility.yul\":5120:5673   */\n    tag_172:\n        /* \"#utility.yul\":5178:5186   */\n      0x00\n        /* \"#utility.yul\":5188:5194   */\n      0x00\n        /* \"#utility.yul\":5238:5241   */\n      dup4\n        /* \"#utility.yul\":5231:5235   */\n      0x1f\n        /* \"#utility.yul\":5223:5229   */\n      dup5\n        /* \"#utility.yul\":5219:5236   */\n      add\n        /* \"#utility.yul\":5215:5242   */\n      slt\n        /* \"#utility.yul\":5205:5327   */\n      tag_275\n      jumpi\n        /* \"#utility.yul\":5246:5325   */\n      tag_276\n      tag_169\n      jump\t// in\n    tag_276:\n        /* \"#utility.yul\":5205:5327   */\n    tag_275:\n        /* \"#utility.yul\":5359:5365   */\n      dup3\n        /* \"#utility.yul\":5346:5366   */\n      calldataload\n        /* \"#utility.yul\":5336:5366   */\n      swap1\n      pop\n        /* \"#utility.yul\":5389:5407   */\n      0xffffffffffffffff\n        /* \"#utility.yul\":5381:5387   */\n      dup2\n        /* \"#utility.yul\":5378:5408   */\n      gt\n        /* \"#utility.yul\":5375:5492   */\n      iszero\n      tag_277\n      jumpi\n        /* \"#utility.yul\":5411:5490   */\n      tag_278\n      tag_170\n      jump\t// in\n    tag_278:\n        /* \"#utility.yul\":5375:5492   */\n    tag_277:\n        /* \"#utility.yul\":5525:5529   */\n      0x20\n        /* \"#utility.yul\":5517:5523   */\n      dup4\n        /* \"#utility.yul\":5513:5530   */\n      add\n        /* \"#utility.yul\":5501:5530   */\n      swap2\n      pop\n        /* \"#utility.yul\":5579:5582   */\n      dup4\n        /* \"#utility.yul\":5571:5575   */\n      0x01\n        /* \"#utility.yul\":5563:5569   */\n      dup3\n        /* \"#utility.yul\":5559:5576   */\n      mul\n        /* \"#utility.yul\":5549:5557   */\n      dup4\n        /* \"#utility.yul\":5545:5577   */\n      add\n        /* \"#utility.yul\":5542:5583   */\n      gt\n        /* \"#utility.yul\":5539:5667   */\n      iszero\n      tag_279\n      jumpi\n        /* \"#utility.yul\":5586:5665   */\n      tag_280\n      tag_171\n      jump\t// in\n    tag_280:\n        /* \"#utility.yul\":5539:5667   */\n    tag_279:\n        /* \"#utility.yul\":5120:5673   */\n      swap3\n      pop\n      swap3\n      swap1\n      pop\n      jump\t// out\n        /* \"#utility.yul\":5679:5817   */\n    tag_173:\n        /* \"#utility.yul\":5760:5792   */\n      tag_282\n        /* \"#utility.yul\":5786:5791   */\n      dup2\n        /* \"#utility.yul\":5760:5792   */\n      tag_165\n      jump\t// in\n    tag_282:\n        /* \"#utility.yul\":5753:5758   */\n      dup2\n        /* \"#utility.yul\":5750:5793   */\n      eq\n        /* \"#utility.yul\":5740:5811   */\n      tag_283\n      jumpi\n        /* \"#utility.yul\":5807:5808   */\n      0x00\n        /* \"#utility.yul\":5804:5805   */\n      0x00\n        /* \"#utility.yul\":5797:5809   */\n      revert\n        /* \"#utility.yul\":5740:5811   */\n    tag_283:\n        /* \"#utility.yul\":5679:5817   */\n      pop\n      jump\t// out\n        /* \"#utility.yul\":5823:5978   */\n    tag_174:\n        /* \"#utility.yul\":5877:5882   */\n      0x00\n        /* \"#utility.yul\":5915:5921   */\n      dup2\n        /* \"#utility.yul\":5902:5922   */\n      calldataload\n        /* \"#utility.yul\":5893:5922   */\n      swap1\n      pop\n        /* \"#utility.yul\":5931:5972   */\n      tag_285\n        /* \"#utility.yul\":5966:5971   */\n      dup2\n        /* \"#utility.yul\":5931:5972   */\n      tag_173\n      jump\t// in\n    tag_285:\n        /* \"#utility.yul\":5823:5978   */\n      swap3\n      swap2\n      pop\n      pop\n      jump\t// out\n        /* \"#utility.yul\":5984:6819   */\n    tag_79:\n        /* \"#utility.yul\":6081:6087   */\n      0x00\n        /* \"#utility.yul\":6089:6095   */\n      0x00\n        /* \"#utility.yul\":6097:6103   */\n      0x00\n        /* \"#utility.yul\":6105:6111   */\n      0x00\n        /* \"#utility.yul\":6154:6156   */\n      0x60\n        /* \"#utility.yul\":6142:6151   */\n      dup6\n        /* \"#utility.yul\":6133:6140   */\n      dup8\n        /* \"#utility.yul\":6129:6152   */\n      sub\n        /* \"#utility.yul\":6125:6157   */\n      slt\n        /* \"#utility.yul\":6122:6241   */\n      iszero\n      tag_287\n      jumpi\n        /* \"#utility.yul\":6160:6239   */\n      tag_288\n      tag_151\n      jump\t// in\n    tag_288:\n        /* \"#utility.yul\":6122:6241   */\n    tag_287:\n        /* \"#utility.yul\":6308:6309   */\n      0x00\n        /* \"#utility.yul\":6297:6306   */\n      dup6\n        /* \"#utility.yul\":6293:6310   */\n      add\n        /* \"#utility.yul\":6280:6311   */\n      calldataload\n        /* \"#utility.yul\":6338:6356   */\n      0xffffffffffffffff\n        /* \"#utility.yul\":6330:6336   */\n      dup2\n        /* \"#utility.yul\":6327:6357   */\n      gt\n        /* \"#utility.yul\":6324:6441   */\n      iszero\n      tag_289\n      jumpi\n        /* \"#utility.yul\":6360:6439   */\n      tag_290\n      tag_152\n      jump\t// in\n    tag_290:\n        /* \"#utility.yul\":6324:6441   */\n    tag_289:\n        /* \"#utility.yul\":6473:6538   */\n      tag_291\n        /* \"#utility.yul\":6530:6537   */\n      dup8\n        /* \"#utility.yul\":6521:6527   */\n      dup3\n        /* \"#utility.yul\":6510:6519   */\n      dup9\n        /* \"#utility.yul\":6506:6528   */\n      add\n        /* \"#utility.yul\":6473:6538   */\n      tag_172\n      jump\t// in\n    tag_291:\n        /* \"#utility.yul\":6455:6538   */\n      swap5\n      pop\n      swap5\n      pop\n        /* \"#utility.yul\":6251:6548   */\n      pop\n        /* \"#utility.yul\":6587:6589   */\n      0x20\n        /* \"#utility.yul\":6613:6674   */\n      tag_292\n        /* \"#utility.yul\":6666:6673   */\n      dup8\n        /* \"#utility.yul\":6657:6663   */\n      dup3\n        /* \"#utility.yul\":6646:6655   */\n      dup9\n        /* \"#utility.yul\":6642:6664   */\n      add\n        /* \"#utility.yul\":6613:6674   */\n      tag_174\n      jump\t// in\n    tag_292:\n        /* \"#utility.yul\":6603:6674   */\n      swap3\n      pop\n        /* \"#utility.yul\":6558:6684   */\n      pop\n        /* \"#utility.yul\":6723:6725   */\n      0x40\n        /* \"#utility.yul\":6749:6802   */\n      tag_293\n        /* \"#utility.yul\":6794:6801   */\n      dup8\n        /* \"#utility.yul\":6785:6791   */\n      dup3\n        /* \"#utility.yul\":6774:6783   */\n      dup9\n        /* \"#utility.yul\":6770:6792   */\n      add\n        /* \"#utility.yul\":6749:6802   */\n      tag_159\n      jump\t// in\n    tag_293:\n        /* \"#utility.yul\":6739:6802   */\n      swap2\n      pop\n        /* \"#utility.yul\":6694:6812   */\n      pop\n        /* \"#utility.yul\":5984:6819   */\n      swap3\n      swap6\n      swap2\n      swap5\n      pop\n      swap3\n      pop\n      jump\t// out\n        /* \"#utility.yul\":6825:6999   */\n    tag_175:\n        /* \"#utility.yul\":6965:6991   */\n      0x736f72727920596f7520617265206c6174652062756464790000000000000000\n        /* \"#utility.yul\":6961:6962   */\n      0x00\n        /* \"#utility.yul\":6953:6959   */\n      dup3\n        /* \"#utility.yul\":6949:6963   */\n      add\n        /* \"#utility.yul\":6942:6992   */\n      mstore\n        /* \"#utility.yul\":6825:6999   */\n      pop\n      jump\t// out\n        /* \"#utility.yul\":7005:7371   */\n    tag_176:\n        /* \"#utility.yul\":7147:7150   */\n      0x00\n        /* \"#utility.yul\":7168:7235   */\n      tag_296\n        /* \"#utility.yul\":7232:7234   */\n      0x18\n        /* \"#utility.yul\":7227:7230   */\n      dup4\n        /* \"#utility.yul\":7168:7235   */\n      tag_161\n      jump\t// in\n    tag_296:\n        /* \"#utility.yul\":7161:7235   */\n      swap2\n      pop\n        /* \"#utility.yul\":7244:7337   */\n      tag_297\n        /* \"#utility.yul\":7333:7336   */\n      dup3\n        /* \"#utility.yul\":7244:7337   */\n      tag_175\n      jump\t// in\n    tag_297:\n        /* \"#utility.yul\":7362:7364   */\n      0x20\n        /* \"#utility.yul\":7357:7360   */\n      dup3\n        /* \"#utility.yul\":7353:7365   */\n      add\n        /* \"#utility.yul\":7346:7365   */\n      swap1\n      pop\n        /* \"#utility.yul\":7005:7371   */\n      swap2\n      swap1\n      pop\n      jump\t// out\n        /* \"#utility.yul\":7377:7796   */\n    tag_88:\n        /* \"#utility.yul\":7543:7547   */\n      0x00\n        /* \"#utility.yul\":7581:7583   */\n      0x20\n        /* \"#utility.yul\":7570:7579   */\n      dup3\n        /* \"#utility.yul\":7566:7584   */\n      add\n        /* \"#utility.yul\":7558:7584   */\n      swap1\n      pop\n        /* \"#utility.yul\":7630:7639   */\n      dup2\n        /* \"#utility.yul\":7624:7628   */\n      dup2\n        /* \"#utility.yul\":7620:7640   */\n      sub\n        /* \"#utility.yul\":7616:7617   */\n      0x00\n        /* \"#utility.yul\":7605:7614   */\n      dup4\n        /* \"#utility.yul\":7601:7618   */\n      add\n        /* \"#utility.yul\":7594:7641   */\n      mstore\n        /* \"#utility.yul\":7658:7789   */\n      tag_299\n        /* \"#utility.yul\":7784:7788   */\n      dup2\n        /* \"#utility.yul\":7658:7789   */\n      tag_176\n      jump\t// in\n    tag_299:\n        /* \"#utility.yul\":7650:7789   */\n      swap1\n      pop\n        /* \"#utility.yul\":7377:7796   */\n      swap2\n      swap1\n      pop\n      jump\t// out\n        /* \"#utility.yul\":7802:8036   */\n    tag_177:\n        /* \"#utility.yul\":7942:7976   */\n      0x62686169206b75636820617572206261646661206465206268696b682074686f\n        /* \"#utility.yul\":7938:7939   */\n      0x00\n        /* \"#utility.yul\":7930:7936   */\n      dup3\n        /* \"#utility.yul\":7926:7940   */\n      add\n        /* \"#utility.yul\":7919:7977   */\n      mstore\n        /* \"#utility.yul\":8011:8028   */\n      0x6465206465207261686120686169200000000000000000000000000000000000\n        /* \"#utility.yul\":8006:8008   */\n      0x20\n        /* \"#utility.yul\":7998:8004   */\n      dup3\n        /* \"#utility.yul\":7994:8009   */\n      add\n        /* \"#utility.yul\":7987:8029   */\n      mstore\n        /* \"#utility.yul\":7802:8036   */\n      pop\n      jump\t// out\n        /* \"#utility.yul\":8042:8408   */\n    tag_178:\n        /* \"#utility.yul\":8184:8187   */\n      0x00\n        /* \"#utility.yul\":8205:8272   */\n      tag_302\n        /* \"#utility.yul\":8269:8271   */\n      0x2f\n        /* \"#utility.yul\":8264:8267   */\n      dup4\n        /* \"#utility.yul\":8205:8272   */\n      tag_161\n      jump\t// in\n    tag_302:\n        /* \"#utility.yul\":8198:8272   */\n      swap2\n      pop\n        /* \"#utility.yul\":8281:8374   */\n      tag_303\n        /* \"#utility.yul\":8370:8373   */\n      dup3\n        /* \"#utility.yul\":8281:8374   */\n      tag_177\n      jump\t// in\n    tag_303:\n        /* \"#utility.yul\":8399:8401   */\n      0x40\n        /* \"#utility.yul\":8394:8397   */\n      dup3\n        /* \"#utility.yul\":8390:8402   */\n      add\n        /* \"#utility.yul\":8383:8402   */\n      swap1\n      pop\n        /* \"#utility.yul\":8042:8408   */\n      swap2\n      swap1\n      pop\n      jump\t// out\n        /* \"#utility.yul\":8414:8833   */\n    tag_91:\n        /* \"#utility.yul\":8580:8584   */\n      0x00\n        /* \"#utility.yul\":8618:8620   */\n      0x20\n        /* \"#utility.yul\":8607:8616   */\n      dup3\n        /* \"#utility.yul\":8603:8621   */\n      add\n        /* \"#utility.yul\":8595:8621   */\n      swap1\n      pop\n        /* \"#utility.yul\":8667:8676   */\n      dup2\n        /* \"#utility.yul\":8661:8665   */\n      dup2\n        /* \"#utility.yul\":8657:8677   */\n      sub\n        /* \"#utility.yul\":8653:8654   */\n      0x00\n        /* \"#utility.yul\":8642:8651   */\n      dup4\n        /* \"#utility.yul\":8638:8655   */\n      add\n        /* \"#utility.yul\":8631:8678   */\n      mstore\n        /* \"#utility.yul\":8695:8826   */\n      tag_305\n        /* \"#utility.yul\":8821:8825   */\n      dup2\n        /* \"#utility.yul\":8695:8826   */\n      tag_178\n      jump\t// in\n    tag_305:\n        /* \"#utility.yul\":8687:8826   */\n      swap1\n      pop\n        /* \"#utility.yul\":8414:8833   */\n      swap2\n      swap1\n      pop\n      jump\t// out\n        /* \"#utility.yul\":8839:9019   */\n    tag_179:\n        /* \"#utility.yul\":8887:8964   */\n      0x4e487b7100000000000000000000000000000000000000000000000000000000\n        /* \"#utility.yul\":8884:8885   */\n      0x00\n        /* \"#utility.yul\":8877:8965   */\n      mstore\n        /* \"#utility.yul\":8984:8988   */\n      0x11\n        /* \"#utility.yul\":8981:8982   */\n      0x04\n        /* \"#utility.yul\":8974:8989   */\n      mstore\n        /* \"#utility.yul\":9008:9012   */\n      0x24\n        /* \"#utility.yul\":9005:9006   */\n      0x00\n        /* \"#utility.yul\":8998:9013   */\n      revert\n        /* \"#utility.yul\":9025:9258   */\n    tag_94:\n        /* \"#utility.yul\":9064:9067   */\n      0x00\n        /* \"#utility.yul\":9087:9111   */\n      tag_308\n        /* \"#utility.yul\":9105:9110   */\n      dup3\n        /* \"#utility.yul\":9087:9111   */\n      tag_148\n      jump\t// in\n    tag_308:\n        /* \"#utility.yul\":9078:9111   */\n      swap2\n      pop\n        /* \"#utility.yul\":9133:9199   */\n      0xffffffffffffffffffffffffffffffffffffffffffffffffffffffffffffffff\n        /* \"#utility.yul\":9126:9131   */\n      dup3\n        /* \"#utility.yul\":9123:9200   */\n      sub\n        /* \"#utility.yul\":9120:9223   */\n      tag_309\n      jumpi\n        /* \"#utility.yul\":9203:9221   */\n      tag_310\n      tag_179\n      jump\t// in\n    tag_310:\n        /* \"#utility.yul\":9120:9223   */\n    tag_309:\n        /* \"#utility.yul\":9250:9251   */\n      0x01\n        /* \"#utility.yul\":9243:9248   */\n      dup3\n        /* \"#utility.yul\":9239:9252   */\n      add\n        /* \"#utility.yul\":9232:9252   */\n      swap1\n      pop\n        /* \"#utility.yul\":9025:9258   */\n      swap2\n      swap1\n      pop\n      jump\t// out\n        /* \"#utility.yul\":9264:9455   */\n    tag_96:\n        /* \"#utility.yul\":9304:9307   */\n      0x00\n        /* \"#utility.yul\":9323:9343   */\n      tag_312\n        /* \"#utility.yul\":9341:9342   */\n      dup3\n        /* \"#utility.yul\":9323:9343   */\n      tag_148\n      jump\t// in\n    tag_312:\n        /* \"#utility.yul\":9318:9343   */\n      swap2\n      pop\n        /* \"#utility.yul\":9357:9377   */\n      tag_313\n        /* \"#utility.yul\":9375:9376   */\n      dup4\n        /* \"#utility.yul\":9357:9377   */\n      tag_148\n      jump\t// in\n    tag_313:\n        /* \"#utility.yul\":9352:9377   */\n      swap3\n      pop\n        /* \"#utility.yul\":9400:9401   */\n      dup3\n        /* \"#utility.yul\":9397:9398   */\n      dup3\n        /* \"#utility.yul\":9393:9402   */\n      add\n        /* \"#utility.yul\":9386:9402   */\n      swap1\n      pop\n        /* \"#utility.yul\":9421:9424   */\n      dup1\n        /* \"#utility.yul\":9418:9419   */\n      dup3\n        /* \"#utility.yul\":9415:9425   */\n      gt\n        /* \"#utility.yul\":9412:9448   */\n      iszero\n      tag_314\n      jumpi\n        /* \"#utility.yul\":9428:9446   */\n      tag_315\n      tag_179\n      jump\t// in\n    tag_315:\n        /* \"#utility.yul\":9412:9448   */\n    tag_314:\n        /* \"#utility.yul\":9264:9455   */\n      swap3\n      swap2\n      pop\n      pop\n      jump\t// out\n        /* \"#utility.yul\":9461:9681   */\n    tag_180:\n        /* \"#utility.yul\":9601:9635   */\n      0x6f6e6c79206d616e616765722063616e20637265617465206120526571756573\n        /* \"#utility.yul\":9597:9598   */\n      0x00\n        /* \"#utility.yul\":9589:9595   */\n      dup3\n        /* \"#utility.yul\":9585:9599   */\n      add\n        /* \"#utility.yul\":9578:9636   */\n      mstore\n        /* \"#utility.yul\":9670:9673   */\n      0x7400000000000000000000000000000000000000000000000000000000000000\n        /* \"#utility.yul\":9665:9667   */\n      0x20\n        /* \"#utility.yul\":9657:9663   */\n      dup3\n        /* \"#utility.yul\":9653:9668   */\n      add\n        /* \"#utility.yul\":9646:9674   */\n      mstore\n        /* \"#utility.yul\":9461:9681   */\n      pop\n      jump\t// out\n        /* \"#utility.yul\":9687:10053   */\n    tag_181:\n        /* \"#utility.yul\":9829:9832   */\n      0x00\n        /* \"#utility.yul\":9850:9917   */\n      tag_318\n        /* \"#utility.yul\":9914:9916   */\n      0x21\n        /* \"#utility.yul\":9909:9912   */\n      dup4\n        /* \"#utility.yul\":9850:9917   */\n      tag_161\n      jump\t// in\n    tag_318:\n        /* \"#utility.yul\":9843:9917   */\n      swap2\n      pop\n        /* \"#utility.yul\":9926:10019   */\n      tag_319\n        /* \"#utility.yul\":10015:10018   */\n      dup3\n        /* \"#utility.yul\":9926:10019   */\n      tag_180\n      jump\t// in\n    tag_319:\n        /* \"#utility.yul\":10044:10046   */\n      0x40\n        /* \"#utility.yul\":10039:10042   */\n      dup3\n        /* \"#utility.yul\":10035:10047   */\n      add\n        /* \"#utility.yul\":10028:10047   */\n      swap1\n      pop\n        /* \"#utility.yul\":9687:10053   */\n      swap2\n      swap1\n      pop\n      jump\t// out\n        /* \"#utility.yul\":10059:10478   */\n    tag_101:\n        /* \"#utility.yul\":10225:10229   */\n      0x00\n        /* \"#utility.yul\":10263:10265   */\n      0x20\n        /* \"#utility.yul\":10252:10261   */\n      dup3\n        /* \"#utility.yul\":10248:10266   */\n      add\n        /* \"#utility.yul\":10240:10266   */\n      swap1\n      pop\n        /* \"#utility.yul\":10312:10321   */\n      dup2\n        /* \"#utility.yul\":10306:10310   */\n      dup2\n        /* \"#utility.yul\":10302:10322   */\n      sub\n        /* \"#utility.yul\":10298:10299   */\n      0x00\n        /* \"#utility.yul\":10287:10296   */\n      dup4\n        /* \"#utility.yul\":10283:10300   */\n      add\n        /* \"#utility.yul\":10276:10323   */\n      mstore\n        /* \"#utility.yul\":10340:10471   */\n      tag_321\n        /* \"#utility.yul\":10466:10470   */\n      dup2\n        /* \"#utility.yul\":10340:10471   */\n      tag_181\n      jump\t// in\n    tag_321:\n        /* \"#utility.yul\":10332:10471   */\n      swap1\n      pop\n        /* \"#utility.yul\":10059:10478   */\n      swap2\n      swap1\n      pop\n      jump\t// out\n        /* \"#utility.yul\":10484:10656   */\n    tag_182:\n        /* \"#utility.yul\":10624:10648   */\n      0x54617267657420206973206e6f74207265616368656400000000000000000000\n        /* \"#utility.yul\":10620:10621   */\n      0x00\n        /* \"#utility.yul\":10612:10618   */\n      dup3\n        /* \"#utility.yul\":10608:10622   */\n      add\n        /* \"#utility.yul\":10601:10649   */\n      mstore\n        /* \"#utility.yul\":10484:10656   */\n      pop\n      jump\t// out\n        /* \"#utility.yul\":10662:11028   */\n    tag_183:\n        /* \"#utility.yul\":10804:10807   */\n      0x00\n        /* \"#utility.yul\":10825:10892   */\n      tag_324\n        /* \"#utility.yul\":10889:10891   */\n      0x16\n        /* \"#utility.yul\":10884:10887   */\n      dup4\n        /* \"#utility.yul\":10825:10892   */\n      tag_161\n      jump\t// in\n    tag_324:\n        /* \"#utility.yul\":10818:10892   */\n      swap2\n      pop\n        /* \"#utility.yul\":10901:10994   */\n      tag_325\n        /* \"#utility.yul\":10990:10993   */\n      dup3\n        /* \"#utility.yul\":10901:10994   */\n      tag_182\n      jump\t// in\n    tag_325:\n        /* \"#utility.yul\":11019:11021   */\n      0x20\n        /* \"#utility.yul\":11014:11017   */\n      dup3\n        /* \"#utility.yul\":11010:11022   */\n      add\n        /* \"#utility.yul\":11003:11022   */\n      swap1\n      pop\n        /* \"#utility.yul\":10662:11028   */\n      swap2\n      swap1\n      pop\n      jump\t// out\n        /* \"#utility.yul\":11034:11453   */\n    tag_105:\n        /* \"#utility.yul\":11200:11204   */\n      0x00\n        /* \"#utility.yul\":11238:11240   */\n      0x20\n        /* \"#utility.yul\":11227:11236   */\n      dup3\n        /* \"#utility.yul\":11223:11241   */\n      add\n        /* \"#utility.yul\":11215:11241   */\n      swap1\n      pop\n        /* \"#utility.yul\":11287:11296   */\n      dup2\n        /* \"#utility.yul\":11281:11285   */\n      dup2\n        /* \"#utility.yul\":11277:11297   */\n      sub\n        /* \"#utility.yul\":11273:11274   */\n      0x00\n        /* \"#utility.yul\":11262:11271   */\n      dup4\n        /* \"#utility.yul\":11258:11275   */\n      add\n        /* \"#utility.yul\":11251:11298   */\n      mstore\n        /* \"#utility.yul\":11315:11446   */\n      tag_327\n        /* \"#utility.yul\":11441:11445   */\n      dup2\n        /* \"#utility.yul\":11315:11446   */\n      tag_183\n      jump\t// in\n    tag_327:\n        /* \"#utility.yul\":11307:11446   */\n      swap1\n      pop\n        /* \"#utility.yul\":11034:11453   */\n      swap2\n      swap1\n      pop\n      jump\t// out\n        /* \"#utility.yul\":11459:11631   */\n    tag_184:\n        /* \"#utility.yul\":11599:11623   */\n      0x6d6f6e657920697320616c726561647920676976656e00000000000000000000\n        /* \"#utility.yul\":11595:11596   */\n      0x00\n        /* \"#utility.yul\":11587:11593   */\n      dup3\n        /* \"#utility.yul\":11583:11597   */\n      add\n        /* \"#utility.yul\":11576:11624   */\n      mstore\n        /* \"#utility.yul\":11459:11631   */\n      pop\n      jump\t// out\n        /* \"#utility.yul\":11637:12003   */\n    tag_185:\n        /* \"#utility.yul\":11779:11782   */\n      0x00\n        /* \"#utility.yul\":11800:11867   */\n      tag_330\n        /* \"#utility.yul\":11864:11866   */\n      0x16\n        /* \"#utility.yul\":11859:11862   */\n      dup4\n        /* \"#utility.yul\":11800:11867   */\n      tag_161\n      jump\t// in\n    tag_330:\n        /* \"#utility.yul\":11793:11867   */\n      swap2\n      pop\n        /* \"#utility.yul\":11876:11969   */\n      tag_331\n        /* \"#utility.yul\":11965:11968   */\n      dup3\n        /* \"#utility.yul\":11876:11969   */\n      tag_184\n      jump\t// in\n    tag_331:\n        /* \"#utility.yul\":11994:11996   */\n      0x20\n        /* \"#utility.yul\":11989:11992   */\n      dup3\n        /* \"#utility.yul\":11985:11997   */\n      add\n        /* \"#utility.yul\":11978:11997   */\n      swap1\n      pop\n        /* \"#utility.yul\":11637:12003   */\n      swap2\n      swap1\n      pop\n      jump\t// out\n        /* \"#utility.yul\":12009:12428   */\n    tag_108:\n        /* \"#utility.yul\":12175:12179   */\n      0x00\n        /* \"#utility.yul\":12213:12215   */\n      0x20\n        /* \"#utility.yul\":12202:12211   */\n      dup3\n        /* \"#utility.yul\":12198:12216   */\n      add\n        /* \"#utility.yul\":12190:12216   */\n      swap1\n      pop\n        /* \"#utility.yul\":12262:12271   */\n      dup2\n        /* \"#utility.yul\":12256:12260   */\n      dup2\n        /* \"#utility.yul\":12252:12272   */\n      sub\n        /* \"#utility.yul\":12248:12249   */\n      0x00\n        /* \"#utility.yul\":12237:12246   */\n      dup4\n        /* \"#utility.yul\":12233:12250   */\n      add\n        /* \"#utility.yul\":12226:12273   */\n      mstore\n        /* \"#utility.yul\":12290:12421   */\n      tag_333\n        /* \"#utility.yul\":12416:12420   */\n      dup2\n        /* \"#utility.yul\":12290:12421   */\n      tag_185\n      jump\t// in\n    tag_333:\n        /* \"#utility.yul\":12282:12421   */\n      swap1\n      pop\n        /* \"#utility.yul\":12009:12428   */\n      swap2\n      swap1\n      pop\n      jump\t// out\n        /* \"#utility.yul\":12434:12614   */\n    tag_186:\n        /* \"#utility.yul\":12482:12559   */\n      0x4e487b7100000000000000000000000000000000000000000000000000000000\n        /* \"#utility.yul\":12479:12480   */\n      0x00\n        /* \"#utility.yul\":12472:12560   */\n      mstore\n        /* \"#utility.yul\":12579:12583   */\n      0x12\n        /* \"#utility.yul\":12576:12577   */\n      0x04\n        /* \"#utility.yul\":12569:12584   */\n      mstore\n        /* \"#utility.yul\":12603:12607   */\n      0x24\n        /* \"#utility.yul\":12600:12601   */\n      0x00\n        /* \"#utility.yul\":12593:12608   */\n      revert\n        /* \"#utility.yul\":12620:12805   */\n    tag_110:\n        /* \"#utility.yul\":12660:12661   */\n      0x00\n        /* \"#utility.yul\":12677:12697   */\n      tag_336\n        /* \"#utility.yul\":12695:12696   */\n      dup3\n        /* \"#utility.yul\":12677:12697   */\n      tag_148\n      jump\t// in\n    tag_336:\n        /* \"#utility.yul\":12672:12697   */\n      swap2\n      pop\n        /* \"#utility.yul\":12711:12731   */\n      tag_337\n        /* \"#utility.yul\":12729:12730   */\n      dup4\n        /* \"#utility.yul\":12711:12731   */\n      tag_148\n      jump\t// in\n    tag_337:\n        /* \"#utility.yul\":12706:12731   */\n      swap3\n      pop\n        /* \"#utility.yul\":12750:12751   */\n      dup3\n        /* \"#utility.yul\":12740:12775   */\n      tag_338\n      jumpi\n        /* \"#utility.yul\":12755:12773   */\n      tag_339\n      tag_186\n      jump\t// in\n    tag_339:\n        /* \"#utility.yul\":12740:12775   */\n    tag_338:\n        /* \"#utility.yul\":12797:12798   */\n      dup3\n        /* \"#utility.yul\":12794:12795   */\n      dup3\n        /* \"#utility.yul\":12790:12799   */\n      div\n        /* \"#utility.yul\":12785:12799   */\n      swap1\n      pop\n        /* \"#utility.yul\":12620:12805   */\n      swap3\n      swap2\n      pop\n      pop\n      jump\t// out\n        /* \"#utility.yul\":12811:12980   */\n    tag_187:\n        /* \"#utility.yul\":12951:12972   */\n      0x796f75206e656564206d6f726520766f74657300000000000000000000000000\n        /* \"#utility.yul\":12947:12948   */\n      0x00\n        /* \"#utility.yul\":12939:12945   */\n      dup3\n        /* \"#utility.yul\":12935:12949   */\n      add\n        /* \"#utility.yul\":12928:12973   */\n      mstore\n        /* \"#utility.yul\":12811:12980   */\n      pop\n      jump\t// out\n        /* \"#utility.yul\":12986:13352   */\n    tag_188:\n        /* \"#utility.yul\":13128:13131   */\n      0x00\n        /* \"#utility.yul\":13149:13216   */\n      tag_342\n        /* \"#utility.yul\":13213:13215   */\n      0x13\n        /* \"#utility.yul\":13208:13211   */\n      dup4\n        /* \"#utility.yul\":13149:13216   */\n      tag_161\n      jump\t// in\n    tag_342:\n        /* \"#utility.yul\":13142:13216   */\n      swap2\n      pop\n        /* \"#utility.yul\":13225:13318   */\n      tag_343\n        /* \"#utility.yul\":13314:13317   */\n      dup3\n        /* \"#utility.yul\":13225:13318   */\n      tag_187\n      jump\t// in\n    tag_343:\n        /* \"#utility.yul\":13343:13345   */\n      0x20\n        /* \"#utility.yul\":13338:13341   */\n      dup3\n        /* \"#utility.yul\":13334:13346   */\n      add\n        /* \"#utility.yul\":13327:13346   */\n      swap1\n      pop\n        /* \"#utility.yul\":12986:13352   */\n      swap2\n      swap1\n      pop\n      jump\t// out\n        /* \"#utility.yul\":13358:13777   */\n    tag_113:\n        /* \"#utility.yul\":13524:13528   */\n      0x00\n        /* \"#utility.yul\":13562:13564   */\n      0x20\n        /* \"#utility.yul\":13551:13560   */\n      dup3\n        /* \"#utility.yul\":13547:13565   */\n      add\n        /* \"#utility.yul\":13539:13565   */\n      swap1\n      pop\n        /* \"#utility.yul\":13611:13620   */\n      dup2\n        /* \"#utility.yul\":13605:13609   */\n      dup2\n        /* \"#utility.yul\":13601:13621   */\n      sub\n        /* \"#utility.yul\":13597:13598   */\n      0x00\n        /* \"#utility.yul\":13586:13595   */\n      dup4\n        /* \"#utility.yul\":13582:13599   */\n      add\n        /* \"#utility.yul\":13575:13622   */\n      mstore\n        /* \"#utility.yul\":13639:13770   */\n      tag_345\n        /* \"#utility.yul\":13765:13769   */\n      dup2\n        /* \"#utility.yul\":13639:13770   */\n      tag_188\n      jump\t// in\n    tag_345:\n        /* \"#utility.yul\":13631:13770   */\n      swap1\n      pop\n        /* \"#utility.yul\":13358:13777   */\n      swap2\n      swap1\n      pop\n      jump\t// out\n        /* \"#utility.yul\":13783:13963   */\n    tag_189:\n        /* \"#utility.yul\":13923:13955   */\n      0x796f7520617265206e6f7420656c6967626c6520666f7220726566756e640000\n        /* \"#utility.yul\":13919:13920   */\n      0x00\n        /* \"#utility.yul\":13911:13917   */\n      dup3\n        /* \"#utility.yul\":13907:13921   */\n      add\n        /* \"#utility.yul\":13900:13956   */\n      mstore\n        /* \"#utility.yul\":13783:13963   */\n      pop\n      jump\t// out\n        /* \"#utility.yul\":13969:14335   */\n    tag_190:\n        /* \"#utility.yul\":14111:14114   */\n      0x00\n        /* \"#utility.yul\":14132:14199   */\n      tag_348\n        /* \"#utility.yul\":14196:14198   */\n      0x1e\n        /* \"#utility.yul\":14191:14194   */\n      dup4\n        /* \"#utility.yul\":14132:14199   */\n      tag_161\n      jump\t// in\n    tag_348:\n        /* \"#utility.yul\":14125:14199   */\n      swap2\n      pop\n        /* \"#utility.yul\":14208:14301   */\n      tag_349\n        /* \"#utility.yul\":14297:14300   */\n      dup3\n        /* \"#utility.yul\":14208:14301   */\n      tag_189\n      jump\t// in\n    tag_349:\n        /* \"#utility.yul\":14326:14328   */\n      0x20\n        /* \"#utility.yul\":14321:14324   */\n      dup3\n        /* \"#utility.yul\":14317:14329   */\n      add\n        /* \"#utility.yul\":14310:14329   */\n      swap1\n      pop\n        /* \"#utility.yul\":13969:14335   */\n      swap2\n      swap1\n      pop\n      jump\t// out\n        /* \"#utility.yul\":14341:14760   */\n    tag_120:\n        /* \"#utility.yul\":14507:14511   */\n      0x00\n        /* \"#utility.yul\":14545:14547   */\n      0x20\n        /* \"#utility.yul\":14534:14543   */\n      dup3\n        /* \"#utility.yul\":14530:14548   */\n      add\n        /* \"#utility.yul\":14522:14548   */\n      swap1\n      pop\n        /* \"#utility.yul\":14594:14603   */\n      dup2\n        /* \"#utility.yul\":14588:14592   */\n      dup2\n        /* \"#utility.yul\":14584:14604   */\n      sub\n        /* \"#utility.yul\":14580:14581   */\n      0x00\n        /* \"#utility.yul\":14569:14578   */\n      dup4\n        /* \"#utility.yul\":14565:14582   */\n      add\n        /* \"#utility.yul\":14558:14605   */\n      mstore\n        /* \"#utility.yul\":14622:14753   */\n      tag_351\n        /* \"#utility.yul\":14748:14752   */\n      dup2\n        /* \"#utility.yul\":14622:14753   */\n      tag_190\n      jump\t// in\n    tag_351:\n        /* \"#utility.yul\":14614:14753   */\n      swap1\n      pop\n        /* \"#utility.yul\":14341:14760   */\n      swap2\n      swap1\n      pop\n      jump\t// out\n        /* \"#utility.yul\":14766:14936   */\n    tag_191:\n        /* \"#utility.yul\":14906:14928   */\n      0x796f7520617265206e6f7420656c6c6967626c65000000000000000000000000\n        /* \"#utility.yul\":14902:14903   */\n      0x00\n        /* \"#utility.yul\":14894:14900   */\n      dup3\n        /* \"#utility.yul\":14890:14904   */\n      add\n        /* \"#utility.yul\":14883:14929   */\n      mstore\n        /* \"#utility.yul\":14766:14936   */\n      pop\n      jump\t// out\n        /* \"#utility.yul\":14942:15308   */\n    tag_192:\n        /* \"#utility.yul\":15084:15087   */\n      0x00\n        /* \"#utility.yul\":15105:15172   */\n      tag_354\n        /* \"#utility.yul\":15169:15171   */\n      0x14\n        /* \"#utility.yul\":15164:15167   */\n      dup4\n        /* \"#utility.yul\":15105:15172   */\n      tag_161\n      jump\t// in\n    tag_354:\n        /* \"#utility.yul\":15098:15172   */\n      swap2\n      pop\n        /* \"#utility.yul\":15181:15274   */\n      tag_355\n        /* \"#utility.yul\":15270:15273   */\n      dup3\n        /* \"#utility.yul\":15181:15274   */\n      tag_191\n      jump\t// in\n    tag_355:\n        /* \"#utility.yul\":15299:15301   */\n      0x20\n        /* \"#utility.yul\":15294:15297   */\n      dup3\n        /* \"#utility.yul\":15290:15302   */\n      add\n        /* \"#utility.yul\":15283:15302   */\n      swap1\n      pop\n        /* \"#utility.yul\":14942:15308   */\n      swap2\n      swap1\n      pop\n      jump\t// out\n        /* \"#utility.yul\":15314:15733   */\n    tag_123:\n        /* \"#utility.yul\":15480:15484   */\n      0x00\n        /* \"#utility.yul\":15518:15520   */\n      0x20\n        /* \"#utility.yul\":15507:15516   */\n      dup3\n        /* \"#utility.yul\":15503:15521   */\n      add\n        /* \"#utility.yul\":15495:15521   */\n      swap1\n      pop\n        /* \"#utility.yul\":15567:15576   */\n      dup2\n        /* \"#utility.yul\":15561:15565   */\n      dup2\n        /* \"#utility.yul\":15557:15577   */\n      sub\n        /* \"#utility.yul\":15553:15554   */\n      0x00\n        /* \"#utility.yul\":15542:15551   */\n      dup4\n        /* \"#utility.yul\":15538:15555   */\n      add\n        /* \"#utility.yul\":15531:15578   */\n      mstore\n        /* \"#utility.yul\":15595:15726   */\n      tag_357\n        /* \"#utility.yul\":15721:15725   */\n      dup2\n        /* \"#utility.yul\":15595:15726   */\n      tag_192\n      jump\t// in\n    tag_357:\n        /* \"#utility.yul\":15587:15726   */\n      swap1\n      pop\n        /* \"#utility.yul\":15314:15733   */\n      swap2\n      swap1\n      pop\n      jump\t// out\n        /* \"#utility.yul\":15739:15917   */\n    tag_193:\n        /* \"#utility.yul\":15879:15909   */\n      0x796f7520617265206e6f7420656c6c6967626c6520746f20766f746500000000\n        /* \"#utility.yul\":15875:15876   */\n      0x00\n        /* \"#utility.yul\":15867:15873   */\n      dup3\n        /* \"#utility.yul\":15863:15877   */\n      add\n        /* \"#utility.yul\":15856:15910   */\n      mstore\n        /* \"#utility.yul\":15739:15917   */\n      pop\n      jump\t// out\n        /* \"#utility.yul\":15923:16289   */\n    tag_194:\n        /* \"#utility.yul\":16065:16068   */\n      0x00\n        /* \"#utility.yul\":16086:16153   */\n      tag_360\n        /* \"#utility.yul\":16150:16152   */\n      0x1c\n        /* \"#utility.yul\":16145:16148   */\n      dup4\n        /* \"#utility.yul\":16086:16153   */\n      tag_161\n      jump\t// in\n    tag_360:\n        /* \"#utility.yul\":16079:16153   */\n      swap2\n      pop\n        /* \"#utility.yul\":16162:16255   */\n      tag_361\n        /* \"#utility.yul\":16251:16254   */\n      dup3\n        /* \"#utility.yul\":16162:16255   */\n      tag_193\n      jump\t// in\n    tag_361:\n        /* \"#utility.yul\":16280:16282   */\n      0x20\n        /* \"#utility.yul\":16275:16278   */\n      dup3\n        /* \"#utility.yul\":16271:16283   */\n      add\n        /* \"#utility.yul\":16264:16283   */\n      swap1\n      pop\n        /* \"#utility.yul\":15923:16289   */\n      swap2\n      swap1\n      pop\n      jump\t// out\n        /* \"#utility.yul\":16295:16714   */\n    tag_130:\n        /* \"#utility.yul\":16461:16465   */\n      0x00\n        /* \"#utility.yul\":16499:16501   */\n      0x20\n        /* \"#utility.yul\":16488:16497   */\n      dup3\n        /* \"#utility.yul\":16484:16502   */\n      add\n        /* \"#utility.yul\":16476:16502   */\n      swap1\n      pop\n        /* \"#utility.yul\":16548:16557   */\n      dup2\n        /* \"#utility.yul\":16542:16546   */\n      dup2\n        /* \"#utility.yul\":16538:16558   */\n      sub\n        /* \"#utility.yul\":16534:16535   */\n      0x00\n        /* \"#utility.yul\":16523:16532   */\n      dup4\n        /* \"#utility.yul\":16519:16536   */\n      add\n        /* \"#utility.yul\":16512:16559   */\n      mstore\n        /* \"#utility.yul\":16576:16707   */\n      tag_363\n        /* \"#utility.yul\":16702:16706   */\n      dup2\n        /* \"#utility.yul\":16576:16707   */\n      tag_194\n      jump\t// in\n    tag_363:\n        /* \"#utility.yul\":16568:16707   */\n      swap1\n      pop\n        /* \"#utility.yul\":16295:16714   */\n      swap2\n      swap1\n      pop\n      jump\t// out\n        /* \"#utility.yul\":16720:16892   */\n    tag_195:\n        /* \"#utility.yul\":16860:16884   */\n      0x596f75206861766520616c726561647920766f74656400000000000000000000\n        /* \"#utility.yul\":16856:16857   */\n      0x00\n        /* \"#utility.yul\":16848:16854   */\n      dup3\n        /* \"#utility.yul\":16844:16858   */\n      add\n        /* \"#utility.yul\":16837:16885   */\n      mstore\n        /* \"#utility.yul\":16720:16892   */\n      pop\n      jump\t// out\n        /* \"#utility.yul\":16898:17264   */\n    tag_196:\n        /* \"#utility.yul\":17040:17043   */\n      0x00\n        /* \"#utility.yul\":17061:17128   */\n      tag_366\n        /* \"#utility.yul\":17125:17127   */\n      0x16\n        /* \"#utility.yul\":17120:17123   */\n      dup4\n        /* \"#utility.yul\":17061:17128   */\n      tag_161\n      jump\t// in\n    tag_366:\n        /* \"#utility.yul\":17054:17128   */\n      swap2\n      pop\n        /* \"#utility.yul\":17137:17230   */\n      tag_367\n        /* \"#utility.yul\":17226:17229   */\n      dup3\n        /* \"#utility.yul\":17137:17230   */\n      tag_195\n      jump\t// in\n    tag_367:\n        /* \"#utility.yul\":17255:17257   */\n      0x20\n        /* \"#utility.yul\":17250:17253   */\n      dup3\n        /* \"#utility.yul\":17246:17258   */\n      add\n        /* \"#utility.yul\":17239:17258   */\n      swap1\n      pop\n        /* \"#utility.yul\":16898:17264   */\n      swap2\n      swap1\n      pop\n      jump\t// out\n        /* \"#utility.yul\":17270:17689   */\n    tag_133:\n        /* \"#utility.yul\":17436:17440   */\n      0x00\n        /* \"#utility.yul\":17474:17476   */\n      0x20\n        /* \"#utility.yul\":17463:17472   */\n      dup3\n        /* \"#utility.yul\":17459:17477   */\n      add\n        /* \"#utility.yul\":17451:17477   */\n      swap1\n      pop\n        /* \"#utility.yul\":17523:17532   */\n      dup2\n        /* \"#utility.yul\":17517:17521   */\n      dup2\n        /* \"#utility.yul\":17513:17533   */\n      sub\n        /* \"#utility.yul\":17509:17510   */\n      0x00\n        /* \"#utility.yul\":17498:17507   */\n      dup4\n        /* \"#utility.yul\":17494:17511   */\n      add\n        /* \"#utility.yul\":17487:17534   */\n      mstore\n        /* \"#utility.yul\":17551:17682   */\n      tag_369\n        /* \"#utility.yul\":17677:17681   */\n      dup2\n        /* \"#utility.yul\":17551:17682   */\n      tag_196\n      jump\t// in\n    tag_369:\n        /* \"#utility.yul\":17543:17682   */\n      swap1\n      pop\n        /* \"#utility.yul\":17270:17689   */\n      swap2\n      swap1\n      pop\n      jump\t// out\n        /* \"#utility.yul\":17695:17875   */\n    tag_197:\n        /* \"#utility.yul\":17743:17820   */\n      0x4e487b7100000000000000000000000000000000000000000000000000000000\n        /* \"#utility.yul\":17740:17741   */\n      0x00\n        /* \"#utility.yul\":17733:17821   */\n      mstore\n        /* \"#utility.yul\":17840:17844   */\n      0x22\n        /* \"#utility.yul\":17837:17838   */\n      0x04\n        /* \"#utility.yul\":17830:17845   */\n      mstore\n        /* \"#utility.yul\":17864:17868   */\n      0x24\n        /* \"#utility.yul\":17861:17862   */\n      0x00\n        /* \"#utility.yul\":17854:17869   */\n      revert\n        /* \"#utility.yul\":17881:18201   */\n    tag_136:\n        /* \"#utility.yul\":17925:17931   */\n      0x00\n        /* \"#utility.yul\":17962:17963   */\n      0x02\n        /* \"#utility.yul\":17956:17960   */\n      dup3\n        /* \"#utility.yul\":17952:17964   */\n      div\n        /* \"#utility.yul\":17942:17964   */\n      swap1\n      pop\n        /* \"#utility.yul\":18009:18010   */\n      0x01\n        /* \"#utility.yul\":18003:18007   */\n      dup3\n        /* \"#utility.yul\":17999:18011   */\n      and\n        /* \"#utility.yul\":18030:18048   */\n      dup1\n        /* \"#utility.yul\":18020:18101   */\n      tag_372\n      jumpi\n        /* \"#utility.yul\":18086:18090   */\n      0x7f\n        /* \"#utility.yul\":18078:18084   */\n      dup3\n        /* \"#utility.yul\":18074:18091   */\n      and\n        /* \"#utility.yul\":18064:18091   */\n      swap2\n      pop\n        /* \"#utility.yul\":18020:18101   */\n    tag_372:\n        /* \"#utility.yul\":18148:18150   */\n      0x20\n        /* \"#utility.yul\":18140:18146   */\n      dup3\n        /* \"#utility.yul\":18137:18151   */\n      lt\n        /* \"#utility.yul\":18117:18135   */\n      dup2\n        /* \"#utility.yul\":18114:18152   */\n      sub\n        /* \"#utility.yul\":18111:18195   */\n      tag_373\n      jumpi\n        /* \"#utility.yul\":18167:18185   */\n      tag_374\n      tag_197\n      jump\t// in\n    tag_374:\n        /* \"#utility.yul\":18111:18195   */\n    tag_373:\n        /* \"#utility.yul\":17932:18201   */\n      pop\n        /* \"#utility.yul\":17881:18201   */\n      swap2\n      swap1\n      pop\n      jump\t// out\n        /* \"#utility.yul\":18207:18304   */\n    tag_198:\n        /* \"#utility.yul\":18266:18272   */\n      0x00\n        /* \"#utility.yul\":18294:18297   */\n      dup3\n        /* \"#utility.yul\":18284:18297   */\n      swap1\n      pop\n        /* \"#utility.yul\":18207:18304   */\n      swap3\n      swap2\n      pop\n      pop\n      jump\t// out\n        /* \"#utility.yul\":18310:18490   */\n    tag_199:\n        /* \"#utility.yul\":18358:18435   */\n      0x4e487b7100000000000000000000000000000000000000000000000000000000\n        /* \"#utility.yul\":18355:18356   */\n      0x00\n        /* \"#utility.yul\":18348:18436   */\n      mstore\n        /* \"#utility.yul\":18455:18459   */\n      0x41\n        /* \"#utility.yul\":18452:18453   */\n      0x04\n        /* \"#utility.yul\":18445:18460   */\n      mstore\n        /* \"#utility.yul\":18479:18483   */\n      0x24\n        /* \"#utility.yul\":18476:18477   */\n      0x00\n        /* \"#utility.yul\":18469:18484   */\n      revert\n        /* \"#utility.yul\":18496:18637   */\n    tag_200:\n        /* \"#utility.yul\":18545:18549   */\n      0x00\n        /* \"#utility.yul\":18568:18571   */\n      dup2\n        /* \"#utility.yul\":18560:18571   */\n      swap1\n      pop\n        /* \"#utility.yul\":18591:18594   */\n      dup2\n        /* \"#utility.yul\":18588:18589   */\n      0x00\n        /* \"#utility.yul\":18581:18595   */\n      mstore\n        /* \"#utility.yul\":18625:18629   */\n      0x20\n        /* \"#utility.yul\":18622:18623   */\n      0x00\n        /* \"#utility.yul\":18612:18630   */\n      keccak256\n        /* \"#utility.yul\":18604:18630   */\n      swap1\n      pop\n        /* \"#utility.yul\":18496:18637   */\n      swap2\n      swap1\n      pop\n      jump\t// out\n        /* \"#utility.yul\":18643:18736   */\n    tag_201:\n        /* \"#utility.yul\":18680:18686   */\n      0x00\n        /* \"#utility.yul\":18727:18729   */\n      0x20\n        /* \"#utility.yul\":18722:18724   */\n      0x1f\n        /* \"#utility.yul\":18715:18720   */\n      dup4\n        /* \"#utility.yul\":18711:18725   */\n      add\n        /* \"#utility.yul\":18707:18730   */\n      div\n        /* \"#utility.yul\":18697:18730   */\n      swap1\n      pop\n        /* \"#utility.yul\":18643:18736   */\n      swap2\n      swap1\n      pop\n      jump\t// out\n        /* \"#utility.yul\":18742:18849   */\n    tag_202:\n        /* \"#utility.yul\":18786:18794   */\n      0x00\n        /* \"#utility.yul\":18836:18841   */\n      dup3\n        /* \"#utility.yul\":18830:18834   */\n      dup3\n        /* \"#utility.yul\":18826:18842   */\n      shl\n        /* \"#utility.yul\":18805:18842   */\n      swap1\n      pop\n        /* \"#utility.yul\":18742:18849   */\n      swap3\n      swap2\n      pop\n      pop\n      jump\t// out\n        /* \"#utility.yul\":18855:19248   */\n    tag_203:\n        /* \"#utility.yul\":18924:18930   */\n      0x00\n        /* \"#utility.yul\":18974:18975   */\n      0x08\n        /* \"#utility.yul\":18962:18972   */\n      dup4\n        /* \"#utility.yul\":18958:18976   */\n      mul\n        /* \"#utility.yul\":18997:19094   */\n      tag_381\n        /* \"#utility.yul\":19027:19093   */\n      0xffffffffffffffffffffffffffffffffffffffffffffffffffffffffffffffff\n        /* \"#utility.yul\":19016:19025   */\n      dup3\n        /* \"#utility.yul\":18997:19094   */\n      tag_202\n      jump\t// in\n    tag_381:\n        /* \"#utility.yul\":19115:19154   */\n      tag_382\n        /* \"#utility.yul\":19145:19153   */\n      dup7\n        /* \"#utility.yul\":19134:19143   */\n      dup4\n        /* \"#utility.yul\":19115:19154   */\n      tag_202\n      jump\t// in\n    tag_382:\n        /* \"#utility.yul\":19103:19154   */\n      swap6\n      pop\n        /* \"#utility.yul\":19187:19191   */\n      dup1\n        /* \"#utility.yul\":19183:19192   */\n      not\n        /* \"#utility.yul\":19176:19181   */\n      dup5\n        /* \"#utility.yul\":19172:19193   */\n      and\n        /* \"#utility.yul\":19163:19193   */\n      swap4\n      pop\n        /* \"#utility.yul\":19236:19240   */\n      dup1\n        /* \"#utility.yul\":19226:19234   */\n      dup7\n        /* \"#utility.yul\":19222:19241   */\n      and\n        /* \"#utility.yul\":19215:19220   */\n      dup5\n        /* \"#utility.yul\":19212:19242   */\n      or\n        /* \"#utility.yul\":19202:19242   */\n      swap3\n      pop\n        /* \"#utility.yul\":18931:19248   */\n      pop\n      pop\n        /* \"#utility.yul\":18855:19248   */\n      swap4\n      swap3\n      pop\n      pop\n      pop\n      jump\t// out\n        /* \"#utility.yul\":19254:19314   */\n    tag_204:\n        /* \"#utility.yul\":19282:19285   */\n      0x00\n        /* \"#utility.yul\":19303:19308   */\n      dup2\n        /* \"#utility.yul\":19296:19308   */\n      swap1\n      pop\n        /* \"#utility.yul\":19254:19314   */\n      swap2\n      swap1\n      pop\n      jump\t// out\n        /* \"#utility.yul\":19320:19462   */\n    tag_205:\n        /* \"#utility.yul\":19370:19379   */\n      0x00\n        /* \"#utility.yul\":19403:19456   */\n      tag_385\n        /* \"#utility.yul\":19421:19455   */\n      tag_386\n        /* \"#utility.yul\":19430:19454   */\n      tag_387\n        /* \"#utility.yul\":19448:19453   */\n      dup5\n        /* \"#utility.yul\":19430:19454   */\n      tag_148\n      jump\t// in\n    tag_387:\n        /* \"#utility.yul\":19421:19455   */\n      tag_204\n      jump\t// in\n    tag_386:\n        /* \"#utility.yul\":19403:19456   */\n      tag_148\n      jump\t// in\n    tag_385:\n        /* \"#utility.yul\":19390:19456   */\n      swap1\n      pop\n        /* \"#utility.yul\":19320:19462   */\n      swap2\n      swap1\n      pop\n      jump\t// out\n        /* \"#utility.yul\":19468:19543   */\n    tag_206:\n        /* \"#utility.yul\":19511:19514   */\n      0x00\n        /* \"#utility.yul\":19532:19537   */\n      dup2\n        /* \"#utility.yul\":19525:19537   */\n      swap1\n      pop\n        /* \"#utility.yul\":19468:19543   */\n      swap2\n      swap1\n      pop\n      jump\t// out\n        /* \"#utility.yul\":19549:19818   */\n    tag_207:\n        /* \"#utility.yul\":19659:19698   */\n      tag_390\n        /* \"#utility.yul\":19690:19697   */\n      dup4\n        /* \"#utility.yul\":19659:19698   */\n      tag_205\n      jump\t// in\n    tag_390:\n        /* \"#utility.yul\":19720:19811   */\n      tag_391\n        /* \"#utility.yul\":19769:19810   */\n      tag_392\n        /* \"#utility.yul\":19793:19809   */\n      dup3\n        /* \"#utility.yul\":19769:19810   */\n      tag_206\n      jump\t// in\n    tag_392:\n        /* \"#utility.yul\":19761:19767   */\n      dup5\n        /* \"#utility.yul\":19754:19758   */\n      dup5\n        /* \"#utility.yul\":19748:19759   */\n      sload\n        /* \"#utility.yul\":19720:19811   */\n      tag_203\n      jump\t// in\n    tag_391:\n        /* \"#utility.yul\":19714:19718   */\n      dup3\n        /* \"#utility.yul\":19707:19812   */\n      sstore\n        /* \"#utility.yul\":19625:19818   */\n      pop\n        /* \"#utility.yul\":19549:19818   */\n      pop\n      pop\n      pop\n      jump\t// out\n        /* \"#utility.yul\":19824:19897   */\n    tag_208:\n        /* \"#utility.yul\":19869:19872   */\n      0x00\n        /* \"#utility.yul\":19890:19891   */\n      0x00\n        /* \"#utility.yul\":19883:19891   */\n      swap1\n      pop\n        /* \"#utility.yul\":19824:19897   */\n      swap1\n      jump\t// out\n        /* \"#utility.yul\":19903:20092   */\n    tag_209:\n        /* \"#utility.yul\":19980:20012   */\n      tag_395\n      tag_208\n      jump\t// in\n    tag_395:\n        /* \"#utility.yul\":20021:20086   */\n      tag_396\n        /* \"#utility.yul\":20079:20085   */\n      dup2\n        /* \"#utility.yul\":20071:20077   */\n      dup5\n        /* \"#utility.yul\":20065:20069   */\n      dup5\n        /* \"#utility.yul\":20021:20086   */\n      tag_207\n      jump\t// in\n    tag_396:\n        /* \"#utility.yul\":19956:20092   */\n      pop\n        /* \"#utility.yul\":19903:20092   */\n      pop\n      pop\n      jump\t// out\n        /* \"#utility.yul\":20098:20284   */\n    tag_210:\n        /* \"#utility.yul\":20158:20278   */\n    tag_398:\n        /* \"#utility.yul\":20175:20178   */\n      dup2\n        /* \"#utility.yul\":20168:20173   */\n      dup2\n        /* \"#utility.yul\":20165:20179   */\n      lt\n        /* \"#utility.yul\":20158:20278   */\n      iszero\n      tag_400\n      jumpi\n        /* \"#utility.yul\":20229:20268   */\n      tag_401\n        /* \"#utility.yul\":20266:20267   */\n      0x00\n        /* \"#utility.yul\":20259:20264   */\n      dup3\n        /* \"#utility.yul\":20229:20268   */\n      tag_209\n      jump\t// in\n    tag_401:\n        /* \"#utility.yul\":20202:20203   */\n      0x01\n        /* \"#utility.yul\":20195:20200   */\n      dup2\n        /* \"#utility.yul\":20191:20204   */\n      add\n        /* \"#utility.yul\":20182:20204   */\n      swap1\n      pop\n        /* \"#utility.yul\":20158:20278   */\n      jump(tag_398)\n    tag_400:\n        /* \"#utility.yul\":20098:20284   */\n      pop\n      pop\n      jump\t// out\n        /* \"#utility.yul\":20290:20833   */\n    tag_211:\n        /* \"#utility.yul\":20391:20393   */\n      0x1f\n        /* \"#utility.yul\":20386:20389   */\n      dup3\n        /* \"#utility.yul\":20383:20394   */\n      gt\n        /* \"#utility.yul\":20380:20826   */\n      iszero\n      tag_403\n      jumpi\n        /* \"#utility.yul\":20425:20463   */\n      tag_404\n        /* \"#utility.yul\":20457:20462   */\n      dup2\n        /* \"#utility.yul\":20425:20463   */\n      tag_200\n      jump\t// in\n    tag_404:\n        /* \"#utility.yul\":20509:20538   */\n      tag_405\n        /* \"#utility.yul\":20527:20537   */\n      dup5\n        /* \"#utility.yul\":20509:20538   */\n      tag_201\n      jump\t// in\n    tag_405:\n        /* \"#utility.yul\":20499:20507   */\n      dup2\n        /* \"#utility.yul\":20495:20539   */\n      add\n        /* \"#utility.yul\":20692:20694   */\n      0x20\n        /* \"#utility.yul\":20680:20690   */\n      dup6\n        /* \"#utility.yul\":20677:20695   */\n      lt\n        /* \"#utility.yul\":20674:20723   */\n      iszero\n      tag_406\n      jumpi\n        /* \"#utility.yul\":20713:20721   */\n      dup2\n        /* \"#utility.yul\":20698:20721   */\n      swap1\n      pop\n        /* \"#utility.yul\":20674:20723   */\n    tag_406:\n        /* \"#utility.yul\":20736:20816   */\n      tag_407\n        /* \"#utility.yul\":20792:20814   */\n      tag_408\n        /* \"#utility.yul\":20810:20813   */\n      dup6\n        /* \"#utility.yul\":20792:20814   */\n      tag_201\n      jump\t// in\n    tag_408:\n        /* \"#utility.yul\":20782:20790   */\n      dup4\n        /* \"#utility.yul\":20778:20815   */\n      add\n        /* \"#utility.yul\":20765:20776   */\n      dup3\n        /* \"#utility.yul\":20736:20816   */\n      tag_210\n      jump\t// in\n    tag_407:\n        /* \"#utility.yul\":20395:20826   */\n      pop\n      pop\n        /* \"#utility.yul\":20380:20826   */\n    tag_403:\n        /* \"#utility.yul\":20290:20833   */\n      pop\n      pop\n      pop\n      jump\t// out\n        /* \"#utility.yul\":20839:20956   */\n    tag_212:\n        /* \"#utility.yul\":20893:20901   */\n      0x00\n        /* \"#utility.yul\":20943:20948   */\n      dup3\n        /* \"#utility.yul\":20937:20941   */\n      dup3\n        /* \"#utility.yul\":20933:20949   */\n      shr\n        /* \"#utility.yul\":20912:20949   */\n      swap1\n      pop\n        /* \"#utility.yul\":20839:20956   */\n      swap3\n      swap2\n      pop\n      pop\n      jump\t// out\n        /* \"#utility.yul\":20962:21131   */\n    tag_213:\n        /* \"#utility.yul\":21006:21012   */\n      0x00\n        /* \"#utility.yul\":21039:21090   */\n      tag_411\n        /* \"#utility.yul\":21087:21088   */\n      0x00\n        /* \"#utility.yul\":21083:21089   */\n      not\n        /* \"#utility.yul\":21075:21080   */\n      dup5\n        /* \"#utility.yul\":21072:21073   */\n      0x08\n        /* \"#utility.yul\":21068:21081   */\n      mul\n        /* \"#utility.yul\":21039:21090   */\n      tag_212\n      jump\t// in\n    tag_411:\n        /* \"#utility.yul\":21035:21091   */\n      not\n        /* \"#utility.yul\":21120:21124   */\n      dup1\n        /* \"#utility.yul\":21114:21118   */\n      dup4\n        /* \"#utility.yul\":21110:21125   */\n      and\n        /* \"#utility.yul\":21100:21125   */\n      swap2\n      pop\n        /* \"#utility.yul\":21013:21131   */\n      pop\n        /* \"#utility.yul\":20962:21131   */\n      swap3\n      swap2\n      pop\n      pop\n      jump\t// out\n        /* \"#utility.yul\":21136:21431   */\n    tag_214:\n        /* \"#utility.yul\":21212:21216   */\n      0x00\n        /* \"#utility.yul\":21358:21387   */\n      tag_413\n        /* \"#utility.yul\":21383:21386   */\n      dup4\n        /* \"#utility.yul\":21377:21381   */\n      dup4\n        /* \"#utility.yul\":21358:21387   */\n      tag_213\n      jump\t// in\n    tag_413:\n        /* \"#utility.yul\":21350:21387   */\n      swap2\n      pop\n        /* \"#utility.yul\":21420:21423   */\n      dup3\n        /* \"#utility.yul\":21417:21418   */\n      0x02\n        /* \"#utility.yul\":21413:21424   */\n      mul\n        /* \"#utility.yul\":21407:21411   */\n      dup3\n        /* \"#utility.yul\":21404:21425   */\n      or\n        /* \"#utility.yul\":21396:21425   */\n      swap1\n      pop\n        /* \"#utility.yul\":21136:21431   */\n      swap3\n      swap2\n      pop\n      pop\n      jump\t// out\n        /* \"#utility.yul\":21436:22839   */\n    tag_147:\n        /* \"#utility.yul\":21560:21604   */\n      tag_415\n        /* \"#utility.yul\":21600:21603   */\n      dup4\n        /* \"#utility.yul\":21595:21598   */\n      dup4\n        /* \"#utility.yul\":21560:21604   */\n      tag_198\n      jump\t// in\n    tag_415:\n        /* \"#utility.yul\":21669:21687   */\n      0xffffffffffffffff\n        /* \"#utility.yul\":21661:21667   */\n      dup2\n        /* \"#utility.yul\":21658:21688   */\n      gt\n        /* \"#utility.yul\":21655:21711   */\n      iszero\n      tag_416\n      jumpi\n        /* \"#utility.yul\":21691:21709   */\n      tag_417\n      tag_199\n      jump\t// in\n    tag_417:\n        /* \"#utility.yul\":21655:21711   */\n    tag_416:\n        /* \"#utility.yul\":21735:21773   */\n      tag_418\n        /* \"#utility.yul\":21767:21771   */\n      dup3\n        /* \"#utility.yul\":21761:21772   */\n      sload\n        /* \"#utility.yul\":21735:21773   */\n      tag_136\n      jump\t// in\n    tag_418:\n        /* \"#utility.yul\":21820:21887   */\n      tag_419\n        /* \"#utility.yul\":21880:21886   */\n      dup3\n        /* \"#utility.yul\":21872:21878   */\n      dup3\n        /* \"#utility.yul\":21866:21870   */\n      dup6\n        /* \"#utility.yul\":21820:21887   */\n      tag_211\n      jump\t// in\n    tag_419:\n        /* \"#utility.yul\":21914:21915   */\n      0x00\n        /* \"#utility.yul\":21943:21945   */\n      0x1f\n        /* \"#utility.yul\":21935:21941   */\n      dup4\n        /* \"#utility.yul\":21932:21946   */\n      gt\n        /* \"#utility.yul\":21960:21961   */\n      0x01\n        /* \"#utility.yul\":21955:22587   */\n      dup2\n      eq\n      tag_421\n      jumpi\n        /* \"#utility.yul\":22631:22632   */\n      0x00\n        /* \"#utility.yul\":22648:22654   */\n      dup5\n        /* \"#utility.yul\":22645:22729   */\n      iszero\n      tag_422\n      jumpi\n        /* \"#utility.yul\":22704:22713   */\n      dup3\n        /* \"#utility.yul\":22699:22702   */\n      dup8\n        /* \"#utility.yul\":22695:22714   */\n      add\n        /* \"#utility.yul\":22682:22715   */\n      calldataload\n        /* \"#utility.yul\":22673:22715   */\n      swap1\n      pop\n        /* \"#utility.yul\":22645:22729   */\n    tag_422:\n        /* \"#utility.yul\":22755:22822   */\n      tag_423\n        /* \"#utility.yul\":22815:22821   */\n      dup6\n        /* \"#utility.yul\":22808:22813   */\n      dup3\n        /* \"#utility.yul\":22755:22822   */\n      tag_214\n      jump\t// in\n    tag_423:\n        /* \"#utility.yul\":22749:22753   */\n      dup7\n        /* \"#utility.yul\":22742:22823   */\n      sstore\n        /* \"#utility.yul\":22604:22833   */\n      pop\n        /* \"#utility.yul\":21925:22833   */\n      jump(tag_420)\n        /* \"#utility.yul\":21955:22587   */\n    tag_421:\n        /* \"#utility.yul\":22007:22011   */\n      0x1f\n        /* \"#utility.yul\":22003:22012   */\n      not\n        /* \"#utility.yul\":21995:22001   */\n      dup5\n        /* \"#utility.yul\":21991:22013   */\n      and\n        /* \"#utility.yul\":22041:22078   */\n      tag_424\n        /* \"#utility.yul\":22073:22077   */\n      dup7\n        /* \"#utility.yul\":22041:22078   */\n      tag_200\n      jump\t// in\n    tag_424:\n        /* \"#utility.yul\":22100:22101   */\n      0x00\n        /* \"#utility.yul\":22114:22329   */\n    tag_425:\n        /* \"#utility.yul\":22128:22135   */\n      dup3\n        /* \"#utility.yul\":22125:22126   */\n      dup2\n        /* \"#utility.yul\":22122:22136   */\n      lt\n        /* \"#utility.yul\":22114:22329   */\n      iszero\n      tag_427\n      jumpi\n        /* \"#utility.yul\":22214:22223   */\n      dup5\n        /* \"#utility.yul\":22209:22212   */\n      dup10\n        /* \"#utility.yul\":22205:22224   */\n      add\n        /* \"#utility.yul\":22192:22225   */\n      calldataload\n        /* \"#utility.yul\":22184:22190   */\n      dup3\n        /* \"#utility.yul\":22177:22226   */\n      sstore\n        /* \"#utility.yul\":22265:22266   */\n      0x01\n        /* \"#utility.yul\":22257:22263   */\n      dup3\n        /* \"#utility.yul\":22253:22267   */\n      add\n        /* \"#utility.yul\":22243:22267   */\n      swap2\n      pop\n        /* \"#utility.yul\":22312:22314   */\n      0x20\n        /* \"#utility.yul\":22301:22310   */\n      dup6\n        /* \"#utility.yul\":22297:22315   */\n      add\n        /* \"#utility.yul\":22284:22315   */\n      swap5\n      pop\n        /* \"#utility.yul\":22151:22155   */\n      0x20\n        /* \"#utility.yul\":22148:22149   */\n      dup2\n        /* \"#utility.yul\":22144:22156   */\n      add\n        /* \"#utility.yul\":22139:22156   */\n      swap1\n      pop\n        /* \"#utility.yul\":22114:22329   */\n      jump(tag_425)\n    tag_427:\n        /* \"#utility.yul\":22357:22363   */\n      dup7\n        /* \"#utility.yul\":22348:22355   */\n      dup4\n        /* \"#utility.yul\":22345:22364   */\n      lt\n        /* \"#utility.yul\":22342:22528   */\n      iszero\n      tag_428\n      jumpi\n        /* \"#utility.yul\":22422:22431   */\n      dup5\n        /* \"#utility.yul\":22417:22420   */\n      dup10\n        /* \"#utility.yul\":22413:22432   */\n      add\n        /* \"#utility.yul\":22400:22433   */\n      calldataload\n        /* \"#utility.yul\":22465:22513   */\n      tag_429\n        /* \"#utility.yul\":22507:22511   */\n      0x1f\n        /* \"#utility.yul\":22499:22505   */\n      dup10\n        /* \"#utility.yul\":22495:22512   */\n      and\n        /* \"#utility.yul\":22484:22493   */\n      dup3\n        /* \"#utility.yul\":22465:22513   */\n      tag_213\n      jump\t// in\n    tag_429:\n        /* \"#utility.yul\":22457:22463   */\n      dup4\n        /* \"#utility.yul\":22450:22514   */\n      sstore\n        /* \"#utility.yul\":22365:22528   */\n      pop\n        /* \"#utility.yul\":22342:22528   */\n    tag_428:\n        /* \"#utility.yul\":22574:22575   */\n      0x01\n        /* \"#utility.yul\":22570:22571   */\n      0x02\n        /* \"#utility.yul\":22562:22568   */\n      dup9\n        /* \"#utility.yul\":22558:22572   */\n      mul\n        /* \"#utility.yul\":22554:22576   */\n      add\n        /* \"#utility.yul\":22548:22552   */\n      dup9\n        /* \"#utility.yul\":22541:22577   */\n      sstore\n        /* \"#utility.yul\":21962:22587   */\n      pop\n      pop\n      pop\n        /* \"#utility.yul\":21925:22833   */\n    tag_420:\n      pop\n        /* \"#utility.yul\":21535:22839   */\n      pop\n      pop\n      pop\n        /* \"#utility.yul\":21436:22839   */\n      pop\n      pop\n      pop\n      jump\t// out\n\n    auxdata: 0xa26469706673582212209e274291f4122d899f0fb5a1c649feb55045ef666475b7ab6a9147f6facdd08964736f6c634300081e0033\n}\n",
				"bytecode": {
					"linkReferences": {},
					"object": "608060405234801561000f575f5ffd5b506040516119be3803806119be833981810160405281019061003191906100d0565b816004819055508042610044919061013b565b60038190555060646002819055503360015f6101000a81548173ffffffffffffffffffffffffffffffffffffffff021916908373ffffffffffffffffffffffffffffffffffffffff160217905550505061016e565b5f5ffd5b5f819050919050565b6100af8161009d565b81146100b9575f5ffd5b50565b5f815190506100ca816100a6565b92915050565b5f5f604083850312156100e6576100e5610099565b5b5f6100f3858286016100bc565b9250506020610104858286016100bc565b9150509250929050565b7f4e487b71000000000000000000000000000000000000000000000000000000005f52601160045260245ffd5b5f6101458261009d565b91506101508361009d565b92508282019050808211156101685761016761010e565b5b92915050565b6118438061017b5f395ff3fe6080604052600436106100e7575f3560e01c80636f9fb98a11610089578063937e09b111610058578063937e09b1146102a9578063c59ee1dc146102d3578063cf6a55da146102fd578063d4b8399214610325576100e7565b80636f9fb98a146101ed5780637fecc11a1461021757806381d12c581461023f5780639242db831461027f576100e7565b80634e260f6f116100c55780634e260f6f1461017b57806350520b1f146101a55780635114cb52146101af578063590e1ae3146101d7576100e7565b806329dcb0cf146100eb57806334b6646014610115578063481c6a7514610151575b5f5ffd5b3480156100f6575f5ffd5b506100ff61034f565b60405161010c9190610c8b565b60405180910390f35b348015610120575f5ffd5b5061013b60048036038101906101369190610d06565b610355565b6040516101489190610c8b565b60405180910390f35b34801561015c575f5ffd5b50610165610369565b6040516101729190610d40565b60405180910390f35b348015610186575f5ffd5b5061018f61038e565b60405161019c9190610c8b565b60405180910390f35b6101ad610394565b005b3480156101ba575f5ffd5b506101d560048036038101906101d09190610d83565b6104e4565b005b3480156101e2575f5ffd5b506101eb610703565b005b3480156101f8575f5ffd5b50610201610895565b60405161020e9190610c8b565b60405180910390f35b348015610222575f5ffd5b5061023d60048036038101906102389190610d83565b61089c565b005b34801561024a575f5ffd5b5061026560048036038101906102609190610d83565b610a33565b604051610276959493929190610e58565b60405180910390f35b34801561028a575f5ffd5b50610293610b16565b6040516102a09190610c8b565b60405180910390f35b3480156102b4575f5ffd5b506102bd610b1c565b6040516102ca9190610c8b565b60405180910390f35b3480156102de575f5ffd5b506102e7610b22565b6040516102f49190610c8b565b60405180910390f35b348015610308575f5ffd5b50610323600480360381019061031e9190610f3b565b610b28565b005b348015610330575f5ffd5b50610339610c6d565b6040516103469190610c8b565b60405180910390f35b60035481565b5f602052805f5260405f205f915090505481565b60015f9054906101000a900473ffffffffffffffffffffffffffffffffffffffff1681565b60065481565b60035442106103d8576040517f08c379a00000000000000000000000000000000000000000000000000000000081526004016103cf90610ff6565b60405180910390fd5b60025434101561041d576040517f08c379a000000000000000000000000000000000000000000000000000000000815260040161041490611084565b60405180910390fd5b5f5f5f3373ffffffffffffffffffffffffffffffffffffffff1673ffffffffffffffffffffffffffffffffffffffff1681526020019081526020015f2054036104785760065f815480929190610472906110cf565b91905055505b345f5f3373ffffffffffffffffffffffffffffffffffffffff1673ffffffffffffffffffffffffffffffffffffffff1681526020019081526020015f205f8282546104c39190611116565b925050819055503460055f8282546104db9190611116565b92505081905550565b60015f9054906101000a900473ffffffffffffffffffffffffffffffffffffffff1673ffffffffffffffffffffffffffffffffffffffff163373ffffffffffffffffffffffffffffffffffffffff1614610573576040517f08c379a000000000000000000000000000000000000000000000000000000000815260040161056a906111b9565b60405180910390fd5b60045460055410156105ba576040517f08c379a00000000000000000000000000000000000000000000000000000000081526004016105b190611221565b60405180910390fd5b5f60075f8381526020019081526020015f2090505f1515816003015f9054906101000a900460ff16151514610624576040517f08c379a000000000000000000000000000000000000000000000000000000000815260040161061b90611289565b60405180910390fd5b600260065461063391906112d4565b816004015411610678576040517f08c379a000000000000000000000000000000000000000000000000000000000815260040161066f9061134e565b60405180910390fd5b806001015f9054906101000a900473ffffffffffffffffffffffffffffffffffffffff1673ffffffffffffffffffffffffffffffffffffffff166108fc826002015490811502906040515f60405180830381858888f193505050501580156106e2573d5f5f3e3d5ffd5b506001816003015f6101000a81548160ff0219169083151502179055505050565b600354421180156107175750600454600554105b610756576040517f08c379a000000000000000000000000000000000000000000000000000000000815260040161074d906113b6565b60405180910390fd5b5f5f5f3373ffffffffffffffffffffffffffffffffffffffff1673ffffffffffffffffffffffffffffffffffffffff1681526020019081526020015f2054116107d4576040517f08c379a00000000000000000000000000000000000000000000000000000000081526004016107cb9061141e565b60405180910390fd5b3373ffffffffffffffffffffffffffffffffffffffff166108fc5f5f3373ffffffffffffffffffffffffffffffffffffffff1673ffffffffffffffffffffffffffffffffffffffff1681526020019081526020015f205490811502906040515f60405180830381858888f19350505050158015610853573d5f5f3e3d5ffd5b505f5f5f3373ffffffffffffffffffffffffffffffffffffffff1673ffffffffffffffffffffffffffffffffffffffff1681526020019081526020015f205050565b5f47905090565b5f5f5f3373ffffffffffffffffffffffffffffffffffffffff1673ffffffffffffffffffffffffffffffffffffffff1681526020019081526020015f20541161091a576040517f08c379a000000000000000000000000000000000000000000000000000000000815260040161091190611486565b60405180910390fd5b5f60075f8381526020019081526020015f2090505f1515816005015f3373ffffffffffffffffffffffffffffffffffffffff1673ffffffffffffffffffffffffffffffffffffffff1681526020019081526020015f205f9054906101000a900460ff161515146109bf576040517f08c379a00000000000000000000000000000000000000000000000000000000081526004016109b6906114ee565b60405180910390fd5b6001816005015f3373ffffffffffffffffffffffffffffffffffffffff1673ffffffffffffffffffffffffffffffffffffffff1681526020019081526020015f205f6101000a81548160ff021916908315150217905550806004015f815480929190610a2a906110cf565b91905055505050565b6007602052805f5260405f205f91509050805f018054610a5290611539565b80601f0160208091040260200160405190810160405280929190818152602001828054610a7e90611539565b8015610ac95780601f10610aa057610100808354040283529160200191610ac9565b820191905f5260205f20905b815481529060010190602001808311610aac57829003601f168201915b505050505090806001015f9054906101000a900473ffffffffffffffffffffffffffffffffffffffff1690806002015490806003015f9054906101000a900460ff16908060040154905085565b60085481565b60025481565b60055481565b60015f9054906101000a900473ffffffffffffffffffffffffffffffffffffffff1673ffffffffffffffffffffffffffffffffffffffff163373ffffffffffffffffffffffffffffffffffffffff1614610bb7576040517f08c379a0000000000000000000000000000000000000000000000000000000008152600401610bae906111b9565b60405180910390fd5b5f60075f60085481526020019081526020015f20905060085f815480929190610bdf906110cf565b91905055508484825f019182610bf6929190611740565b5082816001015f6101000a81548173ffffffffffffffffffffffffffffffffffffffff021916908373ffffffffffffffffffffffffffffffffffffffff1602179055508181600201819055505f816003015f6101000a81548160ff0219169083151502179055505f81600401819055505050505050565b60045481565b5f819050919050565b610c8581610c73565b82525050565b5f602082019050610c9e5f830184610c7c565b92915050565b5f5ffd5b5f5ffd5b5f73ffffffffffffffffffffffffffffffffffffffff82169050919050565b5f610cd582610cac565b9050919050565b610ce581610ccb565b8114610cef575f5ffd5b50565b5f81359050610d0081610cdc565b92915050565b5f60208284031215610d1b57610d1a610ca4565b5b5f610d2884828501610cf2565b91505092915050565b610d3a81610ccb565b82525050565b5f602082019050610d535f830184610d31565b92915050565b610d6281610c73565b8114610d6c575f5ffd5b50565b5f81359050610d7d81610d59565b92915050565b5f60208284031215610d9857610d97610ca4565b5b5f610da584828501610d6f565b91505092915050565b5f81519050919050565b5f82825260208201905092915050565b8281835e5f83830152505050565b5f601f19601f8301169050919050565b5f610df082610dae565b610dfa8185610db8565b9350610e0a818560208601610dc8565b610e1381610dd6565b840191505092915050565b5f610e2882610cac565b9050919050565b610e3881610e1e565b82525050565b5f8115159050919050565b610e5281610e3e565b82525050565b5f60a0820190508181035f830152610e708188610de6565b9050610e7f6020830187610e2f565b610e8c6040830186610c7c565b610e996060830185610e49565b610ea66080830184610c7c565b9695505050505050565b5f5ffd5b5f5ffd5b5f5ffd5b5f5f83601f840112610ed157610ed0610eb0565b5b8235905067ffffffffffffffff811115610eee57610eed610eb4565b5b602083019150836001820283011115610f0a57610f09610eb8565b5b9250929050565b610f1a81610e1e565b8114610f24575f5ffd5b50565b5f81359050610f3581610f11565b92915050565b5f5f5f5f60608587031215610f5357610f52610ca4565b5b5f85013567ffffffffffffffff811115610f7057610f6f610ca8565b5b610f7c87828801610ebc565b94509450506020610f8f87828801610f27565b9250506040610fa087828801610d6f565b91505092959194509250565b7f736f72727920596f7520617265206c61746520627564647900000000000000005f82015250565b5f610fe0601883610db8565b9150610feb82610fac565b602082019050919050565b5f6020820190508181035f83015261100d81610fd4565b9050919050565b7f62686169206b75636820617572206261646661206465206268696b682074686f5f8201527f6465206465207261686120686169200000000000000000000000000000000000602082015250565b5f61106e602f83610db8565b915061107982611014565b604082019050919050565b5f6020820190508181035f83015261109b81611062565b9050919050565b7f4e487b71000000000000000000000000000000000000000000000000000000005f52601160045260245ffd5b5f6110d982610c73565b91507fffffffffffffffffffffffffffffffffffffffffffffffffffffffffffffffff820361110b5761110a6110a2565b5b600182019050919050565b5f61112082610c73565b915061112b83610c73565b9250828201905080821115611143576111426110a2565b5b92915050565b7f6f6e6c79206d616e616765722063616e206372656174652061205265717565735f8201527f7400000000000000000000000000000000000000000000000000000000000000602082015250565b5f6111a3602183610db8565b91506111ae82611149565b604082019050919050565b5f6020820190508181035f8301526111d081611197565b9050919050565b7f54617267657420206973206e6f742072656163686564000000000000000000005f82015250565b5f61120b601683610db8565b9150611216826111d7565b602082019050919050565b5f6020820190508181035f830152611238816111ff565b9050919050565b7f6d6f6e657920697320616c726561647920676976656e000000000000000000005f82015250565b5f611273601683610db8565b915061127e8261123f565b602082019050919050565b5f6020820190508181035f8301526112a081611267565b9050919050565b7f4e487b71000000000000000000000000000000000000000000000000000000005f52601260045260245ffd5b5f6112de82610c73565b91506112e983610c73565b9250826112f9576112f86112a7565b5b828204905092915050565b7f796f75206e656564206d6f726520766f746573000000000000000000000000005f82015250565b5f611338601383610db8565b915061134382611304565b602082019050919050565b5f6020820190508181035f8301526113658161132c565b9050919050565b7f796f7520617265206e6f7420656c6967626c6520666f7220726566756e6400005f82015250565b5f6113a0601e83610db8565b91506113ab8261136c565b602082019050919050565b5f6020820190508181035f8301526113cd81611394565b9050919050565b7f796f7520617265206e6f7420656c6c6967626c650000000000000000000000005f82015250565b5f611408601483610db8565b9150611413826113d4565b602082019050919050565b5f6020820190508181035f830152611435816113fc565b9050919050565b7f796f7520617265206e6f7420656c6c6967626c6520746f20766f7465000000005f82015250565b5f611470601c83610db8565b915061147b8261143c565b602082019050919050565b5f6020820190508181035f83015261149d81611464565b9050919050565b7f596f75206861766520616c726561647920766f746564000000000000000000005f82015250565b5f6114d8601683610db8565b91506114e3826114a4565b602082019050919050565b5f6020820190508181035f830152611505816114cc565b9050919050565b7f4e487b71000000000000000000000000000000000000000000000000000000005f52602260045260245ffd5b5f600282049050600182168061155057607f821691505b6020821081036115635761156261150c565b5b50919050565b5f82905092915050565b7f4e487b71000000000000000000000000000000000000000000000000000000005f52604160045260245ffd5b5f819050815f5260205f209050919050565b5f6020601f8301049050919050565b5f82821b905092915050565b5f600883026115fc7fffffffffffffffffffffffffffffffffffffffffffffffffffffffffffffffff826115c1565b61160686836115c1565b95508019841693508086168417925050509392505050565b5f819050919050565b5f61164161163c61163784610c73565b61161e565b610c73565b9050919050565b5f819050919050565b61165a83611627565b61166e61166682611648565b8484546115cd565b825550505050565b5f5f905090565b611685611676565b611690818484611651565b505050565b5b818110156116b3576116a85f8261167d565b600181019050611696565b5050565b601f8211156116f8576116c9816115a0565b6116d2846115b2565b810160208510156116e1578190505b6116f56116ed856115b2565b830182611695565b50505b505050565b5f82821c905092915050565b5f6117185f19846008026116fd565b1980831691505092915050565b5f6117308383611709565b9150826002028217905092915050565b61174a8383611569565b67ffffffffffffffff81111561176357611762611573565b5b61176d8254611539565b6117788282856116b7565b5f601f8311600181146117a5575f8415611793578287013590505b61179d8582611725565b865550611804565b601f1984166117b3866115a0565b5f5b828110156117da578489013582556001820191506020850194506020810190506117b5565b868310156117f757848901356117f3601f891682611709565b8355505b6001600288020188555050505b5050505050505056fea26469706673582212209e274291f4122d899f0fb5a1c649feb55045ef666475b7ab6a9147f6facdd08964736f6c634300081e0033",
					"opcodes": "PUSH1 0x80 PUSH1 0x40 MSTORE CALLVALUE DUP1 ISZERO PUSH2 0xF JUMPI PUSH0 PUSH0 REVERT JUMPDEST POP PUSH1 0x40 MLOAD PUSH2 0x19BE CODESIZE SUB DUP1 PUSH2 0x19BE DUP4 CODECOPY DUP2 DUP2 ADD PUSH1 0x40 MSTORE DUP2 ADD SWAP1 PUSH2 0x31 SWAP2 SWAP1 PUSH2 0xD0 JUMP JUMPDEST DUP2 PUSH1 0x4 DUP2 SWAP1 SSTORE POP DUP1 TIMESTAMP PUSH2 0x44 SWAP2 SWAP1 PUSH2 0x13B JUMP JUMPDEST PUSH1 0x3 DUP2 SWAP1 SSTORE POP PUSH1 0x64 PUSH1 0x2 DUP2 SWAP1 SSTORE POP CALLER PUSH1 0x1 PUSH0 PUSH2 0x100 EXP DUP2 SLOAD DUP2 PUSH20 0xFFFFFFFFFFFFFFFFFFFFFFFFFFFFFFFFFFFFFFFF MUL NOT AND SWAP1 DUP4 PUSH20 0xFFFFFFFFFFFFFFFFFFFFFFFFFFFFFFFFFFFFFFFF AND MUL OR SWAP1 SSTORE POP POP POP PUSH2 0x16E JUMP JUMPDEST PUSH0 PUSH0 REVERT JUMPDEST PUSH0 DUP2 SWAP1 POP SWAP2 SWAP1 POP JUMP JUMPDEST PUSH2 0xAF DUP2 PUSH2 0x9D JUMP JUMPDEST DUP2 EQ PUSH2 0xB9 JUMPI PUSH0 PUSH0 REVERT JUMPDEST POP JUMP JUMPDEST PUSH0 DUP2 MLOAD SWAP1 POP PUSH2 0xCA DUP2 PUSH2 0xA6 JUMP JUMPDEST SWAP3 SWAP2 POP POP JUMP JUMPDEST PUSH0 PUSH0 PUSH1 0x40 DUP4 DUP6 SUB SLT ISZERO PUSH2 0xE6 JUMPI PUSH2 0xE5 PUSH2 0x99 JUMP JUMPDEST JUMPDEST PUSH0 PUSH2 0xF3 DUP6 DUP3 DUP7 ADD PUSH2 0xBC JUMP JUMPDEST SWAP3 POP POP PUSH1 0x20 PUSH2 0x104 DUP6 DUP3 DUP7 ADD PUSH2 0xBC JUMP JUMPDEST SWAP2 POP POP SWAP3 POP SWAP3 SWAP1 POP JUMP JUMPDEST PUSH32 0x4E487B7100000000000000000000000000000000000000000000000000000000 PUSH0 MSTORE PUSH1 0x11 PUSH1 0x4 MSTORE PUSH1 0x24 PUSH0 REVERT JUMPDEST PUSH0 PUSH2 0x145 DUP3 PUSH2 0x9D JUMP JUMPDEST SWAP2 POP PUSH2 0x150 DUP4 PUSH2 0x9D JUMP JUMPDEST SWAP3 POP DUP3 DUP3 ADD SWAP1 POP DUP1 DUP3 GT ISZERO PUSH2 0x168 JUMPI PUSH2 0x167 PUSH2 0x10E JUMP JUMPDEST JUMPDEST SWAP3 SWAP2 POP POP JUMP JUMPDEST PUSH2 0x1843 DUP1 PUSH2 0x17B PUSH0 CODECOPY PUSH0 RETURN INVALID PUSH1 0x80 PUSH1 0x40 MSTORE PUSH1 0x4 CALLDATASIZE LT PUSH2 0xE7 JUMPI PUSH0 CALLDATALOAD PUSH1 0xE0 SHR DUP1 PUSH4 0x6F9FB98A GT PUSH2 0x89 JUMPI DUP1 PUSH4 0x937E09B1 GT PUSH2 0x58 JUMPI DUP1 PUSH4 0x937E09B1 EQ PUSH2 0x2A9 JUMPI DUP1 PUSH4 0xC59EE1DC EQ PUSH2 0x2D3 JUMPI DUP1 PUSH4 0xCF6A55DA EQ PUSH2 0x2FD JUMPI DUP1 PUSH4 0xD4B83992 EQ PUSH2 0x325 JUMPI PUSH2 0xE7 JUMP JUMPDEST DUP1 PUSH4 0x6F9FB98A EQ PUSH2 0x1ED JUMPI DUP1 PUSH4 0x7FECC11A EQ PUSH2 0x217 JUMPI DUP1 PUSH4 0x81D12C58 EQ PUSH2 0x23F JUMPI DUP1 PUSH4 0x9242DB83 EQ PUSH2 0x27F JUMPI PUSH2 0xE7 JUMP JUMPDEST DUP1 PUSH4 0x4E260F6F GT PUSH2 0xC5 JUMPI DUP1 PUSH4 0x4E260F6F EQ PUSH2 0x17B JUMPI DUP1 PUSH4 0x50520B1F EQ PUSH2 0x1A5 JUMPI DUP1 PUSH4 0x5114CB52 EQ PUSH2 0x1AF JUMPI DUP1 PUSH4 0x590E1AE3 EQ PUSH2 0x1D7 JUMPI PUSH2 0xE7 JUMP JUMPDEST DUP1 PUSH4 0x29DCB0CF EQ PUSH2 0xEB JUMPI DUP1 PUSH4 0x34B66460 EQ PUSH2 0x115 JUMPI DUP1 PUSH4 0x481C6A75 EQ PUSH2 0x151 JUMPI JUMPDEST PUSH0 PUSH0 REVERT JUMPDEST CALLVALUE DUP1 ISZERO PUSH2 0xF6 JUMPI PUSH0 PUSH0 REVERT JUMPDEST POP PUSH2 0xFF PUSH2 0x34F JUMP JUMPDEST PUSH1 0x40 MLOAD PUSH2 0x10C SWAP2 SWAP1 PUSH2 0xC8B JUMP JUMPDEST PUSH1 0x40 MLOAD DUP1 SWAP2 SUB SWAP1 RETURN JUMPDEST CALLVALUE DUP1 ISZERO PUSH2 0x120 JUMPI PUSH0 PUSH0 REVERT JUMPDEST POP PUSH2 0x13B PUSH1 0x4 DUP1 CALLDATASIZE SUB DUP2 ADD SWAP1 PUSH2 0x136 SWAP2 SWAP1 PUSH2 0xD06 JUMP JUMPDEST PUSH2 0x355 JUMP JUMPDEST PUSH1 0x40 MLOAD PUSH2 0x148 SWAP2 SWAP1 PUSH2 0xC8B JUMP JUMPDEST PUSH1 0x40 MLOAD DUP1 SWAP2 SUB SWAP1 RETURN JUMPDEST CALLVALUE DUP1 ISZERO PUSH2 0x15C JUMPI PUSH0 PUSH0 REVERT JUMPDEST POP PUSH2 0x165 PUSH2 0x369 JUMP JUMPDEST PUSH1 0x40 MLOAD PUSH2 0x172 SWAP2 SWAP1 PUSH2 0xD40 JUMP JUMPDEST PUSH1 0x40 MLOAD DUP1 SWAP2 SUB SWAP1 RETURN JUMPDEST CALLVALUE DUP1 ISZERO PUSH2 0x186 JUMPI PUSH0 PUSH0 REVERT JUMPDEST POP PUSH2 0x18F PUSH2 0x38E JUMP JUMPDEST PUSH1 0x40 MLOAD PUSH2 0x19C SWAP2 SWAP1 PUSH2 0xC8B JUMP JUMPDEST PUSH1 0x40 MLOAD DUP1 SWAP2 SUB SWAP1 RETURN JUMPDEST PUSH2 0x1AD PUSH2 0x394 JUMP JUMPDEST STOP JUMPDEST CALLVALUE DUP1 ISZERO PUSH2 0x1BA JUMPI PUSH0 PUSH0 REVERT JUMPDEST POP PUSH2 0x1D5 PUSH1 0x4 DUP1 CALLDATASIZE SUB DUP2 ADD SWAP1 PUSH2 0x1D0 SWAP2 SWAP1 PUSH2 0xD83 JUMP JUMPDEST PUSH2 0x4E4 JUMP JUMPDEST STOP JUMPDEST CALLVALUE DUP1 ISZERO PUSH2 0x1E2 JUMPI PUSH0 PUSH0 REVERT JUMPDEST POP PUSH2 0x1EB PUSH2 0x703 JUMP JUMPDEST STOP JUMPDEST CALLVALUE DUP1 ISZERO PUSH2 0x1F8 JUMPI PUSH0 PUSH0 REVERT JUMPDEST POP PUSH2 0x201 PUSH2 0x895 JUMP JUMPDEST PUSH1 0x40 MLOAD PUSH2 0x20E SWAP2 SWAP1 PUSH2 0xC8B JUMP JUMPDEST PUSH1 0x40 MLOAD DUP1 SWAP2 SUB SWAP1 RETURN JUMPDEST CALLVALUE DUP1 ISZERO PUSH2 0x222 JUMPI PUSH0 PUSH0 REVERT JUMPDEST POP PUSH2 0x23D PUSH1 0x4 DUP1 CALLDATASIZE SUB DUP2 ADD SWAP1 PUSH2 0x238 SWAP2 SWAP1 PUSH2 0xD83 JUMP JUMPDEST PUSH2 0x89C JUMP JUMPDEST STOP JUMPDEST CALLVALUE DUP1 ISZERO PUSH2 0x24A JUMPI PUSH0 PUSH0 REVERT JUMPDEST POP PUSH2 0x265 PUSH1 0x4 DUP1 CALLDATASIZE SUB DUP2 ADD SWAP1 PUSH2 0x260 SWAP2 SWAP1 PUSH2 0xD83 JUMP JUMPDEST PUSH2 0xA33 JUMP JUMPDEST PUSH1 0x40 MLOAD PUSH2 0x276 SWAP6 SWAP5 SWAP4 SWAP3 SWAP2 SWAP1 PUSH2 0xE58 JUMP JUMPDEST PUSH1 0x40 MLOAD DUP1 SWAP2 SUB SWAP1 RETURN JUMPDEST CALLVALUE DUP1 ISZERO PUSH2 0x28A JUMPI PUSH0 PUSH0 REVERT JUMPDEST POP PUSH2 0x293 PUSH2 0xB16 JUMP JUMPDEST PUSH1 0x40 MLOAD PUSH2 0x2A0 SWAP2 SWAP1 PUSH2 0xC8B JUMP JUMPDEST PUSH1 0x40 MLOAD DUP1 SWAP2 SUB SWAP1 RETURN JUMPDEST CALLVALUE DUP1 ISZERO PUSH2 0x2B4 JUMPI PUSH0 PUSH0 REVERT JUMPDEST POP PUSH2 0x2BD PUSH2 0xB1C JUMP JUMPDEST PUSH1 0x40 MLOAD PUSH2 0x2CA SWAP2 SWAP1 PUSH2 0xC8B JUMP JUMPDEST PUSH1 0x40 MLOAD DUP1 SWAP2 SUB SWAP1 RETURN JUMPDEST CALLVALUE DUP1 ISZERO PUSH2 0x2DE JUMPI PUSH0 PUSH0 REVERT JUMPDEST POP PUSH2 0x2E7 PUSH2 0xB22 JUMP JUMPDEST PUSH1 0x40 MLOAD PUSH2 0x2F4 SWAP2 SWAP1 PUSH2 0xC8B JUMP JUMPDEST PUSH1 0x40 MLOAD DUP1 SWAP2 SUB SWAP1 RETURN JUMPDEST CALLVALUE DUP1 ISZERO PUSH2 0x308 JUMPI PUSH0 PUSH0 REVERT JUMPDEST POP PUSH2 0x323 PUSH1 0x4 DUP1 CALLDATASIZE SUB DUP2 ADD SWAP1 PUSH2 0x31E SWAP2 SWAP1 PUSH2 0xF3B JUMP JUMPDEST PUSH2 0xB28 JUMP JUMPDEST STOP JUMPDEST CALLVALUE DUP1 ISZERO PUSH2 0x330 JUMPI PUSH0 PUSH0 REVERT JUMPDEST POP PUSH2 0x339 PUSH2 0xC6D JUMP JUMPDEST PUSH1 0x40 MLOAD PUSH2 0x346 SWAP2 SWAP1 PUSH2 0xC8B JUMP JUMPDEST PUSH1 0x40 MLOAD DUP1 SWAP2 SUB SWAP1 RETURN JUMPDEST PUSH1 0x3 SLOAD DUP2 JUMP JUMPDEST PUSH0 PUSH1 0x20 MSTORE DUP1 PUSH0 MSTORE PUSH1 0x40 PUSH0 KECCAK256 PUSH0 SWAP2 POP SWAP1 POP SLOAD DUP2 JUMP JUMPDEST PUSH1 0x1 PUSH0 SWAP1 SLOAD SWAP1 PUSH2 0x100 EXP SWAP1 DIV PUSH20 0xFFFFFFFFFFFFFFFFFFFFFFFFFFFFFFFFFFFFFFFF AND DUP2 JUMP JUMPDEST PUSH1 0x6 SLOAD DUP2 JUMP JUMPDEST PUSH1 0x3 SLOAD TIMESTAMP LT PUSH2 0x3D8 JUMPI PUSH1 0x40 MLOAD PUSH32 0x8C379A000000000000000000000000000000000000000000000000000000000 DUP2 MSTORE PUSH1 0x4 ADD PUSH2 0x3CF SWAP1 PUSH2 0xFF6 JUMP JUMPDEST PUSH1 0x40 MLOAD DUP1 SWAP2 SUB SWAP1 REVERT JUMPDEST PUSH1 0x2 SLOAD CALLVALUE LT ISZERO PUSH2 0x41D JUMPI PUSH1 0x40 MLOAD PUSH32 0x8C379A000000000000000000000000000000000000000000000000000000000 DUP2 MSTORE PUSH1 0x4 ADD PUSH2 0x414 SWAP1 PUSH2 0x1084 JUMP JUMPDEST PUSH1 0x40 MLOAD DUP1 SWAP2 SUB SWAP1 REVERT JUMPDEST PUSH0 PUSH0 PUSH0 CALLER PUSH20 0xFFFFFFFFFFFFFFFFFFFFFFFFFFFFFFFFFFFFFFFF AND PUSH20 0xFFFFFFFFFFFFFFFFFFFFFFFFFFFFFFFFFFFFFFFF AND DUP2 MSTORE PUSH1 0x20 ADD SWAP1 DUP2 MSTORE PUSH1 0x20 ADD PUSH0 KECCAK256 SLOAD SUB PUSH2 0x478 JUMPI PUSH1 0x6 PUSH0 DUP2 SLOAD DUP1 SWAP3 SWAP2 SWAP1 PUSH2 0x472 SWAP1 PUSH2 0x10CF JUMP JUMPDEST SWAP2 SWAP1 POP SSTORE POP JUMPDEST CALLVALUE PUSH0 PUSH0 CALLER PUSH20 0xFFFFFFFFFFFFFFFFFFFFFFFFFFFFFFFFFFFFFFFF AND PUSH20 0xFFFFFFFFFFFFFFFFFFFFFFFFFFFFFFFFFFFFFFFF AND DUP2 MSTORE PUSH1 0x20 ADD SWAP1 DUP2 MSTORE PUSH1 0x20 ADD PUSH0 KECCAK256 PUSH0 DUP3 DUP3 SLOAD PUSH2 0x4C3 SWAP2 SWAP1 PUSH2 0x1116 JUMP JUMPDEST SWAP3 POP POP DUP2 SWAP1 SSTORE POP CALLVALUE PUSH1 0x5 PUSH0 DUP3 DUP3 SLOAD PUSH2 0x4DB SWAP2 SWAP1 PUSH2 0x1116 JUMP JUMPDEST SWAP3 POP POP DUP2 SWAP1 SSTORE POP JUMP JUMPDEST PUSH1 0x1 PUSH0 SWAP1 SLOAD SWAP1 PUSH2 0x100 EXP SWAP1 DIV PUSH20 0xFFFFFFFFFFFFFFFFFFFFFFFFFFFFFFFFFFFFFFFF AND PUSH20 0xFFFFFFFFFFFFFFFFFFFFFFFFFFFFFFFFFFFFFFFF AND CALLER PUSH20 0xFFFFFFFFFFFFFFFFFFFFFFFFFFFFFFFFFFFFFFFF AND EQ PUSH2 0x573 JUMPI PUSH1 0x40 MLOAD PUSH32 0x8C379A000000000000000000000000000000000000000000000000000000000 DUP2 MSTORE PUSH1 0x4 ADD PUSH2 0x56A SWAP1 PUSH2 0x11B9 JUMP JUMPDEST PUSH1 0x40 MLOAD DUP1 SWAP2 SUB SWAP1 REVERT JUMPDEST PUSH1 0x4 SLOAD PUSH1 0x5 SLOAD LT ISZERO PUSH2 0x5BA JUMPI PUSH1 0x40 MLOAD PUSH32 0x8C379A000000000000000000000000000000000000000000000000000000000 DUP2 MSTORE PUSH1 0x4 ADD PUSH2 0x5B1 SWAP1 PUSH2 0x1221 JUMP JUMPDEST PUSH1 0x40 MLOAD DUP1 SWAP2 SUB SWAP1 REVERT JUMPDEST PUSH0 PUSH1 0x7 PUSH0 DUP4 DUP2 MSTORE PUSH1 0x20 ADD SWAP1 DUP2 MSTORE PUSH1 0x20 ADD PUSH0 KECCAK256 SWAP1 POP PUSH0 ISZERO ISZERO DUP2 PUSH1 0x3 ADD PUSH0 SWAP1 SLOAD SWAP1 PUSH2 0x100 EXP SWAP1 DIV PUSH1 0xFF AND ISZERO ISZERO EQ PUSH2 0x624 JUMPI PUSH1 0x40 MLOAD PUSH32 0x8C379A000000000000000000000000000000000000000000000000000000000 DUP2 MSTORE PUSH1 0x4 ADD PUSH2 0x61B SWAP1 PUSH2 0x1289 JUMP JUMPDEST PUSH1 0x40 MLOAD DUP1 SWAP2 SUB SWAP1 REVERT JUMPDEST PUSH1 0x2 PUSH1 0x6 SLOAD PUSH2 0x633 SWAP2 SWAP1 PUSH2 0x12D4 JUMP JUMPDEST DUP2 PUSH1 0x4 ADD SLOAD GT PUSH2 0x678 JUMPI PUSH1 0x40 MLOAD PUSH32 0x8C379A000000000000000000000000000000000000000000000000000000000 DUP2 MSTORE PUSH1 0x4 ADD PUSH2 0x66F SWAP1 PUSH2 0x134E JUMP JUMPDEST PUSH1 0x40 MLOAD DUP1 SWAP2 SUB SWAP1 REVERT JUMPDEST DUP1 PUSH1 0x1 ADD PUSH0 SWAP1 SLOAD SWAP1 PUSH2 0x100 EXP SWAP1 DIV PUSH20 0xFFFFFFFFFFFFFFFFFFFFFFFFFFFFFFFFFFFFFFFF AND PUSH20 0xFFFFFFFFFFFFFFFFFFFFFFFFFFFFFFFFFFFFFFFF AND PUSH2 0x8FC DUP3 PUSH1 0x2 ADD SLOAD SWAP1 DUP2 ISZERO MUL SWAP1 PUSH1 0x40 MLOAD PUSH0 PUSH1 0x40 MLOAD DUP1 DUP4 SUB DUP2 DUP6 DUP9 DUP9 CALL SWAP4 POP POP POP POP ISZERO DUP1 ISZERO PUSH2 0x6E2 JUMPI RETURNDATASIZE PUSH0 PUSH0 RETURNDATACOPY RETURNDATASIZE PUSH0 REVERT JUMPDEST POP PUSH1 0x1 DUP2 PUSH1 0x3 ADD PUSH0 PUSH2 0x100 EXP DUP2 SLOAD DUP2 PUSH1 0xFF MUL NOT AND SWAP1 DUP4 ISZERO ISZERO MUL OR SWAP1 SSTORE POP POP POP JUMP JUMPDEST PUSH1 0x3 SLOAD TIMESTAMP GT DUP1 ISZERO PUSH2 0x717 JUMPI POP PUSH1 0x4 SLOAD PUSH1 0x5 SLOAD LT JUMPDEST PUSH2 0x756 JUMPI PUSH1 0x40 MLOAD PUSH32 0x8C379A000000000000000000000000000000000000000000000000000000000 DUP2 MSTORE PUSH1 0x4 ADD PUSH2 0x74D SWAP1 PUSH2 0x13B6 JUMP JUMPDEST PUSH1 0x40 MLOAD DUP1 SWAP2 SUB SWAP1 REVERT JUMPDEST PUSH0 PUSH0 PUSH0 CALLER PUSH20 0xFFFFFFFFFFFFFFFFFFFFFFFFFFFFFFFFFFFFFFFF AND PUSH20 0xFFFFFFFFFFFFFFFFFFFFFFFFFFFFFFFFFFFFFFFF AND DUP2 MSTORE PUSH1 0x20 ADD SWAP1 DUP2 MSTORE PUSH1 0x20 ADD PUSH0 KECCAK256 SLOAD GT PUSH2 0x7D4 JUMPI PUSH1 0x40 MLOAD PUSH32 0x8C379A000000000000000000000000000000000000000000000000000000000 DUP2 MSTORE PUSH1 0x4 ADD PUSH2 0x7CB SWAP1 PUSH2 0x141E JUMP JUMPDEST PUSH1 0x40 MLOAD DUP1 SWAP2 SUB SWAP1 REVERT JUMPDEST CALLER PUSH20 0xFFFFFFFFFFFFFFFFFFFFFFFFFFFFFFFFFFFFFFFF AND PUSH2 0x8FC PUSH0 PUSH0 CALLER PUSH20 0xFFFFFFFFFFFFFFFFFFFFFFFFFFFFFFFFFFFFFFFF AND PUSH20 0xFFFFFFFFFFFFFFFFFFFFFFFFFFFFFFFFFFFFFFFF AND DUP2 MSTORE PUSH1 0x20 ADD SWAP1 DUP2 MSTORE PUSH1 0x20 ADD PUSH0 KECCAK256 SLOAD SWAP1 DUP2 ISZERO MUL SWAP1 PUSH1 0x40 MLOAD PUSH0 PUSH1 0x40 MLOAD DUP1 DUP4 SUB DUP2 DUP6 DUP9 DUP9 CALL SWAP4 POP POP POP POP ISZERO DUP1 ISZERO PUSH2 0x853 JUMPI RETURNDATASIZE PUSH0 PUSH0 RETURNDATACOPY RETURNDATASIZE PUSH0 REVERT JUMPDEST POP PUSH0 PUSH0 PUSH0 CALLER PUSH20 0xFFFFFFFFFFFFFFFFFFFFFFFFFFFFFFFFFFFFFFFF AND PUSH20 0xFFFFFFFFFFFFFFFFFFFFFFFFFFFFFFFFFFFFFFFF AND DUP2 MSTORE PUSH1 0x20 ADD SWAP1 DUP2 MSTORE PUSH1 0x20 ADD PUSH0 KECCAK256 POP POP JUMP JUMPDEST PUSH0 SELFBALANCE SWAP1 POP SWAP1 JUMP JUMPDEST PUSH0 PUSH0 PUSH0 CALLER PUSH20 0xFFFFFFFFFFFFFFFFFFFFFFFFFFFFFFFFFFFFFFFF AND PUSH20 0xFFFFFFFFFFFFFFFFFFFFFFFFFFFFFFFFFFFFFFFF AND DUP2 MSTORE PUSH1 0x20 ADD SWAP1 DUP2 MSTORE PUSH1 0x20 ADD PUSH0 KECCAK256 SLOAD GT PUSH2 0x91A JUMPI PUSH1 0x40 MLOAD PUSH32 0x8C379A000000000000000000000000000000000000000000000000000000000 DUP2 MSTORE PUSH1 0x4 ADD PUSH2 0x911 SWAP1 PUSH2 0x1486 JUMP JUMPDEST PUSH1 0x40 MLOAD DUP1 SWAP2 SUB SWAP1 REVERT JUMPDEST PUSH0 PUSH1 0x7 PUSH0 DUP4 DUP2 MSTORE PUSH1 0x20 ADD SWAP1 DUP2 MSTORE PUSH1 0x20 ADD PUSH0 KECCAK256 SWAP1 POP PUSH0 ISZERO ISZERO DUP2 PUSH1 0x5 ADD PUSH0 CALLER PUSH20 0xFFFFFFFFFFFFFFFFFFFFFFFFFFFFFFFFFFFFFFFF AND PUSH20 0xFFFFFFFFFFFFFFFFFFFFFFFFFFFFFFFFFFFFFFFF AND DUP2 MSTORE PUSH1 0x20 ADD SWAP1 DUP2 MSTORE PUSH1 0x20 ADD PUSH0 KECCAK256 PUSH0 SWAP1 SLOAD SWAP1 PUSH2 0x100 EXP SWAP1 DIV PUSH1 0xFF AND ISZERO ISZERO EQ PUSH2 0x9BF JUMPI PUSH1 0x40 MLOAD PUSH32 0x8C379A000000000000000000000000000000000000000000000000000000000 DUP2 MSTORE PUSH1 0x4 ADD PUSH2 0x9B6 SWAP1 PUSH2 0x14EE JUMP JUMPDEST PUSH1 0x40 MLOAD DUP1 SWAP2 SUB SWAP1 REVERT JUMPDEST PUSH1 0x1 DUP2 PUSH1 0x5 ADD PUSH0 CALLER PUSH20 0xFFFFFFFFFFFFFFFFFFFFFFFFFFFFFFFFFFFFFFFF AND PUSH20 0xFFFFFFFFFFFFFFFFFFFFFFFFFFFFFFFFFFFFFFFF AND DUP2 MSTORE PUSH1 0x20 ADD SWAP1 DUP2 MSTORE PUSH1 0x20 ADD PUSH0 KECCAK256 PUSH0 PUSH2 0x100 EXP DUP2 SLOAD DUP2 PUSH1 0xFF MUL NOT AND SWAP1 DUP4 ISZERO ISZERO MUL OR SWAP1 SSTORE POP DUP1 PUSH1 0x4 ADD PUSH0 DUP2 SLOAD DUP1 SWAP3 SWAP2 SWAP1 PUSH2 0xA2A SWAP1 PUSH2 0x10CF JUMP JUMPDEST SWAP2 SWAP1 POP SSTORE POP POP POP JUMP JUMPDEST PUSH1 0x7 PUSH1 0x20 MSTORE DUP1 PUSH0 MSTORE PUSH1 0x40 PUSH0 KECCAK256 PUSH0 SWAP2 POP SWAP1 POP DUP1 PUSH0 ADD DUP1 SLOAD PUSH2 0xA52 SWAP1 PUSH2 0x1539 JUMP JUMPDEST DUP1 PUSH1 0x1F ADD PUSH1 0x20 DUP1 SWAP2 DIV MUL PUSH1 0x20 ADD PUSH1 0x40 MLOAD SWAP1 DUP2 ADD PUSH1 0x40 MSTORE DUP1 SWAP3 SWAP2 SWAP1 DUP2 DUP2 MSTORE PUSH1 0x20 ADD DUP3 DUP1 SLOAD PUSH2 0xA7E SWAP1 PUSH2 0x1539 JUMP JUMPDEST DUP1 ISZERO PUSH2 0xAC9 JUMPI DUP1 PUSH1 0x1F LT PUSH2 0xAA0 JUMPI PUSH2 0x100 DUP1 DUP4 SLOAD DIV MUL DUP4 MSTORE SWAP2 PUSH1 0x20 ADD SWAP2 PUSH2 0xAC9 JUMP JUMPDEST DUP3 ADD SWAP2 SWAP1 PUSH0 MSTORE PUSH1 0x20 PUSH0 KECCAK256 SWAP1 JUMPDEST DUP2 SLOAD DUP2 MSTORE SWAP1 PUSH1 0x1 ADD SWAP1 PUSH1 0x20 ADD DUP1 DUP4 GT PUSH2 0xAAC JUMPI DUP3 SWAP1 SUB PUSH1 0x1F AND DUP3 ADD SWAP2 JUMPDEST POP POP POP POP POP SWAP1 DUP1 PUSH1 0x1 ADD PUSH0 SWAP1 SLOAD SWAP1 PUSH2 0x100 EXP SWAP1 DIV PUSH20 0xFFFFFFFFFFFFFFFFFFFFFFFFFFFFFFFFFFFFFFFF AND SWAP1 DUP1 PUSH1 0x2 ADD SLOAD SWAP1 DUP1 PUSH1 0x3 ADD PUSH0 SWAP1 SLOAD SWAP1 PUSH2 0x100 EXP SWAP1 DIV PUSH1 0xFF AND SWAP1 DUP1 PUSH1 0x4 ADD SLOAD SWAP1 POP DUP6 JUMP JUMPDEST PUSH1 0x8 SLOAD DUP2 JUMP JUMPDEST PUSH1 0x2 SLOAD DUP2 JUMP JUMPDEST PUSH1 0x5 SLOAD DUP2 JUMP JUMPDEST PUSH1 0x1 PUSH0 SWAP1 SLOAD SWAP1 PUSH2 0x100 EXP SWAP1 DIV PUSH20 0xFFFFFFFFFFFFFFFFFFFFFFFFFFFFFFFFFFFFFFFF AND PUSH20 0xFFFFFFFFFFFFFFFFFFFFFFFFFFFFFFFFFFFFFFFF AND CALLER PUSH20 0xFFFFFFFFFFFFFFFFFFFFFFFFFFFFFFFFFFFFFFFF AND EQ PUSH2 0xBB7 JUMPI PUSH1 0x40 MLOAD PUSH32 0x8C379A000000000000000000000000000000000000000000000000000000000 DUP2 MSTORE PUSH1 0x4 ADD PUSH2 0xBAE SWAP1 PUSH2 0x11B9 JUMP JUMPDEST PUSH1 0x40 MLOAD DUP1 SWAP2 SUB SWAP1 REVERT JUMPDEST PUSH0 PUSH1 0x7 PUSH0 PUSH1 0x8 SLOAD DUP2 MSTORE PUSH1 0x20 ADD SWAP1 DUP2 MSTORE PUSH1 0x20 ADD PUSH0 KECCAK256 SWAP1 POP PUSH1 0x8 PUSH0 DUP2 SLOAD DUP1 SWAP3 SWAP2 SWAP1 PUSH2 0xBDF SWAP1 PUSH2 0x10CF JUMP JUMPDEST SWAP2 SWAP1 POP SSTORE POP DUP5 DUP5 DUP3 PUSH0 ADD SWAP2 DUP3 PUSH2 0xBF6 SWAP3 SWAP2 SWAP1 PUSH2 0x1740 JUMP JUMPDEST POP DUP3 DUP2 PUSH1 0x1 ADD PUSH0 PUSH2 0x100 EXP DUP2 SLOAD DUP2 PUSH20 0xFFFFFFFFFFFFFFFFFFFFFFFFFFFFFFFFFFFFFFFF MUL NOT AND SWAP1 DUP4 PUSH20 0xFFFFFFFFFFFFFFFFFFFFFFFFFFFFFFFFFFFFFFFF AND MUL OR SWAP1 SSTORE POP DUP2 DUP2 PUSH1 0x2 ADD DUP2 SWAP1 SSTORE POP PUSH0 DUP2 PUSH1 0x3 ADD PUSH0 PUSH2 0x100 EXP DUP2 SLOAD DUP2 PUSH1 0xFF MUL NOT AND SWAP1 DUP4 ISZERO ISZERO MUL OR SWAP1 SSTORE POP PUSH0 DUP2 PUSH1 0x4 ADD DUP2 SWAP1 SSTORE POP POP POP POP POP POP JUMP JUMPDEST PUSH1 0x4 SLOAD DUP2 JUMP JUMPDEST PUSH0 DUP2 SWAP1 POP SWAP2 SWAP1 POP JUMP JUMPDEST PUSH2 0xC85 DUP2 PUSH2 0xC73 JUMP JUMPDEST DUP3 MSTORE POP POP JUMP JUMPDEST PUSH0 PUSH1 0x20 DUP3 ADD SWAP1 POP PUSH2 0xC9E PUSH0 DUP4 ADD DUP5 PUSH2 0xC7C JUMP JUMPDEST SWAP3 SWAP2 POP POP JUMP JUMPDEST PUSH0 PUSH0 REVERT JUMPDEST PUSH0 PUSH0 REVERT JUMPDEST PUSH0 PUSH20 0xFFFFFFFFFFFFFFFFFFFFFFFFFFFFFFFFFFFFFFFF DUP3 AND SWAP1 POP SWAP2 SWAP1 POP JUMP JUMPDEST PUSH0 PUSH2 0xCD5 DUP3 PUSH2 0xCAC JUMP JUMPDEST SWAP1 POP SWAP2 SWAP1 POP JUMP JUMPDEST PUSH2 0xCE5 DUP2 PUSH2 0xCCB JUMP JUMPDEST DUP2 EQ PUSH2 0xCEF JUMPI PUSH0 PUSH0 REVERT JUMPDEST POP JUMP JUMPDEST PUSH0 DUP2 CALLDATALOAD SWAP1 POP PUSH2 0xD00 DUP2 PUSH2 0xCDC JUMP JUMPDEST SWAP3 SWAP2 POP POP JUMP JUMPDEST PUSH0 PUSH1 0x20 DUP3 DUP5 SUB SLT ISZERO PUSH2 0xD1B JUMPI PUSH2 0xD1A PUSH2 0xCA4 JUMP JUMPDEST JUMPDEST PUSH0 PUSH2 0xD28 DUP5 DUP3 DUP6 ADD PUSH2 0xCF2 JUMP JUMPDEST SWAP2 POP POP SWAP3 SWAP2 POP POP JUMP JUMPDEST PUSH2 0xD3A DUP2 PUSH2 0xCCB JUMP JUMPDEST DUP3 MSTORE POP POP JUMP JUMPDEST PUSH0 PUSH1 0x20 DUP3 ADD SWAP1 POP PUSH2 0xD53 PUSH0 DUP4 ADD DUP5 PUSH2 0xD31 JUMP JUMPDEST SWAP3 SWAP2 POP POP JUMP JUMPDEST PUSH2 0xD62 DUP2 PUSH2 0xC73 JUMP JUMPDEST DUP2 EQ PUSH2 0xD6C JUMPI PUSH0 PUSH0 REVERT JUMPDEST POP JUMP JUMPDEST PUSH0 DUP2 CALLDATALOAD SWAP1 POP PUSH2 0xD7D DUP2 PUSH2 0xD59 JUMP JUMPDEST SWAP3 SWAP2 POP POP JUMP JUMPDEST PUSH0 PUSH1 0x20 DUP3 DUP5 SUB SLT ISZERO PUSH2 0xD98 JUMPI PUSH2 0xD97 PUSH2 0xCA4 JUMP JUMPDEST JUMPDEST PUSH0 PUSH2 0xDA5 DUP5 DUP3 DUP6 ADD PUSH2 0xD6F JUMP JUMPDEST SWAP2 POP POP SWAP3 SWAP2 POP POP JUMP JUMPDEST PUSH0 DUP2 MLOAD SWAP1 POP SWAP2 SWAP1 POP JUMP JUMPDEST PUSH0 DUP3 DUP3 MSTORE PUSH1 0x20 DUP3 ADD SWAP1 POP SWAP3 SWAP2 POP POP JUMP JUMPDEST DUP3 DUP2 DUP4 MCOPY PUSH0 DUP4 DUP4 ADD MSTORE POP POP POP JUMP JUMPDEST PUSH0 PUSH1 0x1F NOT PUSH1 0x1F DUP4 ADD AND SWAP1 POP SWAP2 SWAP1 POP JUMP JUMPDEST PUSH0 PUSH2 0xDF0 DUP3 PUSH2 0xDAE JUMP JUMPDEST PUSH2 0xDFA DUP2 DUP6 PUSH2 0xDB8 JUMP JUMPDEST SWAP4 POP PUSH2 0xE0A DUP2 DUP6 PUSH1 0x20 DUP7 ADD PUSH2 0xDC8 JUMP JUMPDEST PUSH2 0xE13 DUP2 PUSH2 0xDD6 JUMP JUMPDEST DUP5 ADD SWAP2 POP POP SWAP3 SWAP2 POP POP JUMP JUMPDEST PUSH0 PUSH2 0xE28 DUP3 PUSH2 0xCAC JUMP JUMPDEST SWAP1 POP SWAP2 SWAP1 POP JUMP JUMPDEST PUSH2 0xE38 DUP2 PUSH2 0xE1E JUMP JUMPDEST DUP3 MSTORE POP POP JUMP JUMPDEST PUSH0 DUP2 ISZERO ISZERO SWAP1 POP SWAP2 SWAP1 POP JUMP JUMPDEST PUSH2 0xE52 DUP2 PUSH2 0xE3E JUMP JUMPDEST DUP3 MSTORE POP POP JUMP JUMPDEST PUSH0 PUSH1 0xA0 DUP3 ADD SWAP1 POP DUP2 DUP2 SUB PUSH0 DUP4 ADD MSTORE PUSH2 0xE70 DUP2 DUP9 PUSH2 0xDE6 JUMP JUMPDEST SWAP1 POP PUSH2 0xE7F PUSH1 0x20 DUP4 ADD DUP8 PUSH2 0xE2F JUMP JUMPDEST PUSH2 0xE8C PUSH1 0x40 DUP4 ADD DUP7 PUSH2 0xC7C JUMP JUMPDEST PUSH2 0xE99 PUSH1 0x60 DUP4 ADD DUP6 PUSH2 0xE49 JUMP JUMPDEST PUSH2 0xEA6 PUSH1 0x80 DUP4 ADD DUP5 PUSH2 0xC7C JUMP JUMPDEST SWAP7 SWAP6 POP POP POP POP POP POP JUMP JUMPDEST PUSH0 PUSH0 REVERT JUMPDEST PUSH0 PUSH0 REVERT JUMPDEST PUSH0 PUSH0 REVERT JUMPDEST PUSH0 PUSH0 DUP4 PUSH1 0x1F DUP5 ADD SLT PUSH2 0xED1 JUMPI PUSH2 0xED0 PUSH2 0xEB0 JUMP JUMPDEST JUMPDEST DUP3 CALLDATALOAD SWAP1 POP PUSH8 0xFFFFFFFFFFFFFFFF DUP2 GT ISZERO PUSH2 0xEEE JUMPI PUSH2 0xEED PUSH2 0xEB4 JUMP JUMPDEST JUMPDEST PUSH1 0x20 DUP4 ADD SWAP2 POP DUP4 PUSH1 0x1 DUP3 MUL DUP4 ADD GT ISZERO PUSH2 0xF0A JUMPI PUSH2 0xF09 PUSH2 0xEB8 JUMP JUMPDEST JUMPDEST SWAP3 POP SWAP3 SWAP1 POP JUMP JUMPDEST PUSH2 0xF1A DUP2 PUSH2 0xE1E JUMP JUMPDEST DUP2 EQ PUSH2 0xF24 JUMPI PUSH0 PUSH0 REVERT JUMPDEST POP JUMP JUMPDEST PUSH0 DUP2 CALLDATALOAD SWAP1 POP PUSH2 0xF35 DUP2 PUSH2 0xF11 JUMP JUMPDEST SWAP3 SWAP2 POP POP JUMP JUMPDEST PUSH0 PUSH0 PUSH0 PUSH0 PUSH1 0x60 DUP6 DUP8 SUB SLT ISZERO PUSH2 0xF53 JUMPI PUSH2 0xF52 PUSH2 0xCA4 JUMP JUMPDEST JUMPDEST PUSH0 DUP6 ADD CALLDATALOAD PUSH8 0xFFFFFFFFFFFFFFFF DUP2 GT ISZERO PUSH2 0xF70 JUMPI PUSH2 0xF6F PUSH2 0xCA8 JUMP JUMPDEST JUMPDEST PUSH2 0xF7C DUP8 DUP3 DUP9 ADD PUSH2 0xEBC JUMP JUMPDEST SWAP5 POP SWAP5 POP POP PUSH1 0x20 PUSH2 0xF8F DUP8 DUP3 DUP9 ADD PUSH2 0xF27 JUMP JUMPDEST SWAP3 POP POP PUSH1 0x40 PUSH2 0xFA0 DUP8 DUP3 DUP9 ADD PUSH2 0xD6F JUMP JUMPDEST SWAP2 POP POP SWAP3 SWAP6 SWAP2 SWAP5 POP SWAP3 POP JUMP JUMPDEST PUSH32 0x736F72727920596F7520617265206C6174652062756464790000000000000000 PUSH0 DUP3 ADD MSTORE POP JUMP JUMPDEST PUSH0 PUSH2 0xFE0 PUSH1 0x18 DUP4 PUSH2 0xDB8 JUMP JUMPDEST SWAP2 POP PUSH2 0xFEB DUP3 PUSH2 0xFAC JUMP JUMPDEST PUSH1 0x20 DUP3 ADD SWAP1 POP SWAP2 SWAP1 POP JUMP JUMPDEST PUSH0 PUSH1 0x20 DUP3 ADD SWAP1 POP DUP2 DUP2 SUB PUSH0 DUP4 ADD MSTORE PUSH2 0x100D DUP2 PUSH2 0xFD4 JUMP JUMPDEST SWAP1 POP SWAP2 SWAP1 POP JUMP JUMPDEST PUSH32 0x62686169206B75636820617572206261646661206465206268696B682074686F PUSH0 DUP3 ADD MSTORE PUSH32 0x6465206465207261686120686169200000000000000000000000000000000000 PUSH1 0x20 DUP3 ADD MSTORE POP JUMP JUMPDEST PUSH0 PUSH2 0x106E PUSH1 0x2F DUP4 PUSH2 0xDB8 JUMP JUMPDEST SWAP2 POP PUSH2 0x1079 DUP3 PUSH2 0x1014 JUMP JUMPDEST PUSH1 0x40 DUP3 ADD SWAP1 POP SWAP2 SWAP1 POP JUMP JUMPDEST PUSH0 PUSH1 0x20 DUP3 ADD SWAP1 POP DUP2 DUP2 SUB PUSH0 DUP4 ADD MSTORE PUSH2 0x109B DUP2 PUSH2 0x1062 JUMP JUMPDEST SWAP1 POP SWAP2 SWAP1 POP JUMP JUMPDEST PUSH32 0x4E487B7100000000000000000000000000000000000000000000000000000000 PUSH0 MSTORE PUSH1 0x11 PUSH1 0x4 MSTORE PUSH1 0x24 PUSH0 REVERT JUMPDEST PUSH0 PUSH2 0x10D9 DUP3 PUSH2 0xC73 JUMP JUMPDEST SWAP2 POP PUSH32 0xFFFFFFFFFFFFFFFFFFFFFFFFFFFFFFFFFFFFFFFFFFFFFFFFFFFFFFFFFFFFFFFF DUP3 SUB PUSH2 0x110B JUMPI PUSH2 0x110A PUSH2 0x10A2 JUMP JUMPDEST JUMPDEST PUSH1 0x1 DUP3 ADD SWAP1 POP SWAP2 SWAP1 POP JUMP JUMPDEST PUSH0 PUSH2 0x1120 DUP3 PUSH2 0xC73 JUMP JUMPDEST SWAP2 POP PUSH2 0x112B DUP4 PUSH2 0xC73 JUMP JUMPDEST SWAP3 POP DUP3 DUP3 ADD SWAP1 POP DUP1 DUP3 GT ISZERO PUSH2 0x1143 JUMPI PUSH2 0x1142 PUSH2 0x10A2 JUMP JUMPDEST JUMPDEST SWAP3 SWAP2 POP POP JUMP JUMPDEST PUSH32 0x6F6E6C79206D616E616765722063616E20637265617465206120526571756573 PUSH0 DUP3 ADD MSTORE PUSH32 0x7400000000000000000000000000000000000000000000000000000000000000 PUSH1 0x20 DUP3 ADD MSTORE POP JUMP JUMPDEST PUSH0 PUSH2 0x11A3 PUSH1 0x21 DUP4 PUSH2 0xDB8 JUMP JUMPDEST SWAP2 POP PUSH2 0x11AE DUP3 PUSH2 0x1149 JUMP JUMPDEST PUSH1 0x40 DUP3 ADD SWAP1 POP SWAP2 SWAP1 POP JUMP JUMPDEST PUSH0 PUSH1 0x20 DUP3 ADD SWAP1 POP DUP2 DUP2 SUB PUSH0 DUP4 ADD MSTORE PUSH2 0x11D0 DUP2 PUSH2 0x1197 JUMP JUMPDEST SWAP1 POP SWAP2 SWAP1 POP JUMP JUMPDEST PUSH32 0x54617267657420206973206E6F74207265616368656400000000000000000000 PUSH0 DUP3 ADD MSTORE POP JUMP JUMPDEST PUSH0 PUSH2 0x120B PUSH1 0x16 DUP4 PUSH2 0xDB8 JUMP JUMPDEST SWAP2 POP PUSH2 0x1216 DUP3 PUSH2 0x11D7 JUMP JUMPDEST PUSH1 0x20 DUP3 ADD SWAP1 POP SWAP2 SWAP1 POP JUMP JUMPDEST PUSH0 PUSH1 0x20 DUP3 ADD SWAP1 POP DUP2 DUP2 SUB PUSH0 DUP4 ADD MSTORE PUSH2 0x1238 DUP2 PUSH2 0x11FF JUMP JUMPDEST SWAP1 POP SWAP2 SWAP1 POP JUMP JUMPDEST PUSH32 0x6D6F6E657920697320616C726561647920676976656E00000000000000000000 PUSH0 DUP3 ADD MSTORE POP JUMP JUMPDEST PUSH0 PUSH2 0x1273 PUSH1 0x16 DUP4 PUSH2 0xDB8 JUMP JUMPDEST SWAP2 POP PUSH2 0x127E DUP3 PUSH2 0x123F JUMP JUMPDEST PUSH1 0x20 DUP3 ADD SWAP1 POP SWAP2 SWAP1 POP JUMP JUMPDEST PUSH0 PUSH1 0x20 DUP3 ADD SWAP1 POP DUP2 DUP2 SUB PUSH0 DUP4 ADD MSTORE PUSH2 0x12A0 DUP2 PUSH2 0x1267 JUMP JUMPDEST SWAP1 POP SWAP2 SWAP1 POP JUMP JUMPDEST PUSH32 0x4E487B7100000000000000000000000000000000000000000000000000000000 PUSH0 MSTORE PUSH1 0x12 PUSH1 0x4 MSTORE PUSH1 0x24 PUSH0 REVERT JUMPDEST PUSH0 PUSH2 0x12DE DUP3 PUSH2 0xC73 JUMP JUMPDEST SWAP2 POP PUSH2 0x12E9 DUP4 PUSH2 0xC73 JUMP JUMPDEST SWAP3 POP DUP3 PUSH2 0x12F9 JUMPI PUSH2 0x12F8 PUSH2 0x12A7 JUMP JUMPDEST JUMPDEST DUP3 DUP3 DIV SWAP1 POP SWAP3 SWAP2 POP POP JUMP JUMPDEST PUSH32 0x796F75206E656564206D6F726520766F74657300000000000000000000000000 PUSH0 DUP3 ADD MSTORE POP JUMP JUMPDEST PUSH0 PUSH2 0x1338 PUSH1 0x13 DUP4 PUSH2 0xDB8 JUMP JUMPDEST SWAP2 POP PUSH2 0x1343 DUP3 PUSH2 0x1304 JUMP JUMPDEST PUSH1 0x20 DUP3 ADD SWAP1 POP SWAP2 SWAP1 POP JUMP JUMPDEST PUSH0 PUSH1 0x20 DUP3 ADD SWAP1 POP DUP2 DUP2 SUB PUSH0 DUP4 ADD MSTORE PUSH2 0x1365 DUP2 PUSH2 0x132C JUMP JUMPDEST SWAP1 POP SWAP2 SWAP1 POP JUMP JUMPDEST PUSH32 0x796F7520617265206E6F7420656C6967626C6520666F7220726566756E640000 PUSH0 DUP3 ADD MSTORE POP JUMP JUMPDEST PUSH0 PUSH2 0x13A0 PUSH1 0x1E DUP4 PUSH2 0xDB8 JUMP JUMPDEST SWAP2 POP PUSH2 0x13AB DUP3 PUSH2 0x136C JUMP JUMPDEST PUSH1 0x20 DUP3 ADD SWAP1 POP SWAP2 SWAP1 POP JUMP JUMPDEST PUSH0 PUSH1 0x20 DUP3 ADD SWAP1 POP DUP2 DUP2 SUB PUSH0 DUP4 ADD MSTORE PUSH2 0x13CD DUP2 PUSH2 0x1394 JUMP JUMPDEST SWAP1 POP SWAP2 SWAP1 POP JUMP JUMPDEST PUSH32 0x796F7520617265206E6F7420656C6C6967626C65000000000000000000000000 PUSH0 DUP3 ADD MSTORE POP JUMP JUMPDEST PUSH0 PUSH2 0x1408 PUSH1 0x14 DUP4 PUSH2 0xDB8 JUMP JUMPDEST SWAP2 POP PUSH2 0x1413 DUP3 PUSH2 0x13D4 JUMP JUMPDEST PUSH1 0x20 DUP3 ADD SWAP1 POP SWAP2 SWAP1 POP JUMP JUMPDEST PUSH0 PUSH1 0x20 DUP3 ADD SWAP1 POP DUP2 DUP2 SUB PUSH0 DUP4 ADD MSTORE PUSH2 0x1435 DUP2 PUSH2 0x13FC JUMP JUMPDEST SWAP1 POP SWAP2 SWAP1 POP JUMP JUMPDEST PUSH32 0x796F7520617265206E6F7420656C6C6967626C6520746F20766F746500000000 PUSH0 DUP3 ADD MSTORE POP JUMP JUMPDEST PUSH0 PUSH2 0x1470 PUSH1 0x1C DUP4 PUSH2 0xDB8 JUMP JUMPDEST SWAP2 POP PUSH2 0x147B DUP3 PUSH2 0x143C JUMP JUMPDEST PUSH1 0x20 DUP3 ADD SWAP1 POP SWAP2 SWAP1 POP JUMP JUMPDEST PUSH0 PUSH1 0x20 DUP3 ADD SWAP1 POP DUP2 DUP2 SUB PUSH0 DUP4 ADD MSTORE PUSH2 0x149D DUP2 PUSH2 0x1464 JUMP JUMPDEST SWAP1 POP SWAP2 SWAP1 POP JUMP JUMPDEST PUSH32 0x596F75206861766520616C726561647920766F74656400000000000000000000 PUSH0 DUP3 ADD MSTORE POP JUMP JUMPDEST PUSH0 PUSH2 0x14D8 PUSH1 0x16 DUP4 PUSH2 0xDB8 JUMP JUMPDEST SWAP2 POP PUSH2 0x14E3 DUP3 PUSH2 0x14A4 JUMP JUMPDEST PUSH1 0x20 DUP3 ADD SWAP1 POP SWAP2 SWAP1 POP JUMP JUMPDEST PUSH0 PUSH1 0x20 DUP3 ADD SWAP1 POP DUP2 DUP2 SUB PUSH0 DUP4 ADD MSTORE PUSH2 0x1505 DUP2 PUSH2 0x14CC JUMP JUMPDEST SWAP1 POP SWAP2 SWAP1 POP JUMP JUMPDEST PUSH32 0x4E487B7100000000000000000000000000000000000000000000000000000000 PUSH0 MSTORE PUSH1 0x22 PUSH1 0x4 MSTORE PUSH1 0x24 PUSH0 REVERT JUMPDEST PUSH0 PUSH1 0x2 DUP3 DIV SWAP1 POP PUSH1 0x1 DUP3 AND DUP1 PUSH2 0x1550 JUMPI PUSH1 0x7F DUP3 AND SWAP2 POP JUMPDEST PUSH1 0x20 DUP3 LT DUP2 SUB PUSH2 0x1563 JUMPI PUSH2 0x1562 PUSH2 0x150C JUMP JUMPDEST JUMPDEST POP SWAP2 SWAP1 POP JUMP JUMPDEST PUSH0 DUP3 SWAP1 POP SWAP3 SWAP2 POP POP JUMP JUMPDEST PUSH32 0x4E487B7100000000000000000000000000000000000000000000000000000000 PUSH0 MSTORE PUSH1 0x41 PUSH1 0x4 MSTORE PUSH1 0x24 PUSH0 REVERT JUMPDEST PUSH0 DUP2 SWAP1 POP DUP2 PUSH0 MSTORE PUSH1 0x20 PUSH0 KECCAK256 SWAP1 POP SWAP2 SWAP1 POP JUMP JUMPDEST PUSH0 PUSH1 0x20 PUSH1 0x1F DUP4 ADD DIV SWAP1 POP SWAP2 SWAP1 POP JUMP JUMPDEST PUSH0 DUP3 DUP3 SHL SWAP1 POP SWAP3 SWAP2 POP POP JUMP JUMPDEST PUSH0 PUSH1 0x8 DUP4 MUL PUSH2 0x15FC PUSH32 0xFFFFFFFFFFFFFFFFFFFFFFFFFFFFFFFFFFFFFFFFFFFFFFFFFFFFFFFFFFFFFFFF DUP3 PUSH2 0x15C1 JUMP JUMPDEST PUSH2 0x1606 DUP7 DUP4 PUSH2 0x15C1 JUMP JUMPDEST SWAP6 POP DUP1 NOT DUP5 AND SWAP4 POP DUP1 DUP7 AND DUP5 OR SWAP3 POP POP POP SWAP4 SWAP3 POP POP POP JUMP JUMPDEST PUSH0 DUP2 SWAP1 POP SWAP2 SWAP1 POP JUMP JUMPDEST PUSH0 PUSH2 0x1641 PUSH2 0x163C PUSH2 0x1637 DUP5 PUSH2 0xC73 JUMP JUMPDEST PUSH2 0x161E JUMP JUMPDEST PUSH2 0xC73 JUMP JUMPDEST SWAP1 POP SWAP2 SWAP1 POP JUMP JUMPDEST PUSH0 DUP2 SWAP1 POP SWAP2 SWAP1 POP JUMP JUMPDEST PUSH2 0x165A DUP4 PUSH2 0x1627 JUMP JUMPDEST PUSH2 0x166E PUSH2 0x1666 DUP3 PUSH2 0x1648 JUMP JUMPDEST DUP5 DUP5 SLOAD PUSH2 0x15CD JUMP JUMPDEST DUP3 SSTORE POP POP POP POP JUMP JUMPDEST PUSH0 PUSH0 SWAP1 POP SWAP1 JUMP JUMPDEST PUSH2 0x1685 PUSH2 0x1676 JUMP JUMPDEST PUSH2 0x1690 DUP2 DUP5 DUP5 PUSH2 0x1651 JUMP JUMPDEST POP POP POP JUMP JUMPDEST JUMPDEST DUP2 DUP2 LT ISZERO PUSH2 0x16B3 JUMPI PUSH2 0x16A8 PUSH0 DUP3 PUSH2 0x167D JUMP JUMPDEST PUSH1 0x1 DUP2 ADD SWAP1 POP PUSH2 0x1696 JUMP JUMPDEST POP POP JUMP JUMPDEST PUSH1 0x1F DUP3 GT ISZERO PUSH2 0x16F8 JUMPI PUSH2 0x16C9 DUP2 PUSH2 0x15A0 JUMP JUMPDEST PUSH2 0x16D2 DUP5 PUSH2 0x15B2 JUMP JUMPDEST DUP2 ADD PUSH1 0x20 DUP6 LT ISZERO PUSH2 0x16E1 JUMPI DUP2 SWAP1 POP JUMPDEST PUSH2 0x16F5 PUSH2 0x16ED DUP6 PUSH2 0x15B2 JUMP JUMPDEST DUP4 ADD DUP3 PUSH2 0x1695 JUMP JUMPDEST POP POP JUMPDEST POP POP POP JUMP JUMPDEST PUSH0 DUP3 DUP3 SHR SWAP1 POP SWAP3 SWAP2 POP POP JUMP JUMPDEST PUSH0 PUSH2 0x1718 PUSH0 NOT DUP5 PUSH1 0x8 MUL PUSH2 0x16FD JUMP JUMPDEST NOT DUP1 DUP4 AND SWAP2 POP POP SWAP3 SWAP2 POP POP JUMP JUMPDEST PUSH0 PUSH2 0x1730 DUP4 DUP4 PUSH2 0x1709 JUMP JUMPDEST SWAP2 POP DUP3 PUSH1 0x2 MUL DUP3 OR SWAP1 POP SWAP3 SWAP2 POP POP JUMP JUMPDEST PUSH2 0x174A DUP4 DUP4 PUSH2 0x1569 JUMP JUMPDEST PUSH8 0xFFFFFFFFFFFFFFFF DUP2 GT ISZERO PUSH2 0x1763 JUMPI PUSH2 0x1762 PUSH2 0x1573 JUMP JUMPDEST JUMPDEST PUSH2 0x176D DUP3 SLOAD PUSH2 0x1539 JUMP JUMPDEST PUSH2 0x1778 DUP3 DUP3 DUP6 PUSH2 0x16B7 JUMP JUMPDEST PUSH0 PUSH1 0x1F DUP4 GT PUSH1 0x1 DUP2 EQ PUSH2 0x17A5 JUMPI PUSH0 DUP5 ISZERO PUSH2 0x1793 JUMPI DUP3 DUP8 ADD CALLDATALOAD SWAP1 POP JUMPDEST PUSH2 0x179D DUP6 DUP3 PUSH2 0x1725 JUMP JUMPDEST DUP7 SSTORE POP PUSH2 0x1804 JUMP JUMPDEST PUSH1 0x1F NOT DUP5 AND PUSH2 0x17B3 DUP7 PUSH2 0x15A0 JUMP JUMPDEST PUSH0 JUMPDEST DUP3 DUP2 LT ISZERO PUSH2 0x17DA JUMPI DUP5 DUP10 ADD CALLDATALOAD DUP3 SSTORE PUSH1 0x1 DUP3 ADD SWAP2 POP PUSH1 0x20 DUP6 ADD SWAP5 POP PUSH1 0x20 DUP2 ADD SWAP1 POP PUSH2 0x17B5 JUMP JUMPDEST DUP7 DUP4 LT ISZERO PUSH2 0x17F7 JUMPI DUP5 DUP10 ADD CALLDATALOAD PUSH2 0x17F3 PUSH1 0x1F DUP10 AND DUP3 PUSH2 0x1709 JUMP JUMPDEST DUP4 SSTORE POP JUMPDEST PUSH1 0x1 PUSH1 0x2 DUP9 MUL ADD DUP9 SSTORE POP POP POP JUMPDEST POP POP POP POP POP POP POP JUMP INVALID LOG2 PUSH5 0x6970667358 0x22 SLT KECCAK256 SWAP15 0x27 TIMESTAMP SWAP2 DELEGATECALL SLT 0x2D DUP10 SWAP16 0xF 0xB5 LOG1 0xC6 BLOBHASH INVALID 0xB5 POP GASLIMIT 0xEF PUSH7 0x6475B7AB6A9147 0xF6 STATICCALL 0xCD 0xD0 DUP10 PUSH5 0x736F6C6343 STOP ADDMOD 0x1E STOP CALLER "
				},
				"gasEstimates": {
					"creation": {
						"codeDepositCost": "1242200",
						"executionCost": "infinite",
						"totalCost": "infinite"
					},
					"external": {
						"contributers(address)": "2847",
						"contribution()": "infinite",
						"createReaquest(string,address,uint256)": "infinite",
						"deadline()": "2449",
						"getContractBalance()": "357",
						"makePayment(uint256)": "infinite",
						"manager()": "2576",
						"minimumContribution()": "2447",
						"noOfContributors()": "2448",
						"numOfReq()": "2514",
						"raisedAmount()": "2469",
						"refund()": "infinite",
						"requests(uint256)": "infinite",
						"target()": "2513",
						"voteReq(uint256)": "infinite"
					}
				},
				"methodIdentifiers": {
					"contributers(address)": "34b66460",
					"contribution()": "50520b1f",
					"createReaquest(string,address,uint256)": "cf6a55da",
					"deadline()": "29dcb0cf",
					"getContractBalance()": "6f9fb98a",
					"makePayment(uint256)": "5114cb52",
					"manager()": "481c6a75",
					"minimumContribution()": "937e09b1",
					"noOfContributors()": "4e260f6f",
					"numOfReq()": "9242db83",
					"raisedAmount()": "c59ee1dc",
					"refund()": "590e1ae3",
					"requests(uint256)": "81d12c58",
					"target()": "d4b83992",
					"voteReq(uint256)": "7fecc11a"
				}
			},
			"storageLayout": {
				"storage": [
					{
						"astId": 5,
						"contract": ".deps/CrowdFunding.sol:CrowdFunding",
						"label": "contributers",
						"offset": 0,
						"slot": "0",
						"type": "t_mapping(t_address,t_uint256)"
					},
					{
						"astId": 7,
						"contract": ".deps/CrowdFunding.sol:CrowdFunding",
						"label": "manager",
						"offset": 0,
						"slot": "1",
						"type": "t_address"
					},
					{
						"astId": 9,
						"contract": ".deps/CrowdFunding.sol:CrowdFunding",
						"label": "minimumContribution",
						"offset": 0,
						"slot": "2",
						"type": "t_uint256"
					},
					{
						"astId": 11,
						"contract": ".deps/CrowdFunding.sol:CrowdFunding",
						"label": "deadline",
						"offset": 0,
						"slot": "3",
						"type": "t_uint256"
					},
					{
						"astId": 13,
						"contract": ".deps/CrowdFunding.sol:CrowdFunding",
						"label": "target",
						"offset": 0,
						"slot": "4",
						"type": "t_uint256"
					},
					{
						"astId": 15,
						"contract": ".deps/CrowdFunding.sol:CrowdFunding",
						"label": "raisedAmount",
						"offset": 0,
						"slot": "5",
						"type": "t_uint256"
					},
					{
						"astId": 17,
						"contract": ".deps/CrowdFunding.sol:CrowdFunding",
						"label": "noOfContributors",
						"offset": 0,
						"slot": "6",
						"type": "t_uint256"
					},
					{
						"astId": 37,
						"contract": ".deps/CrowdFunding.sol:CrowdFunding",
						"label": "requests",
						"offset": 0,
						"slot": "7",
						"type": "t_mapping(t_uint256,t_struct(Request)32_storage)"
					},
					{
						"astId": 39,
						"contract": ".deps/CrowdFunding.sol:CrowdFunding",
						"label": "numOfReq",
						"offset": 0,
						"slot": "8",
						"type": "t_uint256"
					}
				],
				"types": {
					"t_address": {
						"encoding": "inplace",
						"label": "address",
						"numberOfBytes": "20"
					},
					"t_address_payable": {
						"encoding": "inplace",
						"label": "address payable",
						"numberOfBytes": "20"
					},
					"t_bool": {
						"encoding": "inplace",
						"label": "bool",
						"numberOfBytes": "1"
					},
					"t_mapping(t_address,t_bool)": {
						"encoding": "mapping",
						"key": "t_address",
						"label": "mapping(address => bool)",
						"numberOfBytes": "32",
						"value": "t_bool"
					},
					"t_mapping(t_address,t_uint256)": {
						"encoding": "mapping",
						"key": "t_address",
						"label": "mapping(address => uint256)",
						"numberOfBytes": "32",
						"value": "t_uint256"
					},
					"t_mapping(t_uint256,t_struct(Request)32_storage)": {
						"encoding": "mapping",
						"key": "t_uint256",
						"label": "mapping(uint256 => struct CrowdFunding.Request)",
						"numberOfBytes": "32",
						"value": "t_struct(Request)32_storage"
					},
					"t_string_storage": {
						"encoding": "bytes",
						"label": "string",
						"numberOfBytes": "32"
					},
					"t_struct(Request)32_storage": {
						"encoding": "inplace",
						"label": "struct CrowdFunding.Request",
						"members": [
							{
								"astId": 19,
								"contract": ".deps/CrowdFunding.sol:CrowdFunding",
								"label": "desc",
								"offset": 0,
								"slot": "0",
								"type": "t_string_storage"
							},
							{
								"astId": 21,
								"contract": ".deps/CrowdFunding.sol:CrowdFunding",
								"label": "recipient",
								"offset": 0,
								"slot": "1",
								"type": "t_address_payable"
							},
							{
								"astId": 23,
								"contract": ".deps/CrowdFunding.sol:CrowdFunding",
								"label": "value",
								"offset": 0,
								"slot": "2",
								"type": "t_uint256"
							},
							{
								"astId": 25,
								"contract": ".deps/CrowdFunding.sol:CrowdFunding",
								"label": "completed",
								"offset": 0,
								"slot": "3",
								"type": "t_bool"
							},
							{
								"astId": 27,
								"contract": ".deps/CrowdFunding.sol:CrowdFunding",
								"label": "noOfVoters",
								"offset": 0,
								"slot": "4",
								"type": "t_uint256"
							},
							{
								"astId": 31,
								"contract": ".deps/CrowdFunding.sol:CrowdFunding",
								"label": "voters",
								"offset": 0,
								"slot": "5",
								"type": "t_mapping(t_address,t_bool)"
							}
						],
						"numberOfBytes": "192"
					},
					"t_uint256": {
						"encoding": "inplace",
						"label": "uint256",
						"numberOfBytes": "32"
					}
				}
			},
			"userdoc": {
				"kind": "user",
				"methods": {},
				"version": 1
			}
		}
	}
}