{
	"data": {
		"bytecode": {
			"linkReferences": {},
			"object": "608060405234801561000f575f5ffd5b506040518060400160405280600681526020017f76696468757400000000000000000000000000000000000000000000000000008152505f5f600181526020019081526020015f20908161006391906103a2565b506040518060400160405280600781526020017f7261757368616e000000000000000000000000000000000000000000000000008152505f5f600281526020019081526020015f2090816100b791906103a2565b506040518060400160405280600481526020017f736f6c75000000000000000000000000000000000000000000000000000000008152505f5f600381526020019081526020015f20908161010b91906103a2565b506040518060400160405280600581526020017f68656c6c6f0000000000000000000000000000000000000000000000000000008152505f5f600481526020019081526020015f20908161015f91906103a2565b50610471565b5f81519050919050565b7f4e487b71000000000000000000000000000000000000000000000000000000005f52604160045260245ffd5b7f4e487b71000000000000000000000000000000000000000000000000000000005f52602260045260245ffd5b5f60028204905060018216806101e057607f821691505b6020821081036101f3576101f261019c565b5b50919050565b5f819050815f5260205f209050919050565b5f6020601f8301049050919050565b5f82821b905092915050565b5f600883026102557fffffffffffffffffffffffffffffffffffffffffffffffffffffffffffffffff8261021a565b61025f868361021a565b95508019841693508086168417925050509392505050565b5f819050919050565b5f819050919050565b5f6102a361029e61029984610277565b610280565b610277565b9050919050565b5f819050919050565b6102bc83610289565b6102d06102c8826102aa565b848454610226565b825550505050565b5f5f905090565b6102e76102d8565b6102f28184846102b3565b505050565b5b818110156103155761030a5f826102df565b6001810190506102f8565b5050565b601f82111561035a5761032b816101f9565b6103348461020b565b81016020851015610343578190505b61035761034f8561020b565b8301826102f7565b50505b505050565b5f82821c905092915050565b5f61037a5f198460080261035f565b1980831691505092915050565b5f610392838361036b565b9150826002028217905092915050565b6103ab82610165565b67ffffffffffffffff8111156103c4576103c361016f565b5b6103ce82546101c9565b6103d9828285610319565b5f60209050601f83116001811461040a575f84156103f8578287015190505b6104028582610387565b865550610469565b601f198416610418866101f9565b5f5b8281101561043f5784890151825560018201915060208501945060208101905061041a565b8683101561045c5784890151610458601f89168261036b565b8355505b6001600288020188555050505b505050505050565b610b8d8061047e5f395ff3fe608060405234801561000f575f5ffd5b5060043610610055575f3560e01c8063028414f21461005957806327d3553f146100755780634622ab03146100a6578063493ec707146100d657806368744046146100f2575b5f5ffd5b610073600480360381019061006e919061068b565b610123565b005b61008f600480360381019061008a919061076d565b61017b565b60405161009d92919061080b565b60405180910390f35b6100c060048036038101906100bb9190610840565b6102b2565b6040516100cd919061086b565b60405180910390f35b6100f060048036038101906100eb919061068b565b61034c565b005b61010c60048036038101906101079190610840565b6103df565b60405161011a92919061080b565b60405180910390f35b60405180604001604052808381526020018281525060015f8581526020019081526020015f205f820151815f01908161015c9190610a88565b5060208201518160010190816101729190610a88565b50905050505050565b6002602052815f5260405f20602052805f5260405f205f9150915050805f0180546101a5906108b8565b80601f01602080910402602001604051908101604052809291908181526020018280546101d1906108b8565b801561021c5780601f106101f35761010080835404028352916020019161021c565b820191905f5260205f20905b8154815290600101906020018083116101ff57829003601f168201915b505050505090806001018054610231906108b8565b80601f016020809104026020016040519081016040528092919081815260200182805461025d906108b8565b80156102a85780601f1061027f576101008083540402835291602001916102a8565b820191905f5260205f20905b81548152906001019060200180831161028b57829003601f168201915b5050505050905082565b5f602052805f5260405f205f9150905080546102cd906108b8565b80601f01602080910402602001604051908101604052809291908181526020018280546102f9906108b8565b80156103445780601f1061031b57610100808354040283529160200191610344565b820191905f5260205f20905b81548152906001019060200180831161032757829003601f168201915b505050505081565b60405180604001604052808381526020018281525060025f3373ffffffffffffffffffffffffffffffffffffffff1673ffffffffffffffffffffffffffffffffffffffff1681526020019081526020015f205f8581526020019081526020015f205f820151815f0190816103c09190610a88565b5060208201518160010190816103d69190610a88565b50905050505050565b6001602052805f5260405f205f91509050805f0180546103fe906108b8565b80601f016020809104026020016040519081016040528092919081815260200182805461042a906108b8565b80156104755780601f1061044c57610100808354040283529160200191610475565b820191905f5260205f20905b81548152906001019060200180831161045857829003601f168201915b50505050509080600101805461048a906108b8565b80601f01602080910402602001604051908101604052809291908181526020018280546104b6906108b8565b80156105015780601f106104d857610100808354040283529160200191610501565b820191905f5260205f20905b8154815290600101906020018083116104e457829003601f168201915b5050505050905082565b5f604051905090565b5f5ffd5b5f5ffd5b5f819050919050565b61052e8161051c565b8114610538575f5ffd5b50565b5f8135905061054981610525565b92915050565b5f5ffd5b5f5ffd5b5f601f19601f8301169050919050565b7f4e487b71000000000000000000000000000000000000000000000000000000005f52604160045260245ffd5b61059d82610557565b810181811067ffffffffffffffff821117156105bc576105bb610567565b5b80604052505050565b5f6105ce61050b565b90506105da8282610594565b919050565b5f67ffffffffffffffff8211156105f9576105f8610567565b5b61060282610557565b9050602081019050919050565b828183375f83830152505050565b5f61062f61062a846105df565b6105c5565b90508281526020810184848401111561064b5761064a610553565b5b61065684828561060f565b509392505050565b5f82601f8301126106725761067161054f565b5b813561068284826020860161061d565b91505092915050565b5f5f5f606084860312156106a2576106a1610514565b5b5f6106af8682870161053b565b935050602084013567ffffffffffffffff8111156106d0576106cf610518565b5b6106dc8682870161065e565b925050604084013567ffffffffffffffff8111156106fd576106fc610518565b5b6107098682870161065e565b9150509250925092565b5f73ffffffffffffffffffffffffffffffffffffffff82169050919050565b5f61073c82610713565b9050919050565b61074c81610732565b8114610756575f5ffd5b50565b5f8135905061076781610743565b92915050565b5f5f6040838503121561078357610782610514565b5b5f61079085828601610759565b92505060206107a18582860161053b565b9150509250929050565b5f81519050919050565b5f82825260208201905092915050565b8281835e5f83830152505050565b5f6107dd826107ab565b6107e781856107b5565b93506107f78185602086016107c5565b61080081610557565b840191505092915050565b5f6040820190508181035f83015261082381856107d3565b9050818103602083015261083781846107d3565b90509392505050565b5f6020828403121561085557610854610514565b5b5f6108628482850161053b565b91505092915050565b5f6020820190508181035f83015261088381846107d3565b905092915050565b7f4e487b71000000000000000000000000000000000000000000000000000000005f52602260045260245ffd5b5f60028204905060018216806108cf57607f821691505b6020821081036108e2576108e161088b565b5b50919050565b5f819050815f5260205f209050919050565b5f6020601f8301049050919050565b5f82821b905092915050565b5f600883026109447fffffffffffffffffffffffffffffffffffffffffffffffffffffffffffffffff82610909565b61094e8683610909565b95508019841693508086168417925050509392505050565b5f819050919050565b5f61098961098461097f8461051c565b610966565b61051c565b9050919050565b5f819050919050565b6109a28361096f565b6109b66109ae82610990565b848454610915565b825550505050565b5f5f905090565b6109cd6109be565b6109d8818484610999565b505050565b5b818110156109fb576109f05f826109c5565b6001810190506109de565b5050565b601f821115610a4057610a11816108e8565b610a1a846108fa565b81016020851015610a29578190505b610a3d610a35856108fa565b8301826109dd565b50505b505050565b5f82821c905092915050565b5f610a605f1984600802610a45565b1980831691505092915050565b5f610a788383610a51565b9150826002028217905092915050565b610a91826107ab565b67ffffffffffffffff811115610aaa57610aa9610567565b5b610ab482546108b8565b610abf8282856109ff565b5f60209050601f831160018114610af0575f8415610ade578287015190505b610ae88582610a6d565b865550610b4f565b601f198416610afe866108e8565b5f5b82811015610b2557848901518255600182019150602085019450602081019050610b00565b86831015610b425784890151610b3e601f891682610a51565b8355505b6001600288020188555050505b50505050505056fea264697066735822122075037c60728d3b6cdc695c47fc3dde11b3ccea43580ed719f95e6f5b7691273464736f6c634300081e0033",
			"opcodes": "PUSH1 0x80 PUSH1 0x40 MSTORE CALLVALUE DUP1 ISZERO PUSH2 0xF JUMPI PUSH0 PUSH0 REVERT JUMPDEST POP PUSH1 0x40 MLOAD DUP1 PUSH1 0x40 ADD PUSH1 0x40 MSTORE DUP1 PUSH1 0x6 DUP2 MSTORE PUSH1 0x20 ADD PUSH32 0x7669646875740000000000000000000000000000000000000000000000000000 DUP2 MSTORE POP PUSH0 PUSH0 PUSH1 0x1 DUP2 MSTORE PUSH1 0x20 ADD SWAP1 DUP2 MSTORE PUSH1 0x20 ADD PUSH0 KECCAK256 SWAP1 DUP2 PUSH2 0x63 SWAP2 SWAP1 PUSH2 0x3A2 JUMP JUMPDEST POP PUSH1 0x40 MLOAD DUP1 PUSH1 0x40 ADD PUSH1 0x40 MSTORE DUP1 PUSH1 0x7 DUP2 MSTORE PUSH1 0x20 ADD PUSH32 0x7261757368616E00000000000000000000000000000000000000000000000000 DUP2 MSTORE POP PUSH0 PUSH0 PUSH1 0x2 DUP2 MSTORE PUSH1 0x20 ADD SWAP1 DUP2 MSTORE PUSH1 0x20 ADD PUSH0 KECCAK256 SWAP1 DUP2 PUSH2 0xB7 SWAP2 SWAP1 PUSH2 0x3A2 JUMP JUMPDEST POP PUSH1 0x40 MLOAD DUP1 PUSH1 0x40 ADD PUSH1 0x40 MSTORE DUP1 PUSH1 0x4 DUP2 MSTORE PUSH1 0x20 ADD PUSH32 0x736F6C7500000000000000000000000000000000000000000000000000000000 DUP2 MSTORE POP PUSH0 PUSH0 PUSH1 0x3 DUP2 MSTORE PUSH1 0x20 ADD SWAP1 DUP2 MSTORE PUSH1 0x20 ADD PUSH0 KECCAK256 SWAP1 DUP2 PUSH2 0x10B SWAP2 SWAP1 PUSH2 0x3A2 JUMP JUMPDEST POP PUSH1 0x40 MLOAD DUP1 PUSH1 0x40 ADD PUSH1 0x40 MSTORE DUP1 PUSH1 0x5 DUP2 MSTORE PUSH1 0x20 ADD PUSH32 0x68656C6C6F000000000000000000000000000000000000000000000000000000 DUP2 MSTORE POP PUSH0 PUSH0 PUSH1 0x4 DUP2 MSTORE PUSH1 0x20 ADD SWAP1 DUP2 MSTORE PUSH1 0x20 ADD PUSH0 KECCAK256 SWAP1 DUP2 PUSH2 0x15F SWAP2 SWAP1 PUSH2 0x3A2 JUMP JUMPDEST POP PUSH2 0x471 JUMP JUMPDEST PUSH0 DUP2 MLOAD SWAP1 POP SWAP2 SWAP1 POP JUMP JUMPDEST PUSH32 0x4E487B7100000000000000000000000000000000000000000000000000000000 PUSH0 MSTORE PUSH1 0x41 PUSH1 0x4 MSTORE PUSH1 0x24 PUSH0 REVERT JUMPDEST PUSH32 0x4E487B7100000000000000000000000000000000000000000000000000000000 PUSH0 MSTORE PUSH1 0x22 PUSH1 0x4 MSTORE PUSH1 0x24 PUSH0 REVERT JUMPDEST PUSH0 PUSH1 0x2 DUP3 DIV SWAP1 POP PUSH1 0x1 DUP3 AND DUP1 PUSH2 0x1E0 JUMPI PUSH1 0x7F DUP3 AND SWAP2 POP JUMPDEST PUSH1 0x20 DUP3 LT DUP2 SUB PUSH2 0x1F3 JUMPI PUSH2 0x1F2 PUSH2 0x19C JUMP JUMPDEST JUMPDEST POP SWAP2 SWAP1 POP JUMP JUMPDEST PUSH0 DUP2 SWAP1 POP DUP2 PUSH0 MSTORE PUSH1 0x20 PUSH0 KECCAK256 SWAP1 POP SWAP2 SWAP1 POP JUMP JUMPDEST PUSH0 PUSH1 0x20 PUSH1 0x1F DUP4 ADD DIV SWAP1 POP SWAP2 SWAP1 POP JUMP JUMPDEST PUSH0 DUP3 DUP3 SHL SWAP1 POP SWAP3 SWAP2 POP POP JUMP JUMPDEST PUSH0 PUSH1 0x8 DUP4 MUL PUSH2 0x255 PUSH32 0xFFFFFFFFFFFFFFFFFFFFFFFFFFFFFFFFFFFFFFFFFFFFFFFFFFFFFFFFFFFFFFFF DUP3 PUSH2 0x21A JUMP JUMPDEST PUSH2 0x25F DUP7 DUP4 PUSH2 0x21A JUMP JUMPDEST SWAP6 POP DUP1 NOT DUP5 AND SWAP4 POP DUP1 DUP7 AND DUP5 OR SWAP3 POP POP POP SWAP4 SWAP3 POP POP POP JUMP JUMPDEST PUSH0 DUP2 SWAP1 POP SWAP2 SWAP1 POP JUMP JUMPDEST PUSH0 DUP2 SWAP1 POP SWAP2 SWAP1 POP JUMP JUMPDEST PUSH0 PUSH2 0x2A3 PUSH2 0x29E PUSH2 0x299 DUP5 PUSH2 0x277 JUMP JUMPDEST PUSH2 0x280 JUMP JUMPDEST PUSH2 0x277 JUMP JUMPDEST SWAP1 POP SWAP2 SWAP1 POP JUMP JUMPDEST PUSH0 DUP2 SWAP1 POP SWAP2 SWAP1 POP JUMP JUMPDEST PUSH2 0x2BC DUP4 PUSH2 0x289 JUMP JUMPDEST PUSH2 0x2D0 PUSH2 0x2C8 DUP3 PUSH2 0x2AA JUMP JUMPDEST DUP5 DUP5 SLOAD PUSH2 0x226 JUMP JUMPDEST DUP3 SSTORE POP POP POP POP JUMP JUMPDEST PUSH0 PUSH0 SWAP1 POP SWAP1 JUMP JUMPDEST PUSH2 0x2E7 PUSH2 0x2D8 JUMP JUMPDEST PUSH2 0x2F2 DUP2 DUP5 DUP5 PUSH2 0x2B3 JUMP JUMPDEST POP POP POP JUMP JUMPDEST JUMPDEST DUP2 DUP2 LT ISZERO PUSH2 0x315 JUMPI PUSH2 0x30A PUSH0 DUP3 PUSH2 0x2DF JUMP JUMPDEST PUSH1 0x1 DUP2 ADD SWAP1 POP PUSH2 0x2F8 JUMP JUMPDEST POP POP JUMP JUMPDEST PUSH1 0x1F DUP3 GT ISZERO PUSH2 0x35A JUMPI PUSH2 0x32B DUP2 PUSH2 0x1F9 JUMP JUMPDEST PUSH2 0x334 DUP5 PUSH2 0x20B JUMP JUMPDEST DUP2 ADD PUSH1 0x20 DUP6 LT ISZERO PUSH2 0x343 JUMPI DUP2 SWAP1 POP JUMPDEST PUSH2 0x357 PUSH2 0x34F DUP6 PUSH2 0x20B JUMP JUMPDEST DUP4 ADD DUP3 PUSH2 0x2F7 JUMP JUMPDEST POP POP JUMPDEST POP POP POP JUMP JUMPDEST PUSH0 DUP3 DUP3 SHR SWAP1 POP SWAP3 SWAP2 POP POP JUMP JUMPDEST PUSH0 PUSH2 0x37A PUSH0 NOT DUP5 PUSH1 0x8 MUL PUSH2 0x35F JUMP JUMPDEST NOT DUP1 DUP4 AND SWAP2 POP POP SWAP3 SWAP2 POP POP JUMP JUMPDEST PUSH0 PUSH2 0x392 DUP4 DUP4 PUSH2 0x36B JUMP JUMPDEST SWAP2 POP DUP3 PUSH1 0x2 MUL DUP3 OR SWAP1 POP SWAP3 SWAP2 POP POP JUMP JUMPDEST PUSH2 0x3AB DUP3 PUSH2 0x165 JUMP JUMPDEST PUSH8 0xFFFFFFFFFFFFFFFF DUP2 GT ISZERO PUSH2 0x3C4 JUMPI PUSH2 0x3C3 PUSH2 0x16F JUMP JUMPDEST JUMPDEST PUSH2 0x3CE DUP3 SLOAD PUSH2 0x1C9 JUMP JUMPDEST PUSH2 0x3D9 DUP3 DUP3 DUP6 PUSH2 0x319 JUMP JUMPDEST PUSH0 PUSH1 0x20 SWAP1 POP PUSH1 0x1F DUP4 GT PUSH1 0x1 DUP2 EQ PUSH2 0x40A JUMPI PUSH0 DUP5 ISZERO PUSH2 0x3F8 JUMPI DUP3 DUP8 ADD MLOAD SWAP1 POP JUMPDEST PUSH2 0x402 DUP6 DUP3 PUSH2 0x387 JUMP JUMPDEST DUP7 SSTORE POP PUSH2 0x469 JUMP JUMPDEST PUSH1 0x1F NOT DUP5 AND PUSH2 0x418 DUP7 PUSH2 0x1F9 JUMP JUMPDEST PUSH0 JUMPDEST DUP3 DUP2 LT ISZERO PUSH2 0x43F JUMPI DUP5 DUP10 ADD MLOAD DUP3 SSTORE PUSH1 0x1 DUP3 ADD SWAP2 POP PUSH1 0x20 DUP6 ADD SWAP5 POP PUSH1 0x20 DUP2 ADD SWAP1 POP PUSH2 0x41A JUMP JUMPDEST DUP7 DUP4 LT ISZERO PUSH2 0x45C JUMPI DUP5 DUP10 ADD MLOAD PUSH2 0x458 PUSH1 0x1F DUP10 AND DUP3 PUSH2 0x36B JUMP JUMPDEST DUP4 SSTORE POP JUMPDEST PUSH1 0x1 PUSH1 0x2 DUP9 MUL ADD DUP9 SSTORE POP POP POP JUMPDEST POP POP POP POP POP POP JUMP JUMPDEST PUSH2 0xB8D DUP1 PUSH2 0x47E PUSH0 CODECOPY PUSH0 RETURN INVALID PUSH1 0x80 PUSH1 0x40 MSTORE CALLVALUE DUP1 ISZERO PUSH2 0xF JUMPI PUSH0 PUSH0 REVERT JUMPDEST POP PUSH1 0x4 CALLDATASIZE LT PUSH2 0x55 JUMPI PUSH0 CALLDATALOAD PUSH1 0xE0 SHR DUP1 PUSH4 0x28414F2 EQ PUSH2 0x59 JUMPI DUP1 PUSH4 0x27D3553F EQ PUSH2 0x75 JUMPI DUP1 PUSH4 0x4622AB03 EQ PUSH2 0xA6 JUMPI DUP1 PUSH4 0x493EC707 EQ PUSH2 0xD6 JUMPI DUP1 PUSH4 0x68744046 EQ PUSH2 0xF2 JUMPI JUMPDEST PUSH0 PUSH0 REVERT JUMPDEST PUSH2 0x73 PUSH1 0x4 DUP1 CALLDATASIZE SUB DUP2 ADD SWAP1 PUSH2 0x6E SWAP2 SWAP1 PUSH2 0x68B JUMP JUMPDEST PUSH2 0x123 JUMP JUMPDEST STOP JUMPDEST PUSH2 0x8F PUSH1 0x4 DUP1 CALLDATASIZE SUB DUP2 ADD SWAP1 PUSH2 0x8A SWAP2 SWAP1 PUSH2 0x76D JUMP JUMPDEST PUSH2 0x17B JUMP JUMPDEST PUSH1 0x40 MLOAD PUSH2 0x9D SWAP3 SWAP2 SWAP1 PUSH2 0x80B JUMP JUMPDEST PUSH1 0x40 MLOAD DUP1 SWAP2 SUB SWAP1 RETURN JUMPDEST PUSH2 0xC0 PUSH1 0x4 DUP1 CALLDATASIZE SUB DUP2 ADD SWAP1 PUSH2 0xBB SWAP2 SWAP1 PUSH2 0x840 JUMP JUMPDEST PUSH2 0x2B2 JUMP JUMPDEST PUSH1 0x40 MLOAD PUSH2 0xCD SWAP2 SWAP1 PUSH2 0x86B JUMP JUMPDEST PUSH1 0x40 MLOAD DUP1 SWAP2 SUB SWAP1 RETURN JUMPDEST PUSH2 0xF0 PUSH1 0x4 DUP1 CALLDATASIZE SUB DUP2 ADD SWAP1 PUSH2 0xEB SWAP2 SWAP1 PUSH2 0x68B JUMP JUMPDEST PUSH2 0x34C JUMP JUMPDEST STOP JUMPDEST PUSH2 0x10C PUSH1 0x4 DUP1 CALLDATASIZE SUB DUP2 ADD SWAP1 PUSH2 0x107 SWAP2 SWAP1 PUSH2 0x840 JUMP JUMPDEST PUSH2 0x3DF JUMP JUMPDEST PUSH1 0x40 MLOAD PUSH2 0x11A SWAP3 SWAP2 SWAP1 PUSH2 0x80B JUMP JUMPDEST PUSH1 0x40 MLOAD DUP1 SWAP2 SUB SWAP1 RETURN JUMPDEST PUSH1 0x40 MLOAD DUP1 PUSH1 0x40 ADD PUSH1 0x40 MSTORE DUP1 DUP4 DUP2 MSTORE PUSH1 0x20 ADD DUP3 DUP2 MSTORE POP PUSH1 0x1 PUSH0 DUP6 DUP2 MSTORE PUSH1 0x20 ADD SWAP1 DUP2 MSTORE PUSH1 0x20 ADD PUSH0 KECCAK256 PUSH0 DUP3 ADD MLOAD DUP2 PUSH0 ADD SWAP1 DUP2 PUSH2 0x15C SWAP2 SWAP1 PUSH2 0xA88 JUMP JUMPDEST POP PUSH1 0x20 DUP3 ADD MLOAD DUP2 PUSH1 0x1 ADD SWAP1 DUP2 PUSH2 0x172 SWAP2 SWAP1 PUSH2 0xA88 JUMP JUMPDEST POP SWAP1 POP POP POP POP POP JUMP JUMPDEST PUSH1 0x2 PUSH1 0x20 MSTORE DUP2 PUSH0 MSTORE PUSH1 0x40 PUSH0 KECCAK256 PUSH1 0x20 MSTORE DUP1 PUSH0 MSTORE PUSH1 0x40 PUSH0 KECCAK256 PUSH0 SWAP2 POP SWAP2 POP POP DUP1 PUSH0 ADD DUP1 SLOAD PUSH2 0x1A5 SWAP1 PUSH2 0x8B8 JUMP JUMPDEST DUP1 PUSH1 0x1F ADD PUSH1 0x20 DUP1 SWAP2 DIV MUL PUSH1 0x20 ADD PUSH1 0x40 MLOAD SWAP1 DUP2 ADD PUSH1 0x40 MSTORE DUP1 SWAP3 SWAP2 SWAP1 DUP2 DUP2 MSTORE PUSH1 0x20 ADD DUP3 DUP1 SLOAD PUSH2 0x1D1 SWAP1 PUSH2 0x8B8 JUMP JUMPDEST DUP1 ISZERO PUSH2 0x21C JUMPI DUP1 PUSH1 0x1F LT PUSH2 0x1F3 JUMPI PUSH2 0x100 DUP1 DUP4 SLOAD DIV MUL DUP4 MSTORE SWAP2 PUSH1 0x20 ADD SWAP2 PUSH2 0x21C JUMP JUMPDEST DUP3 ADD SWAP2 SWAP1 PUSH0 MSTORE PUSH1 0x20 PUSH0 KECCAK256 SWAP1 JUMPDEST DUP2 SLOAD DUP2 MSTORE SWAP1 PUSH1 0x1 ADD SWAP1 PUSH1 0x20 ADD DUP1 DUP4 GT PUSH2 0x1FF JUMPI DUP3 SWAP1 SUB PUSH1 0x1F AND DUP3 ADD SWAP2 JUMPDEST POP POP POP POP POP SWAP1 DUP1 PUSH1 0x1 ADD DUP1 SLOAD PUSH2 0x231 SWAP1 PUSH2 0x8B8 JUMP JUMPDEST DUP1 PUSH1 0x1F ADD PUSH1 0x20 DUP1 SWAP2 DIV MUL PUSH1 0x20 ADD PUSH1 0x40 MLOAD SWAP1 DUP2 ADD PUSH1 0x40 MSTORE DUP1 SWAP3 SWAP2 SWAP1 DUP2 DUP2 MSTORE PUSH1 0x20 ADD DUP3 DUP1 SLOAD PUSH2 0x25D SWAP1 PUSH2 0x8B8 JUMP JUMPDEST DUP1 ISZERO PUSH2 0x2A8 JUMPI DUP1 PUSH1 0x1F LT PUSH2 0x27F JUMPI PUSH2 0x100 DUP1 DUP4 SLOAD DIV MUL DUP4 MSTORE SWAP2 PUSH1 0x20 ADD SWAP2 PUSH2 0x2A8 JUMP JUMPDEST DUP3 ADD SWAP2 SWAP1 PUSH0 MSTORE PUSH1 0x20 PUSH0 KECCAK256 SWAP1 JUMPDEST DUP2 SLOAD DUP2 MSTORE SWAP1 PUSH1 0x1 ADD SWAP1 PUSH1 0x20 ADD DUP1 DUP4 GT PUSH2 0x28B JUMPI DUP3 SWAP1 SUB PUSH1 0x1F AND DUP3 ADD SWAP2 JUMPDEST POP POP POP POP POP SWAP1 POP DUP3 JUMP JUMPDEST PUSH0 PUSH1 0x20 MSTORE DUP1 PUSH0 MSTORE PUSH1 0x40 PUSH0 KECCAK256 PUSH0 SWAP2 POP SWAP1 POP DUP1 SLOAD PUSH2 0x2CD SWAP1 PUSH2 0x8B8 JUMP JUMPDEST DUP1 PUSH1 0x1F ADD PUSH1 0x20 DUP1 SWAP2 DIV MUL PUSH1 0x20 ADD PUSH1 0x40 MLOAD SWAP1 DUP2 ADD PUSH1 0x40 MSTORE DUP1 SWAP3 SWAP2 SWAP1 DUP2 DUP2 MSTORE PUSH1 0x20 ADD DUP3 DUP1 SLOAD PUSH2 0x2F9 SWAP1 PUSH2 0x8B8 JUMP JUMPDEST DUP1 ISZERO PUSH2 0x344 JUMPI DUP1 PUSH1 0x1F LT PUSH2 0x31B JUMPI PUSH2 0x100 DUP1 DUP4 SLOAD DIV MUL DUP4 MSTORE SWAP2 PUSH1 0x20 ADD SWAP2 PUSH2 0x344 JUMP JUMPDEST DUP3 ADD SWAP2 SWAP1 PUSH0 MSTORE PUSH1 0x20 PUSH0 KECCAK256 SWAP1 JUMPDEST DUP2 SLOAD DUP2 MSTORE SWAP1 PUSH1 0x1 ADD SWAP1 PUSH1 0x20 ADD DUP1 DUP4 GT PUSH2 0x327 JUMPI DUP3 SWAP1 SUB PUSH1 0x1F AND DUP3 ADD SWAP2 JUMPDEST POP POP POP POP POP DUP2 JUMP JUMPDEST PUSH1 0x40 MLOAD DUP1 PUSH1 0x40 ADD PUSH1 0x40 MSTORE DUP1 DUP4 DUP2 MSTORE PUSH1 0x20 ADD DUP3 DUP2 MSTORE POP PUSH1 0x2 PUSH0 CALLER PUSH20 0xFFFFFFFFFFFFFFFFFFFFFFFFFFFFFFFFFFFFFFFF AND PUSH20 0xFFFFFFFFFFFFFFFFFFFFFFFFFFFFFFFFFFFFFFFF AND DUP2 MSTORE PUSH1 0x20 ADD SWAP1 DUP2 MSTORE PUSH1 0x20 ADD PUSH0 KECCAK256 PUSH0 DUP6 DUP2 MSTORE PUSH1 0x20 ADD SWAP1 DUP2 MSTORE PUSH1 0x20 ADD PUSH0 KECCAK256 PUSH0 DUP3 ADD MLOAD DUP2 PUSH0 ADD SWAP1 DUP2 PUSH2 0x3C0 SWAP2 SWAP1 PUSH2 0xA88 JUMP JUMPDEST POP PUSH1 0x20 DUP3 ADD MLOAD DUP2 PUSH1 0x1 ADD SWAP1 DUP2 PUSH2 0x3D6 SWAP2 SWAP1 PUSH2 0xA88 JUMP JUMPDEST POP SWAP1 POP POP POP POP POP JUMP JUMPDEST PUSH1 0x1 PUSH1 0x20 MSTORE DUP1 PUSH0 MSTORE PUSH1 0x40 PUSH0 KECCAK256 PUSH0 SWAP2 POP SWAP1 POP DUP1 PUSH0 ADD DUP1 SLOAD PUSH2 0x3FE SWAP1 PUSH2 0x8B8 JUMP JUMPDEST DUP1 PUSH1 0x1F ADD PUSH1 0x20 DUP1 SWAP2 DIV MUL PUSH1 0x20 ADD PUSH1 0x40 MLOAD SWAP1 DUP2 ADD PUSH1 0x40 MSTORE DUP1 SWAP3 SWAP2 SWAP1 DUP2 DUP2 MSTORE PUSH1 0x20 ADD DUP3 DUP1 SLOAD PUSH2 0x42A SWAP1 PUSH2 0x8B8 JUMP JUMPDEST DUP1 ISZERO PUSH2 0x475 JUMPI DUP1 PUSH1 0x1F LT PUSH2 0x44C JUMPI PUSH2 0x100 DUP1 DUP4 SLOAD DIV MUL DUP4 MSTORE SWAP2 PUSH1 0x20 ADD SWAP2 PUSH2 0x475 JUMP JUMPDEST DUP3 ADD SWAP2 SWAP1 PUSH0 MSTORE PUSH1 0x20 PUSH0 KECCAK256 SWAP1 JUMPDEST DUP2 SLOAD DUP2 MSTORE SWAP1 PUSH1 0x1 ADD SWAP1 PUSH1 0x20 ADD DUP1 DUP4 GT PUSH2 0x458 JUMPI DUP3 SWAP1 SUB PUSH1 0x1F AND DUP3 ADD SWAP2 JUMPDEST POP POP POP POP POP SWAP1 DUP1 PUSH1 0x1 ADD DUP1 SLOAD PUSH2 0x48A SWAP1 PUSH2 0x8B8 JUMP JUMPDEST DUP1 PUSH1 0x1F ADD PUSH1 0x20 DUP1 SWAP2 DIV MUL PUSH1 0x20 ADD PUSH1 0x40 MLOAD SWAP1 DUP2 ADD PUSH1 0x40 MSTORE DUP1 SWAP3 SWAP2 SWAP1 DUP2 DUP2 MSTORE PUSH1 0x20 ADD DUP3 DUP1 SLOAD PUSH2 0x4B6 SWAP1 PUSH2 0x8B8 JUMP JUMPDEST DUP1 ISZERO PUSH2 0x501 JUMPI DUP1 PUSH1 0x1F LT PUSH2 0x4D8 JUMPI PUSH2 0x100 DUP1 DUP4 SLOAD DIV MUL DUP4 MSTORE SWAP2 PUSH1 0x20 ADD SWAP2 PUSH2 0x501 JUMP JUMPDEST DUP3 ADD SWAP2 SWAP1 PUSH0 MSTORE PUSH1 0x20 PUSH0 KECCAK256 SWAP1 JUMPDEST DUP2 SLOAD DUP2 MSTORE SWAP1 PUSH1 0x1 ADD SWAP1 PUSH1 0x20 ADD DUP1 DUP4 GT PUSH2 0x4E4 JUMPI DUP3 SWAP1 SUB PUSH1 0x1F AND DUP3 ADD SWAP2 JUMPDEST POP POP POP POP POP SWAP1 POP DUP3 JUMP JUMPDEST PUSH0 PUSH1 0x40 MLOAD SWAP1 POP SWAP1 JUMP JUMPDEST PUSH0 PUSH0 REVERT JUMPDEST PUSH0 PUSH0 REVERT JUMPDEST PUSH0 DUP2 SWAP1 POP SWAP2 SWAP1 POP JUMP JUMPDEST PUSH2 0x52E DUP2 PUSH2 0x51C JUMP JUMPDEST DUP2 EQ PUSH2 0x538 JUMPI PUSH0 PUSH0 REVERT JUMPDEST POP JUMP JUMPDEST PUSH0 DUP2 CALLDATALOAD SWAP1 POP PUSH2 0x549 DUP2 PUSH2 0x525 JUMP JUMPDEST SWAP3 SWAP2 POP POP JUMP JUMPDEST PUSH0 PUSH0 REVERT JUMPDEST PUSH0 PUSH0 REVERT JUMPDEST PUSH0 PUSH1 0x1F NOT PUSH1 0x1F DUP4 ADD AND SWAP1 POP SWAP2 SWAP1 POP JUMP JUMPDEST PUSH32 0x4E487B7100000000000000000000000000000000000000000000000000000000 PUSH0 MSTORE PUSH1 0x41 PUSH1 0x4 MSTORE PUSH1 0x24 PUSH0 REVERT JUMPDEST PUSH2 0x59D DUP3 PUSH2 0x557 JUMP JUMPDEST DUP2 ADD DUP2 DUP2 LT PUSH8 0xFFFFFFFFFFFFFFFF DUP3 GT OR ISZERO PUSH2 0x5BC JUMPI PUSH2 0x5BB PUSH2 0x567 JUMP JUMPDEST JUMPDEST DUP1 PUSH1 0x40 MSTORE POP POP POP JUMP JUMPDEST PUSH0 PUSH2 0x5CE PUSH2 0x50B JUMP JUMPDEST SWAP1 POP PUSH2 0x5DA DUP3 DUP3 PUSH2 0x594 JUMP JUMPDEST SWAP2 SWAP1 POP JUMP JUMPDEST PUSH0 PUSH8 0xFFFFFFFFFFFFFFFF DUP3 GT ISZERO PUSH2 0x5F9 JUMPI PUSH2 0x5F8 PUSH2 0x567 JUMP JUMPDEST JUMPDEST PUSH2 0x602 DUP3 PUSH2 0x557 JUMP JUMPDEST SWAP1 POP PUSH1 0x20 DUP2 ADD SWAP1 POP SWAP2 SWAP1 POP JUMP JUMPDEST DUP3 DUP2 DUP4 CALLDATACOPY PUSH0 DUP4 DUP4 ADD MSTORE POP POP POP JUMP JUMPDEST PUSH0 PUSH2 0x62F PUSH2 0x62A DUP5 PUSH2 0x5DF JUMP JUMPDEST PUSH2 0x5C5 JUMP JUMPDEST SWAP1 POP DUP3 DUP2 MSTORE PUSH1 0x20 DUP2 ADD DUP5 DUP5 DUP5 ADD GT ISZERO PUSH2 0x64B JUMPI PUSH2 0x64A PUSH2 0x553 JUMP JUMPDEST JUMPDEST PUSH2 0x656 DUP5 DUP3 DUP6 PUSH2 0x60F JUMP JUMPDEST POP SWAP4 SWAP3 POP POP POP JUMP JUMPDEST PUSH0 DUP3 PUSH1 0x1F DUP4 ADD SLT PUSH2 0x672 JUMPI PUSH2 0x671 PUSH2 0x54F JUMP JUMPDEST JUMPDEST DUP2 CALLDATALOAD PUSH2 0x682 DUP5 DUP3 PUSH1 0x20 DUP7 ADD PUSH2 0x61D JUMP JUMPDEST SWAP2 POP POP SWAP3 SWAP2 POP POP JUMP JUMPDEST PUSH0 PUSH0 PUSH0 PUSH1 0x60 DUP5 DUP7 SUB SLT ISZERO PUSH2 0x6A2 JUMPI PUSH2 0x6A1 PUSH2 0x514 JUMP JUMPDEST JUMPDEST PUSH0 PUSH2 0x6AF DUP7 DUP3 DUP8 ADD PUSH2 0x53B JUMP JUMPDEST SWAP4 POP POP PUSH1 0x20 DUP5 ADD CALLDATALOAD PUSH8 0xFFFFFFFFFFFFFFFF DUP2 GT ISZERO PUSH2 0x6D0 JUMPI PUSH2 0x6CF PUSH2 0x518 JUMP JUMPDEST JUMPDEST PUSH2 0x6DC DUP7 DUP3 DUP8 ADD PUSH2 0x65E JUMP JUMPDEST SWAP3 POP POP PUSH1 0x40 DUP5 ADD CALLDATALOAD PUSH8 0xFFFFFFFFFFFFFFFF DUP2 GT ISZERO PUSH2 0x6FD JUMPI PUSH2 0x6FC PUSH2 0x518 JUMP JUMPDEST JUMPDEST PUSH2 0x709 DUP7 DUP3 DUP8 ADD PUSH2 0x65E JUMP JUMPDEST SWAP2 POP POP SWAP3 POP SWAP3 POP SWAP3 JUMP JUMPDEST PUSH0 PUSH20 0xFFFFFFFFFFFFFFFFFFFFFFFFFFFFFFFFFFFFFFFF DUP3 AND SWAP1 POP SWAP2 SWAP1 POP JUMP JUMPDEST PUSH0 PUSH2 0x73C DUP3 PUSH2 0x713 JUMP JUMPDEST SWAP1 POP SWAP2 SWAP1 POP JUMP JUMPDEST PUSH2 0x74C DUP2 PUSH2 0x732 JUMP JUMPDEST DUP2 EQ PUSH2 0x756 JUMPI PUSH0 PUSH0 REVERT JUMPDEST POP JUMP JUMPDEST PUSH0 DUP2 CALLDATALOAD SWAP1 POP PUSH2 0x767 DUP2 PUSH2 0x743 JUMP JUMPDEST SWAP3 SWAP2 POP POP JUMP JUMPDEST PUSH0 PUSH0 PUSH1 0x40 DUP4 DUP6 SUB SLT ISZERO PUSH2 0x783 JUMPI PUSH2 0x782 PUSH2 0x514 JUMP JUMPDEST JUMPDEST PUSH0 PUSH2 0x790 DUP6 DUP3 DUP7 ADD PUSH2 0x759 JUMP JUMPDEST SWAP3 POP POP PUSH1 0x20 PUSH2 0x7A1 DUP6 DUP3 DUP7 ADD PUSH2 0x53B JUMP JUMPDEST SWAP2 POP POP SWAP3 POP SWAP3 SWAP1 POP JUMP JUMPDEST PUSH0 DUP2 MLOAD SWAP1 POP SWAP2 SWAP1 POP JUMP JUMPDEST PUSH0 DUP3 DUP3 MSTORE PUSH1 0x20 DUP3 ADD SWAP1 POP SWAP3 SWAP2 POP POP JUMP JUMPDEST DUP3 DUP2 DUP4 MCOPY PUSH0 DUP4 DUP4 ADD MSTORE POP POP POP JUMP JUMPDEST PUSH0 PUSH2 0x7DD DUP3 PUSH2 0x7AB JUMP JUMPDEST PUSH2 0x7E7 DUP2 DUP6 PUSH2 0x7B5 JUMP JUMPDEST SWAP4 POP PUSH2 0x7F7 DUP2 DUP6 PUSH1 0x20 DUP7 ADD PUSH2 0x7C5 JUMP JUMPDEST PUSH2 0x800 DUP2 PUSH2 0x557 JUMP JUMPDEST DUP5 ADD SWAP2 POP POP SWAP3 SWAP2 POP POP JUMP JUMPDEST PUSH0 PUSH1 0x40 DUP3 ADD SWAP1 POP DUP2 DUP2 SUB PUSH0 DUP4 ADD MSTORE PUSH2 0x823 DUP2 DUP6 PUSH2 0x7D3 JUMP JUMPDEST SWAP1 POP DUP2 DUP2 SUB PUSH1 0x20 DUP4 ADD MSTORE PUSH2 0x837 DUP2 DUP5 PUSH2 0x7D3 JUMP JUMPDEST SWAP1 POP SWAP4 SWAP3 POP POP POP JUMP JUMPDEST PUSH0 PUSH1 0x20 DUP3 DUP5 SUB SLT ISZERO PUSH2 0x855 JUMPI PUSH2 0x854 PUSH2 0x514 JUMP JUMPDEST JUMPDEST PUSH0 PUSH2 0x862 DUP5 DUP3 DUP6 ADD PUSH2 0x53B JUMP JUMPDEST SWAP2 POP POP SWAP3 SWAP2 POP POP JUMP JUMPDEST PUSH0 PUSH1 0x20 DUP3 ADD SWAP1 POP DUP2 DUP2 SUB PUSH0 DUP4 ADD MSTORE PUSH2 0x883 DUP2 DUP5 PUSH2 0x7D3 JUMP JUMPDEST SWAP1 POP SWAP3 SWAP2 POP POP JUMP JUMPDEST PUSH32 0x4E487B7100000000000000000000000000000000000000000000000000000000 PUSH0 MSTORE PUSH1 0x22 PUSH1 0x4 MSTORE PUSH1 0x24 PUSH0 REVERT JUMPDEST PUSH0 PUSH1 0x2 DUP3 DIV SWAP1 POP PUSH1 0x1 DUP3 AND DUP1 PUSH2 0x8CF JUMPI PUSH1 0x7F DUP3 AND SWAP2 POP JUMPDEST PUSH1 0x20 DUP3 LT DUP2 SUB PUSH2 0x8E2 JUMPI PUSH2 0x8E1 PUSH2 0x88B JUMP JUMPDEST JUMPDEST POP SWAP2 SWAP1 POP JUMP JUMPDEST PUSH0 DUP2 SWAP1 POP DUP2 PUSH0 MSTORE PUSH1 0x20 PUSH0 KECCAK256 SWAP1 POP SWAP2 SWAP1 POP JUMP JUMPDEST PUSH0 PUSH1 0x20 PUSH1 0x1F DUP4 ADD DIV SWAP1 POP SWAP2 SWAP1 POP JUMP JUMPDEST PUSH0 DUP3 DUP3 SHL SWAP1 POP SWAP3 SWAP2 POP POP JUMP JUMPDEST PUSH0 PUSH1 0x8 DUP4 MUL PUSH2 0x944 PUSH32 0xFFFFFFFFFFFFFFFFFFFFFFFFFFFFFFFFFFFFFFFFFFFFFFFFFFFFFFFFFFFFFFFF DUP3 PUSH2 0x909 JUMP JUMPDEST PUSH2 0x94E DUP7 DUP4 PUSH2 0x909 JUMP JUMPDEST SWAP6 POP DUP1 NOT DUP5 AND SWAP4 POP DUP1 DUP7 AND DUP5 OR SWAP3 POP POP POP SWAP4 SWAP3 POP POP POP JUMP JUMPDEST PUSH0 DUP2 SWAP1 POP SWAP2 SWAP1 POP JUMP JUMPDEST PUSH0 PUSH2 0x989 PUSH2 0x984 PUSH2 0x97F DUP5 PUSH2 0x51C JUMP JUMPDEST PUSH2 0x966 JUMP JUMPDEST PUSH2 0x51C JUMP JUMPDEST SWAP1 POP SWAP2 SWAP1 POP JUMP JUMPDEST PUSH0 DUP2 SWAP1 POP SWAP2 SWAP1 POP JUMP JUMPDEST PUSH2 0x9A2 DUP4 PUSH2 0x96F JUMP JUMPDEST PUSH2 0x9B6 PUSH2 0x9AE DUP3 PUSH2 0x990 JUMP JUMPDEST DUP5 DUP5 SLOAD PUSH2 0x915 JUMP JUMPDEST DUP3 SSTORE POP POP POP POP JUMP JUMPDEST PUSH0 PUSH0 SWAP1 POP SWAP1 JUMP JUMPDEST PUSH2 0x9CD PUSH2 0x9BE JUMP JUMPDEST PUSH2 0x9D8 DUP2 DUP5 DUP5 PUSH2 0x999 JUMP JUMPDEST POP POP POP JUMP JUMPDEST JUMPDEST DUP2 DUP2 LT ISZERO PUSH2 0x9FB JUMPI PUSH2 0x9F0 PUSH0 DUP3 PUSH2 0x9C5 JUMP JUMPDEST PUSH1 0x1 DUP2 ADD SWAP1 POP PUSH2 0x9DE JUMP JUMPDEST POP POP JUMP JUMPDEST PUSH1 0x1F DUP3 GT ISZERO PUSH2 0xA40 JUMPI PUSH2 0xA11 DUP2 PUSH2 0x8E8 JUMP JUMPDEST PUSH2 0xA1A DUP5 PUSH2 0x8FA JUMP JUMPDEST DUP2 ADD PUSH1 0x20 DUP6 LT ISZERO PUSH2 0xA29 JUMPI DUP2 SWAP1 POP JUMPDEST PUSH2 0xA3D PUSH2 0xA35 DUP6 PUSH2 0x8FA JUMP JUMPDEST DUP4 ADD DUP3 PUSH2 0x9DD JUMP JUMPDEST POP POP JUMPDEST POP POP POP JUMP JUMPDEST PUSH0 DUP3 DUP3 SHR SWAP1 POP SWAP3 SWAP2 POP POP JUMP JUMPDEST PUSH0 PUSH2 0xA60 PUSH0 NOT DUP5 PUSH1 0x8 MUL PUSH2 0xA45 JUMP JUMPDEST NOT DUP1 DUP4 AND SWAP2 POP POP SWAP3 SWAP2 POP POP JUMP JUMPDEST PUSH0 PUSH2 0xA78 DUP4 DUP4 PUSH2 0xA51 JUMP JUMPDEST SWAP2 POP DUP3 PUSH1 0x2 MUL DUP3 OR SWAP1 POP SWAP3 SWAP2 POP POP JUMP JUMPDEST PUSH2 0xA91 DUP3 PUSH2 0x7AB JUMP JUMPDEST PUSH8 0xFFFFFFFFFFFFFFFF DUP2 GT ISZERO PUSH2 0xAAA JUMPI PUSH2 0xAA9 PUSH2 0x567 JUMP JUMPDEST JUMPDEST PUSH2 0xAB4 DUP3 SLOAD PUSH2 0x8B8 JUMP JUMPDEST PUSH2 0xABF DUP3 DUP3 DUP6 PUSH2 0x9FF JUMP JUMPDEST PUSH0 PUSH1 0x20 SWAP1 POP PUSH1 0x1F DUP4 GT PUSH1 0x1 DUP2 EQ PUSH2 0xAF0 JUMPI PUSH0 DUP5 ISZERO PUSH2 0xADE JUMPI DUP3 DUP8 ADD MLOAD SWAP1 POP JUMPDEST PUSH2 0xAE8 DUP6 DUP3 PUSH2 0xA6D JUMP JUMPDEST DUP7 SSTORE POP PUSH2 0xB4F JUMP JUMPDEST PUSH1 0x1F NOT DUP5 AND PUSH2 0xAFE DUP7 PUSH2 0x8E8 JUMP JUMPDEST PUSH0 JUMPDEST DUP3 DUP2 LT ISZERO PUSH2 0xB25 JUMPI DUP5 DUP10 ADD MLOAD DUP3 SSTORE PUSH1 0x1 DUP3 ADD SWAP2 POP PUSH1 0x20 DUP6 ADD SWAP5 POP PUSH1 0x20 DUP2 ADD SWAP1 POP PUSH2 0xB00 JUMP JUMPDEST DUP7 DUP4 LT ISZERO PUSH2 0xB42 JUMPI DUP5 DUP10 ADD MLOAD PUSH2 0xB3E PUSH1 0x1F DUP10 AND DUP3 PUSH2 0xA51 JUMP JUMPDEST DUP4 SSTORE POP JUMPDEST PUSH1 0x1 PUSH1 0x2 DUP9 MUL ADD DUP9 SSTORE POP POP POP JUMPDEST POP POP POP POP POP POP JUMP INVALID LOG2 PUSH5 0x6970667358 0x22 SLT KECCAK256 PUSH22 0x37C60728D3B6CDC695C47FC3DDE11B3CCEA43580ED7 NOT EXTDELEGATECALL MCOPY PUSH16 0x5B7691273464736F6C634300081E0033 "
		},
		"gasEstimates": {
			"creation": {
				"codeDepositCost": "591400",
				"executionCost": "infinite",
				"totalCost": "infinite"
			},
			"external": {
				"addBook(uint256,string,string)": "infinite",
				"addMyBook(uint256,string,string)": "infinite",
				"books(uint256)": "infinite",
				"myBooks(address,uint256)": "infinite",
				"names(uint256)": "infinite"
			}
		},
		"methodIdentifiers": {
			"addBook(uint256,string,string)": "028414f2",
			"addMyBook(uint256,string,string)": "493ec707",
			"books(uint256)": "68744046",
			"myBooks(address,uint256)": "27d3553f",
			"names(uint256)": "4622ab03"
		}
	},
	"abi": [
		{
			"inputs": [],
			"stateMutability": "nonpayable",
			"type": "constructor"
		},
		{
			"inputs": [
				{
					"internalType": "uint256",
					"name": "_id",
					"type": "uint256"
				},
				{
					"internalType": "string",
					"name": "_title",
					"type": "string"
				},
				{
					"internalType": "string",
					"name": "_author",
					"type": "string"
				}
			],
			"name": "addBook",
			"outputs": [],
			"stateMutability": "nonpayable",
			"type": "function"
		},
		{
			"inputs": [
				{
					"internalType": "uint256",
					"name": "_id",
					"type": "uint256"
				},
				{
					"internalType": "string",
					"name": "_title",
					"type": "string"
				},
				{
					"internalType": "string",
					"name": "_author",
					"type": "string"
				}
			],
			"name": "addMyBook",
			"outputs": [],
			"stateMutability": "nonpayable",
			"type": "function"
		},
		{
			"inputs": [
				{
					"internalType": "uint256",
					"name": "",
					"type": "uint256"
				}
			],
			"name": "books",
			"outputs": [
				{
					"internalType": "string",
					"name": "title",
					"type": "string"
				},
				{
					"internalType": "string",
					"name": "author",
					"type": "string"
				}
			],
			"stateMutability": "view",
			"type": "function"
		},
		{
			"inputs": [
				{
					"internalType": "address",
					"name": "",
					"type": "address"
				},
				{
					"internalType": "uint256",
					"name": "",
					"type": "uint256"
				}
			],
			"name": "myBooks",
			"outputs": [
				{
					"internalType": "string",
					"name": "title",
					"type": "string"
				},
				{
					"internalType": "string",
					"name": "author",
					"type": "string"
				}
			],
			"stateMutability": "view",
			"type": "function"
		},
		{
			"inputs": [
				{
					"internalType": "uint256",
					"name": "",
					"type": "uint256"
				}
			],
			"name": "names",
			"outputs": [
				{
					"internalType": "string",
					"name": "",
					"type": "string"
				}
			],
			"stateMutability": "view",
			"type": "function"
		}
	]
}