{
	"data": {
		"bytecode": {
			"linkReferences": {},
			"object": "608060405260015f5560018055600160025f6101000a81548160ff021916908360ff1602179055506040518060400160405280600a81526020017f68656c6c6f576f726c64000000000000000000000000000000000000000000008152506003908161006b919061039f565b507f68736479747968770000000000000000000000000000000000000000000000006004557379b3d67c3448799d511b847eeb1dce8294d43ef060055f6101000a81548173ffffffffffffffffffffffffffffffffffffffff021916908373ffffffffffffffffffffffffffffffffffffffff1602179055506040518060400160405280600181526020016040518060400160405280600a81526020017f68656c6f20776f726c640000000000000000000000000000000000000000000081525081525060065f820151815f0155602082015181600101908161014e919061039f565b50505034801561015c575f5ffd5b5061046e565b5f81519050919050565b7f4e487b71000000000000000000000000000000000000000000000000000000005f52604160045260245ffd5b7f4e487b71000000000000000000000000000000000000000000000000000000005f52602260045260245ffd5b5f60028204905060018216806101dd57607f821691505b6020821081036101f0576101ef610199565b5b50919050565b5f819050815f5260205f209050919050565b5f6020601f8301049050919050565b5f82821b905092915050565b5f600883026102527fffffffffffffffffffffffffffffffffffffffffffffffffffffffffffffffff82610217565b61025c8683610217565b95508019841693508086168417925050509392505050565b5f819050919050565b5f819050919050565b5f6102a061029b61029684610274565b61027d565b610274565b9050919050565b5f819050919050565b6102b983610286565b6102cd6102c5826102a7565b848454610223565b825550505050565b5f5f905090565b6102e46102d5565b6102ef8184846102b0565b505050565b5b81811015610312576103075f826102dc565b6001810190506102f5565b5050565b601f82111561035757610328816101f6565b61033184610208565b81016020851015610340578190505b61035461034c85610208565b8301826102f4565b50505b505050565b5f82821c905092915050565b5f6103775f198460080261035c565b1980831691505092915050565b5f61038f8383610368565b9150826002028217905092915050565b6103a882610162565b67ffffffffffffffff8111156103c1576103c061016c565b5b6103cb82546101c6565b6103d6828285610316565b5f60209050601f831160018114610407575f84156103f5578287015190505b6103ff8582610384565b865550610466565b601f198416610415866101f6565b5f5b8281101561043c57848901518255600182019150602085019450602081019050610417565b868310156104595784890151610455601f891682610368565b8355505b6001600288020188555050505b505050505050565b6105638061047b5f395ff3fe608060405234801561000f575f5ffd5b5060043610610086575f3560e01c80633c47361f116100595780633c47361f14610102578063492bfa18146101205780638bc9fe6c1461013e578063e2a4b2af1461015d57610086565b806306540f7e1461008a57806320965255146100a857806326b85ee1146100c65780632cb777a6146100e4575b5f5ffd5b61009261017b565b60405161009f919061030b565b60405180910390f35b6100b0610181565b6040516100bd919061030b565b60405180910390f35b6100ce61018e565b6040516100db9190610363565b60405180910390f35b6100ec6101b3565b6040516100f99190610394565b60405180910390f35b61010a6101b8565b60405161011791906103c5565b60405180910390f35b6101286101be565b604051610135919061044e565b60405180910390f35b61014661024a565b60405161015492919061046e565b60405180910390f35b6101656102e1565b60405161017291906104b7565b60405180910390f35b60015481565b5f5f600190508091505090565b60055f9054906101000a900473ffffffffffffffffffffffffffffffffffffffff1681565b5f5481565b60045481565b600380546101cb906104fd565b80601f01602080910402602001604051908101604052809291908181526020018280546101f7906104fd565b80156102425780601f1061021957610100808354040283529160200191610242565b820191905f5260205f20905b81548152906001019060200180831161022557829003601f168201915b505050505081565b6006805f015490806001018054610260906104fd565b80601f016020809104026020016040519081016040528092919081815260200182805461028c906104fd565b80156102d75780601f106102ae576101008083540402835291602001916102d7565b820191905f5260205f20905b8154815290600101906020018083116102ba57829003601f168201915b5050505050905082565b60025f9054906101000a900460ff1681565b5f819050919050565b610305816102f3565b82525050565b5f60208201905061031e5f8301846102fc565b92915050565b5f73ffffffffffffffffffffffffffffffffffffffff82169050919050565b5f61034d82610324565b9050919050565b61035d81610343565b82525050565b5f6020820190506103765f830184610354565b92915050565b5f819050919050565b61038e8161037c565b82525050565b5f6020820190506103a75f830184610385565b92915050565b5f819050919050565b6103bf816103ad565b82525050565b5f6020820190506103d85f8301846103b6565b92915050565b5f81519050919050565b5f82825260208201905092915050565b8281835e5f83830152505050565b5f601f19601f8301169050919050565b5f610420826103de565b61042a81856103e8565b935061043a8185602086016103f8565b61044381610406565b840191505092915050565b5f6020820190508181035f8301526104668184610416565b905092915050565b5f6040820190506104815f8301856102fc565b81810360208301526104938184610416565b90509392505050565b5f60ff82169050919050565b6104b18161049c565b82525050565b5f6020820190506104ca5f8301846104a8565b92915050565b7f4e487b71000000000000000000000000000000000000000000000000000000005f52602260045260245ffd5b5f600282049050600182168061051457607f821691505b602082108103610527576105266104d0565b5b5091905056fea2646970667358221220340ad216179966d1deeaa5f35aeada6cec21b12a9b80a533fb30e1eeb9e6c47e64736f6c634300081e0033",
			"opcodes": "PUSH1 0x80 PUSH1 0x40 MSTORE PUSH1 0x1 PUSH0 SSTORE PUSH1 0x1 DUP1 SSTORE PUSH1 0x1 PUSH1 0x2 PUSH0 PUSH2 0x100 EXP DUP2 SLOAD DUP2 PUSH1 0xFF MUL NOT AND SWAP1 DUP4 PUSH1 0xFF AND MUL OR SWAP1 SSTORE POP PUSH1 0x40 MLOAD DUP1 PUSH1 0x40 ADD PUSH1 0x40 MSTORE DUP1 PUSH1 0xA DUP2 MSTORE PUSH1 0x20 ADD PUSH32 0x68656C6C6F576F726C6400000000000000000000000000000000000000000000 DUP2 MSTORE POP PUSH1 0x3 SWAP1 DUP2 PUSH2 0x6B SWAP2 SWAP1 PUSH2 0x39F JUMP JUMPDEST POP PUSH32 0x6873647974796877000000000000000000000000000000000000000000000000 PUSH1 0x4 SSTORE PUSH20 0x79B3D67C3448799D511B847EEB1DCE8294D43EF0 PUSH1 0x5 PUSH0 PUSH2 0x100 EXP DUP2 SLOAD DUP2 PUSH20 0xFFFFFFFFFFFFFFFFFFFFFFFFFFFFFFFFFFFFFFFF MUL NOT AND SWAP1 DUP4 PUSH20 0xFFFFFFFFFFFFFFFFFFFFFFFFFFFFFFFFFFFFFFFF AND MUL OR SWAP1 SSTORE POP PUSH1 0x40 MLOAD DUP1 PUSH1 0x40 ADD PUSH1 0x40 MSTORE DUP1 PUSH1 0x1 DUP2 MSTORE PUSH1 0x20 ADD PUSH1 0x40 MLOAD DUP1 PUSH1 0x40 ADD PUSH1 0x40 MSTORE DUP1 PUSH1 0xA DUP2 MSTORE PUSH1 0x20 ADD PUSH32 0x68656C6F20776F726C6400000000000000000000000000000000000000000000 DUP2 MSTORE POP DUP2 MSTORE POP PUSH1 0x6 PUSH0 DUP3 ADD MLOAD DUP2 PUSH0 ADD SSTORE PUSH1 0x20 DUP3 ADD MLOAD DUP2 PUSH1 0x1 ADD SWAP1 DUP2 PUSH2 0x14E SWAP2 SWAP1 PUSH2 0x39F JUMP JUMPDEST POP POP POP CALLVALUE DUP1 ISZERO PUSH2 0x15C JUMPI PUSH0 PUSH0 REVERT JUMPDEST POP PUSH2 0x46E JUMP JUMPDEST PUSH0 DUP2 MLOAD SWAP1 POP SWAP2 SWAP1 POP JUMP JUMPDEST PUSH32 0x4E487B7100000000000000000000000000000000000000000000000000000000 PUSH0 MSTORE PUSH1 0x41 PUSH1 0x4 MSTORE PUSH1 0x24 PUSH0 REVERT JUMPDEST PUSH32 0x4E487B7100000000000000000000000000000000000000000000000000000000 PUSH0 MSTORE PUSH1 0x22 PUSH1 0x4 MSTORE PUSH1 0x24 PUSH0 REVERT JUMPDEST PUSH0 PUSH1 0x2 DUP3 DIV SWAP1 POP PUSH1 0x1 DUP3 AND DUP1 PUSH2 0x1DD JUMPI PUSH1 0x7F DUP3 AND SWAP2 POP JUMPDEST PUSH1 0x20 DUP3 LT DUP2 SUB PUSH2 0x1F0 JUMPI PUSH2 0x1EF PUSH2 0x199 JUMP JUMPDEST JUMPDEST POP SWAP2 SWAP1 POP JUMP JUMPDEST PUSH0 DUP2 SWAP1 POP DUP2 PUSH0 MSTORE PUSH1 0x20 PUSH0 KECCAK256 SWAP1 POP SWAP2 SWAP1 POP JUMP JUMPDEST PUSH0 PUSH1 0x20 PUSH1 0x1F DUP4 ADD DIV SWAP1 POP SWAP2 SWAP1 POP JUMP JUMPDEST PUSH0 DUP3 DUP3 SHL SWAP1 POP SWAP3 SWAP2 POP POP JUMP JUMPDEST PUSH0 PUSH1 0x8 DUP4 MUL PUSH2 0x252 PUSH32 0xFFFFFFFFFFFFFFFFFFFFFFFFFFFFFFFFFFFFFFFFFFFFFFFFFFFFFFFFFFFFFFFF DUP3 PUSH2 0x217 JUMP JUMPDEST PUSH2 0x25C DUP7 DUP4 PUSH2 0x217 JUMP JUMPDEST SWAP6 POP DUP1 NOT DUP5 AND SWAP4 POP DUP1 DUP7 AND DUP5 OR SWAP3 POP POP POP SWAP4 SWAP3 POP POP POP JUMP JUMPDEST PUSH0 DUP2 SWAP1 POP SWAP2 SWAP1 POP JUMP JUMPDEST PUSH0 DUP2 SWAP1 POP SWAP2 SWAP1 POP JUMP JUMPDEST PUSH0 PUSH2 0x2A0 PUSH2 0x29B PUSH2 0x296 DUP5 PUSH2 0x274 JUMP JUMPDEST PUSH2 0x27D JUMP JUMPDEST PUSH2 0x274 JUMP JUMPDEST SWAP1 POP SWAP2 SWAP1 POP JUMP JUMPDEST PUSH0 DUP2 SWAP1 POP SWAP2 SWAP1 POP JUMP JUMPDEST PUSH2 0x2B9 DUP4 PUSH2 0x286 JUMP JUMPDEST PUSH2 0x2CD PUSH2 0x2C5 DUP3 PUSH2 0x2A7 JUMP JUMPDEST DUP5 DUP5 SLOAD PUSH2 0x223 JUMP JUMPDEST DUP3 SSTORE POP POP POP POP JUMP JUMPDEST PUSH0 PUSH0 SWAP1 POP SWAP1 JUMP JUMPDEST PUSH2 0x2E4 PUSH2 0x2D5 JUMP JUMPDEST PUSH2 0x2EF DUP2 DUP5 DUP5 PUSH2 0x2B0 JUMP JUMPDEST POP POP POP JUMP JUMPDEST JUMPDEST DUP2 DUP2 LT ISZERO PUSH2 0x312 JUMPI PUSH2 0x307 PUSH0 DUP3 PUSH2 0x2DC JUMP JUMPDEST PUSH1 0x1 DUP2 ADD SWAP1 POP PUSH2 0x2F5 JUMP JUMPDEST POP POP JUMP JUMPDEST PUSH1 0x1F DUP3 GT ISZERO PUSH2 0x357 JUMPI PUSH2 0x328 DUP2 PUSH2 0x1F6 JUMP JUMPDEST PUSH2 0x331 DUP5 PUSH2 0x208 JUMP JUMPDEST DUP2 ADD PUSH1 0x20 DUP6 LT ISZERO PUSH2 0x340 JUMPI DUP2 SWAP1 POP JUMPDEST PUSH2 0x354 PUSH2 0x34C DUP6 PUSH2 0x208 JUMP JUMPDEST DUP4 ADD DUP3 PUSH2 0x2F4 JUMP JUMPDEST POP POP JUMPDEST POP POP POP JUMP JUMPDEST PUSH0 DUP3 DUP3 SHR SWAP1 POP SWAP3 SWAP2 POP POP JUMP JUMPDEST PUSH0 PUSH2 0x377 PUSH0 NOT DUP5 PUSH1 0x8 MUL PUSH2 0x35C JUMP JUMPDEST NOT DUP1 DUP4 AND SWAP2 POP POP SWAP3 SWAP2 POP POP JUMP JUMPDEST PUSH0 PUSH2 0x38F DUP4 DUP4 PUSH2 0x368 JUMP JUMPDEST SWAP2 POP DUP3 PUSH1 0x2 MUL DUP3 OR SWAP1 POP SWAP3 SWAP2 POP POP JUMP JUMPDEST PUSH2 0x3A8 DUP3 PUSH2 0x162 JUMP JUMPDEST PUSH8 0xFFFFFFFFFFFFFFFF DUP2 GT ISZERO PUSH2 0x3C1 JUMPI PUSH2 0x3C0 PUSH2 0x16C JUMP JUMPDEST JUMPDEST PUSH2 0x3CB DUP3 SLOAD PUSH2 0x1C6 JUMP JUMPDEST PUSH2 0x3D6 DUP3 DUP3 DUP6 PUSH2 0x316 JUMP JUMPDEST PUSH0 PUSH1 0x20 SWAP1 POP PUSH1 0x1F DUP4 GT PUSH1 0x1 DUP2 EQ PUSH2 0x407 JUMPI PUSH0 DUP5 ISZERO PUSH2 0x3F5 JUMPI DUP3 DUP8 ADD MLOAD SWAP1 POP JUMPDEST PUSH2 0x3FF DUP6 DUP3 PUSH2 0x384 JUMP JUMPDEST DUP7 SSTORE POP PUSH2 0x466 JUMP JUMPDEST PUSH1 0x1F NOT DUP5 AND PUSH2 0x415 DUP7 PUSH2 0x1F6 JUMP JUMPDEST PUSH0 JUMPDEST DUP3 DUP2 LT ISZERO PUSH2 0x43C JUMPI DUP5 DUP10 ADD MLOAD DUP3 SSTORE PUSH1 0x1 DUP3 ADD SWAP2 POP PUSH1 0x20 DUP6 ADD SWAP5 POP PUSH1 0x20 DUP2 ADD SWAP1 POP PUSH2 0x417 JUMP JUMPDEST DUP7 DUP4 LT ISZERO PUSH2 0x459 JUMPI DUP5 DUP10 ADD MLOAD PUSH2 0x455 PUSH1 0x1F DUP10 AND DUP3 PUSH2 0x368 JUMP JUMPDEST DUP4 SSTORE POP JUMPDEST PUSH1 0x1 PUSH1 0x2 DUP9 MUL ADD DUP9 SSTORE POP POP POP JUMPDEST POP POP POP POP POP POP JUMP JUMPDEST PUSH2 0x563 DUP1 PUSH2 0x47B PUSH0 CODECOPY PUSH0 RETURN INVALID PUSH1 0x80 PUSH1 0x40 MSTORE CALLVALUE DUP1 ISZERO PUSH2 0xF JUMPI PUSH0 PUSH0 REVERT JUMPDEST POP PUSH1 0x4 CALLDATASIZE LT PUSH2 0x86 JUMPI PUSH0 CALLDATALOAD PUSH1 0xE0 SHR DUP1 PUSH4 0x3C47361F GT PUSH2 0x59 JUMPI DUP1 PUSH4 0x3C47361F EQ PUSH2 0x102 JUMPI DUP1 PUSH4 0x492BFA18 EQ PUSH2 0x120 JUMPI DUP1 PUSH4 0x8BC9FE6C EQ PUSH2 0x13E JUMPI DUP1 PUSH4 0xE2A4B2AF EQ PUSH2 0x15D JUMPI PUSH2 0x86 JUMP JUMPDEST DUP1 PUSH4 0x6540F7E EQ PUSH2 0x8A JUMPI DUP1 PUSH4 0x20965255 EQ PUSH2 0xA8 JUMPI DUP1 PUSH4 0x26B85EE1 EQ PUSH2 0xC6 JUMPI DUP1 PUSH4 0x2CB777A6 EQ PUSH2 0xE4 JUMPI JUMPDEST PUSH0 PUSH0 REVERT JUMPDEST PUSH2 0x92 PUSH2 0x17B JUMP JUMPDEST PUSH1 0x40 MLOAD PUSH2 0x9F SWAP2 SWAP1 PUSH2 0x30B JUMP JUMPDEST PUSH1 0x40 MLOAD DUP1 SWAP2 SUB SWAP1 RETURN JUMPDEST PUSH2 0xB0 PUSH2 0x181 JUMP JUMPDEST PUSH1 0x40 MLOAD PUSH2 0xBD SWAP2 SWAP1 PUSH2 0x30B JUMP JUMPDEST PUSH1 0x40 MLOAD DUP1 SWAP2 SUB SWAP1 RETURN JUMPDEST PUSH2 0xCE PUSH2 0x18E JUMP JUMPDEST PUSH1 0x40 MLOAD PUSH2 0xDB SWAP2 SWAP1 PUSH2 0x363 JUMP JUMPDEST PUSH1 0x40 MLOAD DUP1 SWAP2 SUB SWAP1 RETURN JUMPDEST PUSH2 0xEC PUSH2 0x1B3 JUMP JUMPDEST PUSH1 0x40 MLOAD PUSH2 0xF9 SWAP2 SWAP1 PUSH2 0x394 JUMP JUMPDEST PUSH1 0x40 MLOAD DUP1 SWAP2 SUB SWAP1 RETURN JUMPDEST PUSH2 0x10A PUSH2 0x1B8 JUMP JUMPDEST PUSH1 0x40 MLOAD PUSH2 0x117 SWAP2 SWAP1 PUSH2 0x3C5 JUMP JUMPDEST PUSH1 0x40 MLOAD DUP1 SWAP2 SUB SWAP1 RETURN JUMPDEST PUSH2 0x128 PUSH2 0x1BE JUMP JUMPDEST PUSH1 0x40 MLOAD PUSH2 0x135 SWAP2 SWAP1 PUSH2 0x44E JUMP JUMPDEST PUSH1 0x40 MLOAD DUP1 SWAP2 SUB SWAP1 RETURN JUMPDEST PUSH2 0x146 PUSH2 0x24A JUMP JUMPDEST PUSH1 0x40 MLOAD PUSH2 0x154 SWAP3 SWAP2 SWAP1 PUSH2 0x46E JUMP JUMPDEST PUSH1 0x40 MLOAD DUP1 SWAP2 SUB SWAP1 RETURN JUMPDEST PUSH2 0x165 PUSH2 0x2E1 JUMP JUMPDEST PUSH1 0x40 MLOAD PUSH2 0x172 SWAP2 SWAP1 PUSH2 0x4B7 JUMP JUMPDEST PUSH1 0x40 MLOAD DUP1 SWAP2 SUB SWAP1 RETURN JUMPDEST PUSH1 0x1 SLOAD DUP2 JUMP JUMPDEST PUSH0 PUSH0 PUSH1 0x1 SWAP1 POP DUP1 SWAP2 POP POP SWAP1 JUMP JUMPDEST PUSH1 0x5 PUSH0 SWAP1 SLOAD SWAP1 PUSH2 0x100 EXP SWAP1 DIV PUSH20 0xFFFFFFFFFFFFFFFFFFFFFFFFFFFFFFFFFFFFFFFF AND DUP2 JUMP JUMPDEST PUSH0 SLOAD DUP2 JUMP JUMPDEST PUSH1 0x4 SLOAD DUP2 JUMP JUMPDEST PUSH1 0x3 DUP1 SLOAD PUSH2 0x1CB SWAP1 PUSH2 0x4FD JUMP JUMPDEST DUP1 PUSH1 0x1F ADD PUSH1 0x20 DUP1 SWAP2 DIV MUL PUSH1 0x20 ADD PUSH1 0x40 MLOAD SWAP1 DUP2 ADD PUSH1 0x40 MSTORE DUP1 SWAP3 SWAP2 SWAP1 DUP2 DUP2 MSTORE PUSH1 0x20 ADD DUP3 DUP1 SLOAD PUSH2 0x1F7 SWAP1 PUSH2 0x4FD JUMP JUMPDEST DUP1 ISZERO PUSH2 0x242 JUMPI DUP1 PUSH1 0x1F LT PUSH2 0x219 JUMPI PUSH2 0x100 DUP1 DUP4 SLOAD DIV MUL DUP4 MSTORE SWAP2 PUSH1 0x20 ADD SWAP2 PUSH2 0x242 JUMP JUMPDEST DUP3 ADD SWAP2 SWAP1 PUSH0 MSTORE PUSH1 0x20 PUSH0 KECCAK256 SWAP1 JUMPDEST DUP2 SLOAD DUP2 MSTORE SWAP1 PUSH1 0x1 ADD SWAP1 PUSH1 0x20 ADD DUP1 DUP4 GT PUSH2 0x225 JUMPI DUP3 SWAP1 SUB PUSH1 0x1F AND DUP3 ADD SWAP2 JUMPDEST POP POP POP POP POP DUP2 JUMP JUMPDEST PUSH1 0x6 DUP1 PUSH0 ADD SLOAD SWAP1 DUP1 PUSH1 0x1 ADD DUP1 SLOAD PUSH2 0x260 SWAP1 PUSH2 0x4FD JUMP JUMPDEST DUP1 PUSH1 0x1F ADD PUSH1 0x20 DUP1 SWAP2 DIV MUL PUSH1 0x20 ADD PUSH1 0x40 MLOAD SWAP1 DUP2 ADD PUSH1 0x40 MSTORE DUP1 SWAP3 SWAP2 SWAP1 DUP2 DUP2 MSTORE PUSH1 0x20 ADD DUP3 DUP1 SLOAD PUSH2 0x28C SWAP1 PUSH2 0x4FD JUMP JUMPDEST DUP1 ISZERO PUSH2 0x2D7 JUMPI DUP1 PUSH1 0x1F LT PUSH2 0x2AE JUMPI PUSH2 0x100 DUP1 DUP4 SLOAD DIV MUL DUP4 MSTORE SWAP2 PUSH1 0x20 ADD SWAP2 PUSH2 0x2D7 JUMP JUMPDEST DUP3 ADD SWAP2 SWAP1 PUSH0 MSTORE PUSH1 0x20 PUSH0 KECCAK256 SWAP1 JUMPDEST DUP2 SLOAD DUP2 MSTORE SWAP1 PUSH1 0x1 ADD SWAP1 PUSH1 0x20 ADD DUP1 DUP4 GT PUSH2 0x2BA JUMPI DUP3 SWAP1 SUB PUSH1 0x1F AND DUP3 ADD SWAP2 JUMPDEST POP POP POP POP POP SWAP1 POP DUP3 JUMP JUMPDEST PUSH1 0x2 PUSH0 SWAP1 SLOAD SWAP1 PUSH2 0x100 EXP SWAP1 DIV PUSH1 0xFF AND DUP2 JUMP JUMPDEST PUSH0 DUP2 SWAP1 POP SWAP2 SWAP1 POP JUMP JUMPDEST PUSH2 0x305 DUP2 PUSH2 0x2F3 JUMP JUMPDEST DUP3 MSTORE POP POP JUMP JUMPDEST PUSH0 PUSH1 0x20 DUP3 ADD SWAP1 POP PUSH2 0x31E PUSH0 DUP4 ADD DUP5 PUSH2 0x2FC JUMP JUMPDEST SWAP3 SWAP2 POP POP JUMP JUMPDEST PUSH0 PUSH20 0xFFFFFFFFFFFFFFFFFFFFFFFFFFFFFFFFFFFFFFFF DUP3 AND SWAP1 POP SWAP2 SWAP1 POP JUMP JUMPDEST PUSH0 PUSH2 0x34D DUP3 PUSH2 0x324 JUMP JUMPDEST SWAP1 POP SWAP2 SWAP1 POP JUMP JUMPDEST PUSH2 0x35D DUP2 PUSH2 0x343 JUMP JUMPDEST DUP3 MSTORE POP POP JUMP JUMPDEST PUSH0 PUSH1 0x20 DUP3 ADD SWAP1 POP PUSH2 0x376 PUSH0 DUP4 ADD DUP5 PUSH2 0x354 JUMP JUMPDEST SWAP3 SWAP2 POP POP JUMP JUMPDEST PUSH0 DUP2 SWAP1 POP SWAP2 SWAP1 POP JUMP JUMPDEST PUSH2 0x38E DUP2 PUSH2 0x37C JUMP JUMPDEST DUP3 MSTORE POP POP JUMP JUMPDEST PUSH0 PUSH1 0x20 DUP3 ADD SWAP1 POP PUSH2 0x3A7 PUSH0 DUP4 ADD DUP5 PUSH2 0x385 JUMP JUMPDEST SWAP3 SWAP2 POP POP JUMP JUMPDEST PUSH0 DUP2 SWAP1 POP SWAP2 SWAP1 POP JUMP JUMPDEST PUSH2 0x3BF DUP2 PUSH2 0x3AD JUMP JUMPDEST DUP3 MSTORE POP POP JUMP JUMPDEST PUSH0 PUSH1 0x20 DUP3 ADD SWAP1 POP PUSH2 0x3D8 PUSH0 DUP4 ADD DUP5 PUSH2 0x3B6 JUMP JUMPDEST SWAP3 SWAP2 POP POP JUMP JUMPDEST PUSH0 DUP2 MLOAD SWAP1 POP SWAP2 SWAP1 POP JUMP JUMPDEST PUSH0 DUP3 DUP3 MSTORE PUSH1 0x20 DUP3 ADD SWAP1 POP SWAP3 SWAP2 POP POP JUMP JUMPDEST DUP3 DUP2 DUP4 MCOPY PUSH0 DUP4 DUP4 ADD MSTORE POP POP POP JUMP JUMPDEST PUSH0 PUSH1 0x1F NOT PUSH1 0x1F DUP4 ADD AND SWAP1 POP SWAP2 SWAP1 POP JUMP JUMPDEST PUSH0 PUSH2 0x420 DUP3 PUSH2 0x3DE JUMP JUMPDEST PUSH2 0x42A DUP2 DUP6 PUSH2 0x3E8 JUMP JUMPDEST SWAP4 POP PUSH2 0x43A DUP2 DUP6 PUSH1 0x20 DUP7 ADD PUSH2 0x3F8 JUMP JUMPDEST PUSH2 0x443 DUP2 PUSH2 0x406 JUMP JUMPDEST DUP5 ADD SWAP2 POP POP SWAP3 SWAP2 POP POP JUMP JUMPDEST PUSH0 PUSH1 0x20 DUP3 ADD SWAP1 POP DUP2 DUP2 SUB PUSH0 DUP4 ADD MSTORE PUSH2 0x466 DUP2 DUP5 PUSH2 0x416 JUMP JUMPDEST SWAP1 POP SWAP3 SWAP2 POP POP JUMP JUMPDEST PUSH0 PUSH1 0x40 DUP3 ADD SWAP1 POP PUSH2 0x481 PUSH0 DUP4 ADD DUP6 PUSH2 0x2FC JUMP JUMPDEST DUP2 DUP2 SUB PUSH1 0x20 DUP4 ADD MSTORE PUSH2 0x493 DUP2 DUP5 PUSH2 0x416 JUMP JUMPDEST SWAP1 POP SWAP4 SWAP3 POP POP POP JUMP JUMPDEST PUSH0 PUSH1 0xFF DUP3 AND SWAP1 POP SWAP2 SWAP1 POP JUMP JUMPDEST PUSH2 0x4B1 DUP2 PUSH2 0x49C JUMP JUMPDEST DUP3 MSTORE POP POP JUMP JUMPDEST PUSH0 PUSH1 0x20 DUP3 ADD SWAP1 POP PUSH2 0x4CA PUSH0 DUP4 ADD DUP5 PUSH2 0x4A8 JUMP JUMPDEST SWAP3 SWAP2 POP POP JUMP JUMPDEST PUSH32 0x4E487B7100000000000000000000000000000000000000000000000000000000 PUSH0 MSTORE PUSH1 0x22 PUSH1 0x4 MSTORE PUSH1 0x24 PUSH0 REVERT JUMPDEST PUSH0 PUSH1 0x2 DUP3 DIV SWAP1 POP PUSH1 0x1 DUP3 AND DUP1 PUSH2 0x514 JUMPI PUSH1 0x7F DUP3 AND SWAP2 POP JUMPDEST PUSH1 0x20 DUP3 LT DUP2 SUB PUSH2 0x527 JUMPI PUSH2 0x526 PUSH2 0x4D0 JUMP JUMPDEST JUMPDEST POP SWAP2 SWAP1 POP JUMP INVALID LOG2 PUSH5 0x6970667358 0x22 SLT KECCAK256 CALLVALUE EXP 0xD2 AND OR SWAP10 PUSH7 0xD1DEEAA5F35AEA 0xDA PUSH13 0xEC21B12A9B80A533FB30E1EEB9 DUPN 0xC4 PUSH31 0x64736F6C634300081E00330000000000000000000000000000000000000000 "
		},
		"gasEstimates": {
			"creation": {
				"codeDepositCost": "275800",
				"executionCost": "infinite",
				"totalCost": "infinite"
			},
			"external": {
				"getValue()": "367",
				"myAddress()": "2553",
				"myByte32()": "2425",
				"myInt()": "2491",
				"myString()": "infinite",
				"myStruct()": "infinite",
				"myUint()": "2426",
				"myUint8()": "2532"
			}
		},
		"methodIdentifiers": {
			"getValue()": "20965255",
			"myAddress()": "26b85ee1",
			"myByte32()": "3c47361f",
			"myInt()": "2cb777a6",
			"myString()": "492bfa18",
			"myStruct()": "8bc9fe6c",
			"myUint()": "06540f7e",
			"myUint8()": "e2a4b2af"
		}
	},
	"abi": [
		{
			"inputs": [],
			"name": "getValue",
			"outputs": [
				{
					"internalType": "uint256",
					"name": "",
					"type": "uint256"
				}
			],
			"stateMutability": "pure",
			"type": "function"
		},
		{
			"inputs": [],
			"name": "myAddress",
			"outputs": [
				{
					"internalType": "address",
					"name": "",
					"type": "address"
				}
			],
			"stateMutability": "view",
			"type": "function"
		},
		{
			"inputs": [],
			"name": "myByte32",
			"outputs": [
				{
					"internalType": "bytes32",
					"name": "",
					"type": "bytes32"
				}
			],
			"stateMutability": "view",
			"type": "function"
		},
		{
			"inputs": [],
			"name": "myInt",
			"outputs": [
				{
					"internalType": "int256",
					"name": "",
					"type": "int256"
				}
			],
			"stateMutability": "view",
			"type": "function"
		},
		{
			"inputs": [],
			"name": "myString",
			"outputs": [
				{
					"internalType": "string",
					"name": "",
					"type": "string"
				}
			],
			"stateMutability": "view",
			"type": "function"
		},
		{
			"inputs": [],
			"name": "myStruct",
			"outputs": [
				{
					"internalType": "uint256",
					"name": "myUint",
					"type": "uint256"
				},
				{
					"internalType": "string",
					"name": "myString",
					"type": "string"
				}
			],
			"stateMutability": "view",
			"type": "function"
		},
		{
			"inputs": [],
			"name": "myUint",
			"outputs": [
				{
					"internalType": "uint256",
					"name": "",
					"type": "uint256"
				}
			],
			"stateMutability": "view",
			"type": "function"
		},
		{
			"inputs": [],
			"name": "myUint8",
			"outputs": [
				{
					"internalType": "uint8",
					"name": "",
					"type": "uint8"
				}
			],
			"stateMutability": "view",
			"type": "function"
		}
	]
}